:020000040800F2
:1000000000000220EDA50008212300082D23000890
:1000100033230008392300083F23000800000000B4
:100020000000000000000000000000004523000860
:1000300051230008000000005D2300086923000828
:100040003DA600083DA600083DA600083DA6000804
:100050003DA600083DA600083DA600083DA60008F4
:100060003DA600083DA600083DA60008752300082F
:10007000892300083DA600089D2300083DA600082E
:10008000B12300083DA600083DA6000800000000BE
:100090000000000000000000000000003DA6000875
:1000A0003DA600083DA600083DA600083DA60008A4
:1000B0003DA600083DA600083DA600083DA6000894
:1000C0003DA600083DA600083DA60008C52300087F
:1000D0003DA600083DA60008D92300080000000046
:1000E0003DA600083DA600083DA60008000000004F
:1000F0000000000000000000000000003DA6000815
:10010000000000003DA600083DA600083DA600082E
:1001100000000000000000000000000000000000DF
:10012000ED2300083DA60008012400083DA60008B4
:100130003DA60008000000000000000000000000D4
:10014000000000000000000000000000152400086E
:100150003DA600083DA600083DA600083DA60008F3
:100160003DA600083DA600080000000000000000B9
:10017000000000000000000000000000000000007F
:10018000000000003DA60008000000000000000084
:080190003DA600083DA6000891
:1001A0000348044B834202D0034B03B11847704706
:1001B000E4010020E4010020000000000548064999
:1001C0000B1AD90F01EBA301491002D0034B03B165
:1001D00018477047E4010020E401002000000000FF
:1001E00010B5064C237843B9FFF7DAFF044B13B17F
:1001F0000448AFF300800123237010BDE401002008
:100200000000000040A6000808B5044B1BB10449DB
:100210000448AFF30080BDE80840CFE700000000CD
:10022000E801002040A6000853B94AB9002908BFD8
:1002300000281CBF4FF0FF314FF0FF3000F06CB9C9
:10024000ADF1080C6DE904CE00F006F8DDF804E02D
:10025000DDE9022304B070472DE9F047089E0D4602
:1002600004468E46002B40F082808A42174646D9CB
:10027000B2FA82F24AB1C2F1200105FA02F320FA81
:1002800001F1974041EA030E94404FEA1748230CCE
:10029000BEFBF8FCB9B208FB1CEE43EA0E430CFBB4
:1002A00001F098420AD9FB180CF1FF3580F0168155
:1002B000984240F21381ACF1020C3B441B1AA4B2E9
:1002C000B3FBF8F008FB103344EA034400FB01F1F0
:1002D000A14209D93C1900F1FF3380F00181A1420C
:1002E00040F2FE8002383C44641A40EA0C4000218F
:1002F0001EB1D4400023C6E90043BDE8F08702B92F
:10030000FFDEB2FA82F2002A4FD1CB1B4FEA174E22
:100310001FFA87F80121B3FBFEFC250C0EFB1C33F2
:1003200045EA034508FB0CF3AB4207D97D190CF1F4
:10033000FF3002D2AB4200F2E7808446ED1AA3B24E
:10034000B5FBFEF00EFB105543EA054408FB00F830
:10035000A04507D93C1900F1FF3302D2A04500F2B5
:10036000D7801846A4EB080440EA0C40C0E78B4253
:1003700008D9002E00F0AF800021C6E9000508462C
:10038000BDE8F087B3FA83F100294BD1AB4202D329
:10039000824200F2B780841A65EB030301209E4677
:1003A000002EAAD0C6E9004EA7E7C2F1200C01FA40
:1003B00002F3974020FA0CF04FEA174E21FA0CFC9A
:1003C0001843BCFBFEF1050C0EFB11CC1FFA87F89D
:1003D00045EA0C4501FB08F3AB4204FA02F409D9E3
:1003E0007D1901F1FF3C80F08B80AB4240F28880A8
:1003F00002393D44EB1A85B2B3FBFEF00EFB10331D
:1004000045EA034500FB08F3AB4207D97D1900F12B
:10041000FF3C71D2AB426FD902383D44EB1A40EA3F
:10042000014178E7C1F1200C8B4022FA0CF71F4301
:1004300020FA0CF405FA01F34FEA174E25FA0CF5F1
:100440001C43230CB5FBFEF91FFA87F80EFB195568
:1004500043EA054509FB08FAAA4502FA01F200FA47
:1004600001F308D97D1909F1FF3047D2AA4545D9D2
:10047000A9F102093D44A5EB0A05A4B2B5FBFEF0C3
:100480000EFB105544EA054400FB08F8A04507D9C7
:100490003C1900F1FF352DD2A0452BD902383C4440
:1004A00040EA0940A4EB0804A0FB02894C45C6467B
:1004B0004D4619D316D05EB1B3EB0E0264EB0504C2
:1004C00004FA0CFCCA404CEA0202CC40C6E9002403
:1004D0000021BDE8F087314630460EE7AC46EDE638
:1004E000184601E74345E6D2B8EB020E69EB070573
:1004F0000138E0E72846D3E760468FE78146BAE750
:10050000614677E708464BE7ACF1020C3D4415E73E
:1005100002383C4426E700BF704700BF014B186813
:10052000704700BF0000002070B50D4E0D4D761BCA
:10053000B61006D00024013455F8043B9847A64273
:10054000F9D1094E094D761B0AF07AF8B61006D09B
:100550000024013455F8043B9847A642F9D170BDF8
:1005600014A7000814A7000818A7000814A700087B
:10057000024B0146186800F0B1B800BF000000202F
:10058000024B0146186800F053B800BF000000207D
:10059000F0B4860746D0541E002A3CD0CAB20346A7
:1005A00002E014F1FF3436D303F8012B9D07F8D194
:1005B000032C29D9CDB245EA05250F2C45EA05457E
:1005C00033D9A4F11006360903F1200707EB06170B
:1005D00003F1100242E9045542E902551032BA42D1
:1005E000F8D1721C14F00C0F03EB021204F00F068A
:1005F00013D0331F23F003030433134442F8045B86
:100600009342FBD106F003042CB1C9B21C4403F899
:10061000011B9C42FBD1F0BC704734461346002CB2
:10062000F3D1F8E714460346C2E71A462646E0E748
:1006300000293CD038B551F8043C0C1F002BB8BF42
:10064000E418054600F000F9234B1A682AB1A242CB
:100650000DD921686018824223D0626028461C6050
:10066000BDE8384000F0F2B8A34203D81A465368F8
:10067000002BF9D111685018A04219D024D8216854
:100680006018834206D0636054602846BDE8384055
:1006900000F0DCB8D3E900030144636021605460DA
:1006A000F3E7D2E90002014462602160D6E77047B7
:1006B00020680144501883421160E6D1D3E9000359
:1006C000014453601160E0E70C232B602846BDE82D
:1006D000384000F0BBB800BF00020020F8B5CD1CC8
:1006E00025F0030508350C2D38BF0C25002D0646D6
:1006F00033DBA94231D82A4F00F0A6F83A6852B14C
:1007000013685B1B04D43FE023685B1B29D522469A
:100710005468002CF8D1796800293BD0294630462E
:1007200000F040F8431C28D0C41C24F00304A0426D
:1007300005D0211A304600F035F801301DD0256073
:10074000304600F083F804F10B0020F00700231D71
:10075000C21A01D01B1AA350F8BD0C22326000202F
:10076000F8BD0B2B05D8A242636811D05360E7E7B0
:10077000144623601C442560E2E70C2330463360B6
:1007800000F064F80020F8BD0B2BF1D85368144634
:100790003B60D5E7304600F005F87860BEE700BF63
:1007A0000002002038B5074C0023054608462360A8
:1007B00001F03AFE431C00D038BD2368002BFBD06B
:1007C0002B6038BDA01E00200CB470B59CB020ACCE
:1007D0000B4E54F8042B0291234606916FF000450E
:1007E00002A901940795CDE9045600F00DF9029B8A
:1007F00000221A701CB0BDE8704002B0704700BF04
:100800000802FFFF0EB430B59CB01FAB0C4C0D4D71
:1008100053F8042B0193014602910691206802A926
:100820006FF000440794CDE9044500F0EDF8029B19
:1008300000221A701CB0BDE8304003B0704700BF02
:10084000000000200802FFFF704700BF704700BF94
:100850002DE9F0478E681D46AE420C460B681746E0
:1008600036D88046888910F4906F0ED135461846E8
:100870002A46394600F0CEFCA2682368961B2B441A
:10088000A66023600020BDE8F087D1E9041606EBDE
:100890004606A3EB010906EBD6766B1C76104B449B
:1008A000B342324684BF1E463246430512D5114636
:1008B0004046FFF713FF824600B34A46216900F025
:1008C0000FFCA38923F4906343F08003A38106E027
:1008D0002E46CCE7404600F005FD824650B1A6EB1F
:1008E00009020AEB09036661C4F810A02360A26044
:1008F0002E46BCE721694046FFF79AFE0C23C8F854
:100900000030A38943F04003A3814FF0FF30BAE7E2
:100910002DE9F04F936883B09046002B6DD0176897
:100920008D6882460C460868083743E0A38913F4B3
:10093000906F2ED0D4E9041505EB4505A0EB010B13
:1009400005EBD5750BEB06006D100130A8422A4669
:1009500084BF05462A465B0536D511465046FFF74B
:10096000BDFE00283AD05A462169019000F0B8FB3C
:10097000A289019B22F4906242F08002A281A5EB41
:100980000B0203EB0B00656123612060A26035461A
:10099000B3465A46494600F03DFCD8F80830A268F4
:1009A0002068551B58449E1BA5602060C8F808604D
:1009B0001EB3083757E90296AB46002EF9D0AE4277
:1009C000B4D23546B346E4E7504600F08BFC03460C
:1009D0000028D4D121695046FFF72AFE0C23CAF81B
:1009E0000030A389002243F040034FF0FF30A38181
:1009F000C8E9012203B0BDE8F08F0020C8F8040068
:100A000003B0BDE8F08F00BF2DE9F04F90468A8912
:100A10009FB014068B46029003D50A69002A00F0A5
:100A20000B81059330238DF8323098F800308E4ECC
:100A3000002120220B918DF831200127002B00F09E
:100A40008480252B00F0F680454603E0252B00F03E
:100A5000868025466B786C1C002BF7D1B4EB080A16
:100A600073D04246534659460298FFF7F1FE0130D3
:100A70006BD00B9B6A7853440B93002A65D00023FC
:100A80004FF0FF3201340693CDE908338DF85B3027
:100A90001C93079205E0069A07FA03F313432C46CA
:100AA00006932546052215F8011B304600F0C8FACA
:100AB000AA46831B0028EED1069BD90644BF2022FC
:100AC0008DF85B2021781A0744BF2B228DF85B201C
:100AD0002A2948D1059A11680432002905927EDB43
:100AE00009916178A51C2E2956D0604C032220461E
:100AF00000F0A6FA002868D0001B069B402404FAE8
:100B000000F00343069305F10108297858488DF851
:100B10003010062200F094FA002866D0554B002BC6
:100B200056D005AB00935A46534B029806A9AFF333
:100B300000808146B9F1FF3F07D00B9B4B440B93DC
:100B400098F80030002B7FF47CAFBBF80C305B06CC
:100B500054BF0B984FF0FF301FB0BDE8F08FB4EBDF
:100B6000080A8CD07DE7A1F13002092A88BFA2468D
:100B7000B9D8099B01E02C460135297803EB8303A2
:100B800002EB4303A1F13002092AAA46F3D92E2928
:100B900004F102050993A8D19AF801102A292ED14F
:100BA000059B9AF802101A6807920433002A0593ED
:100BB0000AF103050AF1020337DB2C4C032220461D
:100BC0009A4600F03DFA002896D1A84655469CE783
:100BD000059B073323F0070308330593ADE749422C
:100BE00043F00203099106937BE705AB00935A4655
:100BF000214B029806A900F0D7F881469AE7A1F1A7
:100C000030020023092A079301D923E05546697869
:100C100003EB830302EB4303A1F13002092A05F140
:100C2000010AF3D9023507935FE74FF0FF329A4686
:100C300007925AE7444622E740210393FFF74EFD0F
:100C4000039BCBF80000CBF8100030B14022CBF86A
:100C50001420E6E6AA46013547E7029A0C23136002
:100C60004FF0FF3078E700BFD0A60008D8A60008F4
:100C7000DCA6000800000000510800082DE9F0473C
:100C80000C4691460A698968DDF820808A42B8BF1F
:100C90000A46C9F8002094F8431006461F4611B1D1
:100CA0000132C9F80020236899065CD5D9F80020E4
:100CB0000232C9F80020236813F0060F19461DD12F
:100CC000E1688A1A002AD8BF194617DD04F1190A0B
:100CD000002505E0E368D9F800209B1AAB420CDD43
:100CE0000123524639463046C047013005F101051F
:100CF000F0D14FF0FF30BDE8F087216894F8433021
:100D0000003318BF01238A060AD5E1185A1C302087
:100D100081F84300224494F8451082F843100233CE
:100D200004F1430239463046C0470130E1D0236820
:100D3000A268216903F00603042B1DD08A4226DD38
:100D40004FF00009521A91441A34002501E04D4534
:100D50001DDA0123224639463046C047013005F1ED
:100D60000105F4D1C5E713F0060F13D094F8433012
:100D7000003318BF0123D3E7D9F80000E3688A42A3
:100D8000A3EB000323EAE379DCDC002BDCDC0020AE
:100D9000BDE8F087E168D9F800208A1A002AD8BF98
:100DA000194693DCAAE700BF2DE9F0430C46097E03
:100DB00085B06E29064617460C98984604F1430EF6
:100DC0006DD039D9732900F0F68044D9752900F027
:100DD0000481782940F0118178232268DFF858C215
:100DE00084F845300168150651F8043B016040F174
:100DF000A180D10744BF42F020022260002B00F006
:100E000093801022002184F843106068A0600028BD
:100E1000C0F2C880216821F004012160002B40F05D
:100E2000A380002840F0C0807546082A00F0AC80FE
:100E3000AEEB0503236141E0632900F0E5801AD899
:100E4000002938D0582940F0D88084F8451022680D
:100E5000DFF8E8C1C6E76F2900F0BF80702940F0D5
:100E6000CC802268DFF8D0C142F0200278232260D3
:100E700084F84530B6E7642902D0692940F0BD8086
:100E800022680368110603F1040557D51968056047
:100E90000B46002959DBDFF8A4C10A22B5E7036835
:100EA000226861691D1D056015061B6802D4500685
:100EB00000F1BD801960002375462361CDF80080E4
:100EC0003B4603AA21463046FFF7D8FE013020D02A
:100ED0002A46236939463046C047013019D0226876
:100EE0000398E368920719D51A1A002A16DD04F14F
:100EF0001909002504E0E36803981A1AAA420DDDD7
:100F000001234A4639463046C047013005F1010504
:100F1000F1D14FF0FF3005B0BDE8F0839842B8BF83
:100F2000184605B0BDE8F083226822F02002226056
:100F3000102267E7500648BF9BB25AE75106A5D575
:100F4000B3F9003005601946A3E76168A1602D2060
:100F50000029C3F1000384F8430002DB22F00402FD
:100F60002260DFF8D8C00A22754600E00B46B3FBCA
:100F7000F2F102FB113093421CF8000005F8010D5C
:100F8000F4D2082A7FF454AF2368DB077FF550AF13
:100F9000626823699A423FF74BAF302305F8013C62
:100FA000013D45E7002BDFD19CF8003084F842304A
:100FB00004F1420539E703686268191D01601D6884
:100FC0000021284600F03CF8002832D0401B606029
:100FD0002061002384F8433070E72268036812F030
:100FE000800F03F104051AD01B6805606F290CBF40
:100FF00008220A22DFF844C004E7012384F84210E3
:10100000236104F14205E4E703681A68191D01230E
:10101000016004F1420584F842202361D9E712F00F
:10102000400F0DBF1B6805601B880560DEE7198057
:1010300041E76068CCE700BFF8A60008E4A6000816
:1010400001F0FF01102A2BDB10F0070F08D010F879
:10105000013B013A8B422DD010F0070F42B3F6D17D
:10106000F0B441EA012141EA014122F007047FF096
:1010700000070023F0E80256083C85EA010586EAED
:10108000010685FA47F5A3FA87F586FA47F6A5FA29
:1010900087F68EB9EED1F0BC01F0FF0102F0070235
:1010A00032B110F8013B013A83EA010313B1F8D1E0
:1010B0000020704701387047002D06BF35460338C1
:1010C000073815F0010F07D1013015F4807F02BFFA
:1010D000013015F4C03F0130F0BC0138704700BF4B
:1010E000844641EA000313F003036DD1403A41D333
:1010F00051F8043B40F8043B51F8043B40F8043BF2
:1011000051F8043B40F8043B51F8043B40F8043BE1
:1011100051F8043B40F8043B51F8043B40F8043BD1
:1011200051F8043B40F8043B51F8043B40F8043BC1
:1011300051F8043B40F8043B51F8043B40F8043BB1
:1011400051F8043B40F8043B51F8043B40F8043BA1
:1011500051F8043B40F8043B51F8043B40F8043B91
:1011600051F8043B40F8043B51F8043B40F8043B81
:10117000403ABDD2303211D351F8043B40F8043B21
:1011800051F8043B40F8043B51F8043B40F8043B61
:1011900051F8043B40F8043B103AEDD20C3205D331
:1011A00051F8043B40F8043B043AF9D2043208D029
:1011B000D2071CBF11F8013B00F8013B01D30B889B
:1011C00003806046704700BF082A13D38B078DD079
:1011D00010F003038AD0C3F10403D21ADB071CBF4B
:1011E00011F8013B00F8013B80D331F8023B20F8B5
:1011F000023B7BE7043AD9D3013A11F8013B00F8EE
:10120000013BF9D20B7803704B7843708B78837075
:10121000604670478842F0B40DD98B1883420AD9D2
:10122000841832B1224613F8014D02F8014D99425B
:10123000F9D1F0BC70470F2A0ED80346541E002A7D
:10124000F7D001340C44013B11F8012B03F8012FB6
:10125000A142F9D1F0BC704740EA01039B073BD1A2
:10126000A2F110073F0901F1200606EB071601F174
:10127000100300F1100453F8105C44F8105C53F8AC
:101280000C5C44F80C5C53F8085C44F8085C53F8B8
:10129000045C44F8045C1033B34204F11004EAD156
:1012A0007B1C1B0112F00C0F194402F00F050344C4
:1012B00015D0043DAD0803EB850C1C1F0E4656F8F7
:1012C000047B44F8047F6445F9D10135AD002B441B
:1012D000294402F00302B1E7541E0346B1E72A464F
:1012E000ACE700BF09B3F8B51446CAB106460D46CF
:1012F00000F01EF8A04202D32F463846F8BD214622
:101300003046FFF7EBF907460028F6D0224629467B
:10131000FFF7E6FE30462946FFF78AF93846F8BD62
:101320002746FFF785F93846F8BD1146FFF7D6B9CD
:1013300051F8043C181F002BBCBF0B58C018704755
:1013400080B584B000AF786019229549954804F0C3
:101350001CFF934B5B781AB2914B9B781B021BB21C
:1013600013431BB29BB2C3F30A039AB28E4B1A808B
:101370008B4B9B78DB08DBB21AB2894BDB785B01C5
:101380001BB213431BB29BB2C3F30A039AB2864B40
:101390005A80834BDB789B09DBB21AB2804B1B79F6
:1013A0009B001BB213431AB27D4B5B799B021BB2AD
:1013B00013431BB29BB2C3F30A039AB27A4B9A80CF
:1013C000774B5B795B08DBB21AB2754B9B79DB011B
:1013D0001BB213431BB29BB2C3F30A039AB2724B04
:1013E000DA806F4B9B791B09DBB21AB26C4BDB794D
:1013F0001B011BB213431BB29BB2C3F30A039AB285
:10140000694B1A81664BDB79DB09DBB21AB2644B9C
:101410001B7A5B001BB213431AB2614B5B7A5B020F
:101420001BB213431BB29BB2C3F30A039AB25E4BC7
:101430005A815B4B5B7A9B08DBB21AB2584B9B7AA2
:101440009B011BB213431BB29BB2C3F30A039AB2B4
:10145000554B9A81524B9B7A5B09DBB21AB2504BC7
:10146000DB7ADB001BB213431BB29BB2C3F30A034C
:101470009AB24D4BDA814A4B1B7B1AB2484B5B7BCD
:101480001B021BB213431BB29BB2C3F30A039AB2F3
:10149000454B1A82424B5B7BDB08DBB21AB2404BF6
:1014A0009B7B5B011BB213431BB29BB2C3F30A03CA
:1014B0009AB23D4B5A823A4B9B7B9B09DBB21AB2E4
:1014C000374BDB7B9B001BB213431AB2344B1B7CA4
:1014D0009B021BB213431BB29BB2C3F30A039AB223
:1014E000314B9A822E4B1B7C5B08DBB21AB22C4B21
:1014F0005B7CDB011BB213431BB29BB2C3F30A0339
:101500009AB2294BDA82264B5B7C1B09DBB21AB2FA
:10151000234B9B7C1B011BB213431BB29BB2C3F337
:101520000A039AB2204B1A831D4B9B7CDB09DBB26A
:101530001AB21B4BDB7C5B001BB213431AB2184B75
:101540001B7D5B021BB213431BB29BB2C3F30A03A6
:101550009AB2154B5A83124B1B7D9B08DBB21AB211
:101560000F4B5B7D9B011BB213431BB29BB2C3F3BA
:101570000A039AB20C4B9A83094B5B7D5B09DBB281
:101580001AB2074B9B7DDB001BB213431BB29BB20D
:10159000C3F30A039AB2044BDA830023FB6005E02D
:1015A0007C0500203C0500209805002007E0084A43
:1015B000FB68134400221A70FB680133FB60FB6870
:1015C000182BF4DD00BF00BF1037BD4680BD00BF43
:1015D0007C05002080B584B000AF786000F0F2FA9E
:1015E000094B1B78002B08D00023FB6002E0FB684E
:1015F0000133FB60FB68022BF9DD044B00221A70FB
:1016000000BF1037BD4680BD09020020080200203F
:1016100080B586B000AF00F03FFF00F055F800F055
:1016200075FA00F01DFA00F0EDF800F06BF900F02B
:10163000E9F908F0E7FA00F0AFF819221E491F484F
:1016400004F0A3FD4FF4FA6000F094FF002000F0D6
:10165000FDFA0346002B01D000F0A6FB00F07EFB54
:10166000174B5B781B021AB2154B9B781BB21343C6
:10167000FB82134BDB781B021AB2114B1B791BB296
:101680001343BB820E4B5B791B021AB20C4B9B7946
:101690001BB213437B82B7F912203B460949184617
:1016A000FFF7B0F83B460F21184608F069FB6420AD
:1016B00000F060FFD2E700BF7C0500203C05002061
:1016C0001802002058A6000880B594B000AF07F1BA
:1016D0002003302200211846FEF75AFF07F10C03C1
:1016E00000221A605A609A60DA601A610023BB60B7
:1016F000274B1B6C264A43F080531364244B1B6C0E
:1017000003F08053BB60BB6800237B60214B1B68E8
:10171000204A43F4404313601E4B1B6803F44043CC
:101720007B607B6801233B624FF480337B62022342
:10173000BB634FF48003FB6304233B6448237B6457
:101740000223BB640323FB6407F12003184602F065
:10175000EBFE0346002B01D000F026FB0F23FB60BD
:1017600002233B6100237B614FF48053BB61002364
:10177000FB6107F10C030221184603F045F903460B
:10178000002B01D000F010FB00BF5037BD4680BDDC
:10179000003802400070004080B500AF174B184A77
:1017A0001A60164B4FF482725A60144B00229A60F2
:1017B000124B0022DA60114B00221A610F4B0022FB
:1017C0005A610E4B4FF400729A610C4B3022DA6171
:1017D0000A4B00221A62094B00225A62074B002270
:1017E0009A62064B0A22DA62044803F007FB0346BA
:1017F000002B01D000F0D8FA00BF80BD24020020E9
:101800000030014080B58EB000AF07F12803002200
:101810001A605A609A60DA6007F1200300221A60A9
:101820005A603B1D00221A605A609A60DA601A61A1
:101830005A619A61324B4FF080421A60304B01225C
:101840005A602F4B00229A602D4B7822DA602C4B85
:1018500000221A612A4B00229A61294803F056FFA0
:101860000346002B01D000F09FFA4FF48053BB6277
:1018700007F128031946224804F06EF80346002BAE
:1018800001D000F091FA1E4803F06BFF0346002BD5
:1018900001D000F089FA00233B6200237B6207F14C
:1018A00020031946164804F0B7FB0346002B01D06D
:1018B00000F07AFA60237B600023BB600023FB60AA
:1018C00000237B613B1D002219460D4803F07EFF7B
:1018D0000346002B01D000F067FA3B1D0822194691
:1018E000074803F073FF0346002B01D000F05CFAB9
:1018F000034800F047FC00BF3837BD4680BD00BF3D
:101900003C03002080B58EB000AF07F12803002211
:101910001A605A609A60DA6007F1200300221A60A8
:101920005A603B1D00221A605A609A60DA601A61A0
:101930005A619A61314B324A1A60304B01225A6027
:101940002E4B00229A602D4B7822DA602B4B00221E
:101950001A612A4B00229A61284803F0D7FE0346F9
:10196000002B01D000F020FA4FF48053BB6207F146
:1019700028031946214803F0EFFF0346002B01D04E
:1019800000F012FA1D4803F0ECFE0346002B01D0D4
:1019900000F00AFA00233B6200237B6207F1200378
:1019A0001946164804F038FB0346002B01D000F01E
:1019B000FBF960237B600023BB600023FB600023F6
:1019C0007B613B1D002219460C4803F0FFFE0346D5
:1019D000002B01D000F0E8F93B1D0422194607480E
:1019E00003F0F4FE0346002B01D000F0DDF90348BC
:1019F00000F0C8FB00BF3837BD4680BD7C03002027
:101A00000008004080B500AF124B134A1A60114B1A
:101A1000124A5A600F4B4FF480529A600D4B4FF4AC
:101A20000052DA600B4B4FF480621A61094B0C22B2
:101A30005A61084B00229A61064B0022DA61054880
:101A400004F056FB0346002B01D000F0ADF900BFB7
:101A500080BD00BF3C05002000440040A08601007E
:101A600080B582B000AF00237B60274B1B6B264AFA
:101A700043F400131363244B1B6B03F400137B60CC
:101A80007B6800233B60204B1B6B1F4A43F48003A1
:101A900013631D4B1B6B03F480033B603B68002208
:101AA00000210B2000F061FE0B2000F07AFE0022E6
:101AB00000210C2000F059FE0C2000F072FE0022E4
:101AC00000210E2000F051FE0E2000F06AFE0022E0
:101AD0000021102000F049FE102000F062FE0022DC
:101AE0000021382000F041FE382000F05AFE00228C
:101AF00000213A2000F039FE3A2000F052FE00BFEB
:101B00000837BD4680BD00BF0038024080B588B0B0
:101B100000AF07F10C0300221A605A609A60DA6085
:101B20001A610023BB601F4B1B6B1E4A43F08003EE
:101B300013631C4B1B6B03F08003BB60BB6800236B
:101B40007B60184B1B6B174A43F001031363154B63
:101B50001B6B03F001037B607B6800233B60114B30
:101B60001B6B104A43F0020313630E4B1B6B03F015
:101B700002033B603B68012210210B4801F03CFB53
:101B80001023FB6001233B6100237B610223BB61C7
:101B900007F10C031946044801F0ACF900BF2037E7
:101BA000BD4680BD003802400000024080B500AF55
:101BB00000221021024801F01FFB00BF80BD00BFC2
:101BC0000000024080B500AF01221021024801F060
:101BD00013FB00BF80BD00BF0000024080B584B091
:101BE00000AF78600B46FB7000BF144B1B78002BD6
:101BF000FBD1124B01221A70FFF7D8FFFB789BB282
:101C00000F4A79680F4803F05DF90346002B01D0B5
:101C100000F0CAF80023FB6007E00B4AFB6813449E
:101C200000221A70FB680133FB60FB68092BF4DDAE
:101C300000BF00BF1037BD4680BD00BF08020020B6
:101C400018020020240200200C02002080B582B07F
:101C500000AF0346FB713E4B6A221A703C4B1022C8
:101C60005A7002213A48FFF7B9FF00BF394B1B7881
:101C7000002BFBD1364BF5221A70354B00225A70DF
:101C800002213348FFF7AAFF00BF324B1B78002B1D
:101C9000FBD1314B5B78682B01D0EE2353E02C4B0A
:101CA0006B221A702A4B80225A7002212848FFF7B3
:101CB00095FF00BF274B1B78002BFBD1642000F061
:101CC00059FC234B68221A70214B07225A700221BB
:101CD0001F48FFF783FF00BF1E4B1B78002BFBD173
:101CE000642000F047FC1A4B6A221A70184B10222D
:101CF0005A7002211648FFF771FF00BF154B1B7881
:101D0000002BFBD1124B6B221A70114B03225A701D
:101D100002210F48FFF762FF00BF0E4B1B78002B1C
:101D2000FBD1FB79002B0ED0094B19221A70084AFF
:101D3000FB79537002210648FFF750FF00BF054BA7
:101D40001B78002BFBD118460837BD4680BD00BF6D
:101D50000C020020080200201802002080B500AF0D
:101D60000F4B01221A700F4BC3221A700D4B002229
:101D70005A700C4B00229A700A4BC522DA70094B3C
:101D800000221A71074BC7225A71064B00229A7122
:101D900006210448FFF722FF00BF184680BD00BFA0
:101DA000090200200C02002080B400AF00BFBD4635
:101DB00080BC704780B483B000AF00237B600F4BC2
:101DC0005B6C0E4A43F4804353640C4B5B6C03F42E
:101DD00080437B607B6800233B60084B1B6C074A99
:101DE00043F080531364054B1B6C03F080533B603E
:101DF0003B6800BF0C37BD4680BC704700380240CE
:101E000080B58AB000AF786007F1140300221A6031
:101E10005A609A60DA601A617B681B684B4A934289
:101E200040F0908000233B61494B5B6C484A43F48F
:101E300080535364464B5B6C03F480533B613B69B6
:101E40000023FB60424B1B6B414A43F001031363C9
:101E50003F4B1B6B03F00103FB60FB68E0237B61DE
:101E60000223BB610023FB6103233B6205237B62EA
:101E700007F114031946374801F03CF8364B374A4E
:101E80001A60354B4FF0C0625A60334B00229A60A3
:101E9000314B0022DA60304B4FF480621A612E4BD6
:101EA00000225A612C4B00229A612B4B0022DA61EE
:101EB000294B00221A62284B00225A62264800F061
:101EC0008BFC0346002B01D0FFF76EFF7B68224A94
:101ED000DA64214A7B689363214B224A1A60204BC3
:101EE0004FF080625A601E4B40229A601C4B0022C9
:101EF000DA601B4B4FF480621A61194B00225A6161
:101F0000174B00229A61164B0022DA61144B002213
:101F10001A62134B00225A62114800F05DFC03461E
:101F2000002B01D0FFF740FF7B680D4A9A640C4AF2
:101F30007B68936300220021232000F016FC2320FD
:101F400000F02FFC00BF2837BD4680BD00300140A7
:101F500000380240000002407C0200201064024071
:101F6000DC0200204064024080B584B000AF78609D
:101F70007B681B68B3F1804F76D10023FB60774B01
:101F80001B6C764A43F001031364744B1B6C03F023
:101F90000103FB60FB68724B724A1A60704B4FF092
:101FA000C0625A606E4B40229A606D4B0022DA602C
:101FB0006B4B4FF480621A61694B4FF480525A6147
:101FC000674B4FF480429A61654B4FF48072DA613F
:101FD000634B00221A62624B00225A62604800F092
:101FE000FBFB0346002B01D0FFF7DEFE7B685C4A5B
:101FF0005A625B4A7B6893635B4B5C4A1A605A4B3C
:102000004FF0C0625A60584B40229A60564B0022F3
:10201000DA60554B4FF480621A61534B4FF4805293
:102020005A61514B4FF480429A614F4B4FF480728A
:10203000DA614D4B00221A624B4B00225A624A4829
:1020400000F0CAFB0346002B01D0FFF7ADFE7B6812
:10205000454ADA62444A7B6893637B68424A1A6263
:10206000414A7B68936374E07B681B68404A9342F3
:102070006FD10023BB60394B1B6C384A43F004031B
:102080001364364B1B6C03F00403BB60BB68394B15
:10209000394A1A60374B4FF080625A60354B402204
:1020A0009A60344B0022DA60324B4FF480621A613E
:1020B000304B4FF480525A612E4B4FF480429A615C
:1020C0002C4B4FF48072DA612A4B00221A62294BA2
:1020D00000225A62274800F07FFB0346002B01D004
:1020E000FFF762FE7B68234A5A62224A7B68936349
:1020F000224B234A1A60214B4FF080625A601F4BDB
:1021000040229A601D4B0022DA601C4B4FF4806223
:102110001A611A4B4FF480525A61184B4FF48042A7
:102120009A61164B4FF48072DA61144B00221A62E6
:10213000124B00225A62114800F04EFB0346002B5E
:1021400001D0FFF731FE7B680C4A9A620B4A7B682C
:10215000936300BF1037BD4680BD00BF003802400A
:10216000BC030020886002401C040020286002405C
:10217000000800407C04002010600240DC040020C5
:102180005860024080B58AB000AF786007F1140350
:1021900000221A605A609A60DA601A617B681B68D4
:1021A000B3F1804F3DD100233B61314B1B6B304A73
:1021B00043F0010313632E4B1B6B03F001033B61E0
:1021C0003B690023FB602A4B1B6B294A43F0020347
:1021D0001363274B1B6B03F00203FB60FB680123B7
:1021E0007B610223BB610023FB6100233B6201236F
:1021F0007B6207F1140319461E4800F07BFE4FF482
:1022000080637B610223BB610023FB6100233B628F
:1022100001237B6207F114031946174800F06AFE98
:1022200022E07B681B68154A93421DD10023BB60E6
:102230000F4B1B6B0E4A43F0020313630C4B1B6BDB
:1022400003F00203BB60BB68C0237B610223BB6158
:102250000023FB6100233B6202237B6207F114032E
:102260001946054800F046FE00BF2837BD4680BD30
:102270000038024000000240000402400008004014
:1022800080B58AB000AF786007F1140300221A60AD
:102290005A609A60DA601A617B681B681D4A934233
:1022A00033D100233B611C4B1B6C1B4A43F40033AE
:1022B0001364194B1B6C03F400333B613B6900232F
:1022C000FB60154B1B6B144A43F001031363124B65
:1022D0001B6B03F00103FB60FB680C237B61022393
:1022E000BB610023FB6103233B6207237B6207F191
:1022F00014031946094800F0FDFD002200212620A4
:1023000000F033FA262000F04CFA00BF2837BD4613
:1023100080BD00BF00440040003802400000024081
:1023200080B400AF00BFBD4680BC704780B400AF32
:10233000FEE780B400AFFEE780B400AFFEE780B4F4
:1023400000AFFEE780B400AF00BFBD4680BC704761
:1023500080B400AF00BFBD4680BC704780B400AF02
:1023600000BFBD4680BC704780B500AF00F0E6F806
:1023700000BF80BD80B500AF024800F055FB00BF34
:1023800080BD00BF7C04002080B500AF024800F093
:102390004BFB00BF80BD00BF1C04002080B500AF18
:1023A000024800F041FB00BF80BD00BFDC040020FC
:1023B00080B500AF024800F037FB00BF80BD00BF12
:1023C000BC03002080B500AF024802F07DFE00BFD4
:1023D00080BD00BF2402002080B500AF024803F09A
:1023E00029FF00BF80BD00BF3C05002080B500AFC5
:1023F000024800F019FB00BF80BD00BF7C02002036
:1024000080B500AF024800F00FFB00BF80BD00BFE9
:10241000DC02002080B500AF024801F055F800BF93
:1024200080BD00BF981A002080B584B000AF7860EE
:10243000114B1B68002B02D10F4B104A1A600E4B38
:102440001B68FB600C4B1A687B6813446A46934216
:1024500007D9FEF763F803460C221A604FF0FF33EA
:1024600006E0054B1A687B681344034A1360FB6857
:1024700018461037BD4680BDBC050020A81E0020B0
:1024800080B400AF034B4FF000629A6000BFBD46BE
:1024900080BC704700ED00E080B500AF0E4B1B68BC
:1024A0000D4A43F4007313600B4B1B680A4A43F454
:1024B00080631360084B1B68074A43F48073136002
:1024C000032000F047F9002000F008F8FFF772FC45
:1024D0000023184680BD00BF003C024080B582B09A
:1024E00000AF7860124B1A68124B1B7819464FF4F4
:1024F0007A73B3FBF1F3B2FBF3F3184600F05FF924
:102500000346002B01D001230EE07B680F2B0AD875
:10251000002279684FF0FF3000F027F9064A7B6807
:102520001360002300E0012318460837BD4680BD34
:10253000640000206C0000206800002080B400AF20
:10254000054B1B781A46054B1B681344034A13605E
:1025500000BFBD4680BC70476C000020C005002055
:1025600080B400AF024B1B681846BD4680BC704764
:10257000C005002080B584B000AF7860FFF7F0FFA1
:10258000B8607B68FB60FB68B3F1FF3F05D00A4B86
:102590001B781A46FB681344FB6000BFFFF7E0FF9F
:1025A0000246BB68D31AFA689A42F7D800BF00BF48
:1025B0001037BD4680BD00BF6C00002080B485B0E0
:1025C00000AF78607B6803F00703FB600C4BDB68AF
:1025D000BB60BA684FF6FF031340BB60FB681A028A
:1025E000BB68134343F0BF6343F40033BB60044A4A
:1025F000BB68D36000BF1437BD4680BC704700BFC6
:1026000000ED00E080B400AF044BDB681B0A03F070
:1026100007031846BD4680BC704700BF00ED00E0D0
:1026200080B483B000AF0346FB7197F90730002BED
:102630000BDBFB7903F01F02064997F907305B09B2
:10264000012000FA02F241F8232000BF0C37BD46FA
:1026500080BC704700E100E080B483B000AF034667
:102660003960FB7197F90730002B0ADB3B68DAB25F
:102670000C4997F907301201D2B20B4483F80023BA
:102680000AE03B68DAB20849FB7903F00F03043B28
:102690001201D2B20B441A7600BF0C37BD4680BC83
:1026A000704700BF00E100E000ED00E080B489B0B9
:1026B00000AFF860B9607A60FB6803F00703FB6164
:1026C000FB69C3F10703042B28BF0423BB61FB692B
:1026D0000433062B02D9FB69033B00E000237B6136
:1026E0004FF0FF32BB6902FA03F3DA43BB681A40CA
:1026F0007B699A404FF0FF317B6901FA03F3D943BC
:102700007B680B40134318462437BD4680BC704796
:1027100080B582B000AF78607B68013BB3F1807F09
:1027200001D301230FE00A4A7B68013B53600F216C
:102730004FF0FF30FFF790FF054B00229A60044BEB
:1027400007221A60002318460837BD4680BD00BF27
:1027500010E000E080B582B000AF78607868FFF7E5
:102760002DFF00BF0837BD4680BD80B586B000AFE5
:102770000346B9607A60FB7300237B61FFF742FF79
:1027800078617A68B9687869FFF790FF024697F92F
:102790000F3011461846FFF75FFF00BF1837BD46E0
:1027A00080BD80B582B000AF0346FB7197F907305A
:1027B0001846FFF735FF00BF0837BD4680BD80B51E
:1027C00082B000AF78607868FFF7A2FF0346184632
:1027D0000837BD4680BD000080B586B000AF786088
:1027E00000237B61FFF7BCFE38617B68002B01D1C1
:1027F000012399E07B68002283F834207B68022261
:1028000083F835207B681B681A687B681B6822F098
:1028100001021A600FE0FFF7A3FE02463B69D31ADC
:10282000052B08D97B6820225A657B68032283F830
:102830003520032378E07B681B681B6803F00103E5
:10284000002BE8D17B681B681B687B617A69384B79
:1028500013407B617B685A687B689B681A437B687E
:10286000DB681A437B681B691A437B685B691A4300
:102870007B689B691A437B68DB691A437B681B6A28
:1028800013437A6913437B617B685B6A042B07D12E
:102890007B68DA6A7B681B6B13437A6913437B613D
:1028A0007B681B687A691A607B681B685B697B615F
:1028B0007B6923F007037B617B685B6A7A6913435A
:1028C0007B617B685B6A042B17D17B689B6A7A69A2
:1028D00013437B617B68DB6A002B0ED0786800F0C5
:1028E0008FFA0346002B08D07B6840225A657B682C
:1028F000012283F83520012316E07B681B687A6982
:102900005A61786800F048FA0346FB607B68DB6D2B
:102910003F229A40FB689A607B6800225A657B6878
:10292000012283F83520002318461837BD4680BDA4
:102930003F8010F080B586B000AFF860B9607A6073
:102940003B600023FB75FB689B6D3B61FB6893F864
:102950003430012B01D1022340E0FB68012283F8CF
:102960003420FB6893F83530DBB2012B2FD1FB68A4
:10297000022283F83520FB6800225A653B687A689A
:10298000B968F86800F0DAF9FB68DB6D3F229A401D
:102990003B699A60FB681B681A68FB681B6842F019
:1029A00016021A60FB681B6C002B07D0FB681B68C3
:1029B0001A68FB681B6842F008021A60FB681B6813
:1029C0001A68FB681B6842F001021A6005E0FB68A8
:1029D000002283F834200223FB75FB7D184618374C
:1029E000BD4680BD80B483B000AF78607B6893F84B
:1029F0003530DBB2022B04D07B6880225A6501237C
:102A00000CE07B68052283F835207B681B681A6818
:102A10007B681B6822F001021A60002318460C37FD
:102A2000BD4680BC7047000080B586B000AF7860BE
:102A30000023BB60924B1B68924AA2FB03239B0AB4
:102A40007B617B689B6D3B613B691B68FB607B68BE
:102A5000DB6D08229A40FB681340002B1AD07B687C
:102A60001B681B6803F00403002B13D07B681B68F2
:102A70001A687B681B6822F004021A607B68DB6DB1
:102A800008229A403B699A607B685B6D43F00102C3
:102A90007B685A657B68DB6D01229A40FB681340B6
:102AA000002B12D07B681B685B6903F08003002B4E
:102AB0000BD07B68DB6D01229A403B699A607B6892
:102AC0005B6D43F002027B685A657B68DB6D042214
:102AD0009A40FB681340002B12D07B681B681B6870
:102AE00003F00203002B0BD07B68DB6D04229A40BD
:102AF0003B699A607B685B6D43F004027B685A65B2
:102B00007B68DB6D10229A40FB681340002B43D09A
:102B10007B681B681B6803F00803002B3CD07B68B4
:102B2000DB6D10229A403B699A607B681B681B68CA
:102B300003F48023002B18D07B681B681B6803F408
:102B40000023002B08D17B681B6C002B24D07B68F2
:102B50001B6C786898471FE07B689B6C002B1BD030
:102B60007B689B6C7868984716E07B681B681B68DD
:102B700003F48073002B07D17B681B681A687B689D
:102B80001B6822F008021A607B681B6C002B03D0C4
:102B90007B681B6C786898477B68DB6D20229A40C5
:102BA000FB681340002B00F08E807B681B681B685D
:102BB00003F01003002B00F086807B68DB6D202281
:102BC0009A403B699A607B6893F83530DBB2052BFD
:102BD00036D17B681B681A687B681B6822F0160276
:102BE0001A607B681B685A697B681B6822F0800248
:102BF0005A617B681B6C002B03D17B689B6C002B9C
:102C000007D07B681B681A687B681B6822F0080283
:102C10001A607B68DB6D3F229A403B699A607B6853
:102C2000002283F834207B68012283F835207B68FA
:102C30001B6D002B7DD07B681B6D7868984778E012
:102C40007B681B681B6803F48023002B1CD07B6807
:102C50001B681B6803F40023002B08D17B685B6CA6
:102C6000002B30D07B685B6C786898472BE07B68E2
:102C7000DB6B002B27D07B68DB6B7868984722E002
:102C800064000020B5814E1B7B681B681B6803F441
:102C90008073002B0FD17B681B681A687B681B68E8
:102CA00022F010021A607B68002283F834207B68CF
:102CB000012283F835207B68DB6B002B03D07B6817
:102CC000DB6B786898477B685B6D002B32D07B6844
:102CD0005B6D03F00103002B22D07B68052283F893
:102CE00035207B681B681A687B681B6822F001022C
:102CF0001A60BB680133BB607A699A4207D37B686C
:102D00001B681B6803F00103002BF2D100E000BF39
:102D10007B68002283F834207B68012283F8352009
:102D20007B68DB6C002B05D07B68DB6C7868984790
:102D300000E000BF1837BD4680BD00BF80B485B03D
:102D400000AFF860B9607A603B60FB681B681A6886
:102D5000FB681B6822F480221A60FB681B683A68D3
:102D60005A60FB689B68402B08D1FB681B687A6837
:102D70009A60FB681B68BA68DA6007E0FB681B684A
:102D8000BA689A60FB681B687A68DA6000BF14371B
:102D9000BD4680BC7047000080B485B000AF78604D
:102DA0007B681B68DBB2103B134AA2FB03231B09A1
:102DB000FB60124AFB6813441B781A467B68DA658D
:102DC000FB68032B09D97B681B6823F47F7323F00E
:102DD00003031A1D7B689A6507E07B681B6823F470
:102DE0007F7323F003037A6893657B689B6D1846B5
:102DF0001437BD4680BC7047ABAAAAAAC8A6000873
:102E000080B485B000AF78600023FB737B689B6A59
:102E1000BB607B689B69002B1FD1BB68032B56D816
:102E200001A252F823F000BF392E00084B2E0008F3
:102E3000392E0008CF2E00087B68DB6A03F0807310
:102E4000002B46D00123FB7343E07B68DB6AB3F1C0
:102E5000C07F40D10123FB733DE07B689B69B3F5E4
:102E6000005F21D1BB68032B37D801A252F823F0B1
:102E7000812E0008872E0008812E0008992E000858
:102E80000123FB7330E07B68DB6A03F08073002B67
:102E900025D00123FB7322E07B68DB6AB3F1C07F9E
:102EA0001FD10123FB731CE0BB68022B03D9BB6855
:102EB000032B03D018E00123FB7315E07B68DB6A6A
:102EC00003F08073002B0ED00123FB730BE000BFD7
:102ED0000AE000BF08E000BF06E000BF04E000BF5A
:102EE00002E000BF00E000BFFB7B18461437BD4680
:102EF00080BC704780B489B000AF7860396000232F
:102F00007B6100233B610023BB610023FB6159E12E
:102F10000122FB6902FA03F37B613B681B687A6953
:102F200013403B613A697B699A4240F048813B68B3
:102F30005B68012B0BD03B685B68022B07D03B68BA
:102F40005B68112B03D03B685B68122B30D17B6828
:102F50009B68BB61FB695B00032202FA03F3DB435E
:102F6000BA691340BB613B68DA68FB695B0002FA2F
:102F700003F3BA691343BB617B68BA699A607B68E3
:102F80005B68BB610122FB6902FA03F3DB43BA69A8
:102F90001340BB613B685B681B0903F00102FB69DE
:102FA00002FA03F3BA691343BB617B68BA695A60DA
:102FB0007B68DB68BB61FB695B00032202FA03F3F9
:102FC000DB43BA691340BB613B689A68FB695B00ED
:102FD00002FA03F3BA691343BB617B68BA69DA602A
:102FE0003B685B68022B03D03B685B68122B23D1E4
:102FF000FB69DA087B68083253F82230BB61FB6951
:1030000003F007039B000F2202FA03F3DB43BA69C4
:103010001340BB613B681A69FB6903F007039B001F
:1030200002FA03F3BA691343BB61FB69DA087B68F0
:103030000832B96943F822107B681B68BB61FB69E1
:103040005B00032202FA03F3DB43BA691340BB615E
:103050003B685B6803F00302FB695B0002FA03F361
:10306000BA691343BB617B68BA691A603B685B68E5
:1030700003F08053002B00F0A2800023FB60564B2E
:103080005B6C554A43F480435364534B5B6C03F4CD
:103090008043FB60FB68514AFB699B08023352F88E
:1030A0002330BB61FB6903F003039B000F2202FA8C
:1030B00003F3DB43BA691340BB617B68484A934220
:1030C00019D07B68474A934213D07B68464A9342A3
:1030D0000DD07B68454A934207D07B68444A9342AF
:1030E00001D1042308E0072306E0032304E00223C0
:1030F00002E0012300E00023FA6902F003029200DB
:103100009340BA691343BB613449FB699B0802339E
:10311000BA6941F82320374B1B68BB613B69DB432D
:10312000BA691340BB613B685B6803F48033002BD2
:1031300003D0BA693B691343BB612E4ABB69136074
:103140002C4B5B68BB613B69DB43BA691340BB61D5
:103150003B685B6803F40033002B03D0BA693B691A
:103160001343BB61234ABB695360224B9B68BB611D
:103170003B69DB43BA691340BB613B685B6803F49E
:103180008013002B03D0BA693B691343BB61194A12
:10319000BB699360174BDB68BB613B69DB43BA6972
:1031A0001340BB613B685B6803F40013002B03D042
:1031B000BA693B691343BB610E4ABB69D360FB69C3
:1031C0000133FB61FB690F2B7FF6A2AE00BF00BF8E
:1031D0002437BD4680BC70470038024000380140AB
:1031E000000002400004024000080240000C0240BF
:1031F00000100240003C014080B483B000AF786012
:103200000B467B8013467B707B78002B03D07A883B
:103210007B689A6103E07B881A047B689A6100BF2F
:103220000C37BD4680BC7047F0B58FB00AAF7860F0
:103230007B68002B01D101230FE17B681B68BB6019
:103240007B6893F8BD33DBB2002B06D17B6800228C
:1032500083F8BC23786806F0D7FE7B68032283F8E6
:10326000BD23BB68DB6B03F48073002B02D17B684A
:1032700000221A617B681B68184603F0C1FE7B6858
:103280001B683B607E686D4606F110040FCC0FC5CD
:103290000FCC0FC594E8030085E80300331D0ECB67
:1032A000386803F099FD0346002B05D07B680222A5
:1032B00083F8BD230123D0E07B681B6800211846FA
:1032C00003F0AEFE0023FB734AE0FA7B79681346F5
:1032D000DB009B1A9B000B443D3301221A70FA7BE2
:1032E00079681346DB009B1A9B000B443C33FA7B46
:1032F0001A70FA7BFB7B98B279681346DB009B1A45
:103300009B000B44423302461A80FA7B79681346CD
:10331000DB009B1A9B000B443F3300221A70FA7BA0
:1033200079681346DB009B1A9B000B444433002250
:103330001A60FA7B79681346DB009B1A9B000B44EA
:10334000483300221A60FA7B79681346DB009B1A27
:103350009B000B44503300221A60FB7B0133FB734C
:10336000FA7B7B685B689A42AFD30023FB7344E02F
:10337000FA7B79681346DB009B1A9B000B4403F22F
:10338000FD1300221A70FA7B79681346DB009B1A42
:103390009B000B4403F5FE73FA7B1A70FA7B796885
:1033A0001346DB009B1A9B000B4403F2FF13002221
:1033B0001A70FA7B79681346DB009B1A9B000B445A
:1033C00003F5017300221A60FA7B79681346DB006B
:1033D0009B1A9B000B4403F5027300221A60FA7BD0
:1033E00079681346DB009B1A9B000B4403F50473BA
:1033F00000221A60FB7B0133FB73FA7B7B685B68FE
:103400009A42B5D37B681B683B607E686D4606F1C7
:1034100010040FCC0FC50FCC0FC594E8030085E84E
:103420000300331D0ECB386803F024FE0346002B47
:1034300005D07B68022283F8BD2301230DE07B6861
:10344000002283F838207B68012283F8BD237B6843
:103450001B68184604F05DFE002318461437BD466D
:10346000F0BD80B584B000AF78607B681B68FB60FE
:103470007B6893F8BC33012B01D1022320E07B68E9
:10348000012283F8BC237B689B6A012B09D17B68EE
:103490009B69012B05D0FB689B6B43F48032FB6872
:1034A0009A637B681B68184603F09AFD7B681B686B
:1034B000184604F00EFE7B68002283F8BC2300232C
:1034C00018461037BD4680BD90B58DB000AF78600E
:1034D0007B681B683B623B6AFB617B681B68184624
:1034E00004F0C5FE0346002B40F09D837B681B68FB
:1034F000184604F02EFE0346002B00F093837B68F1
:103500001B68184604F025FE034603F00203022B55
:1035100007D17B681B685A697B681B6802F002024E
:103520005A617B681B68184604F013FE034603F0DB
:103530001003102B61D17B681B689A697B681B683C
:1035400022F010029A613B6A1B6ABB61BB6903F0FF
:103550000F021346DB009B1A9B0003F5FC737A688D
:10356000134404337B61BB695B0C03F00F03022B34
:1035700024D1BA6947F6F0731340002B35D07B692C
:10358000D968BB691B099BB2C3F30A039BB21A46F5
:10359000386A04F07FFC7B69DA68BB691B09C3F3F6
:1035A0000A031A447B69DA607B699A69BB691B0963
:1035B000C3F30A031A447B699A6116E0BB695B0C8A
:1035C00003F00F03062B10D17B6803F571730822FB
:1035D0001946386A04F05EFC7B699A69BB691B096D
:1035E000C3F30A031A447B699A617B681B689A6972
:1035F0007B681B6842F010029A617B681B68184662
:1036000004F0A7FD034603F40023B3F5002F6ED1A9
:1036100000237B627B681B68184604F0ACFDB8622F
:1036200062E0BB6A03F00103002B57D07B681B6884
:103630007A6AD2B21146184604F0CFFD38613B6970
:1036400003F00103002B0CD07B6A5A01FB69134481
:1036500003F530631A4601239360796A786800F0B5
:10366000AFFD3B6903F00803002B0CD07B6A5A01C5
:10367000FB69134403F530631A4608239360796AA3
:10368000786800F0A9FE3B6903F01003002B08D016
:103690007B6A5A01FB69134403F530631A46102311
:1036A00093603B6903F02003002B08D07B6A5A012A
:1036B000FB69134403F530631A46202393603B698A
:1036C00003F40053002B09D07B6A5A01FB691344B1
:1036D00003F530631A464FF4005393607B6A01335D
:1036E0007B62BB6A5B08BB62BB6A002B99D17B68BB
:1036F0001B68184604F02DFD034603F48023B3F540
:10370000802F40F0C0807B681B68184604F04CFD99
:10371000B86200237B62B2E0BB6A03F00103002BB6
:1037200000F0A7807B681B687A6AD2B211461846FF
:1037300004F070FD38613B6903F00103002B57D0A2
:103740007B6A03F00F03012202FA03F3FB60FB69BB
:1037500003F500635A6BFB68DB43F96901F500610F
:1037600013404B637B6A5A01FB69134403F51063F2
:103770001A46012393607B681B69012B32D179685B
:103780007A6A1346DB009B1A9B000B444833196886
:1037900078687A6A1346DB009B1A9B000344443323
:1037A0001B68194478687A6A1346DB009B1A9B00F1
:1037B0000344483319607B6A002B13D179687A6A15
:1037C0001346DB009B1A9B000B4450331B68002BF5
:1037D00008D17B6818687B6803F571731A4601216C
:1037E00004F074FD7B6ADBB21946786806F08DFC44
:1037F0003B6903F00803002B08D07B6A5A01FB6980
:10380000134403F510631A46082393603B6903F0E1
:103810001003002B08D07B6A5A01FB69134403F59F
:1038200010631A46102393603B6903F04003002B9A
:1038300008D07B6A5A01FB69134403F510631A46EA
:10384000402393603B6903F00203002B08D07B6A9E
:103850005A01FB69134403F510631A46022393606F
:103860003B6903F08003002B03D0796A786800F08D
:103870001AFC7B6A01337B62BB6A5B08BB62BB6A72
:10388000002B7FF449AF7B681B68184604F061FC8D
:10389000034603F00043B3F1004F22D1FB6903F567
:1038A00000635B68FA6902F5006223F0010353606C
:1038B0007B6893F8F433012B08D17B68002283F8EE
:1038C000F4230021786800F023FE02E0786806F017
:1038D00089FC7B681B685A697B681B6802F00042A0
:1038E0005A617B681B68184604F033FC034603F4F6
:1038F0000063B3F5006F12D1FB6903F500639B68A9
:1039000003F00103012B02D1786806F045FC7B68C7
:103910001B685A697B681B6802F400625A617B6805
:103920001B68184604F015FC034603F48053B3F5F6
:10393000805F40F0C780FB6903F500635B68FA694C
:1039400002F5006223F0010353607B681B681021BD
:10395000184603F0F3FC0023FB6256E0FB6A5A01B1
:10396000FB69134403F510631A464FF67F339360E7
:10397000FB6A5A01FB69134403F510631B68FA6A7A
:103980005101FA690A4402F5106223F4001313602E
:10399000FB6A5A01FB69134403F510631B68FA6A5A
:1039A0005101FA690A4402F5106243F000631360A2
:1039B000FB6A5A01FB69134403F530631A464FF65C
:1039C0007F339360FB6A5A01FB69134403F530634C
:1039D0001B68FA6A5101FA690A4402F5306223F45D
:1039E00000131360FB6A5A01FB69134403F530634B
:1039F0001B68FA6A5101FA690A4402F5306243F021
:103A000000631360FB6A0133FB627B685B68FA6AE0
:103A10009A42A3D3FB6903F50063DB69FA6902F5F7
:103A2000006243F00113D3617B681B6B002B16D03F
:103A3000FB6903F50063D3F88430FA6902F500628C
:103A400043F00B03C2F88430FB6903F500635B6C41
:103A5000FA6902F5006243F00B03536415E0FB6959
:103A600003F500635B69FA6902F5006243F40053F1
:103A700043F02B035361FB6903F500631B69FA698B
:103A800002F5006243F00B031361FB6903F5006369
:103A90001B68FA6902F5006223F4FE6313607B6819
:103AA00018687B681B69D9B27B6803F571731A4685
:103AB00004F00CFC7B681B685A697B681B6802F485
:103AC00080525A617B681B68184604F042FB03462B
:103AD00003F40053B3F5005F24D17B681B681846DC
:103AE00004F0D2FB7B681B68184603F083FC034696
:103AF0001A467B68DA607B681C6801F04DF9014664
:103B00007B68DB68DBB21A46204603F0C7F97868A9
:103B100006F023FB7B681B685A697B681B6802F40C
:103B200000525A617B681B68184604F012FB03467A
:103B300003F00803082B0AD1786806F000FB7B68C5
:103B40001B685A697B681B6802F008025A617B682F
:103B50001B68184604F0FDFA034603F48013B3F51E
:103B6000801F0FD100237B627B6ADBB21946786825
:103B700006F058FB7B681B685A697B681B6802F477
:103B800080125A617B681B68184604F0E2FA03460B
:103B900003F40013B3F5001F0FD100237B627B6A8F
:103BA000DBB21946786806F02BFB7B681B685A6904
:103BB0007B681B6802F400125A617B681B68184618
:103BC00004F0C7FA034603F08043B3F1804F0AD1F3
:103BD000786806F039FB7B681B685A697B681B684C
:103BE00002F080425A617B681B68184604F0B1FA03
:103BF000034603F00403042B15D17B681B685B6844
:103C0000BB61BB6903F00403002B02D0786806F0A7
:103C100029FB7B681B6859687B681B68BA690A4383
:103C20005A6000E000BF3437BD4690BD80B582B019
:103C300000AF78600B46FB707B6893F8BC33012BB8
:103C400001D1022313E07B68012283F8BC237B6847
:103C5000FA7883F838207B681B68FA781146184692
:103C600004F012FA7B68002283F8BC230023184674
:103C70000837BD4680BD80B584B000AF7860084687
:103C800011461A460346FB700B463B801346BB7039
:103C90000023FB7297F90330002B0FDAFB7803F057
:103CA0000F021346DB009B1A9B0038337A681344DB
:103CB0000433FB60FB6801225A700FE0FB7803F0CD
:103CC0000F021346DB009B1A9B0003F5FC737A6816
:103CD00013440433FB60FB6800225A70FB7803F046
:103CE0000F03DAB2FB681A703A88FB689A60FB68C7
:103CF000BA78DA70FB685B78002B04D0FB681B781D
:103D00009AB2FB68DA80BB78022B02D1FB680022F2
:103D10001A717B6893F8BC33012B01D102230EE0AA
:103D20007B68012283F8BC237B681B68F96818460E
:103D300003F084FB7B68002283F8BC23FB7A1846DF
:103D40001037BD4680BD80B584B000AF78600B46AB
:103D5000FB7097F90330002B0FDAFB7803F00F02AA
:103D60001346DB009B1A9B0038337A6813440433F4
:103D7000FB60FB6801225A700FE0FB7803F00F0232
:103D80001346DB009B1A9B0003F5FC737A6813440F
:103D90000433FB60FB6800225A70FB7803F00F03CA
:103DA000DAB2FB681A707B6893F8BC33012B01D13F
:103DB00002230EE07B68012283F8BC237B681B682A
:103DC000F968184603F0C0FB7B68002283F8BC2327
:103DD000002318461037BD4680BD80B586B000AFC1
:103DE000F8607A603B600B46FB72FB7A03F00F02CF
:103DF0001346DB009B1A9B0003F5FC73FA6813441F
:103E000004337B617B697A68DA607B693A685A615E
:103E10007B6900229A617B6900225A70FB7A03F069
:103E20000F03DAB27B691A70FB681B69012B02D1A0
:103E30007A687B691A61FB7A03F00F03002B09D1C2
:103E4000FB681868FB681B69DBB21A46796903F0E6
:103E50009BFE08E0FB681868FB681B69DBB21A462A
:103E6000796903F04DFC002318461837BD4680BD24
:103E700080B483B000AF78600B46FB70FB7803F032
:103E80000F0279681346DB009B1A9B000B4403F575
:103E900005731B6818460C37BD4680BC704780B55B
:103EA00086B000AFF8607A603B600B46FB72FB7A2D
:103EB00003F00F021346DB009B1A9B003833FA68AD
:103EC000134404337B617B697A68DA607B693A6802
:103ED0005A617B6900229A617B6901225A70FB7AE0
:103EE00003F00F03DAB27B691A70FB681B69012BC0
:103EF00002D17A687B691A61FB7A03F00F03002B09
:103F000009D1FB681868FB681B69DBB21A4679693E
:103F100003F03AFE08E0FB681868FB681B69DBB237
:103F20001A46796903F0ECFB002318461837BD46A2
:103F300080BD80B584B000AF78600B46FB70FB7825
:103F400003F00F027B685B689A4201D9012350E0BD
:103F500097F90330002B0FDAFB7803F00F021346BA
:103F6000DB009B1A9B0038337A6813440433FB60F0
:103F7000FB6801225A700DE0FA781346DB009B1AA9
:103F80009B0003F5FC737A6813440433FB60FB6801
:103F900000225A70FB6801229A70FB7803F00F032D
:103FA000DAB2FB681A707B6893F8BC33012B01D13D
:103FB00002231EE07B68012283F8BC237B681B6818
:103FC000F968184603F08EFFFB7803F00F03002B0F
:103FD0000AD17B6818687B681B69D9B27B6803F5D6
:103FE00071731A4604F072F97B68002283F8BC23CF
:103FF000002318461037BD4680BD80B584B000AFA1
:1040000078600B46FB70FB7803F00F027B685B68FF
:104010009A4201D9012342E097F90330002B0FDACD
:10402000FB7803F00F021346DB009B1A9B0038332A
:104030007A6813440433FB60FB6801225A700FE076
:10404000FB7803F00F021346DB009B1A9B0003F57D
:10405000FC737A6813440433FB60FB6800225A70D7
:10406000FB6800229A70FB7803F00F03DAB2FB685A
:104070001A707B6893F8BC33012B01D102230EE048
:104080007B68012283F8BC237B681B68F9681846AB
:1040900003F095FF7B68002283F8BC2300231846B9
:1040A0001037BD4680BD80B58AB002AF78603960F8
:1040B0007B681B687B617B693B613A681346DB0068
:1040C0009B1A9B0038337A6813440433FB60FB6807
:1040D0009A69FB685B699A4201D901236CE0FB682D
:1040E0005A69FB689B69D31AFB61FB689B68FA6994
:1040F0009A4202D9FB689B68FB61FB6903339B080A
:10410000BB612BE0FB685A69FB689B69D31AFB61B2
:10411000FB689B68FA699A4202D9FB689B68FB615D
:10412000FB6903339B08BB61FB68D9683B68DAB263
:10413000FB6998B27B681B69DBB200930346786920
:1041400003F074FEFB68DA68FB691A44FB68DA6006
:10415000FB689A69FB691A44FB689A613B685A01DB
:104160003B69134403F510639B699BB2BA699A4299
:1041700009D8FB689A69FB685B699A4203D2FB68BD
:104180005B69002BBED1FB685A69FB689B699A4248
:1041900011D83B6803F00F03012202FA03F3BB605E
:1041A0003B6903F500635A6BBB68DB43396901F572
:1041B000006113404B63002318462037BD4680BD85
:1041C00080B586B000AF786039607B681B687B6122
:1041D0007B693B617B693C3304331B68FB603B6854
:1041E0005A013B69134403F530639B68BB607B68ED
:1041F0001B69012B40F0A080BB6803F00803002B73
:1042000015D0FB68724A934240F2DD80BB6803F42C
:104210000043002B00F0D7803B685A013B691344F0
:1042200003F530631A464FF400439360CBE0BB685C
:1042300003F02003002B09D03B685A013B6913446B
:1042400003F530631A4620239360BCE0BB6803F09B
:104250002803002B40F0B780FB685D4A93420FD9DA
:10426000BB6803F40043002B0AD03B685A013B694A
:10427000134403F530631A464FF400439360A2E001
:1042800079683A681346DB009B1A9B000B4403F5E0
:1042900001731A683B6859013B690B4403F53063AD
:1042A0001B69C3F31203D11A78683A681346DB001E
:1042B0009B1A9B00034403F50573196079683A68FB
:1042C0001346DB009B1A9B000B4403F5027319682D
:1042D00078683A681346DB009B1A9B00034403F599
:1042E00001731B68194478683A681346DB009B1A0F
:1042F0009B00034403F5027319603B68002B14D143
:1043000079683A681346DB009B1A9B000B4403F55F
:1043100004731B68002B08D17B6818687B6803F561
:1043200071731A46012103F0D1FF3B68DBB21946D5
:10433000786805F0CFFE46E0FB68264A934224D118
:10434000BB6803F40043002B0AD03B685A013B6969
:10435000134403F530631A464FF40043936032E090
:10436000BB6803F02003002B08D03B685A013B696F
:10437000134403F530631A46202393603B68DBB295
:104380001946786805F0A6FE1DE03B68002B14D1A5
:1043900079683A681346DB009B1A9B000B4403F5CF
:1043A00004731B68002B08D17B6818687B6803F5D1
:1043B00071731A46002103F089FF3B68DBB219468E
:1043C000786805F087FE002318461837BD4680BD83
:1043D0000A30544F0A31544F80B586B000AF786030
:1043E00039607B681B687B617B693B617B693C331F
:1043F00004331B68FB603B685A013B69134403F5B7
:1044000030639B68BB60FB68154A93420ED9BB685A
:1044100003F40043002B09D03B685A013B69134465
:1044200003F530631A464FF400439360786805F053
:104430003FFEFB680A4A93420CD97B681B69012B3B
:1044400008D17B6818687B6803F571731A460121EF
:1044500003F03CFF002318461837BD4680BD00BF5F
:104460000A30544F80B485B000AF78600B46FB70C3
:1044700013463B807B681B685B6ABB60FB78002B44
:1044800007D13B8819047B681B68BA680A439A62A3
:1044900028E07B681B689B6A1B0CBA681344BB60EE
:1044A0000023FB730DE07B681A68FB7B40339B00A5
:1044B00013445B681B0CBA681344BB60FB7B01337D
:1044C000FB73FA7BFB78013B9A42ECD33B881804E0
:1044D0007B681968FB78013BBA68024340339B0054
:1044E0000B445A60002318461437BD4680BC704701
:1044F00080B483B000AF78600B467B807B681B681C
:104500007A885A62002318460C37BD4680BC704733
:1045100080B483B000AF78600B46FB7000BF0C37EF
:10452000BD4680BC7047000080B586B000AF7860A3
:104530007B68002B01D101235BE27B681B6803F0E1
:104540000103002B75D0A34B9B6803F00C03042BD5
:104550000CD0A04B9B6803F00C03082B12D19D4B91
:104560005B6803F48003B3F5800F0BD1994B1B6894
:1045700003F40033002B5BD07B685B68002B57D1C2
:10458000012336E27B685B68B3F5803F06D1914B2F
:104590001B68904A43F4803313601DE07B685B68BE
:1045A000B3F5A02F0CD18B4B1B688A4A43F48023B0
:1045B0001360884B1B68874A43F4803313600BE019
:1045C000844B1B68834A23F480331360814B1B6840
:1045D000804A23F4802313607B685B68002B13D030
:1045E000FDF7BEFF386108E0FDF7BAFF02463B6900
:1045F000D31A642B01D90323FBE1764B1B6803F428
:104600000033002BF0D014E0FDF7AAFF386108E07A
:10461000FDF7A6FF02463B69D31A642B01D9032399
:10462000E7E16C4B1B6803F40033002BF0D100E092
:1046300000BF7B681B6803F00203002B63D0654B4F
:104640009B6803F00C03002B0BD0624B9B6803F0BC
:104650000C03082B1CD15F4B5B6803F48003002B19
:1046600016D15C4B1B6803F00203002B05D07B685E
:10467000DB68012B01D00123BBE1564B1B6823F003
:10468000F8027B681B69DB00524913430B603AE078
:104690007B68DB68002B20D04F4B01221A60FDF7AE
:1046A0005FFF386108E0FDF75BFF02463B69D31A04
:1046B000022B01D903239CE1464B1B6803F0020344
:1046C000002BF0D0434B1B6823F0F8027B681B697A
:1046D000DB00404913430B6015E03F4B00221A609A
:1046E000FDF73EFF386108E0FDF73AFF02463B69FF
:1046F000D31A022B01D903237BE1364B1B6803F04D
:104700000203002BF0D17B681B6803F00803002B29
:1047100030D07B685B69002B16D0304B01221A60C9
:10472000FDF71EFF386108E0FDF71AFF02463B69FE
:10473000D31A022B01D903235BE1264B5B6F03F0F5
:104740000203002BF0D015E0244B00221A60FDF785
:1047500007FF386108E0FDF703FF02463B69D31A03
:10476000022B01D9032344E11A4B5B6F03F00203D0
:10477000002BF0D17B681B6803F00403002B00F0D2
:10478000A0800023FB75134B1B6C03F08053002BA0
:104790000FD10023BB600F4B1B6C0E4A43F08053BC
:1047A00013640C4B1B6C03F08053BB60BB6801238C
:1047B000FB750B4B1B6803F48073002B21D1084B56
:1047C0001B68074A43F480731360FDF7C9FE386124
:1047D00011E000BF0038024000004742800E47420F
:1047E00000700040FDF7BCFE02463B69D31A022B65
:1047F00001D90323FDE0814B1B6803F48073002B78
:10480000F0D07B689B68012B06D17D4B1B6F7C4AE7
:1048100043F0010313671CE07B689B68052B0CD1F8
:10482000774B1B6F764A43F004031367744B1B6F7F
:10483000734A43F0010313670BE0714B1B6F704A1F
:1048400023F0010313676E4B1B6F6D4A23F00403C3
:1048500013677B689B68002B15D0FDF781FE3861DC
:104860000AE0FDF77DFE02463B69D31A41F2883229
:10487000934201D90323BCE0614B1B6F03F0020399
:10488000002BEED014E0FDF76BFE38610AE0FDF777
:1048900067FE02463B69D31A41F28832934201D93E
:1048A0000323A6E0564B1B6F03F00203002BEED14F
:1048B000FB7D012B05D1524B1B6C514A23F08053D9
:1048C00013647B689B69002B00F092804C4B9B68C3
:1048D00003F00C03082B5CD07B689B69022B41D151
:1048E000484B00221A60FDF73BFE386108E0FDF7F7
:1048F00037FE02463B69D31A022B01D9032378E025
:104900003F4B1B6803F00073002BF0D17B68DA6922
:104910007B681B6A1A437B685B6A9B011A437B684E
:104920009B6A5B08013B1B041A437B68DB6A1B061E
:10493000334913434B60334B01221A60FDF710FEDD
:10494000386108E0FDF70CFE02463B69D31A022BE2
:1049500001D903234DE02A4B1B6803F00073002BA1
:10496000F0D045E0274B00221A60FDF7F9FD3861D1
:1049700008E0FDF7F5FD02463B69D31A022B01D989
:10498000032336E01E4B1B6803F00073002BF0D1AD
:104990002EE07B689B69012B01D1012329E0184B94
:1049A0005B68FB60FB6803F480027B68DB699A420A
:1049B0001CD1FB6803F03F027B681B6A9A4215D149
:1049C000FA6847F6C07313407A68526A93420DD171
:1049D000FB6803F440327B689B6A9A4206D1FB680D
:1049E00003F070627B68DB6A9A4201D0012300E029
:1049F000002318461837BD4680BD00BF0070004038
:104A0000003802406000474280B584B000AF786053
:104A100039607B68002B01D10123CCE0684B1B6817
:104A200003F00F033A689A420CD9654B3A68D2B248
:104A30001A70634B1B6803F00F033A689A4201D067
:104A40000123B8E07B681B6803F00203002B20D031
:104A50007B681B6803F00403002B05D0594B9B684F
:104A6000584A43F4E05393607B681B6803F00803E3
:104A7000002B05D0534B9B68524A43F4604393602C
:104A8000504B9B6823F0F0027B689B684D491343B1
:104A90008B607B681B6803F00103002B44D07B68AC
:104AA0005B68012B07D1474B1B6803F40033002BD5
:104AB00019D101237FE07B685B68022B03D07B6800
:104AC0005B68032B07D13F4B1B6803F00073002B7F
:104AD00009D101236FE03B4B1B6803F00203002B5D
:104AE00001D1012367E0374B9B6823F003027B6809
:104AF0005B68344913438B60FDF732FDF8600AE0D0
:104B0000FDF72EFD0246FB68D31A41F2883293422C
:104B100001D903234FE02B4B9B6803F00C027B6809
:104B20005B689B009A42EBD1254B1B6803F00F0397
:104B30003A689A420CD2224B3A68D2B21A70204B91
:104B40001B6803F00F033A689A4201D0012332E058
:104B50007B681B6803F00403002B08D0194B9B688B
:104B600023F4E0527B68DB68164913438B607B6853
:104B70001B6803F00803002B09D0124B9B6823F439
:104B800060427B681B69DB000E4913438B6000F0B9
:104B900021F802460B4B9B681B0903F00F030A49DF
:104BA000CB5C22FA03F3094A1360094B1B681846D1
:104BB000FDF794FC002318461037BD4680BD00BFAA
:104BC000003C024000380240B0A60008640000200B
:104BD000680000202DE9B04384B000AF00237B6063
:104BE0000023FB6000233B600023BB60674B9B6896
:104BF00003F00C03082B0DD0082B00F2BD80002B16
:104C000002D0042B03D0B7E0614BBB60B7E0614B2F
:104C1000BB60B4E05D4B5B6803F03F037B605B4BC4
:104C20005B6803F48003002B4DD0584B5B689B09F5
:104C30001A464FF0000340F2FF104FF0000102EA65
:104C4000000803EA0109404649464FF000024FF0D0
:104C500000034B0143EAD063420110461946B0EB12
:104C6000080061EB09014FF000024FF000038B01D7
:104C700043EA90638201121A63EB01034FF00000D4
:104C80004FF00001D90041EA5271D00002460B46B4
:104C900012EB080243EB09034FF000004FF0000154
:104CA000590241EAD251500202460B4610461946BB
:104CB0007B681A464FF00003FBF7B6FA02460B4634
:104CC0001346FB604AE0314B5B689B091A464FF084
:104CD000000340F2FF104FF0000102EA000403EA73
:104CE0000105204629464FF000024FF000034B011A
:104CF00043EAD063420110461946001B61EB0501EF
:104D00004FF000024FF000038B0143EA90638201F1
:104D1000121A63EB01034FF000004FF00001D900BD
:104D200041EA5271D00002460B46121945EB0303CB
:104D30004FF000004FF00001990241EA92519002B9
:104D400002460B46104619467B681A464FF0000390
:104D5000FBF76AFA02460B461346FB600B4B5B6897
:104D60001B0C03F0030301335B003B60FA683B68F4
:104D7000B2FBF3F3BB6002E0054BBB6000BFBB6856
:104D800018461037BD46BDE8B08300BF003802406A
:104D90000024F40000127A0080B400AF024B1B68BC
:104DA0001846BD4680BC70476400002080B500AF47
:104DB000FFF7F2FF0246054B9B689B0A03F00703CF
:104DC0000349CB5C22FA03F3184680BD0038024049
:104DD000C0A6000880B500AFFFF7DEFF0246054B16
:104DE0009B685B0B03F007030349CB5C22FA03F3D8
:104DF000184680BD00380240C0A6000880B582B0C9
:104E000000AF78607B68002B01D1012356E07B68FE
:104E100000229A627B6893F85130DBB2002B06D1F6
:104E20007B68002283F850207868FCF7E9FF7B68F4
:104E3000022283F851207B681B681A687B681B6814
:104E400022F040021A607B685A687B689B681A43AC
:104E50007B68DB681A437B681B691A437B685B6964
:104E60001A437B689B6903F400731A437B68DB6910
:104E70001A437B681B6A42EA03017B689A6A7B6873
:104E80001B680A431A607B689B691B0C03F00401D2
:104E90007B685A6A7B681B680A435A607B681B6898
:104EA000DA697B681B6822F40062DA617B680022A1
:104EB0005A657B68012283F8512000231846083781
:104EC000BD4680BD80B586B000AFF860B9607A603D
:104ED0007B800023FB75FB6893F85030012B01D1D8
:104EE0000223E3E0FB68012283F85020FB6893F87B
:104EF0005130BB75FB685B683B61BB7D012B0DD0FE
:104F00003B69B3F5827F06D1FB689B68002B02D119
:104F1000BB7D042B02D00223FB75C2E0BB68002BD3
:104F200005D07B68002B02D07B88002B02D10123A7
:104F3000FB75B6E0FB6893F85130DBB2042B03D06D
:104F4000FB68052283F85120FB6800225A65FB6844
:104F5000BA681A63FB687A889A86FB687A88DA8668
:104F6000FB687A689A63FB687A889A87FB687A8814
:104F7000DA87FB6800221A64FB6800225A64FB6827
:104F800093F85130DBB2042B08D1FB68DB6C494A43
:104F90001A64FB68DB6C484ADA6307E0FB68DB6C89
:104FA000464A1A64FB68DB6C454ADA63FB68DB6CD3
:104FB000444ADA64FB68DB6C00221A65FB68D86C33
:104FC000FB681B680C331946FB689B6B1A46FB6831
:104FD000DB8F9BB2FDF7AEFC0346002B0CD0FB68C9
:104FE0005B6D43F01002FB685A650123FB75FB689B
:104FF000012283F8512054E0FB681B685A68FB6863
:105000001B6842F001025A60FB689B6C00221A6424
:10501000FB689B6C0022DA63FB689B6C0022DA64FD
:10502000FB689B6C00221A65FB68986CFB681B6B25
:105030001946FB681B680C331A46FB68DB8E9BB273
:10504000FDF778FC0346002B0CD0FB685B6D43F04A
:105050001002FB685A650123FB75FB68012283F887
:1050600051201EE0FB681B681B6803F04003402BC7
:1050700007D0FB681B681A68FB681B6842F0400297
:105080001A60FB681B685A68FB681B6842F02002C4
:105090005A60FB681B685A68FB681B6842F0020292
:1050A0005A60FB68002283F85020FB7D18461837B1
:1050B000BD4680BD495400081153000865540008DE
:1050C000B95300088154000880B588B000AF7860FB
:1050D0007B681B685B68FB617B681B689B68BB61C6
:1050E000BB699B0903F00103002B0FD1BB6903F0DF
:1050F0000103002B0AD0FB699B0903F00103002B7D
:1051000004D07B681B6C78689847D7E0BB695B0864
:1051100003F00103002B0AD0FB69DB0903F0010354
:10512000002B04D07B685B6C78689847C6E0BB694D
:105130005B0903F00103002B0CD1BB699B0903F051
:105140000103002B06D1BB691B0A03F00103002BEE
:1051500000F0B480FB695B0903F00103002B00F051
:10516000AD80BB699B0903F00103002B23D07B6852
:1051700093F85130DBB2032B11D07B685B6D43F0A9
:1051800004027B685A6500237B617B681B68DB68CF
:105190007B617B681B689B687B617B690BE00023FC
:1051A0003B617B681B68DB683B617B681B689B68B5
:1051B0003B613B6982E0BB695B0903F00103002BA3
:1051C00014D07B685B6D43F001027B685A65002355
:1051D000FB607B681B689B68FB607B681B681A68C8
:1051E0007B681B6822F040021A60FB68BB691B0ADF
:1051F00003F00103002B0CD07B685B6D43F00802C9
:105200007B685A650023BB607B681B689B68BB603A
:10521000BB687B685B6D002B4FD07B681B685A684E
:105220007B681B6822F0E0025A607B68012283F8E9
:105230005120FB6903F00203002B04D1FB6903F04A
:105240000103002B34D07B681B685A687B681B689D
:1052500022F003025A607B68DB6C002B11D07B6864
:10526000DB6C184A1A657B68DB6C1846FDF7BAFBE5
:105270000346002B05D07B685B6D43F040027B68E2
:105280005A657B689B6C002B16D07B689B6C0D4A23
:105290001A657B689B6C1846FDF7A4FB0346002B40
:1052A0000AD07B685B6D43F040027B685A6503E07F
:1052B000786800F024F800E000BF00BF2037BD464A
:1052C00080BD00BFC154000880B483B000AF7860D7
:1052D00000BF0C37BD4680BC704780B483B000AFC0
:1052E000786000BF0C37BD4680BC704780B483B087
:1052F00000AF786000BF0C37BD4680BC704780B4FB
:1053000083B000AF786000BF0C37BD4680BC7047EB
:1053100080B584B000AF78607B689B6BFB60FDF765
:105320001FF9B8607B681B681B6803F48073B3F5D2
:10533000807F3BD0FB681B685A68FB681B6822F0C3
:1053400020025A60FB689B68002B0DD1FB685B68EC
:10535000B3F5827F08D1FB681B685A68FB681B683D
:1053600022F003025A6007E0FB681B685A68FB687A
:105370001B6822F001025A60BA686421F86800F0E4
:105380001DF90346002B02D0FB6820225A65FB68FA
:105390000022DA87FB68012283F85120FB685B6DED
:1053A000002B03D0F868FFF7AAFF02E0F868FFF7C8
:1053B0008BFF1037BD4680BD80B584B000AF7860EC
:1053C0007B689B6BFB60FDF7CBF8B8607B681B6864
:1053D0001B6803F48073B3F5807F2FD0FB681B68D4
:1053E0005A68FB681B6822F020025A60BA68642180
:1053F000F86800F049F90346002B05D0FB685B6DA7
:1054000043F02002FB685A65FB681B685A68FB681A
:105410001B6822F003025A60FB680022DA86FB68F0
:105420000022DA87FB68012283F85120FB685B6D5C
:10543000002B03D0F868FFF762FF02E0F868FCF782
:10544000C9F81037BD4680BD80B584B000AF786024
:105450007B689B6BFB60F868FFF73FFF00BF10376E
:10546000BD4680BD80B584B000AF78607B689B6B23
:10547000FB60F868FFF73AFF00BF1037BD4680BDFC
:1054800080B584B000AF78607B689B6BFB60FB6885
:105490001B685A68FB681B6822F003025A60FB68AD
:1054A0005B6D43F01002FB685A65FB68012283F8CC
:1054B0005120F868FFF723FF00BF1037BD4680BDBD
:1054C00080B584B000AF78607B689B6BFB60FB6845
:1054D0000022DA87FB680022DA86F868FFF70FFF00
:1054E00000BF1037BD4680BD80B584B000AFF86006
:1054F000B9603B601346FB714CE03B68B3F1FF3F82
:1055000048D0FDF72DF80246BB69D31A3A689A4293
:1055100002D93B68002B3DD1FB681B685A68FB68C9
:105520001B6822F0E0025A60FB685B68B3F5827F7B
:1055300011D1FB689B68B3F5004F04D0FB689B68F2
:10554000B3F5806F07D1FB681B681A68FB681B689E
:1055500022F040021A60FB689B6AB3F5005F0FD12E
:10556000FB681B681A68FB681B6822F400521A600B
:10557000FB681B681A68FB681B6842F400521A60DB
:10558000FB68012283F85120FB68002283F8502039
:1055900003230FE0FB681B689A68BB681340BA6876
:1055A0009A420CBF01230023DBB21A46FB799A42D0
:1055B000A3D1002318461037BD4680BD80B586B004
:1055C00002AFF860B9607A60FB685B68B3F5827F10
:1055D00011D1FB689B68B3F5004F04D0FB689B6852
:1055E000B3F5806F07D1FB681B681A68FB681B68FE
:1055F00022F040021A60FB685B68B3F5827F2AD113
:10560000FB689B68B3F5806F12D07B680093BB6822
:1056100000228021F868FFF767FF0346002B2DD09A
:10562000FB685B6D43F02002FB685A65032326E0AC
:105630007B680093BB6800220121F868FFF754FFE4
:105640000346002B1AD0FB685B6D43F02002FB6819
:105650005A65032313E07B680093BB680022012195
:10566000F868FFF741FF0346002B07D0FB685B6D2E
:1056700043F02002FB685A65032300E0002318462C
:105680001037BD4680BD000080B588B002AFF8601D
:10569000B9607A601B4B1B681B4AA2FB03235B0D9E
:1056A0004FF47A7202FB03F37B61FB685B68B3F52E
:1056B000827F12D17B680093BB6800228021F8684A
:1056C000FFF712FF0346002B16D0FB685B6D43F01B
:1056D0002002FB685A6503230FE07B69002B0AD088
:1056E0007B69013B7B61FB681B689B6803F080035F
:1056F000802BF2D000E000BF002318461837BD46CB
:1057000080BD00BF64000020819F5E1680B582B01E
:1057100000AF78607B68002B01D101231DE07B681E
:1057200093F83D30DBB2002B06D17B68002283F872
:105730003C207868FCF718FC7B68022283F83D2047
:105740007B681A687B6804331946104600F0C8F974
:105750007B68012283F83D20002318460837BD46A8
:1057600080BD80B582B000AF78607B68002B01D12E
:1057700001231DE07B6893F83D30DBB2002B06D19E
:105780007B68002283F83C20786800F015F87B687D
:10579000022283F83D207B681A687B68043319462F
:1057A000104600F09DF97B68012283F83D2000231C
:1057B00018460837BD4680BD80B483B000AF78601E
:1057C00000BF0C37BD4680BC7047000080B584B078
:1057D00000AFF860B9607A60FB6893F83C30012B49
:1057E00001D10223B4E0FB68012283F83C20FB686E
:1057F000022283F83D207B680C2B00F29F8001A2DF
:1058000052F823F0395800083D5900083D59000866
:105810003D590008795800083D5900083D590008D5
:105820003D590008BB5800083D5900083D59000883
:105830003D590008FB580008FB681B68B96818460A
:1058400000F0CCF9FB681B689A69FB681B6842F0A2
:1058500008029A61FB681B689A69FB681B6822F062
:1058600004029A61FB681B689969BB681A69FB6846
:105870001B680A439A6162E0FB681B68B9681846B6
:1058800000F012FAFB681B689A69FB681B6842F417
:1058900000629A61FB681B689A69FB681B6822F4C6
:1058A00080629A61FB681B689969BB681B691A0270
:1058B000FB681B680A439A6141E0FB681B68B96892
:1058C000184600F05BFAFB681B68DA69FB681B6826
:1058D00042F00802DA61FB681B68DA69FB681B6842
:1058E00022F00402DA61FB681B68D969BB681A6997
:1058F000FB681B680A43DA6121E0FB681B68B96832
:10590000184600F0A5FAFB681B68DA69FB681B689B
:1059100042F40062DA61FB681B68DA69FB681B68A5
:1059200022F48062DA61FB681B68D969BB681B6975
:105930001A02FB681B680A43DA6100E000BFFB68DB
:10594000012283F83D20FB68002283F83C200023DD
:1059500018461037BD4680BD80B584B000AF786072
:1059600039607B6893F83C30012B01D10223B3E00E
:105970007B68012283F83C207B68022283F83D206B
:105980007B681B689B68FB60FB6823F07703FB6008
:10599000FB6823F47F43FB607B681B68FA689A60AE
:1059A0003B681B68B3F5005F3ED0B3F5005F00F2C3
:1059B0008780B3F5805F00F08580B3F5805F7FD886
:1059C000702B1AD0702B7BD8602B50D0602B77D8DF
:1059D000502B3CD0502B73D8402B58D0402B6FD835
:1059E000302B64D0302B6BD8202B60D0202B67D885
:1059F000002B5CD0102B5AD062E07B6818683B68A3
:105A000099683B685A683B68DB6800F0E6FA7B6897
:105A10001B689B68FB60FB6843F07703FB607B6857
:105A20001B68FA689A604EE07B6818683B68996862
:105A30003B685A683B68DB6800F0CFFA7B681B68FC
:105A40009A687B681B6842F480429A603BE07B68FE
:105A500018683B6859683B68DB681A4600F046FAEC
:105A60007B681B685021184600F09DFA2BE07B688C
:105A700018683B6859683B68DB681A4600F064FAAE
:105A80007B681B686021184600F08DFA1BE07B687C
:105A900018683B6859683B68DB681A4600F026FACC
:105AA0007B681B684021184600F07DFA0BE07B689C
:105AB0001A683B681B681946104600F074FA02E049
:105AC00000BF00E000BF7B68012283F83D207B68B7
:105AD000002283F83C20002318461037BD4680BDC5
