:020000040800F2
:1000000000000220E99500080914000815140008F2
:100010001D140008251400082D140008000000001D
:10002000000000000000000000000000351400087F
:1000300041140008000000004D1400085914000885
:100040003996000839960008399600083996000854
:100050003996000839960008399600083996000844
:10006000399600083996000839960008651400088A
:1000700079140008399600088D1400083996000894
:10008000A114000839960008399600080000000005
:100090000000000000000000000000003996000889
:1000A00039960008399600083996000839960008F4
:1000B00039960008399600083996000839960008E4
:1000C000399600083996000839960008B5140008DA
:1000D0003996000839960008C9140008000000008D
:1000E000399600083996000839960008000000008B
:1000F0000000000000000000000000003996000829
:10010000000000003996000839960008399600086A
:1001100000000000000000000000000000000000DF
:10012000DD14000839960008F1140008399600081B
:1001300039960008000000000000000000000000E8
:10014000000000000000000000000000051500088D
:100150003996000839960008399600083996000843
:1001600039960008399600080000000000000000E1
:10017000000000000000000000000000000000007F
:100180000000000039960008000000000000000098
:080190003996000839960008B9
:1001980010B5054C237833B9044B13B10448AFF3B9
:1001A80000800123237010BDE4010020000000003E
:1001B80040980008084B10B51BB108490848AFF330
:1001C80000800848036803B910BD074B002BFBD01B
:1001D800BDE81040184700BF00000000E8010020FB
:1001E80040980008E40100200000000053B94AB913
:1001F800002908BF00281CBF4FF0FF314FF0FF3027
:1002080000F07EB9ADF1080C6DE904CE00F006F8F7
:10021800DDF804E0DDE9022304B070472DE9F0477A
:100228008C460E460446089D002B50D18A4217463C
:100238006CD9B2FA82FEBEF1000F0BD0CEF12004C9
:1002480020FA04F401FA0EF644EA060C02FA0EF754
:1002580000FA0EF44FEA1749220CBCFBF9F01FFA1A
:1002680087F809FB10C642EA064600FB08F3B342CA
:1002780009D9F61900F1FF3280F02281B34240F229
:100288001F8102383E44F61AA2B2B6FBF9F309FB05
:10029800136642EA064403FB08F8A04509D9E419A5
:1002A80003F1FF3280F00A81A04540F20781023B4A
:1002B8003C44C8EB040443EA00400021002D62D00E
:1002C80024FA0EF400232C606B60BDE8F0878B42A3
:1002D80007D9002D55D0002185E841000846BDE822
:1002E800F087B3FA83F1002940F09080B34202D33B
:1002F800824200F2F880841A66EB03060120B446B5
:10030800002D40D085E81010BDE8F08712B901270C
:10031800B7FBF2F7B7FA87FEBEF1000F35D1F31B32
:100328004FEA17481FFA87FC0121B3FBF8F0220CAB
:1003380008FB103642EA06460CFB00F3B34207D925
:10034800F61900F1FF3202D2B34200F2CE80104615
:10035800F61AA2B2B6FBF8F308FB136642EA0644A3
:100368000CFB03FCA44507D9E41903F1FF3202D2C0
:10037800A44500F2B5801346CCEB040443EA0040E0
:100388009CE729462846BDE8F087CEF1200106FA09
:100398000EF307FA0EF720FA01F94FEA1748CE4094
:1003A80049EA0309B6FBF8FA4FEA194408FB1A664A
:1003B8001FFA87FC44EA06430AFB0CF29A4200FA49
:1003C8000EF40AD9DB190AF1FF3180F087809A42CE
:1003D80040F28480AAF1020A3B449B1A1FFA89F969
:1003E800B3FBF8F108FB113349EA034301FB0CF6B0
:1003F8009E4207D9DB1901F1FF326BD29E4269D9BF
:1004080002393B449B1B41EA0A418EE7C1F1200EA9
:1004180022FA0EF48B40234320FA0EF706FA01F471
:100428004FEA134C26FA0EF63C43B6FBFCF9270CB0
:100438000CFB19661FFA83F847EA064609FB08F71A
:10044800B74202FA01F200FA01FA08D9F61809F1DE
:10045800FF3041D2B7423FD9A9F102091E44F61B29
:10046800A0B2B6FBFCF40CFB146640EA064704FB9A
:1004780008F8B84507D9FF1804F1FF3028D2B84565
:1004880026D9023C1F4444EA0940C8EB0707A0FBF1
:1004980002894F4544464E4614D329D065B3BAEB7A
:1004A800040367EB060707FA0EFECB40CF404EEA7F
:1004B800030385E888000021BDE8F0871346F8E6C5
:1004C8001046E0E6B8EB020469EB03060138E5E7FD
:1004D8000446D8E7114695E78146C0E78A467CE797
:1004E800023B3C4448E708460AE702383E442FE707
:1004F800C245E7D33E46D1E72946BDE8F08700BFAD
:10050800704700BF80B584B000AF78601922954964
:10051800954804F097FE934B5B781AB2914B9B7801
:100528001B021BB213431BB29BB2C3F30A039AB25A
:100538008E4B1A808B4B9B78DB08DBB21AB2894B47
:10054800DB785B011BB213431BB29BB2C3F30A03F4
:100558009AB2864B5A80834BDB789B09DBB21AB27E
:10056800804B1B799B001BB213431AB27D4B5B79FE
:100578009B021BB213431BB29BB2C3F30A039AB28A
:100588007A4B9A80774B5B795B08DBB21AB2754B72
:100598009B79DB011BB213431BB29BB2C3F30A0363
:1005A8009AB2724BDA806F4B9B791B09DBB21AB295
:1005B8006C4BDB791B011BB213431BB29BB2C3F319
:1005C8000A039AB2694B1A81664BDB79DB09DBB205
:1005D8001AB2644B1B7A5B001BB213431AB2614B0D
:1005E8005B7A5B021BB213431BB29BB2C3F30A03D1
:1005F8009AB25E4B5A815B4B5B7A9B08DBB21AB2AC
:10060800584B9B7A9B011BB213431BB29BB2C3F39B
:100618000A039AB2554B9A81524B9B7A5B09DBB21B
:100628001AB2504BDB7ADB001BB213431BB29BB2EE
:10063800C3F30A039AB24D4BDA814A4B1B7B1AB2B9
:10064800484B5B7B1B021BB213431BB29BB2C3F329
:100658000A039AB2454B1A82424B5B7BDB08DBB23A
:100668001AB2404B9B7B5B011BB213431BB29BB27C
:10067800C3F30A039AB23D4B5A823A4B9B7B9B09C0
:10068800DBB21AB2374BDB7B9B001BB213431AB2A7
:10069800344B1B7C9B021BB213431BB29BB2C3F3AC
:1006A8000A039AB2314B9A822E4B1B7C5B08DBB251
:1006B8001AB22C4B5B7CDB011BB213431BB29BB2FF
:1006C800C3F30A039AB2294BDA82264B5B7C1B09D7
:1006D800DBB21AB2234B9B7C1B011BB213431BB228
:1006E8009BB2C3F30A039AB2204B1A831D4B9B7C1F
:1006F800DB09DBB21AB21B4BDB7C5B001BB213437A
:100708001AB2184B1B7D5B021BB213431BB29BB280
:10071800C3F30A039AB2154B5A83124B1B7D9B08ED
:10072800DBB21AB20F4B5B7D9B011BB213431BB2AA
:100738009BB2C3F30A039AB20C4B9A83094B5B7DB5
:100748005B09DBB21AB2074B9B7DDB001BB213437C
:100758001BB29BB2C3F30A039AB2044BDA83002399
:10076800FB6005E07405002034050020900500209A
:1007780007E0074AFB68134400221A70FB6801333C
:10078800FB60FB68182BF4DD00BF1037BD4680BD49
:100798007405002080B582B000AF786000F0AEFA32
:1007A800034B00221A7000BF0837BD4680BD00BF4A
:1007B8000002002080B500AF00F0E2FE00F020F853
:1007C80000F040FA00F0E8F900F0B8F800F036F967
:1007D80000F0B4F908F02CFA00F07AF8192206496A
:1007E800064804F02FFD4FF4FA6000F037FF0820A8
:1007F80000F0C2FAFEE700BF7405002034050020AF
:1008080080B594B000AF07F12003302200211846CC
:1008180008F04CFF07F10C0300221A605A609A6036
:10082800DA601A610023BB60274A274B1B6C43F030
:1008380080531364244B1B6C03F08053BB60BB686C
:1008480000237B60214A214B1B6843F4404313601B
:100858001E4B1B6803F440437B607B6801233B62AB
:100868004FF480337B620223BB634FF48003FB6346
:1008780004233B6448237B640223BB640323FB6497
:1008880007F12003184602F0C7FE0346002B01D0EB
:1008980000F0FAFA0F23FB6002233B6100237B611F
:1008A8004FF48053BB610023FB6107F10C03022165
:1008B800184603F01FF90346002B01D000F0E4FAB4
:1008C80000BF5037BD4680BD003802400070004070
:1008D80080B500AF174B184A1A60164B4FF4827256
:1008E8005A60144B00229A60124B0022DA60114BB6
:1008F80000221A610F4B00225A610E4B4FF400720E
:100908009A610C4B3022DA610A4B00221A62094BB9
:1009180000225A62074B00229A62064B0A22DA62C8
:10092800044803F0D5FA0346002B01D000F0ACFAD6
:1009380000BF80BD1C0200200030014080B58EB091
:1009480000AF07F1280300221A605A609A60DA6043
:1009580007F1200300221A605A603B1D00221A602A
:100968005A609A60DA601A615A619A61324B4FF0A4
:1009780080421A60304B01225A602F4B00229A6045
:100988002D4B7822DA602C4B00221A612A4B002268
:100998009A61294803F01EFF0346002B01D000F09E
:1009A80073FA4FF48053BB6207F1280319462248B3
:1009B80004F038F80346002B01D000F065FA1E4811
:1009C80003F034FF0346002B01D000F05DFA00234A
:1009D8003B6200237B6207F120031946164804F0A6
:1009E80077FB0346002B01D000F04EFA60237B60B2
:1009F8000023BB600023FB6000237B613B1D0022BA
:100A080019460D4803F048FF0346002B01D000F0BB
:100A18003BFA3B1D08221946074803F03DFF0346F1
:100A2800002B01D000F030FA034800F01BFC00BF97
:100A38003837BD4680BD00BF3403002080B58EB076
:100A480000AF07F1280300221A605A609A60DA6042
:100A580007F1200300221A605A603B1D00221A6029
:100A68005A609A60DA601A615A619A61314B324A67
:100A78001A60304B01225A602E4B00229A602D4B8F
:100A88007822DA602B4B00221A612A4B00229A61E5
:100A9800284803F09FFE0346002B01D000F0F4F92C
:100AA8004FF48053BB6207F128031946214803F02D
:100AB800B9FF0346002B01D000F0E6F91D4803F00A
:100AC800B5FE0346002B01D000F0DEF900233B629F
:100AD80000237B6207F120031946164804F0F8FA50
:100AE8000346002B01D000F0CFF960237B60002380
:100AF800BB600023FB6000237B613B1D002219467D
:100B08000C4803F0C9FE0346002B01D000F0BCF9E5
:100B18003B1D04221946074803F0BEFE0346002B7E
:100B280001D000F0B1F9034800F09CFB00BF383752
:100B3800BD4680BD740300200008004080B500AFAA
:100B4800124B134A1A60114B124A5A600F4B4FF45A
:100B580080529A600D4B4FF40052DA600B4B4FF401
:100B680080621A61094B0C225A61084B00229A6173
:100B7800064B0022DA61054804F016FB0346002BF9
:100B880001D000F081F900BF80BD00BF340500200E
:100B980000440040A086010080B582B000AF002369
:100BA8007B60274A264B1B6B43F400131363244BCB
:100BB8001B6B03F400137B607B6800233B60204AB7
:100BC8001F4B1B6B43F4800313631D4B1B6B03F418
:100BD80080033B603B68002200210B2000F036FEBA
:100BE8000B2000F04FFE002200210C2000F02EFE0A
:100BF8000C2000F047FE002200210E2000F026FE07
:100C08000E2000F03FFE00220021102000F01EFE02
:100C1800102000F037FE00220021382000F016FED8
:100C2800382000F02FFE002200213A2000F00EFEAE
:100C38003A2000F027FE00BF0837BD4680BD00BF40
:100C48000038024080B588B000AF07F10C030022DD
:100C58001A605A609A60DA601A610023BB601F4A02
:100C68001E4B1B6B43F0800313631C4B1B6B03F081
:100C78008003BB60BB6800237B60184A174B1B6B63
:100C880043F001031363154B1B6B03F001037B60F7
:100C98007B6800233B60114A104B1B6B43F0020337
:100CA80013630E4B1B6B03F002033B603B6801228E
:100CB80010210B4801F010FB1023FB6001233B615E
:100CC80000237B610223BB6107F10C03194604482A
:100CD80001F080F900BF2037BD4680BD00380240D2
:100CE8000000024080B500AF00221021024801F048
:100CF800F3FA00BF80BD00BF0000024080B500AF1E
:100D080001221021024801F0E7FA00BF80BD00BFB0
:100D18000000024080B584B000AF78600B46FB70DD
:100D280000BF114B1B78002BFBD10F4B01221A700F
:100D3800FFF7D8FFFB789BB20C4A79680C4803F0A0
:100D48002BF90023FB6007E00A4AFB6813440022E2
:100D58001A70FB680133FB60FB68092BF4DD00BFE8
:100D68001037BD4680BD00BF0002002010020020E1
:100D78001C0200200402002080B582B000AF0346A8
:100D8800FB713E4B6A221A703C4B10225A700221AA
:100D98003A48FFF7BFFF00BF394B1B78002BFBD148
:100DA800364BF5221A70354B00225A70022133480F
:100DB800FFF7B0FF00BF324B1B78002BFBD1314B44
:100DC8005B78682B01D0EE2353E02C4B6B221A7012
:100DD8002A4B80225A7002212848FFF79BFF00BF48
:100DE800274B1B78002BFBD1642000F037FC234BEA
:100DF80068221A70214B07225A7002211F48FFF7F8
:100E080089FF00BF1E4B1B78002BFBD1642000F02C
:100E180025FC1A4B6A221A70184B10225A700221AC
:100E28001648FFF777FF00BF154B1B78002BFBD147
:100E3800124B6B221A70114B03225A7002210F4871
:100E4800FFF768FF00BF0E4B1B78002BFBD1FB7927
:100E5800002B0ED0094B19221A70084AFB795370DF
:100E680002210648FFF756FF00BF054B1B78002BF1
:100E7800FBD118460837BD4680BD00BF04020020DC
:100E8800000200201002002080B400AF00BFBD4661
:100E980080BC704780B483B000AF00237B600F4AEA
:100EA8000E4B5B6C43F4804353640C4B5B6C03F454
:100EB80080437B607B6800233B60084A074B1B6CC0
:100EC80043F080531364054B1B6C03F080533B6065
:100ED8003B6800BF0C37BD4680BC704700380240F5
:100EE80080B58AB000AF786007F1140300221A6059
:100EF8005A609A60DA601A617B681B684B4A9342B1
:100F080040F0908000233B61494A494B5B6C43F4B5
:100F180080535364464B5B6C03F480533B613B69DD
:100F28000023FB60424A424B1B6B43F001031363EF
:100F38003F4B1B6B03F00103FB60FB68E0237B6105
:100F48000223BB610023FB6103233B6205237B6211
:100F580007F114031946374801F03CF8364B374A75
:100F68001A60354B4FF0C0625A60334B00229A60CA
:100F7800314B0022DA60304B4FF480621A612E4BFD
:100F880000225A612C4B00229A612B4B0022DA6115
:100F9800294B00221A62284B00225A62264800F088
:100FA8008BFC0346002B01D0FFF76EFF7B68224ABB
:100FB800DA64214A7B689363214B224A1A60204BEA
:100FC8004FF080625A601E4B40229A601C4B0022F0
:100FD800DA601B4B4FF480621A61194B00225A6188
:100FE800174B00229A61164B0022DA61144B00223B
:100FF8001A62134B00225A62114800F05DFC034646
:10100800002B01D0FFF740FF7B680D4A9A640C4A19
:101018007B68936300220021232000F017FC232023
:1010280000F030FC00BF2837BD4680BD00300140CD
:1010380000380240000002407402002010640240A0
:10104800D40200204064024080B584B000AF7860CC
:101058007B681B68B3F1804F76D10023FB60774A29
:10106800764B1B6C43F001031364744B1B6C03F049
:101078000103FB60FB68724B724A1A60704B4FF0B9
:10108800C0625A606E4B40229A606D4B0022DA6053
:101098006B4B4FF480621A61694B4FF480525A616E
:1010A800674B4FF480429A61654B4FF48072DA6166
:1010B800634B00221A62624B00225A62604800F0B9
:1010C800FBFB0346002B01D0FFF7DEFE7B685C4A82
:1010D8005A625B4A7B6893635B4B5C4A1A605A4B63
:1010E8004FF0C0625A60584B40229A60564B00221B
:1010F800DA60554B4FF480621A61534B4FF48052BB
:101108005A61514B4FF480429A614F4B4FF48072B1
:10111800DA614D4B00221A624B4B00225A624A4850
:1011280000F0CAFB0346002B01D0FFF7ADFE7B6839
:10113800454ADA62444A7B6893637B68424A1A628A
:10114800414A7B68936374E07B681B68404A93421A
:101158006FD10023BB60394A384B1B6C43F0040342
:101168001364364B1B6C03F00403BB60BB68394B3C
:10117800394A1A60374B4FF080625A60354B40222B
:101188009A60344B0022DA60324B4FF480621A6165
:10119800304B4FF480525A612E4B4FF480429A6183
:1011A8002C4B4FF48072DA612A4B00221A62294BC9
:1011B80000225A62274800F07FFB0346002B01D02B
:1011C800FFF762FE7B68234A5A62224A7B68936370
:1011D800224B234A1A60214B4FF080625A601F4B02
:1011E80040229A601D4B0022DA601C4B4FF480624B
:1011F8001A611A4B4FF480525A61184B4FF48042CF
:101208009A61164B4FF48072DA61144B00221A620D
:10121800124B00225A62114800F04EFB0346002B85
:1012280001D0FFF731FE7B680C4A9A620B4A7B6853
:10123800936300BF1037BD4680BD00BF0038024031
:10124800B403002088600240140400202860024093
:10125800000800407404002010600240D4040020FC
:101268005860024080B58AB000AF786007F1140377
:1012780000221A605A609A60DA601A617B681B68FB
:10128800B3F1804F3DD100233B61314A304B1B6B9A
:1012980043F0010313632E4B1B6B03F001033B6107
:1012A8003B690023FB602A4A294B1B6B43F002036E
:1012B8001363274B1B6B03F00203FB60FB680123DE
:1012C8007B610223BB610023FB6100233B62012396
:1012D8007B6207F1140319461E4800F07BFE4FF4A9
:1012E80080637B610223BB610023FB6100233B62B7
:1012F80001237B6207F114031946174800F06AFEC0
:1013080022E07B681B68154A93421DD10023BB600D
:101318000F4A0F4B1B6B43F0020313630C4B1B6B01
:1013280003F00203BB60BB68C0237B610223BB617F
:101338000023FB6100233B6202237B6207F1140355
:101348001946054800F046FE00BF2837BD4680BD57
:10135800003802400000024000040240000800403B
:1013680080B58AB000AF786007F1140300221A60D4
:101378005A609A60DA601A617B681B681D4A93425A
:1013880033D100233B611C4A1B4B1B6C43F40033D5
:101398001364194B1B6C03F400333B613B69002356
:1013A800FB60154A144B1B6B43F001031363124B8C
:1013B8001B6B03F00103FB60FB680C237B610223BA
:1013C800BB610023FB6103233B6207237B6207F1B8
:1013D80014031946094800F0FDFD002200212620CB
:1013E80000F034FA262000F04DFA00BF2837BD4639
:1013F80080BD00BF004400400038024000000240A9
:1014080080B400AF00BFBD4680BC704780B400AF59
:10141800FEE700BF80B400AFFEE700BF80B400AFB6
:10142800FEE700BF80B400AFFEE700BF80B400AFA6
:1014380000BFBD4680BC704780B400AF00BFBD464A
:1014480080BC704780B400AF00BFBD4680BC704709
:1014580080B500AF00F0E6F800BF80BD80B500AFF2
:10146800024800F051FB00BF80BD00BF740400209B
:1014780080B500AF024800F047FB00BF80BD00BF49
:101488001404002080B500AF024800F03DFB00BF07
:1014980080BD00BFD404002080B500AF024800F032
:1014A80033FB00BF80BD00BFB403002080B500AF90
:1014B800024802F073FE00BF80BD00BF1C0200207E
:1014C80080B500AF024803F011FF00BF80BD00BF28
:1014D8003405002080B500AF024800F015FB00BFBE
:1014E80080BD00BF7402002080B500AF024800F044
:1014F8000BFB00BF80BD00BFD402002080B500AF49
:10150800024801F053F800BF80BD00BF901A0020C8
:1015180080B584B000AF7860114B1B68002B02D1F6
:101528000F4B104A1A600E4B1B68FB600C4B1A6875
:101538007B6813446A46934207D908F07BF8024651
:101548000C2313604FF0FF3306E0054B1A687B68E5
:101558001344034A1360FB6818461037BD4680BD24
:10156800B4050020A81E002080B400AF034B4FF044
:1015780000629A6000BFBD4680BC704700ED00E085
:1015880080B500AF0E4A0E4B1B6843F4007313601E
:101598000B4A0B4B1B6843F480631360084A084BE3
:1015A8001B6843F480731360032000F043F90020A4
:1015B80000F008F8FFF76EFC0023184680BD00BF56
:1015C800003C024080B582B000AF7860124B1A68C8
:1015D800124B1B7819464FF47A73B3FBF1F3B2FB45
:1015E800F3F3184600F05CF90346002B01D0012301
:1015F8000EE07B680F2B0AD8002279684FF0FF3085
:1016080000F024F9064A7B681360002300E00123F8
:1016180018460837BD4680BD00000020080000209D
:101628000400002080B400AF054B1B781A46054B18
:101638001B681344034A136000BFBD4680BC704753
:1016480008000020B805002080B400AF024B1B68DA
:101658001846BD4680BC7047B805002080B584B0E8
:1016680000AF7860FFF7F0FFB8607B68FB60FB684D
:10167800B3F1FF3F05D0094B1B781A46FB681344AA
:10168800FB6000BFFFF7E0FF0246BB68D21AFB68A9
:101698009A42F7D300BF1037BD4680BD080000202E
:1016A80080B485B000AF78607B6803F00703FB6007
:1016B8000C4BDB68BB60BA684FF6FF031340BB6096
:1016C800FB681A02BB68134343F0BF6343F400335B
:1016D800BB60044ABB68D36000BF1437BD4680BCFA
:1016E800704700BF00ED00E080B400AF044BDB683A
:1016F80003F4E0631B0A1846BD4680BC704700BF70
:1017080000ED00E080B483B000AF0346FB7197F9A9
:101718000730002B0BDB084997F907305B09FA798A
:1017280002F01F02012000FA02F241F8232000BF54
:101738000C37BD4680BC704700E100E080B483B040
:1017480000AF03463960FB7197F90730002B0ADBBD
:101758000D4997F907303A68D2B21201D2B20B4458
:1017680083F800230AE00949FB7903F00F03043BDF
:101778003A68D2B21201D2B20B441A7600BF0C37C3
:10178800BD4680BC704700BF00E100E000ED00E00E
:1017980080B489B000AFF860B9607A60FB6803F084
:1017A8000703FB61FB69C3F10703042B28BF04236C
:1017B800BB61FB690433062B02D9FB69033B00E0DC
:1017C80000237B610122BB6902FA03F35A1EBB683E
:1017D8001A407B699A4001217B6901FA03F3591E7B
:1017E8007B680B40134318462437BD4680BC7047BE
:1017F80080B582B000AF78607B68013BB3F1807F31
:1018080001D301230FE00A4A7B68013B53600F2193
:101818004FF0FF30FFF792FF054B00229A60044B10
:1018280007221A60002318460837BD4680BD00BF4E
:1018380010E000E080B582B000AF78607868FFF70C
:101848002FFF00BF0837BD4680BD00BF80B586B0FA
:1018580000AF0346B9607A60FB7300237B61FFF732
:1018680043FF78617A68B9687869FFF791FF0246A3
:1018780097F90F3011461846FFF760FF00BF183779
:10188800BD4680BD80B582B000AF0346FB7197F9B5
:1018980007301846FFF736FF00BF0837BD4680BD42
:1018A80080B582B000AF78607868FFF7A1FF034683
:1018B80018460837BD4680BD80B586B000AF786051
:1018C80000237B61FFF7C0FE38617B68002B01D1E4
:1018D800012399E07B68002283F834207B68022288
:1018E80083F835207B681B687A681268126822F0D2
:1018F80001021A600FE0FFF7A7FE02463B69D31A00
:10190800052B08D97B6820225A657B68032283F857
:101918003520032378E07B681B681B6803F001030C
:10192800002BE8D17B681B681B687B617A69384BA0
:1019380013407B617B685A687B689B681A437B68A5
:10194800DB681A437B681B691A437B685B691A4327
:101958007B689B691A437B68DB691A437B681B6A4F
:1019680013437A6913437B617B685B6A042B07D155
:101978007B68DA6A7B681B6B13437A6913437B6164
:101988007B681B687A691A607B681B685B697B6186
:101998007B6923F007037B617B685B6A7A69134381
:1019A8007B617B685B6A042B17D17B689B6A7A69C9
:1019B80013437B617B68DB6A002B0ED0786800F0EC
:1019C8008FFA0346002B08D07B6840225A657B6853
:1019D800012283F83520012316E07B681B687A69A9
:1019E8005A61786800F048FA0346FB607B68DB6D53
:1019F8003F229A40FB689A607B6800225A657B68A0
:101A0800012283F83520002318461837BD4680BDCB
:101A18003F8010F080B586B000AFF860B9607A609A
:101A28003B600023FB75FB689B6D3B61FB6893F88B
:101A38003430012B01D1022340E0FB68012283F8F6
:101A48003420FB6893F83530DBB2012B2FD1FB68CB
:101A5800022283F83520FB6800225A653B687A68C1
:101A6800B968F86800F0DAF9FB68DB6D3F229A4044
:101A78003B699A60FB681B68FA681268126842F052
:101A880016021A60FB681B6C002B07D0FB681B68EA
:101A9800FA681268126842F008021A60FB681B684C
:101AA800FA681268126842F001021A6005E0FB68E1
:101AB800002283F834200223FB75FB7D1846183773
:101AC800BD4680BD80B483B000AF78607B6893F872
:101AD8003530DBB2022B04D07B6880225A650123A3
:101AE8000CE07B68052283F835207B681B687A68E0
:101AF8001268126822F001021A60002318460C3797
:101B0800BD4680BC704700BF80B586B000AF786026
:101B18000023BB60924B1B68924AA2FB03239B0ADB
:101B28007B617B689B6D3B613B691B68FB607B68E5
:101B3800DB6D08229A40FB681340002B1AD07B68A3
:101B48001B681B6803F00403002B13D07B681B6819
:101B58007A681268126822F004021A607B68DB6DEA
:101B680008229A403B699A607B685B6D43F00102EA
:101B78007B685A657B68DB6D01229A40FB681340DD
:101B8800002B12D07B681B685B6903F08003002B75
:101B98000BD07B68DB6D01229A403B699A607B68B9
:101BA8005B6D43F002027B685A657B68DB6D04223B
:101BB8009A40FB681340002B12D07B681B681B6897
:101BC80003F00203002B0BD07B68DB6D04229A40E4
:101BD8003B699A607B685B6D43F004027B685A65D9
:101BE8007B68DB6D10229A40FB681340002B43D0C2
:101BF8007B681B681B6803F00803002B3CD07B68DC
:101C0800DB6D10229A403B699A607B681B681B68F1
:101C180003F48023002B18D07B681B681B6803F42F
:101C28000023002B08D17B681B6C002B24D07B6819
:101C38001B6C786898471FE07B689B6C002B1BD057
:101C48007B689B6C7868984716E07B681B681B6804
:101C580003F48073002B07D17B681B687A681268CD
:101C6800126822F008021A607B681B6C002B03D0F4
:101C78007B681B6C786898477B68DB6D20229A40EC
:101C8800FB681340002B00F08E807B681B681B6884
:101C980003F01003002B00F086807B68DB6D2022A8
:101CA8009A403B699A607B6893F83530DBB2052B24
:101CB80036D17B681B687A681268126822F01602AF
:101CC8001A607B681B687A681268526922F0800281
:101CD8005A617B681B6C002B03D17B689B6C002BC3
:101CE80007D07B681B687A681268126822F00802BD
:101CF8001A607B68DB6D3F229A403B699A607B687B
:101D0800002283F834207B68012283F835207B6821
:101D18001B6D002B7DD07B681B6D7868984778E039
:101D28007B681B681B6803F48023002B1CD07B682E
:101D38001B681B6803F40023002B08D17B685B6CCD
:101D4800002B30D07B685B6C786898472BE07B6809
:101D5800DB6B002B27D07B68DB6B7868984722E029
:101D680000000020B5814E1B7B681B681B6803F4CC
:101D78008073002B0FD17B681B687A681268126821
:101D880022F010021A607B68002283F834207B68F6
:101D9800012283F835207B68DB6B002B03D07B683E
:101DA800DB6B786898477B685B6D002B32D07B686B
:101DB8005B6D03F00103002B22D07B68052283F8BA
:101DC80035207B681B687A681268126822F0010265
:101DD8001A60BB680133BB607A69934207D87B6895
:101DE8001B681B6803F00103002BF2D100E000BF61
:101DF8007B68002283F834207B68012283F8352031
:101E08007B68DB6C002B05D07B68DB6C78689847B7
:101E180000E000BF1837BD4680BD00BF80B485B064
:101E280000AFF860B9607A603B60FB681B68FA68CD
:101E38001268126822F480221A60FB681B683A68EC
:101E48005A60FB689B68402B08D1FB681B687A685E
:101E58009A60FB681B68BA68DA6007E0FB681B6871
:101E6800BA689A60FB681B687A68DA6000BF143742
:101E7800BD4680BC704700BF80B485B000AF7860B5
:101E88007B681B68DBB2103B134AA2FB03231B09C8
:101E9800FB60124AFB6813441B781A467B68DA65B4
:101EA800FB68032B09D97B681B6823F47F7323F035
:101EB80003031A1D7B689A6507E07B681B6823F497
:101EC8007F7323F003037A6893657B689B6D1846DC
:101ED8001437BD4680BC7047ABAAAAAAB8980008B8
:101EE80080B485B000AF78600023FB737B689B6A81
:101EF800BB607B689B69002B1FD1BB68032B55D83F
:101F080001A252F823F000BF211F0008331F000868
:101F1800211F0008B51F00087B68DB6A03F0807387
:101F2800002B45D00123FB7342E07B68DB6AB3F1E9
:101F3800C07F3FD10123FB733CE07B689B69B3F50D
:101F4800005F21D1BB68032B36D801A252F823F0D9
:101F5800691F00086F1F0008691F0008811F00081B
:101F68000123FB732FE07B68DB6A03F08073002B8F
:101F780024D00123FB7321E07B68DB6AB3F1C07FC7
:101F88001ED10123FB731BE0BB68022B02D9032B74
:101F980003D018E00123FB7315E07B68DB6A03F0CC
:101FA8008073002B0ED00123FB730BE000BF0AE007
:101FB80000BF08E000BF06E000BF04E000BF02E089
:101FC80000BF00E000BFFB7B18461437BD4680BC4D
:101FD800704700BF80B489B000AF786039600023D3
:101FE8007B6100233B610023BB610023FB6159E156
:101FF8000122FB6902FA03F37B613B681A687B697B
:1020080013403B613A697B699A4240F048813B68DA
:102018005B68012B0BD03B685B68022B07D03B68E1
:102028005B68112B03D03B685B68122B30D17B684F
:102038009B68BB61FB695B00032202FA03F3DB4385
:10204800BA691340BB613B68DA68FB695B0002FA56
:1020580003F3BA691343BB617B68BA699A607B680A
:102068005B68BB610122FB6902FA03F3DB43BA69CF
:102078001340BB613B685B681B0903F00102FB6905
:1020880002FA03F3BA691343BB617B68BA695A6001
:102098007B68DB68BB61FB695B00032202FA03F320
:1020A800DB43BA691340BB613B689A68FB695B0014
:1020B80002FA03F3BA691343BB617B68BA69DA6051
:1020C8003B685B68022B03D03B685B68122B23D10B
:1020D800FB69DA087B68083253F82230BB61FB6978
:1020E80003F007039B000F2202FA03F3DB43BA69EC
:1020F8001340BB613B681A69FB6903F007039B0047
:1021080002FA03F3BA691343BB61FB69DA087B6817
:102118000832B96943F822107B681B68BB61FB6908
:102128005B00032202FA03F3DB43BA691340BB6185
:102138003B685B6803F00302FB695B0002FA03F388
:10214800BA691343BB617B68BA691A603B685B680C
:1021580003F08053002B00F0A2800023FB60564A56
:10216800554B5B6C43F480435364534B5B6C03F4F3
:102178008043FB60FB68514AFB699B08023352F8B5
:102188002330BB61FB6903F003039B000F2202FAB3
:1021980003F3DB43BA691340BB617B68484A934247
:1021A80019D07B68474A934213D07B68464A9342CA
:1021B8000DD07B68454A934207D07B68444A9342D6
:1021C80001D1042308E0072306E0032304E00223E7
:1021D80002E0012300E00023FA6902F00302920002
:1021E8009340BA691343BB613449FB699B080233C6
:1021F800BA6941F82320374B1B68BB613B69DB4355
:10220800BA691340BB613B685B6803F48033002BF9
:1022180003D0BA693B691343BB612E4ABB6913609B
:102228002C4B5B68BB613B69DB43BA691340BB61FC
:102238003B685B6803F40033002B03D0BA693B6941
:102248001343BB61234ABB695360224B9B68BB6144
:102258003B69DB43BA691340BB613B685B6803F4C5
:102268008013002B03D0BA693B691343BB61194A39
:10227800BB699360174BDB68BB613B69DB43BA6999
:102288001340BB613B685B6803F40013002B03D069
:10229800BA693B691343BB610E4ABB69D360FB69EA
:1022A8000133FB61FB690F2B7FF6A2AE00BF243719
:1022B800BD4680BC704700BF00380240003801406E
:1022C800000002400004024000080240000C0240E6
:1022D80000100240003C014080B483B000AF786039
:1022E8000B467B8013467B707B78002B03D07A8863
:1022F8007B689A6103E07B881A047B689A6100BF57
:102308000C37BD4680BC7047F0B58FB00AAF786017
:102318007B68002B01D101230FE17B681B68BB6040
:102328007B6893F8BD33DBB2002B06D17B680022B3
:1023380083F8BC23786806F057FE7B68032283F88D
:10234800BD23BB68DB6B03F48073002B02D17B6871
:1023580000221A617B681B68184603F04DFE7B68F3
:102368001B683B607E686D4606F110040FCC0FC5F4
:102378000FCC0FC594E8030085E80300331D0ECB8E
:10238800386803F025FD0346002B05D07B68022240
:1023980083F8BD230123D0E07B681B680021184621
:1023A80003F03AFE0023FB734AE0FA7B7968134690
:1023B800DB009B1A9B000B443D3301221A70FA7B09
:1023C80079681346DB009B1A9B000B443C33FA7B6D
:1023D8001A70FA7BFB7B98B279681346DB009B1A6C
:1023E8009B000B44423302461A80FA7B79681346F5
:1023F800DB009B1A9B000B443F3300221A70FA7BC8
:1024080079681346DB009B1A9B000B444433002277
:102418001A60FA7B79681346DB009B1A9B000B4411
:10242800483300221A60FA7B79681346DB009B1A4E
:102438009B000B44503300221A60FB7B0133FB7373
:10244800FA7B7B685B689A42AFD30023FB7344E056
:10245800FA7B79681346DB009B1A9B000B4403F256
:10246800FD1300221A70FA7B79681346DB009B1A69
:102478009B000B4403F5FE73FA7B1A70FA7B7968AC
:102488001346DB009B1A9B000B4403F2FF13002248
:102498001A70FA7B79681346DB009B1A9B000B4481
:1024A80003F5017300221A60FA7B79681346DB0092
:1024B8009B1A9B000B4403F5027300221A60FA7BF7
:1024C80079681346DB009B1A9B000B4403F50473E1
:1024D80000221A60FB7B0133FB73FA7B7B685B6825
:1024E8009A42B5D37B681B683B607E686D4606F1EF
:1024F80010040FCC0FC50FCC0FC594E8030085E876
:102508000300331D0ECB386803F0B0FD0346002BE3
:1025180005D07B68022283F8BD2301230DE07B6888
:10252800002283F838207B68012283F8BD237B686A
:102538001B68184604F024FE002318461437BD46CD
:10254800F0BD00BF80B584B000AF78607B681B68C1
:10255800FB607B6893F8BC33012B01D1022320E098
:102568007B68012283F8BC237B689B6A012B09D115
:102578007B689B69012B05D0FB689B6B43F4803219
:10258800FB689A637B681B68184603F025FD7B6827
:102598001B68184604F0D2FD7B68002283F8BC2330
:1025A800002318461037BD4680BD00BF90B58DB0DA
:1025B80000AF78607B681B683B623B6AFB617B68A5
:1025C8001B68184604F090FE0346002B40F09F83DA
:1025D8007B681B68184604F0F5FD0346002B00F0E5
:1025E80095837B681B68184604F0ECFD034603F0EE
:1025F8000203002B07D07B681B687A68126852694F
:1026080002F002025A617B681B68184604F0DAFD82
:10261800034603F01003002B61D07B681B687A68BF
:102628001268926922F010029A613B6A1B6ABB61C8
:10263800BB6903F00F021346DB009B1A9B0003F5EE
:10264800FC737A68134404337B61BB695B0C03F049
:102658000F03022B24D1BA6947F6F0731340002BFD
:1026680035D07B69D968BB691B099BB2C3F30A03E0
:102678009BB21A46386A04F035FC7B69DA68BB6994
:102688001B09C3F30A031A447B69DA607B699A69F8
:10269800BB691B09C3F30A031A447B699A6116E0F4
:1026A800BB695B0C03F00F03062B10D17B6803F5A5
:1026B800717308221946386A04F014FC7B699A6918
:1026C800BB691B09C3F30A031A447B699A617B68D7
:1026D8001B687A681268926942F010029A617B68F6
:1026E8001B68184604F06EFD034603F40023002B14
:1026F8006ED000237B627B681B68184604F074FD6B
:10270800B86262E0BB6A03F00103002B57D07B6814
:102718001B687A6AD2B21146184604F099FD3861EE
:102728003B6903F00103002B0CD07B6A5A01FB695B
:10273800134403F530631A4601239360796A786875
:1027480000F0B6FD3B6903F00803002B0CD07B6A50
:102758005A01FB69134403F530631A460823936052
:10276800796A786800F0B0FE3B6903F01003002B2B
:1027780008D07B6A5A01FB69134403F530631A4693
:10278800102393603B6903F02003002B08D07B6A79
:102798005A01FB69134403F530631A4620239360FA
:1027A8003B6903F40053002B09D07B6A5A01FB698B
:1027B800134403F530631A464FF4005393607B6A61
:1027C80001337B62BB6A5B08BB62BB6A002B99D191
:1027D8007B681B68184604F0F5FC034603F4802365
:1027E800002B00F0C1807B681B68184604F016FDBA
:1027F800B86200237B62B3E0BB6A03F00103002BDD
:1028080000F0A8807B681B687A6AD2B21146184625
:1028180004F03CFD38613B6903F00103002B58D0FC
:102828007B6A03F00F03012202FA03F3FB60FB69E2
:1028380003F500631946FB6903F500635A6BFB68EF
:10284800DB4313404B637B6A5A01FB69134403F56E
:1028580010631A46012393607B681B69012B32D1F0
:1028680079687A6A1346DB009B1A9B000B4448334D
:10287800196878687A6A1346DB009B1A9B00034440
:1028880044331B68194478687A6A1346DB009B1A3C
:102898009B000344483319607B6A002B13D1796885
:1028A8007A6A1346DB009B1A9B000B4450331B6863
:1028B800002B08D17B6818687B6803F571731A468A
:1028C800012104F043FD7B6ADBB21946786806F003
:1028D8000DFC3B6903F00803002B08D07B6A5A0102
:1028E800FB69134403F510631A46082393603B6998
:1028F80003F01003002B08D07B6A5A01FB691344CC
:1029080003F510631A46102393603B6903F04003F4
:10291800002B08D07B6A5A01FB69134403F5106346
:102928001A46402393603B6903F00203002B08D04A
:102938007B6A5A01FB69134403F510631A460223A4
:1029480093603B6903F08003002B03D0796A7868B1
:1029580000F020FC7B6A01337B62BB6A5B08BB62C8
:10296800BB6A002B7FF448AF7B681B68184604F0ED
:1029780029FC0346002B23DAFB6903F500631A469A
:10298800FB6903F500635B6823F0010353607B6810
:1029980093F8F433012B08D17B68002283F8F423E1
:1029A8000021786800F02CFE02E0786806F00CFC44
:1029B8007B681B687A681268526902F000425A61A3
:1029C8007B681B68184604F0FDFB034603F40063AC
:1029D800002B12D0FB6903F500639B6803F0010329
:1029E800002B02D0786806F0C7FB7B681B687A6802
:1029F8001268526902F400625A617B681B681846C3
:102A080004F0E0FB034603F48053002B00F0D2806F
:102A1800FB6903F500631A46FB6903F500635B680D
:102A280023F0010353607B681B681021184603F0EC
:102A38007DFC0023FB625AE0FB6A5A01FB691344E0
:102A480003F510631A464FF67F339360FB6A5A0109
:102A5800FB69134403F510631946FB6A5A01FB69C5
:102A6800134403F510631B6823F400130B60FB6A1F
:102A78005A01FB69134403F510631946FB6A5A01AE
:102A8800FB69134403F510631B6843F000630B6094
:102A9800FB6A5A01FB69134403F530631A464FF683
:102AA8007F339360FB6A5A01FB69134403F5306373
:102AB8001946FB6A5A01FB69134403F530631B6826
:102AC80023F400130B60FB6A5A01FB69134403F5F6
:102AD80030631946FB6A5A01FB69134403F53063F6
:102AE8001B6843F000630B60FB6A0133FB627B6881
:102AF8005A68FB6A9A429FD8FB6903F500631A4635
:102B0800FB6903F50063DB6943F00113D3617B685C
:102B18001B6B002B18D0FB6903F500631A46FB6991
:102B280003F50063D3F8843043F00B03C2F8843014
:102B3800FB6903F500631A46FB6903F500635B6CE8
:102B480043F00B03536417E0FB6903F500631A466F
:102B5800FB6903F500635B6943F4005343F02B03FF
:102B68005361FB6903F500631A46FB6903F50063CB
:102B78001B6943F00B031361FB6903F500631A46F5
:102B8800FB6903F500631B6823F4FE6313607B682D
:102B980018687B681B69D9B27B6803F571731A469C
:102BA80004F0D4FB7B681B687A681268526902F4E7
:102BB80080525A617B681B68184604F003FB034681
:102BC80003F40053002B24D07B681B68184604F0DC
:102BD80099FB7B681B68184603F006FC03461A46F7
:102BE8007B68DA607B681C6801F040F901467B6805
:102BF800DB68DBB21A46204603F04CF9786806F029
:102C08009DFA7B681B687A681268526902F4005260
:102C18005A617B681B68184604F0D4FA034603F02F
:102C28000803002B0AD0786806F07AFA7B681B68DC
:102C38007A681268526902F008025A617B681B6858
:102C4800184604F0BFFA034603F48013002B0FD094
:102C580000237B627B6ADBB21946786806F0D4FAF7
:102C68007B681B687A681268526902F480125A619C
:102C78007B681B68184604F0A5FA034603F40013A2
:102C8800002B0FD000237B627B6ADBB21946786881
:102C980006F0A8FA7B681B687A681268526902F421
:102CA80000125A617B681B68184604F08BFA0346C9
:102CB80003F08043002B0AD0786806F0B7FA7B68E7
:102CC8001B687A681268526902F080425A617B6810
:102CD8001B68184604F076FA034603F00403002B39
:102CE80015D07B681B685B68BB61BB6903F0040394
:102CF800002B02D0786806F0A7FA7B681B687A6810
:102D080012685168BA690A435A6000E000BF343754
:102D1800BD4690BD80B582B000AF78600B46FB70B1
:102D28007B6893F8BC33012B01D1022313E07B6845
:102D3800012283F8BC237B68FA7883F838207B6803
:102D48001B68FA781146184604F0D0F97B6800220F
:102D580083F8BC23002318460837BD4680BD00BF52
:102D680080B584B000AF7860084611461A4603461D
:102D7800FB700B463B801346BB700023FB7297F930
:102D88000330002B0FDAFB7803F00F021346DB0049
:102D98009B1A9B0038337A6813440433FB60FB6842
:102DA80001225A700FE0FB7803F00F021346DB0094
:102DB8009B1A9B0003F5FC737A6813440433FB6089
:102DC800FB6800225A70FB7803F00F03DAB2FB6845
:102DD8001A703A88FB689A60FB68BA78DA70FB6800
:102DE8005B78002B04D0FB681B789AB2FB68DA800A
:102DF800BB78022B02D1FB6800221A717B6893F81A
:102E0800BC33012B01D102230EE07B68012283F839
:102E1800BC237B681B68F968184603F009FB7B68CC
:102E2800002283F8BC23FB7A18461037BD4680BDC4
:102E380080B584B000AF78600B46FB7097F903301B
:102E4800002B0FDAFB7803F00F021346DB009B1A06
:102E58009B0038337A6813440433FB60FB68012213
:102E68005A700FE0FB7803F00F021346DB009B1A41
:102E78009B0003F5FC737A6813440433FB60FB681A
:102E880000225A70FB7803F00F03DAB2FB681A705D
:102E98007B6893F8BC33012B01D102230EE07B68D9
:102EA800012283F8BC237B681B68F968184603F085
:102EB80049FB7B68002283F8BC230023184610379F
:102EC800BD4680BD80B586B000AFF8607A603B60D3
:102ED8000B46FB72FB7A03F00F021346DB009B1ACA
:102EE8009B0003F5FC73FA68134404337B617B6928
:102EF8007A68DA607B693A685A617B6900229A616C
:102F08007B6900225A70FB7A03F00F03DAB27B69FF
:102F18001A70FB681B69012B02D17A687B691A61F8
:102F2800FB7A03F00F03002B09D1FB681868FB68D4
:102F38001B69DBB21A46796903F03EFE08E0FB68BC
:102F48001868FB681B69DBB21A46796903F0D8FB7D
:102F5800002318461837BD4680BD00BF80B483B033
:102F680000AF78600B46FB70FB7803F00F027968BE
:102F78001346DB009B1A9B000B4403F505731B6883
:102F880018460C37BD4680BC704700BF80B586B078
:102F980000AFF8607A603B600B46FB72FB7A03F087
:102FA8000F021346DB009B1A9B003833FA68134460
:102FB80004337B617B697A68DA607B693A685A61B5
:102FC8007B6900229A617B6901225A70FB7A03F0BF
:102FD8000F03DAB27B691A70FB681B69012B02D1F7
:102FE8007A687B691A61FB7A03F00F03002B09D119
:102FF800FB681868FB681B69DBB21A46796903F03D
:10300800DBFD08E0FB681868FB681B69DBB21A4641
:10301800796903F075FB002318461837BD4680BD53
:1030280080B584B000AF78600B46FB70FB7803F086
:103038000F027B685B689A4201D9012350E097F937
:103048000330002B0FDAFB7803F00F021346DB0086
:103058009B1A9B0038337A6813440433FB60FB687F
:1030680001225A700DE0FA781346DB009B1A9B0088
:1030780003F5FC737A6813440433FB60FB68002291
:103088005A70FB6801229A70FB7803F00F03DAB2DA
:10309800FB681A707B6893F8BC33012B01D10223BB
:1030A8001EE07B68012283F8BC237B681B68F968F3
:1030B800184603F03FFFFB7803F00F03002B0AD1FB
:1030C8007B6818687B681B69D9B27B6803F57173E4
:1030D8001A4604F03BF97B68002283F8BC230023DE
:1030E80018461037BD4680BD80B584B000AF786003
:1030F8000B46FB70FB7803F00F027B685B689A4213
:1031080001D9012342E097F90330002B0FDAFB784D
:1031180003F00F021346DB009B1A9B0038337A68D2
:1031280013440433FB60FB6801225A700FE0FB78FC
:1031380003F00F021346DB009B1A9B0003F5FC7398
:103148007A6813440433FB60FB6800225A70FB68FA
:1031580000229A70FB7803F00F03DAB2FB681A704A
:103168007B6893F8BC33012B01D102230EE07B6806
:10317800012283F8BC237B681B68F968184603F0B2
:103188004BFF7B68002283F8BC23002318461037C6
:10319800BD4680BD80B58AB002AF786039607B6873
:1031A8001B687B617B693B613A681346DB009B1AAD
:1031B8009B0038337A6813440433FB60FB689A69D0
:1031C800FB685B699A4201D901236DE0FB685A6983
:1031D800FB689B69D31AFB61FB689A68FB699A4292
:1031E80002D2FB689B68FB61FB6903339B08BB61E8
:1031F8002BE0FB685A69FB689B69D31AFB61FB6883
:103208009A68FB699A4202D2FB689B68FB61FB697A
:1032180003339B08BB61FB68D9683B68DAB2FB697A
:1032280098B27B681B69DBB200930346786903F0A8
:1032380025FEFB68DA68FB691A44FB68DA60FB68FC
:103248009A69FB691A44FB689A613B685A013B69B1
:10325800134403F510639B699AB2BB699A4209D378
:10326800FB689A69FB685B699A4203D2FB685B69F1
:10327800002BBED1FB685A69FB689B699A4212D839
:103288003B6803F00F03012202FA03F3BB603B69BA
:1032980003F5006319463B6903F500635A6BBB6885
:1032A800DB4313404B63002318462037BD4680BDDF
:1032B80080B586B000AF786039607B681B687B6139
:1032C8007B693B617B693C3304331B68FB603B686B
:1032D8005A013B69134403F530639B68BB607B6804
:1032E8001B69012B40F0A080BB6803F00803002B8A
:1032F80015D0FB68724A934240F2DD80BB6803F444
:103308000043002B00F0D7803B685A013B69134407
:1033180003F530631A464FF400439360CBE0BB6873
:1033280003F02003002B09D03B685A013B69134482
:1033380003F530631A4620239360BCE0BB6803F0B2
:103348002803002B40F0B780FB685D4A93420FD9F1
:10335800BB6803F40043002B0AD03B685A013B6961
:10336800134403F530631A464FF400439360A2E018
:1033780079683A681346DB009B1A9B000B4403F5F7
:1033880001731A683B6859013B690B4403F53063C4
:103398001B69C3F31203D11A78683A681346DB0035
:1033A8009B1A9B00034403F50573196079683A6812
:1033B8001346DB009B1A9B000B4403F50273196844
:1033C80078683A681346DB009B1A9B00034403F5B0
:1033D80001731B68194478683A681346DB009B1A26
:1033E8009B00034403F5027319603B68002B14D15A
:1033F80079683A681346DB009B1A9B000B4403F577
:1034080004731B68002B08D17B6818687B6803F578
:1034180071731A46012103F099FF3B68DBB2194624
:10342800786805F047FE46E0FB68264A934224D1B7
:10343800BB6803F40043002B0AD03B685A013B6980
:10344800134403F530631A464FF40043936032E0A7
:10345800BB6803F02003002B08D03B685A013B6986
:10346800134403F530631A46202393603B68DBB2AC
:103478001946786805F01EFE1DE03B68002B14D144
:1034880079683A681346DB009B1A9B000B4403F5E6
:1034980004731B68002B08D17B6818687B6803F5E8
:1034A80071731A46002103F051FF3B68DBB21946DD
:1034B800786805F0FFFD002318461837BD4680BD23
:1034C8000A30544F0A31544F80B586B000AF786047
:1034D80039607B681B687B617B693B617B693C3336
:1034E80004331B68FB603B685A013B69134403F5CE
:1034F80030639B68BB60FB68154A93420ED9BB6872
:1035080003F40043002B09D03B685A013B6913447C
:1035180003F530631A464FF400439360786805F06A
:10352800B7FDFB680A4A93420CD97B681B69012BDB
:1035380008D17B6818687B6803F571731A46012106
:1035480003F004FF002318461837BD4680BD00BFAE
:103558000A30544F80B485B000AF78600B46FB70DA
:1035680013463B807B681B685B6ABB60FB78002B5B
:1035780007D17B681B683A881104BA680A439A62C3
:1035880028E07B681B689B6A1B0CBA681344BB6005
:103598000023FB730DE07B681A68FB7B40339B00BC
:1035A80013445B681B0CBA681344BB60FB7B013394
:1035B800FB73FA7BFB78013B9A42ECD37B68196872
:1035C800FB78013B3A881004BA68024340339B00F9
:1035D8000B445A60002318461437BD4680BC704718
:1035E80080B483B000AF78600B467B807B681B6833
:1035F8007A885A62002318460C37BD4680BC70474B
:1036080080B483B000AF78600B46FB7000BF0C3706
:10361800BD4680BC704700BF80B586B000AF7860FB
:103628007B68002B01D101235AE27B681B6803F0F9
:103638000103002B74D0A74B9B6803F00C03042BE9
:103648000BD0A44B9B6803F00C03082B11D1A14BA2
:103658005B6803F48003002B0BD09E4B1B6803F4BC
:103668000033002B5BD07B685B68002B57D10123AC
:1036780036E27B685B68B3F5803F06D1954A954B87
:103688001B6843F4803313601DE07B685B68B3F507
:10369800A02F0CD18F4A8F4B1B6843F480231360F3
:1036A8008C4A8C4B1B6843F4803313600BE0894AC7
:1036B800884B1B6823F480331360864A854B1B684C
:1036C80023F4802313607B685B68002B13D0FDF71D
:1036D800BBFF386108E0FDF7B7FF02463B69D31A24
:1036E800642B01D90323FBE17A4B1B6803F40033F5
:1036F800002BF0D014E0FDF7A7FF386108E0FDF7D4
:10370800A3FF02463B69D31A642B01D90323E7E1DF
:10371800704B1B6803F40033002BF0D100E000BFAE
:103728007B681B6803F00203002B63D0694B9B681E
:1037380003F00C03002B0BD0664B9B6803F00C03C3
:10374800082B1CD1634B5B6803F48003002B16D154
:10375800604B1B6803F00203002B05D07B68DB6815
:10376800012B01D00123BBE15A495A4B1B6823F0B6
:10377800F8027B681B69DB0013430B603AE07B6847
:10378800DB68002B20D0544B01221A60FDF75CFF48
:10379800386108E0FDF758FF02463B69D31A022B4F
:1037A80001D903239CE14B4B1B6803F00203002B58
:1037B800F0D04849474B1B6823F0F8027B681B6927
:1037C800DB0013430B6015E0434B00221A60FDF742
:1037D8003BFF386108E0FDF737FF02463B69D31A23
:1037E800022B01D903237BE13A4B1B6803F0020348
:1037F800002BF0D17B681B6803F00803002B30D046
:103808007B685B69002B16D0344B01221A60FDF7E8
:103818001BFF386108E0FDF717FF02463B69D31A22
:10382800022B01D903235BE12A4B5B6F03F00203F0
:10383800002BF0D015E0294B00221A60FDF704FF99
:10384800386108E0FDF700FF02463B69D31A022BF6
:1038580001D9032344E11F4B5B6F03F00203002BE4
:10386800F0D17B681B6803F00403002B00F0A080F4
:103878000023FB75174B1B6C03F08053002B0FD1F3
:103888000023BB60134A134B1B6C43F08053136433
:10389800104B1B6C03F08053BB60BB680123FB75A6
:1038A8000F4B1B6803F48073002B21D10C4A0C4B7F
:1038B8001B6843F480731360FDF7C6FE386111E09E
:1038C800FDF7C2FE02463B69D31A022B0AD903232D
:1038D80006E100BF0038024000004742800E474220
:1038E80000700040804B1B6803F48073002BE7D006
:1038F8007B689B68012B06D17C4A7C4B1B6F43F08D
:10390800010313671CE07B689B68052B0CD1774A81
:10391800764B1B6F43F004031367744A734B1B6F9A
:1039280043F0010313670BE0704A704B1B6F23F0E1
:10393800010313676D4A6D4B1B6F23F00403136774
:103948007B689B68002B15D0FDF77EFE38610AE086
:10395800FDF77AFE02463B69D31A41F28832934258
:1039680001D90323BCE0614B1B6F03F00203002B5A
:10397800EED014E0FDF768FE38610AE0FDF764FE5A
:1039880002463B69D31A41F28832934201D9032394
:10399800A6E0564B1B6F03F00203002BEED1FB7D14
:1039A800012B05D1514A514B1B6C23F080531364F2
:1039B8007B689B69002B00F092804C4B9B6803F05E
:1039C8000C03082B5CD07B689B69022B41D1484BC8
:1039D80000221A60FDF738FE386108E0FDF734FE72
:1039E80002463B69D31A022B01D9032378E03F4BE7
:1039F8001B6803F00073002BF0D13C497B68DA693F
:103A08007B681B6A1A437B685B6A9B011A437B6865
:103A18009B6A5B08013B1B041A437B68DB6A1B0635
:103A280013434B60324B01221A60FDF70DFE3861DB
:103A380008E0FDF709FE02463B69D31A022B01D9BB
:103A480003234DE0294B1B6803F00073002BF0D0D3
:103A580045E0274B00221A60FDF7F6FD386108E0C3
:103A6800FDF7F2FD02463B69D31A022B01D9032365
:103A780036E01E4B1B6803F00073002BF0D12EE0DC
:103A88007B689B69012B01D1012329E0174B5B68F7
:103A9800FB60FB6803F480027B68DB699A421CD1F7
:103AA800FB6803F03F027B681B6A9A4215D1FA68EB
:103AB80047F6C07313407A68526A93420DD1FB6887
:103AC80003F440327B689B6A9A4206D1FB6803F094
:103AD80070627B68DB6A9A4201D0012300E0002310
:103AE80018461837BD4680BD0070004000380240B7
:103AF8006000474280B584B000AF786039607B6869
:103B0800002B01D10123CCE0684B1B6803F00F02A6
:103B18003B689A420CD2654B3A68D2B21A70634B32
:103B28001B6803F00F023B689A4201D00123B8E0FA
:103B38007B681B6803F00203002B20D07B681B689E
:103B480003F00403002B05D0594A594B9B6843F4F2
:103B5800E05393607B681B6803F00803002B05D0D3
:103B6800534A534B9B6843F4604393605049504B0E
:103B78009B6823F0F0027B689B6813438B607B682B
:103B88001B6803F00103002B44D07B685B68012BA2
:103B980007D1474B1B6803F40033002B19D10123CD
:103BA8007FE07B685B68022B03D07B685B68032B34
:103BB80007D13F4B1B6803F00073002B09D1012389
:103BC8006FE03B4B1B6803F00203002B01D101237C
:103BD80067E03749364B9B6823F003027B685B68D4
:103BE80013438B60FDF730FDF8600AE0FDF72CFD0C
:103BF8000246FB68D31A41F28832934201D9032363
:103C08004FE02B4B9B6803F00C027B685B689B00C2
:103C18009A42EBD1254B1B6803F00F023B689A428E
:103C28000CD9224B3A68D2B21A70204B1B6803F0A9
:103C38000F023B689A4201D0012332E07B681B687F
:103C480003F00403002B08D01949194B9B6823F48F
:103C5800E0527B68DB6813438B607B681B6803F06A
:103C68000803002B09D01249114B9B6823F46042CA
:103C78007B681B69DB0013438B6000F021F8014669
:103C88000B4B9B6803F0F0031B090A4AD35C21FA2B
:103C980003F3094A1360094B1B681846FDF792FCA9
:103CA800002318461037BD4680BD00BF003C0240C7
:103CB80000380240A09800080000002004000020FE
:103CC8002DE9F04F8FB000AF0023FB6200237B6328
:103CD8000023BB6200233B63614B9B6803F00C032A
:103CE800042B07D0082B08D0002B40F0AF805D4B89
:103CF8003B63AEE05C4B3B63ABE0594B5B6803F066
:103D08003F03FB62564B5B6803F48003002B4DD0E6
:103D1800534B5A6847F6C07313409B0919464FF036
:103D280000020B461446E0007862786A40EA537055
:103D38007862DB003B62D7E908346001F861F86912
:103D480040EAD360F8615801B861D7E90656ED1A20
:103D580066EB040633464FEA83192B4649EA936912
:103D68002B464FEA8318B8EB050569EB0606A8460B
:103D7800B14618EB010849EB02094FEA49237B6178
:103D88007B6943EAD8537B614FEA48233B61D7E913
:103D9800048940464946FB6A4FF000041A46234608
:103DA800FCF724FA03460C467B6341E02C4B5A6827
:103DB80047F6C07313409B0919464FF000020B46A3
:103DC8001446E000F860F86840EA5370F860DB00D9
:103DD800BB60D7E902344FEA441B4BEAD36B4FEA86
:103DE800431ABAEB030A6BEB040B4FEA8B1646EA4D
:103DF8009A664FEA8A15B5EB0A0566EB0B066D184D
:103E080046EB0206B3027B607B6843EA95537B600E
:103E1800AB023B60D7E9005628463146FB6A4FF0B3
:103E280000041A462346FCF7E1F903460C467B6377
:103E38000B4B5B6803F440331B0C01335B00BB6224
:103E48007A6BBB6AB2FBF3F33B6302E0054B3B635F
:103E580000BF3B6B18463C37BD46BDE8F08F00BF3E
:103E6800003802400024F40000127A0080B400AF49
:103E7800024B1B681846BD4680BC704700000020F6
:103E880080B500AFFFF7F2FF0146054B9B6803F4CE
:103E9800E0539B0A034AD35C21FA03F3184680BD1A
:103EA80000380240B098000880B500AFFFF7DEFF89
:103EB8000146054B9B6803F460435B0B034AD35CE4
:103EC80021FA03F3184680BD00380240B098000874
:103ED80080B582B000AF78607B68002B01D10123E8
:103EE80055E07B6800229A627B6893F85130DBB218
:103EF800002B06D17B68002283F850207868FCF7F5
:103F0800EFFF7B68022283F851207B681B687A6880
:103F18001268126822F040021A607B681B687A688F
:103F280051687A68926811437A68D26811437A684E
:103F3800126911437A68526911437A68926902F4E6
:103F4800007211437A68D26911437A68126A114380
:103F58007A68926A0A431A607B681B687A68926971
:103F6800120C02F004017A68526A0A435A607B68AC
:103F78001B687A681268D26922F40062DA617B6889
:103F880000225A657B68012283F8512000231846D5
:103F98000837BD4680BD00BF80B586B000AFF86069
:103FA800B9607A607B800023FB75FB6893F850301A
:103FB800012B01D10223E3E0FB68012283F85020A2
:103FC800FB6893F85130BB75FB685B683B61BB7D50
:103FD800012B0DD03B69B3F5827F06D1FB689B6846
:103FE800002B02D1BB7D042B02D00223FB75C2E05B
:103FF800BB68002B05D07B68002B02D07B88002B88
:1040080002D10123FB75B6E0FB6893F85130DBB2AF
:10401800042B03D0FB68052283F85120FB6800229B
:104028005A65FB68BA681A63FB687A889A86FB68DF
:104038007A88DA86FB687A689A63FB687A889A874E
:10404800FB687A88DA87FB6800221A64FB6800221A
:104058005A64FB6893F85130DBB2042B08D1FB6833
:10406800DB6C494A1A64FB68DB6C484ADA6307E090
:10407800FB68DB6C464A1A64FB68DB6C454ADA630A
:10408800FB68DB6C444ADA64FB68DB6C00221A6567
:10409800FB68D86CFB681B680C331946FB689B6B84
:1040A8001A46FB68DB8F9BB2FDF7B4FC0346002B76
:1040B8000CD0FB685B6D43F01002FB685A65012366
:1040C800FB75FB68012283F8512054E0FB681B68EC
:1040D800FA681268526842F001025A60FB689B6CE9
:1040E80000221A64FB689B6C0022DA63FB689B6CF5
:1040F8000022DA64FB689B6C00221A65FB68986CE6
:10410800FB681B6B1946FB681B680C331A46FB6877
:10411800DB8E9BB2FDF77EFC0346002B0CD0FB68C0
:104128005B6D43F01002FB685A650123FB75FB6861
:10413800012283F851201EE0FB681B681B6803F00E
:104148004003002B07D1FB681B68FA6812681268E5
:1041580042F040021A60FB681B68FA6812685268ED
:1041680042F020025A60FB681B68FA6812685268BD
:1041780042F002025A60FB68002283F85020FB7D5F
:1041880018461837BD4680BD19450008E1430008A8
:1041980035450008894400085145000880B588B0B5
:1041A80000AF78607B681B685B68FB617B681B6895
:1041B8009B68BB61BB6903F04003002B0ED1BB6950
:1041C80003F00103002B09D0FB6903F04003002B27
:1041D80004D07B681B6C78689847CFE0BB6903F014
:1041E8000203002B09D0FB6903F08003002B04D0E5
:1041F8007B685B6C78689847C0E0BB6903F0200374
:10420800002B0AD1BB6903F04003002B05D1BB6921
:1042180003F48073002B00F0B180FB6903F02003E6
:10422800002B00F0AB80BB6903F04003002B23D0C8
:104238007B6893F85130DBB2032B11D07B685B6D40
:1042480043F004027B685A6500237B617B681B6826
:10425800DB687B617B681B689B687B617B690BE023
:1042680000233B617B681B68DB683B617B681B68DC
:104278009B683B613B6981E0BB6903F02003002B2D
:1042880014D07B685B6D43F001027B685A6500239C
:10429800FB607B681B689B68FB607B681B687A68AF
:1042A8001268126822F040021A60FB68BB6903F4C6
:1042B8008073002B0CD07B685B6D43F008027B6831
:1042C8005A650023BB607B681B689B68BB60BB6842
:1042D8007B685B6D002B50D07B681B687A6812681E
:1042E800526822F0E0025A607B68012283F851206C
:1042F800FB6903F00203002B04D1FB6903F00103FF
:10430800002B34D07B681B687A681268526822F0E8
:1043180003025A607B68DB6C002B11D07B68DB6C76
:10432800184A1A657B68DB6C1846FDF7CBFB034619
:10433800002B05D07B685B6D43F040027B685A65B3
:104348007B689B6C002B16D07B689B6C0D4A1A65AA
:104358007B689B6C1846FDF7B5FB0346002B0AD01B
:104368007B685B6D43F040027B685A6503E07868C0
:1043780000F028F800E000BF00BF00BF2037BD46AE
:1043880080BD00BF9145000880B483B000AF78605D
:1043980000BF0C37BD4680BC704700BF80B483B0F7
:1043A80000AF786000BF0C37BD4680BC704700BFC7
:1043B80080B483B000AF786000BF0C37BD4680BCC6
:1043C800704700BF80B483B000AF786000BF0C377F
:1043D800BD4680BC704700BF80B584B000AF786030
:1043E8007B689B6BFB60FDF72FF9B8607B681B68E7
:1043F8001B6803F48073002B3BD1FB681B68FA68C9
:104408001268526822F020025A60FB689B68002BF1
:104418000DD1FB685B68B3F5827F08D1FB681B6828
:10442800FA681268526822F003025A6007E0FB68D3
:104438001B68FA681268526822F001025A60BA686A
:104448006421F86800F01EF90346002B02D0FB68CF
:1044580020225A65FB680022DA87FB68012283F86C
:104468005120FB685B6D002B03D0F868FFF7AAFFAB
:1044780002E0F868FFF788FF1037BD4680BD00BF2F
:1044880080B584B000AF78607B689B6BFB60FDF7FC
:10449800DBF8B8607B681B681B6803F48073002B2B
:1044A8002FD1FB681B68FA681268526822F0200254
:1044B8005A60BA686421F86800F04AF90346002B8C
:1044C80005D0FB685B6D43F02002FB685A65FB680A
:1044D8001B68FA681268526822F003025A60FB6887
:1044E8000022DA86FB680022DA87FB68012283F85B
:1044F8005120FB685B6D002B03D0F868FFF762FF63
:1045080002E0F868FCF746F91037BD4680BD00BFE9
:1045180080B584B000AF78607B689B6BFB60F868FF
:10452800FFF73CFF00BF1037BD4680BD80B584B0A3
:1045380000AF78607B689B6BFB60F868FFF738FF1B
:1045480000BF1037BD4680BD80B584B000AF78602D
:104558007B689B6BFB60FB681B68FA681268526893
:1045680022F003025A60FB685B6D43F01002FB689F
:104578005A65FB68012283F85120F868FFF722FF8B
:1045880000BF1037BD4680BD80B584B000AF7860ED
:104598007B689B6BFB60FB680022DA87FB68002264
:1045A800DA86F868FFF70EFF00BF1037BD4680BDFA
:1045B80080B584B000AFF860B9603B601346FB710A
:1045C8004CE03B68B3F1FF3F48D0FDF73DF80246A9
:1045D800BB69D21A3B689A4202D23B68002B3DD194
:1045E800FB681B68FA681268526822F0E0025A6099
:1045F800FB685B68B3F5827F11D1FB689B68B3F5F4
:10460800004F04D0FB689B68B3F5806F07D1FB6847
:104618001B68FA681268126822F040021A60FB6888
:104628009B6AB3F5005F0FD1FB681B68FA681268D4
:10463800126822F400521A60FB681B68FA68126854
:10464800126842F400521A60FB68012283F8512074
:10465800FB68002283F8502003230FE0FB681B68E7
:104668009A68BB681A40BB689A420CBF01230023B2
:10467800DBB21A46FB799A42A3D1002318461037B9
:10468800BD4680BD80B586B002AFF860B9607A607B
:10469800FB685B68B3F5827F11D1FB689B68B3F553
:1046A800004F04D0FB689B68B3F5806F07D1FB68A7
:1046B8001B68FA681268126822F040021A60FB68E8
:1046C8005B68B3F5827F2AD1FB689B68B3F5806F7E
:1046D80012D07B680093BB6800228021F868FFF73E
:1046E80067FF0346002B2DD0FB685B6D43F020026B
:1046F800FB685A65032326E07B680093BB680022A9
:104708000121F868FFF754FF0346002B1AD0FB6815
:104718005B6D43F02002FB685A65032313E07B6856
:104728000093BB6800220121F868FFF741FF0346A8
:10473800002B07D0FB685B6D43F02002FB685A65CD
:10474800032300E0002318461037BD4680BD00BF94
:1047580080B588B002AFF860B9607A601B4B1B68FF
:104768001B4AA2FB03235B0D4FF47A7202FB03F38F
:104778007B61FB685B68B3F5827F12D17B6800932D
:10478800BB6800228021F868FFF712FF0346002B60
:1047980016D0FB685B6D43F02002FB685A65032363
:1047A8000FE07B69002B0AD07B69013B7B61FB68CA
:1047B8001B689B6803F08003002BF2D100E000BF68
:1047C800002318461837BD4680BD00BF00000020F2
:1047D800819F5E1680B582B000AF78607B68002B41
:1047E80001D101231DE07B6893F83D30DBB2002B3B
:1047F80006D17B68002283F83C207868FCF724FC0B
:104808007B68022283F83D207B681A687B68043342
:104818001946104600F0BEF97B68012283F83D2056
:10482800002318460837BD4680BD00BF80B582B05A
:1048380000AF78607B68002B01D101231DE07B6805
:1048480093F83D30DBB2002B06D17B68002283F859
:104858003C20786800F016F87B68022283F83D2037
:104868007B681A687B6804331946104600F092F991
:104878007B68012283F83D20002318460837BD468F
:1048880080BD00BF80B483B000AF786000BF0C3734
:10489800BD4680BC704700BF80B584B000AFF860EB
:1048A800B9607A60FB6893F83C30012B01D1022390
:1048B800B4E0FB68012283F83C20FB68022283F8FD
:1048C8003D207B680C2B00F29F8001A252F823F058
:1048D8000D490008114A0008114A0008114A000849
:1048E8004D490008114A0008114A0008114A0008F9
:1048F8008F490008114A0008114A0008114A0008A7
:10490800CF490008FB681B68B968184600F0C0F971
:10491800FB681B68FA681268926942F008029A619B
:10492800FB681B68FA681268926922F004029A61AF
:10493800FB681B68FA6812689169BA6812690A43C9
:104948009A6162E0FB681B68B968184600F006FACD
:10495800FB681B68FA681268926942F400629A61FF
:10496800FB681B68FA681268926922F480629A618F
:10497800FB681B68FA6812689169BA6812691202C2
:104988000A439A6141E0FB681B68B968184600F061
:104998004FFAFB681B68FA681268D26942F008028D
:1049A800DA61FB681B68FA681268D26922F00402AF
:1049B800DA61FB681B68FA681268D169BA6812691B
:1049C8000A43DA6121E0FB681B68B968184600F001
:1049D80099FAFB681B68FA681268D26942F40062A7
:1049E800DA61FB681B68FA681268D26922F480628F
:1049F800DA61FB681B68FA681268D169BA681269DB
:104A080012020A43DA6100E000BFFB68012283F862
:104A18003D20FB68002283F83C200023184610370D
:104A2800BD4680BD80B584B000AF786039607B68D2
:104A380093F83C30012B01D10223A6E07B680122C8
:104A480083F83C207B68022283F83D207B681B6842
:104A58009B68FB60FB6823F07703FB60FB6823F42B
:104A68007F43FB607B681B68FA689A603B681B6839
:104A7800402B67D0402B0BD8102B73D0102B02D8AB
:104A8800002B6FD078E0202B6CD0302B6AD073E0ED
:104A9800702B0DD0702B04D8502B33D0602B41D005
:104AA8006AE0B3F5805F66D0B3F5005F17D063E0C6
:104AB8007B6818683B6899683B685A683B68DB689C
:104AC80000F0E6FA7B681B689B68FB60FB6843F0B4
:104AD8007703FB607B681B68FA689A604CE07B6828
:104AE80018683B6899683B685A683B68DB6800F05F
:104AF800CFFA7B681B687A681268926842F4804231
:104B08009A6039E07B6818683B6859683B68DB68DD
:104B18001A4600F045FA7B681B685021184600F0D9
:104B28009DFA29E07B6818683B6859683B68DB6830
:104B38001A4600F063FA7B681B686021184600F08B
:104B48008DFA19E07B6818683B6859683B68DB6830
:104B58001A4600F025FA7B681B684021184600F0C9
:104B68007DFA09E07B681A683B681B68194610469D
:104B780000F074FA00E000BF7B68012283F83D2052
:104B88007B68002283F83C20002318461037BD4676
:104B980080BD00BF80B485B000AF786039607B68A5
:104BA8001B68FB607B68334A93420FD07B68B3F184
:104BB800804F0BD07B68304A934207D07B682F4ADE
:104BC800934203D07B682E4A934208D1FB6823F0B6
:104BD8007003FB603B685B68FA681343FB607B68A3
:104BE800244A93421BD07B68B3F1804F17D07B686F
:104BF800214A934213D07B68204A93420FD07B68A6
:104C08001F4A93420BD07B681E4A934207D07B68A9
:104C18001D4A934203D07B681C4A934208D1FB6823
:104C280023F44073FB603B68DB68FA681343FB605E
:104C3800FB6823F080023B685B691343FB607B6879
:104C4800FA681A603B689A687B68DA623B681A6897
:104C58007B689A627B68074A934203D13B681A696A
:104C68007B681A637B6801225A6100BF1437BD460E
:104C780080BC70470000014000040040000800406C
:104C8800000C004000400140004401400048014041
:104C980080B487B000AF786039607B681B6A23F006
:104CA80001027B681A627B681B6A7B617B685B68B0
:104CB8003B617B689B69FB60FB6823F07003FB60CA
:104CC800FB6823F00303FB603B681B68FA68134327
:104CD800FB607B6923F002037B613B689B687A6910
:104CE80013437B617B681C4A93420CD17B6923F098
:104CF80008037B613B68DB687A6913437B617B69E6
:104D080023F004037B617B68134A934211D13B690A
:104D180023F480733B613B6923F400733B613B6878
:104D28005B693A6913433B613B689B693A69134382
:104D38003B617B683A695A607B68FA689A613B68AC
:104D48005A687B685A637B687A691A6200BF1C37A5
:104D5800BD4680BC704700BF0000014080B487B0EA
:104D680000AF786039607B681B6A23F010027B68AB
:104D78001A627B681B6A7B617B685B683B617B6846
:104D88009B69FB60FB6823F4E043FB60FB6823F44A
:104D98004073FB603B681B681B02FA681343FB60A7
:104DA8007B6923F020037B613B689B681B017A6960
:104DB80013437B617B681D4A93420DD17B6923F0C5
:104DC80080037B613B68DB681B017A6913437B6165
:104DD8007B6923F040037B617B68144A934213D1BB
:104DE8003B6923F480633B613B6923F400633B61C7
:104DF8003B685B699B003A6913433B613B689B696D
:104E08009B003A6913433B617B683A695A607B6847
:104E1800FA689A613B685A687B689A637B687A6922
:104E28001A6200BF1C37BD4680BC704700000140B5
:104E380080B487B000AF786039607B681B6A23F460
:104E480080727B681A627B681B6A7B617B685B681F
:104E58003B617B68DB69FB60FB6823F07003FB60E8
:104E6800FB6823F00303FB603B681B68FA68134385
:104E7800FB607B6923F400737B613B689B681B02C2
:104E88007A6913437B617B681D4A93420DD17B6924
:104E980023F400637B613B68DB681B027A69134378
:104EA8007B617B6923F480637B617B68144A93424E
:104EB80013D13B6923F480533B613B6923F40053CE
:104EC8003B613B685B691B013A6913433B613B6883
:104ED8009B691B013A6913433B617B683A695A60D5
:104EE8007B68FA68DA613B685A687B68DA637B68D2
:104EF8007A691A6200BF1C37BD4680BC704700BF84
:104F08000000014080B487B000AF786039607B68EA
:104F18001B6A23F480527B681A627B681B6A3B61B8
:104F28007B685B687B617B68DB69FB60FB6823F4FB
:104F3800E043FB60FB6823F44073FB603B681B683D
:104F48001B02FA681343FB603B6923F400533B617F
:104F58003B689B681B033A6913433B617B680F4AB4
:104F6800934209D17B6923F480437B613B685B6989
:104F78009B017A6913437B617B687A695A607B6815
:104F8800FA68DA613B685A687B681A647B683A6930
:104F98001A6200BF1C37BD4680BC70470000014044
:104FA80080B487B000AFF860B9607A60FB681B6AAC
:104FB8007B61FB681B6A23F00102FB681A62FB68CD
:104FC8009B693B613B6923F0F0033B617B681B01F4
:104FD8003A6913433B617B6923F00A037B617A6971
:104FE800BB6813437B61FB683A699A61FB687A691D
:104FF8001A6200BF1C37BD4680BC704780B487B0BA
:1050080000AFF860B9607A60FB681B6A23F0100291
:10501800FB681A62FB689B697B61FB681B6A3B61E2
:105028007B6923F470437B617B681B037A691343B4
:105038007B613B6923F0A0033B61BB681B013A69B4
:1050480013433B61FB687A699A61FB683A691A62A3
:1050580000BF1C37BD4680BC704700BF80B485B018
:1050680000AF786039607B689B68FB60FB6823F061
:105078007003FB603A68FB68134343F00703FB6067
:105088007B68FA689A6000BF1437BD4680BC7047D9
:1050980080B487B000AFF860B9607A603B60FB68A5
:1050A8009B687B617B6923F47F437B613B681A02C1
:1050B8007B681A43BB6813437A6913437B61FB68B7
:1050C8007A699A6000BF1C37BD4680BC704700BF34
:1050D80080B485B000AF786039607B6893F83C3065
:1050E800012B01D1022350E07B68012283F83C2088
:1050F8007B68022283F83D207B681B685B68FB6045
:105108007B681B689B68BB60FB6823F07003FB60CF
:105118003B681B68FA681343FB607B681B68FA6886
:105128005A607B681B681B4A934218D07B681B68CF
:10513800B3F1804F13D07B681B68174A93420ED097
:105148007B681B68154A934209D07B681B68144A20
:10515800934204D07B681B68124A93420CD1BB6807
:1051680023F08003BB603B685B68BA681343BB608D
:105178007B681B68BA689A607B68012283F83D20C7
:105188007B68002283F83C20002318461437BD466C
:1051980080BC704700000140000400400008004047
:1051A800000C00400040014080B582B000AF78603C
:1051B8007B68002B01D101233FE07B6893F83930ED
:1051C800DBB2002B06D17B68002283F83820786890
:1051D800FCF7C6F87B68242283F839207B681B68B3
:1051E8007A681268D26822F40052DA60786800F0AF
:1051F800B1FA7B681B687A681268126922F49042D7
:105208001A617B681B687A681268526922F02A0260
:105218005A617B681B687A681268D26842F4005247
:10522800DA607B680022DA637B68202283F8392001
:105238007B68202283F83A20002318460837BD46A9
:1052480080BD00BF80B485B000AFF860B960134678
:10525800FB80FB6893F83A30DBB2202B40D1BB6867
:10526800002B02D0FB88002B01D1012339E0FB6819
:1052780093F83830012B01D1022332E0FB68012278
:1052880083F83820FB68BA689A62FB68FA889A85BE
:10529800FB68FA88DA85FB680022DA63FB68222259
:1052A80083F83A20FB68002283F83820FB681B68E3
:1052B800FA681268D26842F48072DA60FB681B6888
:1052C800FA681268526942F001025A61FB681B6869
:1052D800FA681268D26842F02002DA60002300E01F
:1052E800022318461437BD4680BC704780B588B085
:1052F80000AF78607B681B681B68FB617B681B6874
:10530800DB68BB617B681B685B697B6100233B6171
:105318000023FB60FB6903F00F033B613B69002B33
:105328000DD1FB6903F02003002B08D0BB6903F003
:105338002003002B03D0786800F08AF9D1E03B699C
:10534800002B00F0B0807B6903F00103002B05D12E
:10535800BB6903F49073002B00F0A580FB6903F090
:105368000103002B0AD0BB6903F48073002B05D01E
:105378007B68DB6B43F001027B68DA63FB6903F04F
:105388000403002B0AD07B6903F00103002B05D02E
:105398007B68DB6B43F002027B68DA63FB6903F02E
:1053A8000203002B0AD07B6903F00103002B05D010
:1053B8007B68DB6B43F004027B68DA63FB6903F00C
:1053C8000803002B0FD0BB6903F02003002B04D186
:1053D8007B6903F00103002B05D07B68DB6B43F08E
:1053E80008027B68DA637B68DB6B002B78D0FB698B
:1053F80003F02003002B07D0BB6903F02003002B28
:1054080002D0786800F024F97B681B685B6903F0B8
:105418004003002B14BF01230023DBB2FB607B6831
:10542800DB6B03F00803002B02D1FB68002B31D0A3
:10543800786800F06FF87B681B685B6903F04003CD
:10544800002B23D07B681B687A681268526922F0A7
:1054580040025A617B685B6B002B13D07B685B6BE7
:10546800214A1A657B685B6B1846FCF72BFB0346E1
:10547800002B16D07B685B6B1B6D7A68526B1046ED
:1054880098470EE0786800F03BF80AE0786800F08A
:1054980037F806E0786800F033F87B680022DA63B2
:1054A8001EE000BF1CE0FB6903F08003002B08D05E
:1054B800BB6903F08003002B03D0786800F05CF828
:1054C8000FE0FB6903F04003002B0AD0BB6903F02F
:1054D8004003002B05D0786800F0A2F800BF00E078
:1054E80000BF2037BD4680BD5955000880B483B041
:1054F80000AF786000BF0C37BD4680BC704700BF66
:1055080080B483B000AF786000BF0C37BD4680BC64
:10551800704700BF80B483B000AF78607B681B68B9
:105528007A681268D26822F49072DA607B681B6825
:105538007A681268526922F001025A617B68202257
:1055480083F83A2000BF0C37BD4680BC704700BFC7
:1055580080B584B000AF78607B689B6BFB60FB68AC
:105568000022DA85FB680022DA84F868FFF7C8FFB2
:1055780000BF1037BD4680BD80B485B000AF7860ED
:105588007B6893F83930DBB2212B43D17B689B6869
:10559800B3F5805F19D17B681B6AFB607B681B6869
:1055A800FA681288C2F308025A607B681B69002BEC
:1055B80005D17B681B6A9A1C7B681A620EE07B68BF
:1055C8001B6A5A1C7B681A6208E07B681A687B6849
:1055D8001B6A581C796808621B7853607B68DB8CEF
:1055E8009BB2013B9BB27A681946D184002B0FD13C
:1055F8007B681B687A681268D26822F08002DA60D9
:105608007B681B687A681268D26842F04002DA60E8
:10561800002300E0022318461437BD4680BC7047BB
:1056280080B582B000AF78607B681B687A681268C2
:10563800D26822F04002DA607B68202283F83920A1
:105648007868FFF753FF002318460837BD4680BD2A
:1056580080B584B000AF78607B6893F83A30DBB2ED
:10566800222B71D17B689B68B3F5805F23D17B685F
:105678009B6AFB607B681B69002B0ED17B681B68EB
:105688005B689BB2C3F308039AB2FB681A807B6815
:105698009B6A9A1C7B689A6229E07B681B685B6836
:1056A8009BB2DBB29AB2FB681A807B689B6A5A1C71
:1056B8007B689A621BE07B681B69002B0AD17B68B8
:1056C8009B6A591C7A6891627A6812685268D2B2E9
:1056D8001A700CE07B689B6A591C7A6891627A6838
:1056E80012685268D2B202F07F02D2B21A707B6896
:1056F800DB8D9BB2013B9BB27A681946D185002BA2
:1057080020D17B681B687A681268D26822F0200270
:10571800DA607B681B687A681268D26822F4807243
:10572800DA607B681B687A681268526922F00102A5
:105738005A617B68202283F83A207868FAF7E2FEFB
:10574800002302E0002300E0022318461037BD467C
:1057580080BD00BF2DE9F04FA3B000AFF867FB6F25
:105768001968FB6F1B681B6923F44052FB6FDB68E9
:1057780013430B61FB6F9A68FB6F1B691A43FB6F3E
:105788005B691A43FB6FDB691343C7F88430FB6F0F
:105798001968FB6F1B68DB6823F4164222F00C02C1
:1057A800D7F884301343CB60FB6F1968FB6F1B6815
:1057B8005B6923F44072FB6F9B6913434B61FB6F7A
:1057C800DB69B3F5004F40F07181FB6F1B68B44A89
:1057D800934205D0FB6F1B68B24A934240F0B180F8
:1057E800FEF762FBC7F88000FB6F1D68D7F88030B2
:1057F80019464FF000020B461446DB1844EB04042C
:105808005B1844EB0204E0007864786C40EA53705B
:105818007864DB003B64D7E9103413EB010844EBF0
:10582800020940464946FB6F5B684FF00004DB18ED
:1058380044EB04041A462346FAF7D8FC03460C4600
:105848001A46994BA3FB02235B091E01D7F8803047
:1058580019464FF000020B461446DB1844EB0404CB
:105868005B1844EB0204E000F863F86B40EA5370FD
:10587800F863DB00BB63D7E90E3413EB010844EB94
:10588800020940464946FB6F5B684FF00004DB188D
:1058980044EB04041A462346FAF7A8FC03460C46D0
:1058A8001A46814BA3FB02135B09642101FB03F336
:1058B800D31ADB0032337C4AA2FB03235B095B006B
:1058C80003F4F8731E44D7F8803019464FF00002ED
:1058D8000B461446DB1844EB04045B1844EB020443
:1058E800E0007863786B40EA53707863DB003B63D1
:1058F800D7E90C3413EB010844EB0209404649464A
:10590800FB6F5B684FF00004DB1844EB04041A4695
:105918002346FAF76BFC03460C461A46624BA3FB78
:1059280002135B09642101FB03F3D31ADB00323352
:105938005D4AA2FB03235B0903F007033344AB6012
:1059480040E2FEF79DFAC7F88000FB6F1A683A67D5
:10595800D7F8803019464FF000020B461446DB1882
:1059680044EB04045B1844EB0204E000F862F86AB4
:1059780040EA5370F862DB00BB62D7E90A345D186D
:1059880044EB020628463146FB6F5B684FF0000483
:10599800DB1844EB04041A462346FAF727FC0346AF
:1059A8000C461A46404BA3FB02235B091E01D7F89D
:1059B800803019464FF000020B461446DB1844EBC2
:1059C80004045B1844EB02044FEAC40B4BEA537B14
:1059D8004FEAC30A53465C4613EB010A44EB020B39
:1059E80050465946FB6F5B684FF00004DB1844EBE8
:1059F80004041A462346FAF7F9FB03460C461A46EE
:105A0800294BA3FB02135B09642101FB03F3D31A9F
:105A1800DB003233244AA2FB03235B095B0003F457
:105A2800F8731E44D7F8803019464FF000020B4631
:105A38001446DB1844EB04045B1844EB02044FEAF9
:105A4800C40949EA53794FEAC30843464C4613EB65
:105A5800010844EB020940464946FB6F5B684FF07A
:105A68000004DB1844EB04041A462346FAF7BEFB8D
:105A780003460C461A460C4BA3FB02135B09642130
:105A880001FB03F3D31ADB003233074AA2FB0323DB
:105A98005B0903F0070333443A6F936092E100BF58
:105AA80000100140001401401F85EB51FB6F1A687C
:105AB800C14B9A4205D0FB6F1A68C04B9A4240F01E
:105AC800BF80FEF7F1F9C7F88000FB6F1E68D7F8B2
