:020000040800F2
:10000000000002202D8E0008291200083512000879
:100010003D120008451200084D12000800000000C3
:100020000000000000000000000000005512000861
:1000300061120008000000006D120008791200082B
:100040007D8E00087D8E00087D8E00087D8E000864
:100050007D8E00087D8E00087D8E00087D8E000854
:100060007D8E00087D8E00087D8E000885120008B8
:10007000991200087D8E0008AD1200087D8E0008E0
:10008000C11200087D8E00087D8E0008000000006F
:100090000000000000000000000000007D8E00084D
:1000A0007D8E00087D8E00087D8E00087D8E000804
:1000B0007D8E00087D8E00087D8E00087D8E0008F4
:1000C0007D8E00087D8E00087D8E00087D8E0008E4
:1000D0007D8E00087D8E0008D5120008000000000B
:1000E0007D8E00087D8E00087D8E000800000000D7
:1000F0000000000000000000000000007D8E0008ED
:10010000000000007D8E00087D8E00087D8E0008B6
:1001100000000000000000000000000000000000DF
:100120007D8E00087D8E00087D8E00087D8E000883
:100130007D8E0008000000000000000000000000AC
:10014000000000000000000000000000E9120008AC
:100150007D8E00087D8E00087D8E00087D8E000853
:100160007D8E00087D8E0008000000000000000069
:10017000000000000000000000000000000000007F
:10018000000000007D8E000800000000000000005C
:080190007D8E00087D8E000841
:1001980010B5054C237833B9044B13B10448AFF3B9
:1001A80000800123237010BDE4010020000000003E
:1001B80084900008084B10B51BB108490848AFF3F4
:1001C80000800848036803B910BD074B002BFBD01B
:1001D800BDE81040184700BF00000000E8010020FB
:1001E80084900008E40100200000000053B94AB9D7
:1001F800002908BF00281CBF4FF0FF314FF0FF3027
:1002080000F07EB9ADF1080C6DE904CE00F006F8F7
:10021800DDF804E0DDE9022304B070472DE9F0477A
:100228008C460E460446089D002B50D18A4217463C
:100238006CD9B2FA82FEBEF1000F0BD0CEF12004C9
:1002480020FA04F401FA0EF644EA060C02FA0EF754
:1002580000FA0EF44FEA1749220CBCFBF9F01FFA1A
:1002680087F809FB10C642EA064600FB08F3B342CA
:1002780009D9F61900F1FF3280F02281B34240F229
:100288001F8102383E44F61AA2B2B6FBF9F309FB05
:10029800136642EA064403FB08F8A04509D9E419A5
:1002A80003F1FF3280F00A81A04540F20781023B4A
:1002B8003C44C8EB040443EA00400021002D62D00E
:1002C80024FA0EF400232C606B60BDE8F0878B42A3
:1002D80007D9002D55D0002185E841000846BDE822
:1002E800F087B3FA83F1002940F09080B34202D33B
:1002F800824200F2F880841A66EB03060120B446B5
:10030800002D40D085E81010BDE8F08712B901270C
:10031800B7FBF2F7B7FA87FEBEF1000F35D1F31B32
:100328004FEA17481FFA87FC0121B3FBF8F0220CAB
:1003380008FB103642EA06460CFB00F3B34207D925
:10034800F61900F1FF3202D2B34200F2CE80104615
:10035800F61AA2B2B6FBF8F308FB136642EA0644A3
:100368000CFB03FCA44507D9E41903F1FF3202D2C0
:10037800A44500F2B5801346CCEB040443EA0040E0
:100388009CE729462846BDE8F087CEF1200106FA09
:100398000EF307FA0EF720FA01F94FEA1748CE4094
:1003A80049EA0309B6FBF8FA4FEA194408FB1A664A
:1003B8001FFA87FC44EA06430AFB0CF29A4200FA49
:1003C8000EF40AD9DB190AF1FF3180F087809A42CE
:1003D80040F28480AAF1020A3B449B1A1FFA89F969
:1003E800B3FBF8F108FB113349EA034301FB0CF6B0
:1003F8009E4207D9DB1901F1FF326BD29E4269D9BF
:1004080002393B449B1B41EA0A418EE7C1F1200EA9
:1004180022FA0EF48B40234320FA0EF706FA01F471
:100428004FEA134C26FA0EF63C43B6FBFCF9270CB0
:100438000CFB19661FFA83F847EA064609FB08F71A
:10044800B74202FA01F200FA01FA08D9F61809F1DE
:10045800FF3041D2B7423FD9A9F102091E44F61B29
:10046800A0B2B6FBFCF40CFB146640EA064704FB9A
:1004780008F8B84507D9FF1804F1FF3028D2B84565
:1004880026D9023C1F4444EA0940C8EB0707A0FBF1
:1004980002894F4544464E4614D329D065B3BAEB7A
:1004A800040367EB060707FA0EFECB40CF404EEA7F
:1004B800030385E888000021BDE8F0871346F8E6C5
:1004C8001046E0E6B8EB020469EB03060138E5E7FD
:1004D8000446D8E7114695E78146C0E78A467CE797
:1004E800023B3C4448E708460AE702383E442FE707
:1004F800C245E7D33E46D1E72946BDE8F08700BFAD
:10050800704700BF80B584B000AF78601922954964
:10051800954804F0B9FA934B5B781AB2914B9B78E3
:100528001B021BB213431BB29BB2C3F30A039AB25A
:100538008E4B1A808B4B9B78DB08DBB21AB2894B47
:10054800DB785B011BB213431BB29BB2C3F30A03F4
:100558009AB2864B5A80834BDB789B09DBB21AB27E
:10056800804B1B799B001BB213431AB27D4B5B79FE
:100578009B021BB213431BB29BB2C3F30A039AB28A
:100588007A4B9A80774B5B795B08DBB21AB2754B72
:100598009B79DB011BB213431BB29BB2C3F30A0363
:1005A8009AB2724BDA806F4B9B791B09DBB21AB295
:1005B8006C4BDB791B011BB213431BB29BB2C3F319
:1005C8000A039AB2694B1A81664BDB79DB09DBB205
:1005D8001AB2644B1B7A5B001BB213431AB2614B0D
:1005E8005B7A5B021BB213431BB29BB2C3F30A03D1
:1005F8009AB25E4B5A815B4B5B7A9B08DBB21AB2AC
:10060800584B9B7A9B011BB213431BB29BB2C3F39B
:100618000A039AB2554B9A81524B9B7A5B09DBB21B
:100628001AB2504BDB7ADB001BB213431BB29BB2EE
:10063800C3F30A039AB24D4BDA814A4B1B7B1AB2B9
:10064800484B5B7B1B021BB213431BB29BB2C3F329
:100658000A039AB2454B1A82424B5B7BDB08DBB23A
:100668001AB2404B9B7B5B011BB213431BB29BB27C
:10067800C3F30A039AB23D4B5A823A4B9B7B9B09C0
:10068800DBB21AB2374BDB7B9B001BB213431AB2A7
:10069800344B1B7C9B021BB213431BB29BB2C3F3AC
:1006A8000A039AB2314B9A822E4B1B7C5B08DBB251
:1006B8001AB22C4B5B7CDB011BB213431BB29BB2FF
:1006C800C3F30A039AB2294BDA82264B5B7C1B09D7
:1006D800DBB21AB2234B9B7C1B011BB213431BB228
:1006E8009BB2C3F30A039AB2204B1A831D4B9B7C1F
:1006F800DB09DBB21AB21B4BDB7C5B001BB213437A
:100708001AB2184B1B7D5B021BB213431BB29BB280
:10071800C3F30A039AB2154B5A83124B1B7D9B08ED
:10072800DBB21AB20F4B5B7D9B011BB213431BB2AA
:100738009BB2C3F30A039AB20C4B9A83094B5B7DB5
:100748005B09DBB21AB2074B9B7DDB001BB213437C
:100758001BB29BB2C3F30A039AB2044BDA83002399
:10076800FB6005E040040020000400205C04002039
:1007780007E0074AFB68134400221A70FB6801333C
:10078800FB60FB68182BF4DD00BF1037BD4680BD49
:100798004004002080B582B000AF00F0E3FD00F017
:1007A8001DF800F0E9F900F0AFF900F07FF800F06B
:1007B800FDF800F07BF907F05DFE00F0F5FA19226C
:1007C8000449054804F060F9C821032000F0D0FA74
:1007D800FAE700BF400400200004002080B594B070
:1007E80000AF07F1200330220021184608F080FBF3
:1007F80007F10C0300221A605A609A60DA601A61E5
:100808000023BB60274A274B1B6C43F080531364BB
:10081800244B1B6C03F08053BB60BB6800237B60D8
:10082800214A214B1B6843F4404313601E4B1B684D
:1008380003F440437B607B6801233B624FF48033C1
:100848007B620223BB634FF48003FB6304233B6496
:1008580048237B640223BB640323FB6407F1200362
:10086800184602F0B3FD0346002B01D000F0D0FA81
:100878000F23FB6002233B6100237B614FF480530D
:10088800BB610023FB6107F10C030221184603F04A
:100898000BF80346002B01D000F0BAFA00BF50371E
:1008A800BD4680BD003802400070004080B58EB063
:1008B80000AF07F1280300221A605A609A60DA60D4
:1008C80007F1200300221A605A603B1D00221A60BB
:1008D8005A609A60DA601A615A619A61324B4FF035
:1008E80080421A60304B01225A602F4B00229A60D6
:1008F8002D4B7822DA602C4B00221A612A4B0022F9
:100908009A61294803F0BEF90346002B01D000F094
:100918007FFA4FF48053BB6207F128031946224837
:1009280003F0DEFB0346002B01D000F071FA1E48ED
:1009380003F0D4F90346002B01D000F069FA002334
:100948003B6200237B6207F120031946164803F037
:10095800E1FF0346002B01D000F05AFA60237B60C8
:100968000023BB600023FB6000237B613B1D00224A
:1009780019460D4803F0EEFA0346002B01D000F0AB
:1009880047FA3B1D08221946074803F0E3FA0346D5
:10099800002B01D000F03CFA034800F073FB00BFC5
:1009A8003837BD4680BD00BF0002002080B58EB03C
:1009B80000AF07F1280300221A605A609A60DA60D3
:1009C80007F1200300221A605A603B1D00221A60BA
:1009D8005A609A60DA601A615A619A61314B324AF8
:1009E8001A60304B01225A602E4B00229A602D4B20
:1009F8007822DA602B4B00221A612A4B00229A6176
:100A0800284803F03FF90346002B01D000F000FA14
:100A18004FF48053BB6207F128031946214803F0BD
:100A28005FFB0346002B01D000F0F2F91D4803F0EC
:100A380055F90346002B01D000F0EAF900233B6288
:100A480000237B6207F120031946164803F062FF72
:100A58000346002B01D000F0DBF960237B60002304
:100A6800BB600023FB6000237B613B1D002219460D
:100A78000C4803F06FFA0346002B01D000F0C8F9C8
:100A88003B1D04221946074803F064FA0346002B6D
:100A980001D000F0BDF9034800F0F4FA00BF383780
:100AA800BD4680BD400200200008004080B500AF70
:100AB800124B134A1A60114B124A5A600F4B4FF4EB
:100AC80080529A600D4B4FF40052DA600B4B4FF492
:100AD80080621A61094B0C225A61084B00229A6104
:100AE800064B0022DA61054803F080FF0346002B1D
:100AF80001D000F08DF900BF80BD00BF00040020C8
:100B080000440040A086010080B582B000AF0023F9
:100B18007B60184A174B1B6B43F400131363154B88
:100B28001B6B03F400137B607B68002200210B2001
:100B380000F07EFD0B2000F097FD002200210C2024
:100B480000F076FD0C2000F08FFD002200210E2021
:100B580000F06EFD0E2000F087FD0022002110201D
:100B680000F066FD102000F07FFD00BF0837BD468D
:100B780080BD00BF0038024080B485B000AF0023BC
:100B8800FB60164A154B1B6B43F080031363134B32
:100B98001B6B03F08003FB60FB680023BB600F4AFC
:100BA8000E4B1B6B43F0010313630C4B1B6B03F0E1
:100BB8000103BB60BB6800237B60084A074B1B6BC3
:100BC80043F002031363054B1B6B03F002037B60C6
:100BD8007B6800BF1437BD4680BC704700380240B0
:100BE80080B487B000AF0346FB8000237B81FB887D
:100BF800B3F5006F01D30023FB80FB885B007B818A
:100C08007B8923F001037B8100237B617B893B6126
:100C18000023FB6009E07A693B6953407B613B69CB
:100C28001B113B61FB680133FB60FB68022BF2DDA3
:100C38007B6903F00F037B617B891B011AB27B6917
:100C48001BB213431BB27B817B8918461C37BD46F8
:100C580080BC704780B584B000AF03460A46FB717C
:100C68001346BB800023FB6027E0BA88FB68C3F10A
:100C78000F0342FA03F303F00103002B0DD0FB79B5
:100C88005A1E354913465B0013441B019B1AFA6828
:100C980013445A2241F823200CE0FB795A1E2E49AE
:100CA80013465B0013441B019B1AFA6813442D2258
:100CB80041F82320FB680133FB60FB680F2BD4DD70
:100CC800FB79013B032B42D801A252F823F000BF65
:100CD800E90C0008010D0008190D0008310D000885
:100CE8002F231D4A00211D4803F02EF80346002B30
:100CF80026D000F08DF823E02F23194A0021194847
:100D080003F022F80346002B1CD000F081F819E00C
:100D18002F23154A0821134803F016F80346002B21
:100D280012D000F075F80FE02F23104A04210B4869
:100D380003F00AF80346002B08D000F069F805E034
:100D480000BF04E000BF02E000BF00E000BF00BF3A
:100D58001037BD4680BD00BF80040020400200203F
:100D68003C05002000020020F8050020B406002001
:100D780080B584B000AF03460A46FB711346BB80BA
:100D8800BB883033FB81FB891846FFF729FF0346F0
:100D9800BB81BA89FB7911461846FFF75BFF00BF94
:100DA8001037BD4680BD00BF80B582B000AF0123BB
:100DB8007B600BE07B68DBB200211846FFF74AFF37
:100DC800012000F03DFB7B6801337B607B68042BCE
:100DD800F0DD4FF47A7000F033FB01233B600CE048
:100DE8003B68DBB240F206611846FFF733FF01208B
:100DF80000F026FB3B6801333B603B68042BEFDDCA
:100E08004FF4FA6000F01CFB00BF0837BD4680BDF8
:100E180080B400AF00BFBD4680BC704780B483B0CB
:100E280000AF00237B600F4A0E4B5B6C43F480439A
:100E380053640C4B5B6C03F480437B607B6800233A
:100E48003B60084A074B1B6C43F080531364054B07
:100E58001B6C03F080533B603B6800BF0C37BD46FA
:100E680080BC70470038024080B584B000AF78601D
:100E78007B681B68B3F1804F76D10023FB60774A0B
:100E8800764B1B6C43F001031364744B1B6C03F02B
:100E98000103FB60FB68724B724A1A60704B4FF09B
:100EA800C0625A606E4B40229A606D4B0022DA6035
:100EB8006B4B4FF480621A61694B4FF480525A6150
:100EC800674B4FF480429A61654B4FF48072DA6148
:100ED800634B00221A62624B00225A62604800F09B
:100EE800DDFB0346002B01D0FFF792FF7B685C4ACD
:100EF8005A625B4A7B6893635B4B5C4A1A605A4B45
:100F08004FF0C0625A60584B40229A60564B0022FC
:100F1800DA60554B4FF480621A61534B4FF480529C
:100F28005A61514B4FF480429A614F4B4FF4807293
:100F3800DA614D4B00221A624B4B00225A624A4832
:100F480000F0ACFB0346002B01D0FFF761FF7B6884
:100F5800454ADA62444A7B6893637B68424A1A626C
:100F6800414A7B68936374E07B681B68404A9342FC
:100F78006FD10023BB60394A384B1B6C43F0040324
:100F88001364364B1B6C03F00403BB60BB68394B1E
:100F9800394A1A60374B4FF080625A60354B40220D
:100FA8009A60344B0022DA60324B4FF480621A6147
:100FB800304B4FF480525A612E4B4FF480429A6165
:100FC8002C4B4FF48072DA612A4B00221A62294BAB
:100FD80000225A62274800F061FB0346002B01D02B
:100FE800FFF716FF7B68234A5A62224A7B6893639D
:100FF800224B234A1A60214B4FF080625A601F4BE4
:1010080040229A601D4B0022DA601C4B4FF480622C
:101018001A611A4B4FF480525A61184B4FF48042B0
:101028009A61164B4FF48072DA61144B00221A62EF
:10103800124B00225A62114800F030FB0346002B85
:1010480001D0FFF7E5FE7B680C4A9A620B4A7B6881
:10105800936300BF1037BD4680BD00BF0038024013
:101068008002002088600240E002002028600240E0
:10107800000800404003002010600240A003002048
:101088005860024080B58AB000AF786007F1140359
:1010980000221A605A609A60DA601A617B681B68DD
:1010A800B3F1804F3DD100233B61314A304B1B6B7C
:1010B80043F0010313632E4B1B6B03F001033B61E9
:1010C8003B690023FB602A4A294B1B6B43F0020350
:1010D8001363274B1B6B03F00203FB60FB680123C0
:1010E8007B610223BB610023FB6100233B62012378
:1010F8007B6207F1140319461E4800F05DFE4FF4A9
:1011080080637B610223BB610023FB6100233B6298
:1011180001237B6207F114031946174800F04CFEBF
:1011280022E07B681B68154A93421DD10023BB60EF
:101138000F4A0F4B1B6B43F0020313630C4B1B6BE3
:1011480003F00203BB60BB68C0237B610223BB6161
:101158000023FB6100233B6202237B6207F1140337
:101168001946054800F028FE00BF2837BD4680BD57
:10117800003802400000024000040240000800401D
:1011880080B58AB000AF786007F1140300221A60B6
:101198005A609A60DA601A617B681B681D4A93423C
:1011A80033D100233B611C4A1B4B1B6C43F40033B7
:1011B8001364194B1B6C03F400333B613B69002338
:1011C800FB60154A144B1B6B43F001031363124B6E
:1011D8001B6B03F00103FB60FB680C237B6102239C
:1011E800BB610023FB6103233B6207237B6207F19A
:1011F80014031946094800F0DFFD002200212620CB
:1012080000F016FA262000F02FFA00BF2837BD4656
:1012180080BD00BF0044004000380240000002408A
:1012280080B400AF00BFBD4680BC704780B400AF3B
:10123800FEE700BF80B400AFFEE700BF80B400AF98
:10124800FEE700BF80B400AFFEE700BF80B400AF88
:1012580000BFBD4680BC704780B400AF00BFBD462C
:1012680080BC704780B400AF00BFBD4680BC7047EB
:1012780080B500AF00F0C8F800BF80BD80B500AFF2
:10128800024800F033FB00BF80BD00BF40030020D0
:1012980080B500AF024800F029FB00BF80BD00BF49
:1012A800E002002080B500AF024800F01FFB00BF3D
:1012B80080BD00BFA003002080B500AF024800F049
:1012C80015FB00BF80BD00BF8002002080B500AFC5
:1012D800024803F02DFC00BF80BD00BF00040020C1
:1012E80080B500AF024801F03BF800BF80BD00BFE9
:1012F8004C1C002080B584B000AF7860114B1B688F
:10130800002B02D10F4B104A1A600E4B1B68FB6072
:101318000C4B1A687B6813446A46934207D907F056
:10132800ABFD02460C2313604FF0FF3306E0054B7C
:101338001A687B681344034A1360FB681846103721
:10134800BD4680BD700700206020002080B400AF3B
:10135800034B4FF000629A6000BFBD4680BC7047E7
:1013680000ED00E080B500AF0E4A0E4B1B6843F459
:10137800007313600B4A0B4B1B6843F480631360C4
:10138800084A084B1B6843F480731360032000F07D
:1013980043F9002000F008F8FFF740FD0023184645
:1013A80080BD00BF003C024080B582B000AF7860CD
:1013B800124B1A68124B1B7819464FF47A73B3FB19
:1013C800F1F3B2FBF3F3184600F05CF90346002B87
:1013D80001D001230EE07B680F2B0AD80022796820
:1013E8004FF0FF3000F024F9064A7B6813600023B1
:1013F80000E0012318460837BD4680BD00000020E4
:10140800080000200400002080B400AF054B1B78C2
:101418001A46054B1B681344034A136000BFBD46B8
:1014280080BC7047080000207407002080B400AF1B
:10143800024B1B681846BD4680BC704774070020E5
:1014480080B584B000AF7860FFF7F0FFB8607B68C4
:10145800FB60FB68B3F1FF3F05D0094B1B781A46C8
:10146800FB681344FB6000BFFFF7E0FF0246BB6860
:10147800D21AFB689A42F7D300BF1037BD4680BD29
:101488000800002080B485B000AF78607B6803F066
:101498000703FB600C4BDB68BB60BA684FF6FF03C1
:1014A8001340BB60FB681A02BB68134343F0BF6379
:1014B80043F40033BB60044ABB68D36000BF1437F1
:1014C800BD4680BC704700BF00ED00E080B400AFAF
:1014D800044BDB6803F4E0631B0A1846BD4680BC76
:1014E800704700BF00ED00E080B483B000AF034652
:1014F800FB7197F90730002B0BDB084997F9073088
:101508005B09FA7902F01F02012000FA02F241F8A1
:10151800232000BF0C37BD4680BC704700E100E0C7
:1015280080B483B000AF03463960FB7197F9073088
:10153800002B0ADB0D4997F907303A68D2B212013D
:10154800D2B20B4483F800230AE00949FB7903F07F
:101558000F03043B3A68D2B21201D2B20B441A7696
:1015680000BF0C37BD4680BC704700BF00E100E0FB
:1015780000ED00E080B489B000AFF860B9607A602F
:10158800FB6803F00703FB61FB69C3F10703042B46
:1015980028BF0423BB61FB690433062B02D9FB690E
:1015A800033B00E000237B610122BB6902FA03F3DD
:1015B8005A1EBB681A407B699A4001217B6901FA6F
:1015C80003F3591E7B680B40134318462437BD4666
:1015D80080BC704780B582B000AF78607B68013B03
:1015E800B3F1807F01D301230FE00A4A7B68013BF6
:1015F80053600F214FF0FF30FFF792FF054B002299
:101608009A60044B07221A60002318460837BD4623
:1016180080BD00BF10E000E080B582B000AF786008
:101628007868FFF72FFF00BF0837BD4680BD00BFB1
:1016380080B586B000AF0346B9607A60FB730023BB
:101648007B61FFF743FF78617A68B9687869FFF7CB
:1016580091FF024697F90F3011461846FFF760FFD1
:1016680000BF1837BD4680BD80B582B000AF0346C5
:10167800FB7197F907301846FFF736FF00BF0837A8
:10168800BD4680BD80B582B000AF78607868FFF74E
:10169800A1FF034618460837BD4680BD80B586B011
:1016A80000AF786000237B61FFF7C0FE38617B687C
:1016B800002B01D1012399E07B68002283F83420B4
:1016C8007B68022283F835207B681B687A68126879
:1016D800126822F001021A600FE0FFF7A7FE024627
:1016E8003B69D31A052B08D97B6820225A657B6889
:1016F800032283F83520032378E07B681B681B6886
:1017080003F00103002BE8D17B681B681B687B6131
:101718007A69384B13407B617B685A687B689B68A1
:101728001A437B68DB681A437B681B691A437B682A
:101738005B691A437B689B691A437B68DB691A43B8
:101748007B681B6A13437A6913437B617B685B6A16
:10175800042B07D17B68DA6A7B681B6B13437A69B1
:1017680013437B617B681B687A691A607B681B6816
:101778005B697B617B6923F007037B617B685B6A3C
:101788007A6913437B617B685B6A042B17D17B689A
:101798009B6A7A6913437B617B68DB6A002B0ED0F6
:1017A800786800F08FFA0346002B08D07B68402247
:1017B8005A657B68012283F83520012316E07B688F
:1017C8001B687A695A61786800F048FA0346FB603A
:1017D8007B68DB6D3F229A40FB689A607B68002239
:1017E8005A657B68012283F835200023184618378C
:1017F800BD4680BD3F8010F080B586B000AFF86070
:10180800B9607A603B600023FB75FB689B6D3B61A8
:10181800FB6893F83430012B01D1022340E0FB68C8
:10182800012283F83420FB6893F83530DBB2012BB2
:101838002FD1FB68022283F83520FB6800225A6505
:101848003B687A68B968F86800F0DAF9FB68DB6D1C
:101858003F229A403B699A60FB681B68FA681268E5
:10186800126842F016021A60FB681B6C002B07D046
:10187800FB681B68FA681268126842F008021A606E
:10188800FB681B68FA681268126842F001021A6065
:1018980005E0FB68002283F834200223FB75FB7DFA
:1018A80018461837BD4680BD80B483B000AF786055
:1018B8007B6893F83530DBB2022B04D07B6880223A
:1018C8005A6501230CE07B68052283F835207B6884
:1018D8001B687A681268126822F001021A600023F5
:1018E80018460C37BD4680BC704700BF80B586B02F
:1018F80000AF78600023BB60924B1B68924AA2FB42
:1019080003239B0A7B617B689B6D3B613B691B687A
:10191800FB607B68DB6D08229A40FB681340002B54
:101928001AD07B681B681B6803F00403002B13D0D4
:101938007B681B687A681268126822F004021A60D1
:101948007B68DB6D08229A403B699A607B685B6D17
:1019580043F001027B685A657B68DB6D01229A407F
:10196800FB681340002B12D07B681B685B6903F08F
:101978008003002B0BD07B68DB6D01229A403B690A
:101988009A607B685B6D43F002027B685A657B68EE
:10199800DB6D04229A40FB681340002B12D07B6851
:1019A8001B681B6803F00203002B0BD07B68DB6D00
:1019B80004229A403B699A607B685B6D43F004029D
:1019C8007B685A657B68DB6D10229A40FB68134080
:1019D800002B43D07B681B681B6803F00803002BAF
:1019E8003CD07B68DB6D10229A403B699A607B682B
:1019F8001B681B6803F48023002B18D07B681B68C6
:101A08001B6803F40023002B08D17B681B6C002B98
:101A180024D07B681B6C786898471FE07B689B6CB8
:101A2800002B1BD07B689B6C7868984716E07B6816
:101A38001B681B6803F48073002B07D17B681B6845
:101A48007A681268126822F008021A607B681B6CB8
:101A5800002B03D07B681B6C786898477B68DB6D2C
:101A680020229A40FB681340002B00F08E807B6890
:101A78001B681B6803F01003002B00F086807B684E
:101A8800DB6D20229A403B699A607B6893F8353079
:101A9800DBB2052B36D17B681B687A68126812683E
:101AA80022F016021A607B681B687A68126852690D
:101AB80022F080025A617B681B6C002B03D17B6883
:101AC8009B6C002B07D07B681B687A6812681268C9
:101AD80022F008021A607B68DB6D3F229A403B695E
:101AE8009A607B68002283F834207B68012283F89F
:101AF80035207B681B6D002B7DD07B681B6D78685B
:101B0800984778E07B681B681B6803F48023002BE8
:101B18001CD07B681B681B6803F40023002B08D1CA
:101B28007B685B6C002B30D07B685B6C786898476F
:101B38002BE07B68DB6B002B27D07B68DB6B78683E
:101B4800984722E000000020B5814E1B7B681B6887
:101B58001B6803F48073002B0FD17B681B687A68BD
:101B68001268126822F010021A607B68002283F85B
:101B780034207B68012283F835207B68DB6B002BDF
:101B880003D07B68DB6B786898477B685B6D002BBC
:101B980032D07B685B6D03F00103002B22D07B6899
:101BA800052283F835207B681B687A6812681268FA
:101BB80022F001021A60BB680133BB607A69934264
:101BC80007D87B681B681B6803F00103002BF2D160
:101BD80000E000BF7B68002283F834207B68012284
:101BE80083F835207B68DB6C002B05D07B68DB6CC9
:101BF8007868984700E000BF1837BD4680BD00BF31
:101C080080B485B000AFF860B9607A603B60FB686B
:101C18001B68FA681268126822F480221A60FB684E
:101C28001B683A685A60FB689B68402B08D1FB68C0
:101C38001B687A689A60FB681B68BA68DA6007E014
:101C4800FB681B68BA689A60FB681B687A68DA6088
:101C580000BF1437BD4680BC704700BF80B485B054
:101C680000AF78607B681B68DBB2103B134AA2FBAD
:101C780003231B09FB60124AFB6813441B781A46AE
:101C88007B68DA65FB68032B09D97B681B6823F43A
:101C98007F7323F003031A1D7B689A6507E07B684E
:101CA8001B6823F47F7323F003037A6893657B68CA
:101CB8009B6D18461437BD4680BC7047ABAAAAAACC
:101CC800FC90000880B485B000AF78600023FB73F7
:101CD8007B689B6ABB607B689B69002B1FD1BB68D4
:101CE800032B55D801A252F823F000BF051D0008A8
:101CF800171D0008051D0008991D00087B68DB6A90
:101D080003F08073002B45D00123FB7342E07B680E
:101D1800DB6AB3F1C07F3FD10123FB733CE07B68F2
:101D28009B69B3F5005F21D1BB68032B36D801A2AC
:101D380052F823F04D1D0008531D00084D1D0008E2
:101D4800651D00080123FB732FE07B68DB6A03F045
:101D58008073002B24D00123FB7321E07B68DB6AAE
:101D6800B3F1C07F1ED10123FB731BE0BB68022BBC
:101D780002D9032B03D018E00123FB7315E07B681D
:101D8800DB6A03F08073002B0ED00123FB730BE09A
:101D980000BF0AE000BF08E000BF06E000BF04E0A3
:101DA80000BF02E000BF00E000BFFB7B184614370D
:101DB800BD4680BC704700BF80B489B000AF786072
:101DC800396000237B6100233B610023BB61002352
:101DD800FB6159E10122FB6902FA03F37B613B686D
:101DE8001A687B6913403B613A697B699A4240F003
:101DF80048813B685B68012B0BD03B685B68022B12
:101E080007D03B685B68112B03D03B685B68122BDB
:101E180030D17B689B68BB61FB695B00032202FAD7
:101E280003F3DB43BA691340BB613B68DA68FB69BB
:101E38005B0002FA03F3BA691343BB617B68BA69B2
:101E48009A607B685B68BB610122FB6902FA03F355
:101E5800DB43BA691340BB613B685B681B0903F04D
:101E68000102FB6902FA03F3BA691343BB617B6899
:101E7800BA695A607B68DB68BB61FB695B00032257
:101E880002FA03F3DB43BA691340BB613B689A6803
:101E9800FB695B0002FA03F3BA691343BB617B6811
:101EA800BA69DA603B685B68022B03D03B685B6801
:101EB800122B23D1FB69DA087B68083253F82230E9
:101EC800BB61FB6903F007039B000F2202FA03F3CF
:101ED800DB43BA691340BB613B681A69FB6903F0CD
:101EE80007039B0002FA03F3BA691343BB61FB695A
:101EF800DA087B680832B96943F822107B681B68E6
:101F0800BB61FB695B00032202FA03F3DB43BA6996
:101F18001340BB613B685B6803F00302FB695B002D
:101F280002FA03F3BA691343BB617B68BA691A60A2
:101F38003B685B6803F08053002B00F0A28000230D
:101F4800FB60564A554B5B6C43F480435364534BD8
:101F58005B6C03F48043FB60FB68514AFB699B0898
:101F6800023352F82330BB61FB6903F003039B0083
:101F78000F2202FA03F3DB43BA691340BB617B68A3
:101F8800484A934219D07B68474A934213D07B68EA
:101F9800464A93420DD07B68454A934207D07B68F6
:101FA800444A934201D1042308E0072306E00323AF
:101FB80004E0022302E0012300E00023FA6902F0B2
:101FC800030292009340BA691343BB613449FB6929
:101FD8009B080233BA6941F82320374B1B68BB6161
:101FE8003B69DB43BA691340BB613B685B6803F438
:101FF8008033002B03D0BA693B691343BB612E4A77
:10200800BB6913602C4B5B68BB613B69DB43BA69F6
:102018001340BB613B685B6803F40033002B03D0BB
:10202800BA693B691343BB61234ABB695360224BBE
:102038009B68BB613B69DB43BA691340BB613B6882
:102048005B6803F48013002B03D0BA693B69134320
:10205800BB61194ABB699360174BDB68BB613B697D
:10206800DB43BA691340BB613B685B6803F4001348
:10207800002B03D0BA693B691343BB610E4ABB69A5
:10208800D360FB690133FB61FB690F2B7FF6A2AEBE
:1020980000BF2437BD4680BC704700BF00380240EF
:1020A80000380140000002400004024000080240DD
:1020B800000C024000100240003C0140F0B58FB017
:1020C8000AAF78607B68002B01D101230FE17B68A0
:1020D8001B68BB607B6893F8BD33DBB2002B06D16D
:1020E8007B68002283F8BC23786806F09FFB7B6836
:1020F800032283F8BD23BB68DB6B03F48073002BDA
:1021080002D17B6800221A617B681B68184603F0BD
:1021180095FB7B681B683B607E686D4606F1100482
:102128000FCC0FC50FCC0FC594E8030085E803005A
:10213800331D0ECB386803F06DFA0346002B05D02B
:102148007B68022283F8BD230123D0E07B681B68EB
:102158000021184603F082FB0023FB734AE0FA7B58
:1021680079681346DB009B1A9B000B443D33012220
:102178001A70FA7B79681346DB009B1A9B000B44A4
:102188003C33FA7B1A70FA7BFB7B98B2796813466A
:10219800DB009B1A9B000B44423302461A80FA7BF1
:1021A80079681346DB009B1A9B000B443F330022DF
:1021B8001A70FA7B79681346DB009B1A9B000B4464
:1021C800443300221A60FA7B79681346DB009B1AB5
:1021D8009B000B44483300221A60FA7B7968134647
:1021E800DB009B1A9B000B44503300221A60FB7BD8
:1021F8000133FB73FA7B7B685B689A42AFD3002399
:10220800FB7344E0FA7B79681346DB009B1A9B005A
:102218000B4403F2FD1300221A70FA7B7968134607
:10222800DB009B1A9B000B4403F5FE73FA7B1A70C4
:10223800FA7B79681346DB009B1A9B000B4403F278
:10224800FF1300221A70FA7B79681346DB009B1A89
:102258009B000B4403F5017300221A60FA7B79682E
:102268001346DB009B1A9B000B4403F50273002204
:102278001A60FA7B79681346DB009B1A9B000B44B3
:1022880003F5047300221A60FB7B0133FB73FA7BAE
:102298007B685B689A42B5D37B681B683B607E6845
:1022A8006D4606F110040FCC0FC50FCC0FC594E88E
:1022B800030085E80300331D0ECB386803F0F8FAF5
:1022C8000346002B05D07B68022283F8BD23012337
:1022D8000DE07B68002283F838207B68012283F8B0
:1022E800BD237B681B68184604F06CFB0023184666
:1022F8001437BD46F0BD00BF80B584B000AF78602C
:102308007B681B68FB607B6893F8BC33012B01D1A9
:10231800022320E07B68012283F8BC237B689B6A48
:10232800012B09D17B689B69012B05D0FB689B6B4E
:1023380043F48032FB689A637B681B68184603F095
:102348006DFA7B681B68184604F01AFB7B6800224C
:1023580083F8BC23002318461037BD4680BD00BF54
:1023680090B58DB000AF78607B681B683B623B6AB4
:10237800FB617B681B68184604F0D8FB0346002BFA
:1023880040F09F837B681B68184604F03DFB0346BA
:10239800002B00F095837B681B68184604F034FB1B
:1023A800034603F00203002B07D07B681B687A689A
:1023B8001268526902F002025A617B681B6818466B
:1023C80004F022FB034603F01003002B61D07B6866
:1023D8001B687A681268926922F010029A613B6A57
:1023E8001B6ABB61BB6903F00F021346DB009B1A33
:1023F8009B0003F5FC737A68134404337B61BB6963
:102408005B0C03F00F03022B24D1BA6947F6F07373
:102418001340002B35D07B69D968BB691B099BB277
:10242800C3F30A039BB21A46386A04F07DF97B6944
:10243800DA68BB691B09C3F30A031A447B69DA60CB
:102448007B699A69BB691B09C3F30A031A447B6950
:102458009A6116E0BB695B0C03F00F03062B10D1E1
:102468007B6803F5717308221946386A04F05CF931
:102478007B699A69BB691B09C3F30A031A447B6920
:102488009A617B681B687A681268926942F0100248
:102498009A617B681B68184604F0B6FA034603F491
:1024A8000023002B6ED000237B627B681B681846D4
:1024B80004F0BCFAB86262E0BB6A03F00103002BC7
:1024C80057D07B681B687A6AD2B21146184604F066
:1024D800E1FA38613B6903F00103002B0CD07B6AF9
:1024E8005A01FB69134403F530631A4601239360CC
:1024F800796A786800F0B6FD3B6903F00803002BA1
:102508000CD07B6A5A01FB69134403F530631A4601
:1025180008239360796A786800F0B0FE3B6903F09D
:102528001003002B08D07B6A5A01FB69134403F59A
:1025380030631A46102393603B6903F02003002B95
:1025480008D07B6A5A01FB69134403F530631A46C5
:10255800202393603B6903F40053002B09D07B6A66
:102568005A01FB69134403F530631A464FF40053CC
:1025780093607B6A01337B62BB6A5B08BB62BB6AA0
:10258800002B99D17B681B68184604F03DFA034676
:1025980003F48023002B00F0C1807B681B68184679
:1025A80004F05EFAB86200237B62B3E0BB6A03F012
:1025B8000103002B00F0A8807B681B687A6AD2B2FE
:1025C8001146184604F084FA38613B6903F00103A8
:1025D800002B58D07B6A03F00F03012202FA03F3A1
:1025E800FB60FB6903F500631946FB6903F50063AB
:1025F8005A6BFB68DB4313404B637B6A5A01FB69E8
:10260800134403F510631A46012393607B681B6922
:10261800012B32D179687A6A1346DB009B1A9B003A
:102628000B444833196878687A6A1346DB009B1AAA
:102638009B00034444331B68194478687A6A13463C
:10264800DB009B1A9B000344483319607B6A002B0C
:1026580013D179687A6A1346DB009B1A9B000B44F6
:1026680050331B68002B08D17B6818687B6803F51A
:1026780071731A46012104F08BFA7B6ADBB21946A2
:10268800786806F055F93B6903F00803002B08D079
:102698007B6A5A01FB69134403F510631A46082341
:1026A80093603B6903F01003002B08D07B6A5A0142
:1026B800FB69134403F510631A46102393603B69C2
:1026C80003F04003002B08D07B6A5A01FB691344CE
:1026D80003F510631A46402393603B6903F0020335
:1026E800002B08D07B6A5A01FB69134403F5106379
:1026F8001A46022393603B6903F08003002B03D042
:10270800796A786800F020FC7B6A01337B62BB6AD7
:102718005B08BB62BB6A002B7FF448AF7B681B6811
:10272800184604F071F90346002B23DAFB6903F518
:1027380000631A46FB6903F500635B6823F0010335
:1027480053607B6893F8F433012B08D17B6800222F
:1027580083F8F4230021786800F02CFE02E0786802
:1027680006F054F97B681B687A681268526902F0AF
:1027780000425A617B681B68184604F045F9034615
:1027880003F40063002B12D0FB6903F500639B6818
:1027980003F00103002B02D0786806F00FF97B687C
:1027A8001B687A681268526902F400625A617B6891
:1027B8001B68184604F028F9034603F48053002BDD
:1027C80000F0D280FB6903F500631A46FB6903F544
:1027D80000635B6823F0010353607B681B6810216A
:1027E800184603F0C5F90023FB625AE0FB6A5A0158
:1027F800FB69134403F510631A464FF67F33936061
:10280800FB6A5A01FB69134403F510631946FB6A16
:102818005A01FB69134403F510631B6823F4001382
:102828000B60FB6A5A01FB69134403F510631946F0
:10283800FB6A5A01FB69134403F510631B6843F0F4
:1028480000630B60FB6A5A01FB69134403F53063AC
:102858001A464FF67F339360FB6A5A01FB691344AB
:1028680003F530631946FB6A5A01FB69134403F503
:1028780030631B6823F400130B60FB6A5A01FB6981
:10288800134403F530631946FB6A5A01FB69134484
:1028980003F530631B6843F000630B60FB6A013388
:1028A800FB627B685A68FB6A9A429FD8FB6903F50A
:1028B80000631A46FB6903F50063DB6943F0011303
:1028C800D3617B681B6B002B18D0FB6903F5006391
:1028D8001A46FB6903F50063D3F8843043F00B0311
:1028E800C2F88430FB6903F500631A46FB6903F5F7
:1028F80000635B6C43F00B03536417E0FB6903F55B
:1029080000631A46FB6903F500635B6943F40053EF
:1029180043F02B035361FB6903F500631A46FB6917
:1029280003F500631B6943F00B031361FB6903F5AF
:1029380000631A46FB6903F500631B6823F4FE6312
:1029480013607B6818687B681B69D9B27B6803F5DC
:1029580071731A4604F01CF97B681B687A68126860
:10296800526902F480525A617B681B68184604F069
:102978004BF8034603F40053002B24D07B681B68F4
:10298800184604F0E1F87B681B68184603F04EF916
:1029980003461A467B68DA607B681C6801F040F9D8
:1029A80001467B68DB68DBB21A46204602F094FEDB
:1029B800786805F0E5FF7B681B687A6812685269D9
:1029C80002F400525A617B681B68184604F01CF830
:1029D800034603F00803002B0AD0786805F0C2FF0D
:1029E8007B681B687A681268526902F008025A61AB
:1029F8007B681B68184604F007F8034603F4801345
:102A0800002B0FD000237B627B6ADBB21946786803
:102A180006F01CF87B681B687A681268526902F431
:102A280080125A617B681B68184603F0EDFF034665
:102A380003F40013002B0FD000237B627B6ADBB208
:102A48001946786805F0F0FF7B681B687A68126899
:102A5800526902F400125A617B681B68184603F039
:102A6800D3FF034603F08043002B0AD0786805F0B3
:102A7800FFFF7B681B687A681268526902F080421F
:102A88005A617B681B68184603F0BEFF034603F0D3
:102A98000403002B15D07B681B685B68BB61BB69AE
:102AA80003F00403002B02D0786805F0EFFF7B6881
:102AB8001B687A6812685168BA690A435A6000E06C
:102AC80000BF3437BD4690BD80B582B000AF786096
:102AD8000B46FB707B6893F8BC33012B01D10223B2
:102AE80013E07B68012283F8BC237B68FA7883F8BB
:102AF80038207B681B68FA781146184603F018FFDF
:102B08007B68002283F8BC23002318460837BD469B
:102B180080BD00BF80B584B000AF7860084611461C
:102B28001A460346FB700B463B801346BB700023D6
:102B3800FB7297F90330002B0FDAFB7803F00F02D2
:102B48001346DB009B1A9B0038337A68134404331E
:102B5800FB60FB6801225A700FE0FB7803F00F025C
:102B68001346DB009B1A9B0003F5FC737A68134439
:102B78000433FB60FB6800225A70FB7803F00F03F4
:102B8800DAB2FB681A703A88FB689A60FB68BA7810
:102B9800DA70FB685B78002B04D0FB681B789AB26C
:102BA800FB68DA80BB78022B02D1FB6800221A711D
:102BB8007B6893F8BC33012B01D102230EE07B68BC
:102BC800012283F8BC237B681B68F968184603F068
:102BD80051F87B68002283F8BC23FB7A184610372B
:102BE800BD4680BD80B584B000AF78600B46FB70F1
:102BF80097F90330002B0FDAFB7803F00F02134626
:102C0800DB009B1A9B0038337A6813440433FB605B
:102C1800FB6801225A700FE0FB7803F00F0213469D
:102C2800DB009B1A9B0003F5FC737A68134404339A
:102C3800FB60FB6800225A70FB7803F00F03DAB2DE
:102C4800FB681A707B6893F8BC33012B01D102230F
:102C58000EE07B68012283F8BC237B681B68F96857
:102C6800184603F091F87B68002283F8BC23002300
:102C780018461037BD4680BD80B586B000AFF860F5
:102C88007A603B600B46FB72FB7A03F00F02134637
:102C9800DB009B1A9B0003F5FC73FA6813440433AA
:102CA8007B617B697A68DA607B693A685A617B691B
:102CB80000229A617B6900225A70FB7A03F00F03A5
:102CC800DAB27B691A70FB681B69012B02D17A683A
:102CD8007B691A61FB7A03F00F03002B09D1FB68AB
:102CE8001868FB681B69DBB21A46796903F086FB32
:102CF80008E0FB681868FB681B69DBB21A4679694B
:102D080003F020F9002318461837BD4680BD00BFE0
:102D180080B483B000AF78600B46FB70FB7803F09B
:102D28000F0279681346DB009B1A9B000B4403F5DE
:102D380005731B6818460C37BD4680BC704700BF3A
:102D480080B586B000AFF8607A603B600B46FB72D6
:102D5800FB7A03F00F021346DB009B1A9B00383303
:102D6800FA68134404337B617B697A68DA607B69AB
:102D78003A685A617B6900229A617B6901225A701C
:102D8800FB7A03F00F03DAB27B691A70FB681B69E0
:102D9800012B02D17A687B691A61FB7A03F00F0371
:102DA800002B09D1FB681868FB681B69DBB21A465F
:102DB800796903F023FB08E0FB681868FB681B6966
:102DC800DBB21A46796903F0BDF8002318461837B4
:102DD800BD4680BD80B584B000AF78600B46FB70FF
:102DE800FB7803F00F027B685B689A4201D90123E4
:102DF80050E097F90330002B0FDAFB7803F00F024D
:102E08001346DB009B1A9B0038337A68134404335B
:102E1800FB60FB6801225A700DE0FA781346DB006C
:102E28009B1A9B0003F5FC737A6813440433FB6018
:102E3800FB6800225A70FB6801229A70FB7803F045
:102E48000F03DAB2FB681A707B6893F8BC33012B66
:102E580001D102231EE07B68012283F8BC237B6832
:102E68001B68F968184603F087FCFB7803F00F032A
:102E7800002B0AD17B6818687B681B69D9B27B680C
:102E880003F571731A4603F083FE7B68002283F80A
:102E9800BC23002318461037BD4680BD80B584B0DA
:102EA80000AF78600B46FB70FB7803F00F027B687D
:102EB8005B689A4201D9012342E097F90330002B5D
:102EC8000FDAFB7803F00F021346DB009B1A9B0016
:102ED80038337A6813440433FB60FB6801225A7064
:102EE8000FE0FB7803F00F021346DB009B1A9B00F0
:102EF80003F5FC737A6813440433FB60FB68002213
:102F08005A70FB6800229A70FB7803F00F03DAB25C
:102F1800FB681A707B6893F8BC33012B01D102233C
:102F28000EE07B68012283F8BC237B681B68F96884
:102F3800184603F093FC7B68002283F8BC23002327
:102F480018461037BD4680BD80B58AB002AF78609C
:102F580039607B681B687B617B693B613A68134613
:102F6800DB009B1A9B0038337A6813440433FB60F8
:102F7800FB689A69FB685B699A4201D901236DE095
:102F8800FB685A69FB689B69D31AFB61FB689A68FE
:102F9800FB699A4202D2FB689B68FB61FB690333B9
:102FA8009B08BB612BE0FB685A69FB689B69D31AD5
:102FB800FB61FB689A68FB699A4202D2FB689B68CE
:102FC800FB61FB6903339B08BB61FB68D9683B68FD
:102FD800DAB2FB6998B27B681B69DBB200930346DF
:102FE800786903F06DFBFB68DA68FB691A44FB68D3
:102FF800DA60FB689A69FB691A44FB689A613B6866
:103008005A013B69134403F510639B699AB2BB6983
:103018009A4209D3FB689A69FB685B699A4203D2B2
:10302800FB685B69002BBED1FB685A69FB689B692A
:103038009A4212D83B6803F00F03012202FA03F305
:10304800BB603B6903F5006319463B6903F5006300
:103058005A6BBB68DB4313404B6300231846203789
:10306800BD4680BD80B586B000AF786039607B68AA
:103078001B687B617B693B617B693C3304331B685C
:10308800FB603B685A013B69134403F530639B6856
:10309800BB607B681B69012B40F0A080BB6803F014
:1030A8000803002B15D0FB68724A934240F2DD807A
:1030B800BB6803F40043002B00F0D7803B685A013B
:1030C8003B69134403F530631A464FF40043936099
:1030D800CBE0BB6803F02003002B09D03B685A0102
:1030E8003B69134403F530631A4620239360BCE020
:1030F800BB6803F02803002B40F0B780FB685D4AEB
:1031080093420FD9BB6803F40043002B0AD03B68F5
:103118005A013B69134403F530631A464FF40043E0
:103128009360A2E079683A681346DB009B1A9B001B
:103138000B4403F501731A683B6859013B690B445A
:1031480003F530631B69C3F31203D11A78683A6830
:103158001346DB009B1A9B00034403F505731960B3
:1031680079683A681346DB009B1A9B000B4403F509
:103178000273196878683A681346DB009B1A9B004B
:10318800034403F501731B68194478683A681346C9
:10319800DB009B1A9B00034403F5027319603B682C
:1031A800002B14D179683A681346DB009B1A9B0000
:1031B8000B4403F504731B68002B08D17B6818685F
:1031C8007B6803F571731A46012103F0E1FC3B6843
:1031D800DBB21946786805F08FFB46E0FB68264AA3
:1031E800934224D1BB6803F40043002B0AD03B6808
:1031F8005A013B69134403F530631A464FF4004300
:10320800936032E0BB6803F02003002B08D03B68D2
:103218005A013B69134403F530631A46202393602F
:103228003B68DBB21946786805F066FB1DE03B6831
:10323800002B14D179683A681346DB009B1A9B006F
:103248000B4403F504731B68002B08D17B681868CE
:103258007B6803F571731A46002103F099FC3B68FB
:10326800DBB21946786805F047FB00231846183783
:10327800BD4680BD0A30544F0A31544F80B586B0E0
:1032880000AF786039607B681B687B617B693B6154
:103298007B693C3304331B68FB603B685A013B691C
:1032A800134403F530639B68BB60FB68154A93427F
:1032B8000ED9BB6803F40043002B09D03B685A01C0
:1032C8003B69134403F530631A464FF40043936097
:1032D800786805F0FFFAFB680A4A93420CD97B68C4
:1032E8001B69012B08D17B6818687B6803F571732B
:1032F8001A46012103F04CFC002318461837BD4636
:1033080080BD00BF0A30544F80B485B000AF7860EC
:103318000B46FB7013463B807B681B685B6ABB608F
:10332800FB78002B07D17B681B683A881104BA68C0
:103338000A439A6228E07B681B689B6A1B0CBA6880
:103348001344BB600023FB730DE07B681A68FB7BAA
:1033580040339B0013445B681B0CBA681344BB6082
:10336800FB7B0133FB73FA7BFB78013B9A42ECD37E
:103378007B681968FB78013B3A881004BA680243F5
:1033880040339B000B445A60002318461437BD464F
:1033980080BC704780B483B000AF78600B467B80F8
:1033A8007B681B687A885A62002318460C37BD462A
:1033B80080BC704780B483B000AF78600B46FB7068
:1033C80000BF0C37BD4680BC704700BF80B586B0D3
:1033D80000AF78607B68002B01D101235AE27B683B
:1033E8001B6803F00103002B74D0A74B9B6803F004
:1033F8000C03042B0BD0A44B9B6803F00C03082B85
:1034080011D1A14B5B6803F48003002B0BD09E4BBA
:103418001B6803F40033002B5BD07B685B68002BD0
:1034280057D1012336E27B685B68B3F5803F06D14C
:10343800954A954B1B6843F4803313601DE07B6805
:103448005B68B3F5A02F0CD18F4A8F4B1B6843F4F0
:10345800802313608C4A8C4B1B6843F480331360C1
:103468000BE0894A884B1B6823F480331360864A33
:10347800854B1B6823F4802313607B685B68002BF3
:1034880013D0FDF7D3FF386108E0FDF7CFFF024600
:103498003B69D31A642B01D90323FBE17A4B1B68E0
:1034A80003F40033002BF0D014E0FDF7BFFF3861C0
:1034B80008E0FDF7BBFF02463B69D31A642B01D92C
:1034C8000323E7E1704B1B6803F40033002BF0D1B2
:1034D80000E000BF7B681B6803F00203002B63D089
:1034E800694B9B6803F00C03002B0BD0664B9B6861
:1034F80003F00C03082B1CD1634B5B6803F48003B7
:10350800002B16D1604B1B6803F00203002B05D07B
:103518007B68DB68012B01D00123BBE15A495A4B78
:103528001B6823F0F8027B681B69DB0013430B6000
:103538003AE07B68DB68002B20D0544B01221A60EC
:10354800FDF774FF386108E0FDF770FF02463B693C
:10355800D31A022B01D903239CE14B4B1B6803F0C0
:103568000203002BF0D04849474B1B6823F0F802B0
:103578007B681B69DB0013430B6015E0434B00229B
:103588001A60FDF753FF386108E0FDF74FFF024668
:103598003B69D31A022B01D903237BE13A4B1B6801
:1035A80003F00203002BF0D17B681B6803F00803CB
:1035B800002B30D07B685B69002B16D0344B01227E
:1035C8001A60FDF733FF386108E0FDF72FFF024668
:1035D8003B69D31A022B01D903235BE12A4B5B6FAA
:1035E80003F00203002BF0D015E0294B00221A60EB
:1035F800FDF71CFF386108E0FDF718FF02463B693C
:10360800D31A022B01D9032344E11F4B5B6F03F04C
:103618000203002BF0D17B681B6803F00403002B26
:1036280000F0A0800023FB75174B1B6C03F0805340
:10363800002B0FD10023BB60134A134B1B6C43F0C4
:1036480080531364104B1B6C03F08053BB60BB6842
:103658000123FB750F4B1B6803F48073002B21D1EA
:103668000C4A0C4B1B6843F480731360FDF7DEFEB5
:10367800386111E0FDF7DAFE02463B69D31A022BE6
:103688000AD9032306E100BF003802400000474280
:10369800800E474200700040804B1B6803F4807323
:1036A800002BE7D07B689B68012B06D17C4A7C4BBA
:1036B8001B6F43F0010313671CE07B689B68052BB5
:1036C8000CD1774A764B1B6F43F004031367744A97
:1036D800734B1B6F43F0010313670BE0704A704B89
:1036E8001B6F23F0010313676D4A6D4B1B6F23F0AB
:1036F800040313677B689B68002B15D0FDF796FEC3
:1037080038610AE0FDF792FE02463B69D31A41F29E
:103718008832934201D90323BCE0614B1B6F03F04D
:103728000203002BEED014E0FDF780FE38610AE0BA
:10373800FDF77CFE02463B69D31A41F28832934278
:1037480001D90323A6E0564B1B6F03F00203002B9D
:10375800EED1FB7D012B05D1514A514B1B6C23F057
:10376800805313647B689B69002B00F092804C4B5C
:103778009B6803F00C03082B5CD07B689B69022BC9
:1037880041D1484B00221A60FDF750FE386108E02D
:10379800FDF74CFE02463B69D31A022B01D90323DD
:1037A80078E03F4B1B6803F00073002BF0D13C49D5
:1037B8007B68DA697B681B6A1A437B685B6A9B01D2
:1037C8001A437B689B6A5B08013B1B041A437B68AE
:1037D800DB6A1B0613434B60324B01221A60FDF76C
:1037E80025FE386108E0FDF721FE02463B69D31A41
:1037F800022B01D903234DE0294B1B6803F000730A
:10380800002BF0D045E0274B00221A60FDF70EFE92
:10381800386108E0FDF70AFE02463B69D31A022B1D
:1038280001D9032336E01E4B1B6803F00073002BFD
:10383800F0D12EE07B689B69012B01D1012329E09F
:10384800174B5B68FB60FB6803F480027B68DB69ED
:103858009A421CD1FB6803F03F027B681B6A9A42BC
:1038680015D1FA6847F6C07313407A68526A9342D2
:103878000DD1FB6803F440327B689B6A9A4206D1FB
:10388800FB6803F070627B68DB6A9A4201D001230F
:1038980000E0002318461837BD4680BD0070004080
:1038A800003802406000474280B584B000AF7860BD
:1038B80039607B68002B01D10123CCE0684B1B6881
:1038C80003F00F023B689A420CD2654B3A68D2B2B9
:1038D8001A70634B1B6803F00F023B689A4201D0D1
:1038E8000123B8E07B681B6803F00203002B20D09B
:1038F8007B681B6803F00403002B05D0594A594B19
:103908009B6843F4E05393607B681B6803F00803EB
:10391800002B05D0534A534B9B6843F46043936094
:103928005049504B9B6823F0F0027B689B68134317
:103938008B607B681B6803F00103002B44D07B6815
:103948005B68012B07D1474B1B6803F40033002B3E
:1039580019D101237FE07B685B68022B03D07B6869
:103968005B68032B07D13F4B1B6803F00073002BE8
:1039780009D101236FE03B4B1B6803F00203002BC6
:1039880001D1012367E03749364B9B6823F00302D6
:103998007B685B6813438B60FDF748FDF8600AE0BD
:1039A800FDF744FD0246FB68D31A41F28832934280
:1039B80001D903234FE02B4B9B6803F00C027B6873
:1039C8005B689B009A42EBD1254B1B6803F00F0202
:1039D8003B689A420CD9224B3A68D2B21A70204BF3
:1039E8001B6803F00F023B689A4201D0012332E0C2
:1039F8007B681B6803F00403002B08D01949194B96
:103A08009B6823F4E0527B68DB6813438B607B6818
:103A18001B6803F00803002B09D01249114B9B685F
:103A280023F460427B681B69DB0013438B6000F062
:103A380021F801460B4B9B6803F0F0031B090A4A67
:103A4800D35C21FA03F3094A1360094B1B68184633
:103A5800FDF7AAFC002318461037BD4680BD00BFFD
:103A6800003C024000380240E490000800000020BA
:103A7800040000202DE9F04F8FB000AF0023FB6257
:103A880000237B630023BB6200233B63614B9B687D
:103A980003F00C03042B07D0082B08D0002B40F0B0
:103AA800AF805D4B3B63AEE05C4B3B63ABE0594B97
:103AB8005B6803F03F03FB62564B5B6803F48003CB
:103AC800002B4DD0534B5A6847F6C07313409B09DF
:103AD80019464FF000020B461446E0007862786AF7
:103AE80040EA53707862DB003B62D7E90834600132
:103AF800F861F86940EAD360F8615801B861D7E91C
:103B08000656ED1A66EB040633464FEA83192B4630
:103B180049EA93692B464FEA8318B8EB050569EB28
:103B28000606A846B14618EB010849EB02094FEA18
:103B380049237B617B6943EAD8537B614FEA482379
:103B48003B61D7E9048940464946FB6A4FF00004C7
:103B58001A462346FCF74AFB03460C467B6341E0C2
:103B68002C4B5A6847F6C07313409B0919464FF00F
:103B780000020B461446E000F860F86840EA53700B
:103B8800F860DB00BB60D7E902344FEA441B4BEA1C
:103B9800D36B4FEA431ABAEB030A6BEB040B4FEAF9
:103BA8008B1646EA9A664FEA8A15B5EB0A0566EB64
:103BB8000B066D1846EB0206B3027B607B6843EA8E
:103BC80095537B60AB023B60D7E9005628463146E7
:103BD800FB6A4FF000041A462346FCF707FB03462E
:103BE8000C467B630B4B5B6803F440331B0C0133BF
:103BF8005B00BB627A6BBB6AB2FBF3F33B6302E028
:103C0800054B3B6300BF3B6B18463C37BD46BDE8E0
:103C1800F08F00BF003802400024F40000127A0040
:103C280080B400AF024B1B681846BD4680BC704785
:103C38000000002080B500AFFFF7F2FF0146054BFA
:103C48009B6803F4E0539B0A034AD35C21FA03F30D
:103C5800184680BD00380240F490000880B500AFD7
:103C6800FFF7DEFF0146054B9B6803F460435B0BDF
:103C7800034AD35C21FA03F3184680BD003802409A
:103C8800F490000880B582B000AF78607B68002BA4
:103C980001D101231DE07B6893F83D30DBB2002B96
:103CA80006D17B68002283F83C207868FDF7DCF8B1
:103CB8007B68022283F83D207B681A687B6804339E
:103CC8001946104600F064FB7B68012283F83D200A
:103CD800002318460837BD4680BD00BF80B582B0B6
:103CE80000AF78607B68002B01D101231DE07B6861
:103CF80093F83D30DBB2002B06D17B68002283F8B5
:103D08003C20786800F016F87B68022283F83D2092
:103D18007B681A687B6804331946104600F038FB44
:103D28007B68012283F83D20002318460837BD46EA
:103D380080BD00BF80B483B000AF786000BF0C378F
:103D4800BD4680BC704700BF80B586B000AFF86044
:103D5800B9607A607B80FB6893F83D30DBB2022B58
:103D680001D10223E9E0FB6893F83D30DBB2012B77
:103D78000BD17B68002B04D17B88002B01D0012359
:103D8800DBE0FB68022283F83D20BB680C2B00F2C5
:103D9800AD8001A252F823F0D53D0008F53E000899
:103DA800F53E0008F53E00081D3E0008F53E0008F7
:103DB800F53E0008F53E0008653E0008F53E00089F
:103DC800F53E0008F53E0008AD3E0008FB685B6A5A
:103DD8005C4ADA63FB685B6A5B4A1A64FB685B6A85
:103DE8005A4ADA64FB68586A7968FB681B68343396
:103DF8001A467B88FDF700FD0346002B01D00123FE
:103E08009BE0FB681B68FA681268D26842F400728B
:103E1800DA606CE0FB689B6A4A4ADA63FB689B6A73
:103E2800494A1A64FB689B6A484ADA64FB68986ADC
:103E38007968FB681B6838331A467B88FDF7DCFC19
:103E48000346002B01D0012377E0FB681B68FA6862
:103E58001268D26842F48062DA6048E0FB68DB6A84
:103E6800384ADA63FB68DB6A374A1A64FB68DB6A3C
:103E7800364ADA64FB68D86A7968FB681B683C33A1
:103E88001A467B88FDF7B8FC0346002B01D00123B6
:103E980053E0FB681B68FA681268D26842F4006253
:103EA800DA6024E0FB681B6B264ADA63FB681B6B4D
:103EB800254A1A64FB681B6B244ADA64FB68186B92
:103EC8007968FB681B6840331A467B88FDF794FCC9
:103ED8000346002B01D001232FE0FB681B68FA681A
:103EE8001268D26842F48052DA6000E000BFFB68D2
:103EF8001B680122B968184600F0E8FCFB681B68DB
:103F0800134A934207D1FB681B68FA681268526C1F
:103F180042F400425A64FB681B689B6803F007037D
:103F28007B617B69062B07D0FB681B68FA681268FF
:103F3800126842F001021A60002318461837BD467D
:103F480080BD00BFB9420008294300089542000817
:103F58000000014080B584B000AFF860B9607A60B5
:103F6800FB6893F83C30012B01D10223B4E0FB68D5
:103F7800012283F83C20FB68022283F83D207B68FD
:103F88000C2B00F29F8001A252F823F0C93F0008D1
:103F9800CD400008CD400008CD4000080940000889
:103FA800CD400008CD400008CD4000084B40000837
:103FB800CD400008CD400008CD4000088B400008E7
:103FC800FB681B68B968184600F060FAFB681B6854
:103FD800FA681268926942F008029A61FB681B68E5
:103FE800FA681268926922F004029A61FB681B68F9
:103FF800FA6812689169BA6812690A439A6162E0BC
:10400800FB681B68B968184600F0A6FAFB681B68CD
:10401800FA681268926942F400629A61FB681B6848
:10402800FA681268926922F480629A61FB681B68D8
:10403800FA6812689169BA68126912020A439A61A9
:1040480041E0FB681B68B968184600F0EFFAFB68A6
:104058001B68FA681268D26942F00802DA61FB68E4
:104068001B68FA681268D26922F00402DA61FB68F8
:104078001B68FA681268D169BA6812690A43DA617A
:1040880021E0FB681B68B968184600F039FBFB683B
:104098001B68FA681268D26942F40062DA61FB6848
:1040A8001B68FA681268D26922F48062DA61FB68D8
:1040B8001B68FA681268D169BA68126912020A4361
:1040C800DA6100E000BFFB68012283F83D20FB684D
:1040D800002283F83C20002318461037BD4680BDD7
:1040E80080B584B000AF786039607B6893F83C3065
:1040F800012B01D10223A6E07B68012283F83C2032
:104108007B68022283F83D207B681B689B68FB6004
:10411800FB6823F07703FB60FB6823F47F43FB60B5
:104128007B681B68FA689A603B681B68402B67D0FD
:10413800402B0BD8102B73D0102B02D8002B6FD02C
:1041480078E0202B6CD0302B6AD073E0702B0DD028
:10415800702B04D8502B33D0602B41D06AE0B3F5D4
:10416800805F66D0B3F5005F17D063E07B6818689E
:104178003B6899683B685A683B68DB6800F086FBD7
:104188007B681B689B68FB60FB6843F07703FB60F8
:104198007B681B68FA689A604CE07B6818683B6823
:1041A80099683B685A683B68DB6800F06FFB7B687E
:1041B8001B687A681268926842F480429A6039E013
:1041C8007B6818683B6859683B68DB681A4600F0EA
:1041D800E5FA7B681B685021184600F03DFB29E092
:1041E8007B6818683B6859683B68DB681A4600F0CA
:1041F80003FB7B681B686021184600F02DFB19E063
:104208007B6818683B6859683B68DB681A4600F0A9
:10421800C5FA7B681B684021184600F01DFB09E0C1
:104228007B681A683B681B681946104600F014FB47
:1042380000E000BF7B68012283F83D207B680022F4
:1042480083F83C20002318461037BD4680BD00BFC8
:1042580080B483B000AF786000BF0C37BD4680BC27
:10426800704700BF80B483B000AF786000BF0C37E0
:10427800BD4680BC704700BF80B483B000AF786093
:1042880000BF0C37BD4680BC704700BF80B584B006
:1042980000AF78607B689B6BFB60FB68012283F84A
:1042A8003D20F868FFF7E8FF00BF1037BD4680BD26
:1042B80080B584B000AF78607B689B6BFB60FB685F
:1042C800012283F83D20FB685A6A7B689A4203D131
:1042D800FB6801221A7719E0FB689A6A7B689A42A0
:1042E80003D1FB6802221A7710E0FB68DA6A7B6860
:1042F8009A4203D1FB6804221A7707E0FB681A6B1D
:104308007B689A4202D1FB6808221A77F868FFF79F
:104318009FFFFB6800221A7700BF1037BD4680BD9B
:1043280080B584B000AF78607B689B6BFB60FB68EE
:10433800012283F83D20FB685A6A7B689A4203D1C0
:10434800FB6801221A7719E0FB689A6A7B689A422F
:1043580003D1FB6802221A7710E0FB68DA6A7B68EF
:104368009A4203D1FB6804221A7707E0FB681A6BAC
:104378007B689A4202D1FB6808221A77F868FFF72F
:1043880071FFFB6800221A7700BF1037BD4680BD59
:1043980080B485B000AF786039607B681B68FB60CB
:1043A8007B68334A93420FD07B68B3F1804F0BD0C0
:1043B8007B68304A934207D07B682F4A934203D0E8
:1043C8007B682E4A934208D1FB6823F07003FB6098
:1043D8003B685B68FA681343FB607B68244A934236
:1043E8001BD07B68B3F1804F17D07B68214A93427A
:1043F80013D07B68204A93420FD07B681F4A9342B0
:104408000BD07B681E4A934207D07B681D4A9342B3
:1044180003D07B681C4A934208D1FB6823F440739D
:10442800FB603B68DB68FA681343FB60FB6823F0BA
:1044380080023B685B691343FB607B68FA681A601B
:104448003B689A687B68DA623B681A687B689A629C
:104458007B68074A934203D13B681A697B681A63F1
:104468007B6801225A6100BF1437BD4680BC704783
:10447800000001400004004000080040000C00401B
:1044880000400140004401400048014080B487B02A
:1044980000AF786039607B681B6A23F001027B6893
:1044A8001A627B681B6A7B617B685B683B617B681F
:1044B8009B69FB60FB6823F07003FB60FB6823F0DB
:1044C8000303FB603B681B68FA681343FB607B6966
:1044D80023F002037B613B689B687A6913437B6125
:1044E8007B681C4A93420CD17B6923F008037B61EB
:1044F8003B68DB687A6913437B617B6923F00403BB
:104508007B617B68134A934211D13B6923F4807322
:104518003B613B6923F400733B613B685B693A6923
:1045280013433B613B689B693A6913433B617B6872
:104538003A695A607B68FA689A613B685A687B688E
:104548005A637B687A691A6200BF1C37BD4680BC13
:10455800704700BF0000014080B487B000AF7860AA
:1045680039607B681B6A23F010027B681A627B68DB
:104578001B6A7B617B685B683B617B689B69FB604E
:10458800FB6823F4E043FB60FB6823F44073FB60A3
:104598003B681B681B02FA681343FB607B6923F0C6
:1045A80020037B613B689B681B017A6913437B612D
:1045B8007B681D4A93420DD17B6923F080037B61A0
:1045C8003B68DB681B017A6913437B617B6923F0D5
:1045D80040037B617B68144A934213D13B6923F4FF
:1045E80080633B613B6923F400633B613B685B6923
:1045F8009B003A6913433B613B689B699B003A699E
:1046080013433B617B683A695A607B68FA689A6130
:104618003B685A687B689A637B687A691A6200BF4C
:104628001C37BD4680BC70470000014080B487B08D
:1046380000AF786039607B681B6A23F480727B68FE
:104648001A627B681B6A7B617B685B683B617B687D
:10465800DB69FB60FB6823F07003FB60FB6823F0F9
:104668000303FB603B681B68FA681343FB607B69C4
:1046780023F400737B613B689B681B027A691343D0
:104688007B617B681D4A93420DD17B6923F40063EB
:104698007B613B68DB681B027A6913437B617B693A
:1046A80023F480637B617B68144A934213D13B698E
:1046B80023F480533B613B6923F400533B613B681F
:1046C8005B691B013A6913433B613B689B691B01AA
:1046D8003A6913433B617B683A695A607B68FA68B8
:1046E800DA613B685A687B68DA637B687A691A62C0
:1046F80000BF1C37BD4680BC704700BF00000140AA
:1047080080B487B000AF786039607B681B6A23F497
:1047180080527B681A627B681B6A3B617B685B68B6
:104728007B617B68DB69FB60FB6823F4E043FB602B
:10473800FB6823F44073FB603B681B681B02FA6844
:104748001343FB603B6923F400533B613B689B6860
:104758001B033A6913433B617B680F4A934209D1B3
:104768007B6923F480437B613B685B699B017A69C1
:1047780013437B617B687A695A607B68FA68DA61FF
:104788003B685A687B681A647B683A691A6200BF9A
:104798001C37BD4680BC70470000014080B487B01C
:1047A80000AFF860B9607A60FB681B6A7B61FB68E0
:1047B8001B6A23F00102FB681A62FB689B693B6174
:1047C8003B6923F0F0033B617B681B013A691343A3
:1047D8003B617B6923F00A037B617A69BB681343F9
:1047E8007B61FB683A699A61FB687A691A6200BF63
:1047F8001C37BD4680BC704780B487B000AFF860F6
:10480800B9607A60FB681B6A23F01002FB681A62C1
:10481800FB689B697B61FB681B6A3B617B6923F4CE
:1048280070437B617B681B037A6913437B613B6937
:1048380023F0A0033B61BB681B013A6913433B614A
:10484800FB687A699A61FB683A691A6200BF1C378B
:10485800BD4680BC704700BF80B485B000AF7860AB
:1048680039607B689B68FB60FB6823F07003FB6022
:104878003A68FB68134343F00703FB607B68FA68F8
:104888009A6000BF1437BD4680BC704780B487B0BB
:1048980000AFF860B9607A603B60FB689B687B6139
:1048A8007B6923F47F437B613B681A027B681A4368
:1048B800BB6813437A6913437B61FB687A699A6022
:1048C80000BF1C37BD4680BC704700BF80B487B0AE
:1048D80000AFF860B9607A60BB6803F01F0301227B
:1048E80002FA03F37B61FB681A6A7B69DB431A40AF
:1048F800FB681A62FB681A6ABB6803F01F037968D1
:1049080001FA03F31A43FB681A6200BF1C37BD465D
:1049180080BC704780B485B000AF786039607B6830
:1049280093F83C30012B01D1022350E07B6801222F
:1049380083F83C207B68022283F83D207B681B6853
:104948005B68FB607B681B689B68BB60FB6823F047
:104958007003FB603B681B68FA681343FB607B6865
:104968001B68FA685A607B681B681B4A934218D018
:104978007B681B68B3F1804F13D07B681B68174AAC
:1049880093420ED07B681B68154A934209D07B6816
:104998001B68144A934204D07B681B68124A9342EE
:1049A8000CD1BB6823F08003BB603B685B68BA68C6
:1049B8001343BB607B681B68BA689A607B680122F6
:1049C80083F83D207B68002283F83C2000231846AA
:1049D8001437BD4680BC7047000001400004004009
:1049E80000080040000C00400040014080B582B043
:1049F80000AF78607B68002B01D101233FE07B6822
:104A080093F83930DBB2002B06D17B68002283F89B
:104A180038207868FCF7B4FB7B68242283F83920B7
:104A28007B681B687A681268D26822F40052DA60E0
:104A3800786800F0B1FA7B681B687A6812681269B6
:104A480022F490421A617B681B687A68126852697E
:104A580022F02A025A617B681B687A681268D26859
:104A680042F40052DA607B680022DA637B68202215
:104A780083F839207B68202283F83A2000231846DF
:104A88000837BD4680BD00BF80B485B000AFF86070
:104A9800B9601346FB80FB6893F83A30DBB2202BF1
:104AA80040D1BB68002B02D0FB88002B01D1012329
:104AB80039E0FB6893F83830012B01D1022332E04A
:104AC800FB68012283F83820FB68BA689A62FB68A1
:104AD800FA889A85FB68FA88DA85FB680022DA6327
:104AE800FB68222283F83A20FB68002283F83820EA
:104AF800FB681B68FA681268D26842F48072DA6050
:104B0800FB681B68FA681268526942F001025A6130
:104B1800FB681B68FA681268D26842F02002DA6003
:104B2800002300E0022318461437BD4680BC7047B6
:104B380080B588B000AF78607B681B681B68FB6134
:104B48007B681B68DB68BB617B681B685B697B6192
:104B580000233B610023FB60FB6903F00F033B610B
:104B68003B69002B0DD1FB6903F02003002B08D013
:104B7800BB6903F02003002B03D0786800F08AF9A2
:104B8800D1E03B69002B00F0B0807B6903F00103A2
:104B9800002B05D1BB6903F49073002B00F0A580AE
:104BA800FB6903F00103002B0AD0BB6903F480738F
:104BB800002B05D07B68DB6B43F001027B68DA636E
:104BC800FB6903F00403002B0AD07B6903F001039F
:104BD800002B05D07B68DB6B43F002027B68DA634D
:104BE800FB6903F00203002B0AD07B6903F0010381
:104BF800002B05D07B68DB6B43F004027B68DA632B
:104C0800FB6903F00803002B0FD0BB6903F02003F6
:104C1800002B04D17B6903F00103002B05D07B68CE
:104C2800DB6B43F008027B68DA637B68DB6B002B85
:104C380078D0FB6903F02003002B07D0BB6903F091
:104C48002003002B02D0786800F024F97B681B68E9
:104C58005B6903F04003002B14BF01230023DBB280
:104C6800FB607B68DB6B03F00803002B02D1FB6859
:104C7800002B31D0786800F06FF87B681B685B699F
:104C880003F04003002B23D07B681B687A68126806
:104C9800526922F040025A617B685B6B002B13D08B
:104CA8007B685B6B214A1A657B685B6B1846FCF76F
:104CB800FBFD0346002B16D07B685B6B1B6D7A6887
:104CC800526B104698470EE0786800F03BF80AE00F
:104CD800786800F037F806E0786800F033F87B6809
:104CE8000022DA631EE000BF1CE0FB6903F08003CA
:104CF800002B08D0BB6903F08003002B03D0786831
:104D080000F05CF80FE0FB6903F04003002B0AD0C9
:104D1800BB6903F04003002B05D0786800F0A2F8C7
:104D280000BF00E000BF2037BD4680BD9D4D000894
:104D380080B483B000AF786000BF0C37BD4680BC3C
:104D4800704700BF80B483B000AF786000BF0C37F5
:104D5800BD4680BC704700BF80B483B000AF7860A8
:104D68007B681B687A681268D26822F49072DA60ED
:104D78007B681B687A681268526922F001025A61DE
:104D88007B68202283F83A2000BF0C37BD4680BCE0
:104D9800704700BF80B584B000AF78607B689B6BBC
:104DA800FB60FB680022DA85FB680022DA84F86879
:104DB800FFF7C8FF00BF1037BD4680BD80B485B07F
:104DC80000AF78607B6893F83930DBB2212B43D190
:104DD8007B689B68B3F5805F19D17B681B6AFB60B1
:104DE8007B681B68FA681288C2F308025A607B68FD
:104DF8001B69002B05D17B681B6A9A1C7B681A62A9
:104E08000EE07B681B6A5A1C7B681A6208E07B68A4
:104E18001A687B681B6A581C796808621B7853609B
:104E28007B68DB8C9BB2013B9BB27A681946D184C4
:104E3800002B0FD17B681B687A681268D26822F051
:104E48008002DA607B681B687A681268D26842F070
:104E58004002DA60002300E0022318461437BD46FA
:104E680080BC704780B582B000AF78607B681B68F3
:104E78007A681268D26822F04002DA607B682022E1
:104E880083F839207868FFF753FF0023184608375E
:104E9800BD4680BD80B584B000AF78607B6893F86C
:104EA8003A30DBB2222B71D17B689B68B3F5805F07
:104EB80023D17B689B6AFB607B681B69002B0ED142
:104EC8007B681B685B689BB2C3F308039AB2FB68F4
:104ED8001A807B689B6A9A1C7B689A6229E07B68C7
:104EE8001B685B689BB2DBB29AB2FB681A807B686E
:104EF8009B6A5A1C7B689A621BE07B681B69002BC3
:104F08000AD17B689B6A591C7A6891627A68126830
:104F18005268D2B21A700CE07B689B6A591C7A6896
:104F280091627A6812685268D2B202F07F02D2B2F5
:104F38001A707B68DB8D9BB2013B9BB27A6819467D
:104F4800D185002B20D17B681B687A681268D268EB
:104F580022F02002DA607B681B687A681268D268DF
:104F680022F48072DA607B681B687A68126852697A
:104F780022F001025A617B68202283F83A2078687F
:104F8800FBF7C0FA002302E0002300E002231846E2
:104F98001037BD4680BD00BF2DE9F04FA3B000AF6C
:104FA800F867FB6F1968FB6F1B681B6923F4405295
:104FB800FB6FDB6813430B61FB6F9A68FB6F1B6920
:104FC8001A43FB6F5B691A43FB6FDB691343C7F82E
:104FD8008430FB6F1968FB6F1B68DB6823F416428B
:104FE80022F00C02D7F884301343CB60FB6F1968AA
:104FF800FB6F1B685B6923F44072FB6F9B6913436B
:105008004B61FB6FDB69B3F5004F40F07181FB6FBB
:105018001B68B44A934205D0FB6F1B68B24A93429F
:1050280040F0B180FEF71AFEC7F88000FB6F1D68DC
:10503800D7F8803019464FF000020B461446DB18AB
:1050480044EB04045B1844EB0204E0007864786CD9
:1050580040EA53707864DB003B64D7E9103413EB03
:10506800010844EB020940464946FB6F5B684FF074
:105078000004DB1844EB04041A462346FBF7B6F891
:1050880003460C461A46994BA3FB02235B091E01F3
:10509800D7F8803019464FF000020B461446DB184B
:1050A80044EB04045B1844EB0204E000F863F86B7B
:1050B80040EA5370F863DB00BB63D7E90E3413EBA7
:1050C800010844EB020940464946FB6F5B684FF014
:1050D8000004DB1844EB04041A462346FBF786F861
:1050E80003460C461A46814BA3FB02135B09642155
:1050F80001FB03F3D31ADB0032337C4AA2FB032300
:105108005B095B0003F4F8731E44D7F88030194636
:105118004FF000020B461446DB1844EB04045B18FE
:1051280044EB0204E0007863786B40EA53707863DC
:10513800DB003B63D7E90C3413EB010844EB0209AD
:1051480040464946FB6F5B684FF00004DB1844EBB0
:1051580004041A462346FBF749F803460C461A4648
:10516800624BA3FB02135B09642101FB03F3D31A0F
:10517800DB0032335D4AA2FB03235B0903F007031C
:105188003344AB6040E2FEF755FDC7F88000FB6F83
:105198001A683A67D7F8803019464FF000020B4674
:1051A8001446DB1844EB04045B1844EB0204E000EB
:1051B800F862F86A40EA5370F862DB00BB62D7E92C
:1051C8000A345D1844EB020628463146FB6F5B68DB
:1051D8004FF00004DB1844EB04041A462346FBF79F
:1051E80005F803460C461A46404BA3FB02235B090D
:1051F8001E01D7F8803019464FF000020B461446BE
:10520800DB1844EB04045B1844EB02044FEAC40BBC
:105218004BEA537B4FEAC30A53465C4613EB010A39
:1052280044EB020B50465946FB6F5B684FF0000495
:10523800DB1844EB04041A462346FAF7D7FF034663
:105248000C461A46294BA3FB02135B09642101FB98
:1052580003F3D31ADB003233244AA2FB03235B098E
:105268005B0003F4F8731E44D7F8803019464FF0FA
:1052780000020B461446DB1844EB04045B1844EBAD
:1052880002044FEAC40949EA53794FEAC30843467E
:105298004C4613EB010844EB020940464946FB6FB4
:1052A8005B684FF00004DB1844EB04041A462346FD
:1052B800FAF79CFF03460C461A460C4BA3FB021355
:1052C8005B09642101FB03F3D31ADB003233074A7D
:1052D800A2FB03235B0903F0070333443A6F93608F
:1052E80092E100BF00100140001401401F85EB51FE
:1052F800FB6F1A68C14B9A4205D0FB6F1A68C04B06
:105308009A4240F0BF80FEF7A9FCC7F88000FB6F07
:105318001E68D7F8803019464FF000020B46144635
:10532800DB1844EB04045B1844EB0204E0007862E9
:10533800786A40EA53707862DB003B62D7E9083448
:1053480013EB010844EB020940464946FB6F5B68D2
:105358004FF00004A200FA65FA6D42EA9372FA650A
:105368009B00BB65D7E91623FAF740FF03460C46B6
:105378001A46A44BA3FB02235B091D01D7F8803012
:1053880019464FF000020B461446DB1844EB0404A0
:105398005B1844EB0204E000F861F86940EA5370D6
:1053A800F861DB00BB61D7E9063413EB010844EB75
:1053B800020940464946FB6F5B684FF00004A200B3
:1053C8007A657A6D42EA93727A659B003B65D7E904
:1053D8001423FAF70BFF03460C461A46894BA3FB26
:1053E80002135B09642101FB03F3D31A1B01323357
:1053F800844AA2FB03235B0903F0F0031D44D7F89A
:10540800803019464FF000020B461446DB1844EB77
:1054180004045B1844EB0204E0007861786940EA10
:1054280053707861DB003B61D7E9043413EB010862
:1054380044EB020940464946FB6F5B684FF00004A5
:10544800A200FA64FA6C42EA9372FA649B00BB64A5
:10545800D7E91223FAF7CAFE03460C461A46694BE7
:10546800A3FB02135B09642101FB03F3D31A1B019D
:105478003233644AA2FB03235B0903F00F032B4476
:10548800B360C1E0FEF7D6FBC7F88000FB6F1B686E
:10549800BB65D7F8803019464FF000020B4614461A
:1054A800DB1844EB04045B1844EB0204E60046EA0C
:1054B8005376DD002B4634465D1844EB0206284639
:1054C8003146FB6F5B684FF00004A5007D677D6F78
:1054D80045EA93757D679C003C67D7E91C23FAF77A
:1054E80085FE03460C461A46464BA3FB02135B098E
:1054F8001D01D7F8803019464FF000020B461446BC
:10550800DB1844EB04045B1844EB0204E000F86089
:10551800F86840EA5370F860D800B860D7E90234F8
:1055280013EB010844EB020940464946FB6F5B68F0
:105538004FF00004A600FE66FE6E46EA9376FE660D
:105548009C00BC66D7E91A23FAF750FE03460C46BE
:105558001A462C4BA3FB02135B09642101FB03F3DE
:10556800D31A1B013233274AA2FB03135B0903F04A
:10557800F0031D44D7F8803019464FF000020B465F
:105588001446DB1844EB04045B1844EB0204E00007
:105598007860786840EA53707860D8003860D7E956
:1055A800003413EB010844EB020940464946FB6FFF
:1055B8005B684FF00004A6007E667E6E46EA93762E
:1055C8007E669C003C66D7E91823FAF70FFE03466F
:1055D8000C461A460B4BA3FB02135B09642101FB23
:1055E80003F3D31A1B013233064AA2FB03135B09E8
:1055F80003F00F032B44BA6D936005E000100140DF
:10560800001401401F85EB5100BF8C37BD46BDE833
:10561800F08F00BF84B080B584B000AF786007F128
:105628001C0080E80E003B6B012B22D17B689B6B32
:1056380023F480327B689A637B68DB6823F48403F5
:1056480023F040037A68D3607B68DB6823F4401258
:105658007B68DA60FB6C012B05D17B68DB6843F45F
:1056680080127B68DA60786801F0F0FA0346FB7311
:105678001AE07B68DB6843F040027B68DA60786890
:1056880001F0E4FA0346FB733B6C002B06D17B6800
:105698009B6B43F480327B689A6305E07B689B6B65
:1056A80023F480327B689A63BB6A012B0BD17B6839
:1056B8009B6843F006027B689A607B689B6843F0AE
:1056C80020027B689A60FB7B18461037BD46BDE810
:1056D800804004B0704700BF80B487B000AFF86066
:1056E800B9601346FB71FB79022B65D1BB68414A4F
:1056F800934206D9BB68404A934202D80F237B6184
:1057080062E0BB683C4A934206D9BB683B4A934275
:1057180002D80E237B6157E0BB68384A934206D90A
:10572800BB68374A934202D80D237B614CE0BB68C3
:10573800334A934206D9BB68324A934202D80C23B3
:105748007B6141E0BB682F4A934206D9BB682E4A69
:10575800934202D80B237B6136E0BB682A4A934206
:1057680006D9BB68294A934202D80A237B612BE0F9
:10577800BB68264A934206D9BB68254A934202D899
:1057880009237B6120E0BB68214A934206D9BB68A4
:10579800204A934202D808237B6115E0BB681D4A62
:1057A800934206D9BB681C4A934202D807237B61FF
:1057B8000AE006237B6107E0FB79002B02D109236D
:1057C8007B6101E009237B61FB68DB6823F470528D
:1057D800FB68DA60FB68DA687B699B0203F4705344
:1057E8001A43FB68DA60002318461C37BD4680BCA4
:1057F800704700BFBFACD800BFE1E400FF23F4004E
:105808007F7306019F491A01FF2C31013FA44C0107
:10581800FF356E011FABA601FF47E80180B483B0D6
:1058280000AF78607B689B6843F001027B689A60F0
:10583800002318460C37BD4680BC704780B483B03F
:1058480000AF78607B689B6823F001027B689A60F0
:10585800002318460C37BD4680BC704780B582B01F
:1058680000AF78600B46FB707B68DB6823F0C042B2
:105878007B68DA60FB78012B06D17B68DB6843F034
:1058880000527B68DA600BE0FB78002B06D17B685E
:10589800DB6843F080427B68DA6001E0012303E0C3
:1058A8003220FBF7CDFD002318460837BD4680BDE2
:1058B80084B080B586B000AF786007F1240080E836
:1058C8000E000023FB757B68FB6000233B6109E049
:1058D8007A683B6940339B00134400225A603B6955
:1058E80001333B613B690E2BF2D9FB6C002B1DD1B8
:1058F800FB6803F500631A46FB6803F500635B6801
:1059080043F0020353607B689B6B43F400127B688F
:105918009A637B689B6B23F400227B689A637B689D
:105928009B6B23F480227B689A630BE07B689B6BFC
:1059380023F400127B689A637B689B6B43F4002214
:105948007B689A63FB6803F560631A46002313605B
:10595800FB6803F500631A46FB6803F500631B68E0
:105968001360BB6B012B0CD1FB6A002B04D1002107
:10597800786800F041F908E00121786800F03CF906
:1059880003E00321786800F037F91021786800F007
:10599800EFF80346002B01D00123FB75786800F06F
:1059A8000BF90346002B01D00123FB75FB6803F5B7
:1059B80000631A4600231361FB6803F500631A4667
:1059C80000235361FB6803F500631A460023D36183
:1059D80000233B6140E03B695A01FB68134403F52F
:1059E80010631B68002B18DA3B69002B0AD13B694E
:1059F8005A01FB68134403F510631A464FF000631D
:105A0800136013E03B695A01FB68134403F5106304
:105A18001A464FF09043136008E03B695A01FB684F
:105A2800134403F510631A46002313603B695A01B7
:105A3800FB68134403F510631A46002313613B699E
:105A48005A01FB68134403F510631A464FF67F3377
:105A580093603B6901333B617A6A3B699A42BAD8E1
:105A680000233B6140E03B695A01FB68134403F59E
:105A780030631B68002B18DA3B69002B0AD13B699D
:105A88005A01FB68134403F530631A464FF000636C
:105A9800136013E03B695A01FB68134403F5306354
:105AA8001A464FF09043136008E03B695A01FB68BF
:105AB800134403F530631A46002313603B695A0107
:105AC800FB68134403F530631A46002313613B69EE
