:020000040800F2
:100000000000022085AD0008D5270008E127000880
:10001000E7270008ED270008F3270008000000008C
:10002000000000000000000000000000F9270008A8
:100030000528000800000000112800081D280008FD
:10004000D5AD0008D5AD0008D5AD0008D5AD000888
:10005000D5AD0008D5AD0008D5AD0008D5AD000878
:10006000D5AD0008D5AD0008D5AD00082928000899
:100070003D280008D5AD000851280008D5AD00087E
:1000800065280008D5AD0008D5AD000800000000C7
:10009000000000000000000000000000D5AD0008D6
:1000A000D5AD0008D5AD0008D5AD0008D5AD000828
:1000B000D5AD0008D5AD0008D5AD0008D5AD000818
:1000C000D5AD0008D5AD0008D5AD000879280008E9
:1000D000D5AD0008D5AD00088D280008000000004F
:1000E000D5AD0008D5AD0008D5AD00080000000072
:1000F000000000000000000000000000D5AD000876
:1001000000000000D5AD0008D5AD0008D5AD000851
:1001100000000000000000000000000000000000DF
:10012000A1280008D5AD0008B5280008D5AD000805
:10013000D5AD000800000000000000000000000035
:10014000000000000000000000000000C9280008B6
:10015000D5AD0008D5AD0008D5AD0008D5AD000877
:10016000D5AD0008D5AD000800000000000000007B
:10017000000000000000000000000000000000007F
:1001800000000000D5AD00080000000000000000E5
:08019000D5AD0008D5AD000853
:100198000348044B834202D0034B03B1184770470E
:1001A800FC010020FC010020000000000548064971
:1001B8000B1AD90F01EBA301491002D0034B03B16D
:1001C80018477047FC010020FC01002000000000D7
:1001D80010B5064C237843B9FFF7DAFF044B13B187
:1001E8000448AFF300800123237010BDFC010020F8
:1001F80000000000D8AD000808B5044B1BB1044945
:100208000448AFF30080BDE80840CFE700000000D5
:1002180000020020D8AD000880F0004002E000BFD6
:1002280081F0004142001FBF5FEA410392EA030FD9
:100238007FEA226C7FEA236C6AD04FEA1262D2EB23
:100248001363C1BFD218414048404140B8BF5B4228
:10025800192B88BF704710F0004F40F4000020F0C1
:100268007F4018BF404211F0004F41F4000121F0D7
:100278007F4118BF494292EA030F3FD0A2F1010221
:1002880041FA03FC10EB0C00C3F1200301FA03F15F
:1002980000F0004302D5494260EB4000B0F5000F82
:1002A80013D3B0F1807F06D340084FEA310102F141
:1002B8000102FE2A51D2B1F1004F40EBC25008BFF3
:1002C80020F0010040EA03007047490040EB0000BD
:1002D800013A28BFB0F5000FEDD2B0FA80FCACF1BE
:1002E800080CB2EB0C0200FA0CF0AABF00EBC250EB
:1002F80052421843BCBFD0401843704792F0000FD9
:1003080081F4000106BF80F400000132013BB5E72B
:100318004FEA41037FEA226C18BF7FEA236C21D0A1
:1003280092EA030F04D092F0000F08BF0846704706
:1003380090EA010F1CBF0020704712F07F4F04D1D4
:10034800400028BF40F00040704712F100723CBFE7
:1003580000F50000704700F0004343F0FE4040F411
:10036800000070477FEA226216BF08467FEA2363CF
:100378000146420206BF5FEA412390EA010F40F4BA
:10038800800070474FF0000304E000BF10F0004306
:1003980048BF40425FEA000C08BF704743F09643ED
:1003A80001464FF000001CE050EA010208BF704708
:1003B8004FF000030AE000BF50EA010208BF70478F
:1003C80011F0004302D5404261EB41015FEA010CA4
:1003D80002BF84460146002043F0B64308BFA3F19C
:1003E8008053A3F50003BCFA8CF2083AA3EBC2537E
:1003F80010DB01FA02FC634400FA02FCC2F120029D
:10040800BCF1004F20FA02F243EB020008BF20F0D3
:100418000100704702F1200201FA02FCC2F1200239
:1004280050EA4C0021FA02F243EB020008BF20EA2E
:10043800DC7070474FF0FF0C1CEAD0521EBF1CEA5C
:10044800D15392EA0C0F93EA0C0F6FD01A4480EA4A
:10045800010C400218BF5FEA41211ED04FF0006333
:1004680043EA501043EA5111A0FB01310CF000405F
:10047800B1F5000F3EBF490041EAD3715B0040EA85
:10048800010062F17F02FD2A1DD8B3F1004F40EB55
:10049800C25008BF20F00100704790F0000F0CF028
:1004A800004C08BF49024CEA502040EA51207F3AEC
:1004B800C2BFD2F1FF0340EAC250704740F40000C7
:1004C8004FF00003013A5DDC12F1190FDCBF00F0B8
:1004D80000407047C2F10002410021FA02F1C2F166
:1004E800200200FA02FC5FEA310040F1000053EA02
:1004F8004C0308BF20EADC70704792F0000F00F050
:10050800004C02BF400010F4000F013AF9D040EA55
:100518000C0093F0000F01F0004C02BF490011F4E9
:10052800000F013BF9D041EA0C018FE70CEAD153E7
:1005380092EA0C0F18BF93EA0C0F0AD030F0004C67
:1005480018BF31F0004CD8D180EA010000F000401B
:10055800704790F0000F17BF90F0004F084691F0D9
:10056800000F91F0004F14D092EA0C0F01D1420213
:100578000FD193EA0C0F03D14B0218BF084608D1DC
:1005880080EA010000F0004040F0FE4040F4000026
:10059800704740F0FE4040F4400070474FF0FF0CB9
:1005A8001CEAD0521EBF1CEAD15392EA0C0F93EA00
:1005B8000C0F69D0A2EB030280EA010C49024FEA52
:1005C800402037D04FF0805343EA111143EA10130B
:1005D8000CF000408B4238BF5B0042F17D024FF4C3
:1005E800000C8B4224BF5B1A40EA0C00B3EB510F9E
:1005F80024BFA3EB510340EA5C00B3EB910F24BF87
:10060800A3EB910340EA9C00B3EBD10F24BFA3EB0B
:10061800D10340EADC001B0118BF5FEA1C1CE0D1D3
:10062800FD2A3FF650AF8B4240EBC25008BF20F086
:10063800010070470CF0004C4CEA50207F32C2BFDA
:10064800D2F1FF0340EAC250704740F400004FF077
:100658000003013A37E792F0000F00F0004C02BFA8
:10066800400010F4000F013AF9D040EA0C0093F072
:10067800000F01F0004C02BF490011F4000F013BCC
:10068800F9D041EA0C0195E70CEAD15392EA0C0F34
:1006980008D142027FF47DAF93EA0C0F7FF470AF6C
:1006A800084676E793EA0C0F04D14B023FF44CAFAF
:1006B80008466EE730F0004C18BF31F0004CCAD144
:1006C80030F000427FF45CAF31F000437FF43CAF80
:1006D8005FE700BF4FF0FF3C06E000BF4FF0010CA2
:1006E80002E000BF4FF0010C4DF804CD4FEA400284
:1006F8004FEA41037FEA226C18BF7FEA236C11D0CE
:1007080001B052EA530C18BF90EA010F58BFB2EB80
:10071800030088BFC81738BF6FEAE17018BF40F000
:10072800010070477FEA226C02D15FEA402C05D1B4
:100738007FEA236CE4D15FEA412CE1D05DF8040B39
:10074800704700BF844608466146FFE70FB5FFF7CC
:10075800C9FF002848BF10F1000F0FBD4DF808ED84
:10076800FFF7F4FF0CBF012000205DF808FB00BF75
:100778004DF808EDFFF7EAFF34BF012000205DF8CF
:1007880008FB00BF4DF808EDFFF7E0FF94BF01201C
:1007980000205DF808FB00BF4DF808EDFFF7D2FF19
:1007A80094BF012000205DF808FB00BF4DF808ED5C
:1007B800FFF7C8FF34BF012000205DF808FB00BF29
:1007C8004FEA4002B2F1FE4F0FD34FF09E03B3EB56
:1007D80012620DD94FEA002343F0004310F0004F96
:1007E80023FA02F018BF404270474FF000007047EC
:1007F80012F1610F01D1420205D110F0004008BF8B
:100808006FF0004070474FF00000704742000ED272
:10081800B2F1FE4F0BD34FF09E03B3EB126209D433
:100828004FEA002343F0004323FA02F070474FF0E9
:100838000000704712F1610F01D1420202D14FF05E
:10084800FF3070474FF00000704700BF53B94AB9F6
:10085800002908BF00281CBF4FF0FF314FF0FF30C0
:1008680000F06CB9ADF1080C6DE904CE00F006F8A3
:10087800DDF804E0DDE9022304B070472DE9F04714
:10088800089E0D4604468E46002B40F082808A4220
:10089800174646D9B2FA82F24AB1C2F1200105FAE6
:1008A80002F320FA01F1974041EA030E94404FEA1F
:1008B8001748230CBEFBF8FCB9B208FB1CEE43EA50
:1008C8000E430CFB01F098420AD9FB180CF1FF35D6
:1008D80080F01681984240F21381ACF1020C3B443F
:1008E8001B1AA4B2B3FBF8F008FB103344EA034424
:1008F80000FB01F1A14209D93C1900F1FF3380F056
:100908000181A14240F2FE8002383C44641A40EA68
:100918000C4000211EB1D4400023C6E90043BDE8C5
:10092800F08702B9FFDEB2FA82F2002A4FD1CB1B60
:100938004FEA174E1FFA87F80121B3FBFEFC250C7E
:100948000EFB1C3345EA034508FB0CF3AB4207D901
:100958007D190CF1FF3002D2AB4200F2E7808446E9
:10096800ED1AA3B2B5FBFEF00EFB105543EA0544A1
:1009780008FB00F8A04507D93C1900F1FF3302D263
:10098800A04500F2D7801846A4EB080440EA0C40C2
:10099800C0E78B4208D9002E00F0AF800021C6E9DD
:1009A80000050846BDE8F087B3FA83F100294BD16A
:1009B800AB4202D3824200F2B780841A65EB03038C
:1009C80001209E46002EAAD0C6E9004EA7E7C2F134
:1009D800200C01FA02F3974020FA0CF04FEA174E68
:1009E80021FA0CFC1843BCFBFEF1050C0EFB11CCE4
:1009F8001FFA87F845EA0C4501FB08F3AB4204FAF5
:100A080002F409D97D1901F1FF3C80F08B80AB42DB
:100A180040F2888002393D44EB1A85B2B3FBFEF000
:100A28000EFB103345EA034500FB08F3AB4207D938
:100A38007D1900F1FF3C71D2AB426FD902383D44B9
:100A4800EB1A40EA014178E7C1F1200C8B4022FA09
:100A58000CF71F4320FA0CF405FA01F34FEA174E7E
:100A680025FA0CF51C43230CB5FBFEF91FFA87F891
:100A78000EFB195543EA054509FB08FAAA4502FA8F
:100A880001F200FA01F308D97D1909F1FF3047D2C4
:100A9800AA4545D9A9F102093D44A5EB0A05A4B226
:100AA800B5FBFEF00EFB105544EA054400FB08F8C0
:100AB800A04507D93C1900F1FF352DD2A0452BD907
:100AC80002383C4440EA0940A4EB0804A0FB028930
:100AD8004C45C6464D4619D316D05EB1B3EB0E024F
:100AE80064EB050404FA0CFCCA404CEA0202CC4050
:100AF800C6E900240021BDE8F087314630460EE7FC
:100B0800AC46EDE6184601E74345E6D2B8EB020EDF
:100B180069EB07050138E0E72846D3E760468FE729
:100B28008146BAE7614677E708464BE7ACF1020C25
:100B38003D4415E702383C4426E700BF704700BF34
:100B4800014B1868704700BF0000002070B50D4EBB
:100B58000D4D761BB61006D00024013455F8043B21
:100B68009847A642F9D1094E094D761B0AF030F98B
:100B7800B61006D00024013455F8043B9847A64225
:100B8800F9D170BD60AE000860AE000864AE000820
:100B980060AE0008024B0146186800F0B1B800BF0B
:100BA80000000020024B0146186800F053B800BF4F
:100BB80000000020F0B4860746D0541E002A3CD01E
:100BC800CAB2034602E014F1FF3436D303F8012B0E
:100BD8009D07F8D1032C29D9CDB245EA05250F2C5C
:100BE80045EA054533D9A4F11006360903F1200773
:100BF80007EB061703F1100242E9045542E90255D2
:100C08001032BA42F8D1721C14F00C0F03EB021226
:100C180004F00F0613D0331F23F0030304331344E7
:100C280042F8045B9342FBD106F003042CB1C9B22D
:100C38001C4403F8011B9C42FBD1F0BC70473446AE
:100C48001346002CF3D1F8E714460346C2E71A46C8
:100C58002646E0E700293CD038B551F8043C0C1F83
:100C6800002BB8BFE418054600F0C0F8234B1A68FB
:100C78002AB1A2420DD921686018824223D062604D
:100C880028461C60BDE8384000F0B2B8A34203D83B
:100C98001A465368002BF9D111685018A04219D090
:100CA80024D821686018834206D0636054602846BF
:100CB800BDE8384000F09CB8D3E900030144636004
:100CC80021605460F3E7D2E90002014462602160C8
:100CD800D6E7704720680144501883421160E6D176
:100CE800D3E90003014453601160E0E70C232B6053
:100CF8002846BDE8384000F07BB800BF1802002045
:100D0800F8B5CD1C25F0030508350C2D38BF0C258A
:100D1800002D064633DBA94231D82A4F00F066F889
:100D28003A6852B113685B1B04D43FE023685B1B2D
:100D380029D522465468002CF8D1796800293BD07F
:100D48002946304600F040F8431C28D0C41C24F043
:100D58000304A04205D0211A304600F035F80130CE
:100D68001DD02560304600F043F804F10B0020F058
:100D78000700231DC21A01D01B1AA350F8BD0C226C
:100D880032600020F8BD0B2B05D8A242636811D051
:100D98005360E7E7144623601C442560E2E70C2310
:100DA8003046336000F024F80020F8BD0B2BF1D852
:100DB800536814463B60D5E7304600F005F8786084
:100DC800BEE700BF1802002038B5074C00230546CF
:100DD8000846236001F07EFD431C00D038BD23681F
:100DE800002BFBD02B6038BD28220020704700BFA5
:100DF800704700BF80B584B000AF7860192295496C
:100E0800954805F0E0FD934B5B781AB2914B9B78BF
:100E18001B021BB213431BB29BB2C3F30A039AB261
:100E28008E4B1A808B4B9B78DB08DBB21AB2894B4E
:100E3800DB785B011BB213431BB29BB2C3F30A03FB
:100E48009AB2864B5A80834BDB789B09DBB21AB285
:100E5800804B1B799B001BB213431AB27D4B5B7905
:100E68009B021BB213431BB29BB2C3F30A039AB291
:100E78007A4B9A80774B5B795B08DBB21AB2754B79
:100E88009B79DB011BB213431BB29BB2C3F30A036A
:100E98009AB2724BDA806F4B9B791B09DBB21AB29C
:100EA8006C4BDB791B011BB213431BB29BB2C3F320
:100EB8000A039AB2694B1A81664BDB79DB09DBB20C
:100EC8001AB2644B1B7A5B001BB213431AB2614B14
:100ED8005B7A5B021BB213431BB29BB2C3F30A03D8
:100EE8009AB25E4B5A815B4B5B7A9B08DBB21AB2B3
:100EF800584B9B7A9B011BB213431BB29BB2C3F3A3
:100F08000A039AB2554B9A81524B9B7A5B09DBB222
:100F18001AB2504BDB7ADB001BB213431BB29BB2F5
:100F2800C3F30A039AB24D4BDA814A4B1B7B1AB2C0
:100F3800484B5B7B1B021BB213431BB29BB2C3F330
:100F48000A039AB2454B1A82424B5B7BDB08DBB241
:100F58001AB2404B9B7B5B011BB213431BB29BB283
:100F6800C3F30A039AB23D4B5A823A4B9B7B9B09C7
:100F7800DBB21AB2374BDB7B9B001BB213431AB2AE
:100F8800344B1B7C9B021BB213431BB29BB2C3F3B3
:100F98000A039AB2314B9A822E4B1B7C5B08DBB258
:100FA8001AB22C4B5B7CDB011BB213431BB29BB206
:100FB800C3F30A039AB2294BDA82264B5B7C1B09DE
:100FC800DBB21AB2234B9B7C1B011BB213431BB22F
:100FD8009BB2C3F30A039AB2204B1A831D4B9B7C26
:100FE800DB09DBB21AB21B4BDB7C5B001BB2134381
:100FF8001AB2184B1B7D5B021BB213431BB29BB288
:10100800C3F30A039AB2154B5A83124B1B7D9B08F4
:10101800DBB21AB20F4B5B7D9B011BB213431BB2B1
:101028009BB2C3F30A039AB20C4B9A83094B5B7DBC
:101038005B09DBB21AB2074B9B7DDB001BB2134383
:101048001BB29BB2C3F30A039AB2044BDA830023A0
:10105800FB6005E09405002054050020B005002041
:1010680007E0084AFB68134400221A70FB68013342
:10107800FB60FB68182BF4DD00BF00BF1037BD46CE
:1010880080BD00BF9405002080B584B000AF7860B3
:1010980000F09AFC094B1B78002B08D00023FB605A
:1010A80002E0FB680133FB60FB68022BF9DD044BAF
:1010B80000221A7000BF1037BD4680BD21020020F3
:1010C8002002002098B500AF5F4B1B685F4A12688A
:1010D80011461846FFF7A6F803461A465C4B1B68EC
:1010E80019461046FFF79EF803461A46594B1A60F0
:1010F800554B1B6883F00044554B1B68194618462E
:10110800FFF790F8034619462046FFF789F803468B
:101118001A46514B1A604E4B1B68504A1360504B8D
:101128001B68504A126811461846FFF77BF80346B9
:101138001A464D4B1B6819461046FFF773F80346CD
:101148001A464A4B1A60464B1B6883F00044464BCC
:101158001B6819461846FFF765F8034619462046E6
:10116800FFF75EF803461A46414B1A603E4B1B6870
:10117800404A1360404B1B68404A126811461846A3
:10118800FFF750F803461A463D4B1B6819461046B0
:10119800FFF748F803461A463A4B1A60364B1B6865
:1011A80083F00044364B1B6819461846FFF73AF897
:1011B800034619462046FFF733F803461A46324BD2
:1011C8001A602F4B1B68314A136001F0BBFB00F01B
:1011D80065F800F085FA00F02DFA00F0FDF800F04F
:1011E8007BF900F0F9F909F0FBF800F0BFF800F01E
:1011F800AAFB19222649274805F0E5FB002000F044
:1012080027FC0346002B01D001F024F800F0A8FCCD
:1012180000F0CCFC012001F003FC0FE000210120CC
:1012280000F076FB0021022000F072FB0021032071
:1012380000F06EFB0021042000F06AFB164B5B886F
:10124800B3F5C86FEAD3E1E764000020080900207D
:101258000C0900201009002014090020180900209A
:10126800680000201C090020200900202409002013
:10127800280900202C0900206C00002070000020A4
:1012880074000020300900203409002038090020AB
:101298009405002054050020B005002080B594B0C6
:1012A80000AF07F12003302200211846FFF782FC27
:1012B80007F10C0300221A605A609A60DA601A611A
:1012C8000023BB60274B1B6C264A43F080531364F2
:1012D800244B1B6C03F08053BB60BB6800237B600E
:1012E800214B1B68204A43F4404313601E4B1B6884
:1012F80003F440437B607B6801233B624FF48033F7
:101308007B620223BB634FF48003FB6304233B64CB
:1013180048237B640223BB640323FB6407F1200397
:10132800184603F057FB0346002B01D000F092FF4C
:101338000F23FB6002233B6100237B614FF4805342
:10134800BB610023FB6107F10C030221184603F07F
:10135800B1FD0346002B01D000F07CFF00BF5037E1
:10136800BD4680BD003802400070004080B500AF27
:10137800174B184A1A60164B4FF482725A60144B76
:1013880000229A60124B0022DA60114B00221A6187
:101398000F4B00225A610E4B4FF400729A610C4BAE
:1013A8003022DA610A4B00221A62094B00225A6283
:1013B800074B00229A62064B0A22DA62044803F0BD
:1013C80073FF0346002B01D000F044FF00BF80BD2F
:1013D8003C0200200030014080B58EB000AF07F11C
:1013E800280300221A605A609A60DA6007F1200325
:1013F80000221A605A603B1D00221A605A609A60E7
:10140800DA601A615A619A61324B4FF080421A6071
:10141800304B01225A602F4B00229A602D4B7822C4
:10142800DA602C4B00221A612A4B00229A61294863
:1014380004F0C2FB0346002B01D000F00BFF4FF471
:101448008053BB6207F128031946224804F0E0FDE7
:101458000346002B01D000F0FDFE1E4804F0D7FB28
:101468000346002B01D000F0F5FE00233B62002369
:101478007B6207F120031946164805F0EBF903468D
:10148800002B01D000F0E6FE60237B600023BB60E8
:101498000023FB6000237B613B1D002219460D4899
:1014A80004F0F0FC0346002B01D000F0D3FE3B1DF6
:1014B80008221946074804F0E5FC0346002B01D032
:1014C80000F0C8FE034801F0B3F800BF3837BD4646
:1014D80080BD00BF5403002080B58EB000AF07F177
:1014E800280300221A605A609A60DA6007F1200324
:1014F80000221A605A603B1D00221A605A609A60E6
:10150800DA601A615A619A61314B324A1A60304B7B
:1015180001225A602E4B00229A602D4B7822DA6005
:101528002B4B00221A612A4B00229A61284804F0AA
:1015380043FB0346002B01D000F08CFE4FF4805390
:10154800BB6207F128031946214804F061FD0346F0
:10155800002B01D000F07EFE1D4804F058FB034626
:10156800002B01D000F076FE00233B6200237B6253
:1015780007F120031946164805F06CF90346002BBD
:1015880001D000F067FE60237B600023BB6000236E
:10159800FB6000237B613B1D002219460C4804F0C8
:1015A80071FC0346002B01D000F054FE3B1D0422C1
:1015B8001946074804F066FC0346002B01D000F0EA
:1015C80049FE034801F034F800BF3837BD4680BDF6
:1015D800940300200008004080B500AF124B134A66
:1015E8001A60114B124A5A600F4B4FF480529A609E
:1015F8000D4B4FF40052DA600B4B4FF480621A61C6
:10160800094B0C225A61084B00229A61064B0022B2
:10161800DA61054805F08AF90346002B01D000F08D
:1016280019FE00BF80BD00BF5405002000440040E3
:10163800A086010080B582B000AF00237B60274BF5
:101648001B6B264A43F400131363244B1B6B03F4F0
:1016580000137B607B6800233B60204B1B6B1F4A99
:1016680043F4800313631D4B1B6B03F480033B603F
:101678003B68002200210B2001F0CDFA0B2001F07D
:10168800E6FA002200210C2001F0C5FA0C2001F036
:10169800DEFA002200210E2001F0BDFA0E2001F032
:1016A800D6FA00220021102001F0B5FA102001F02E
:1016B800CEFA00220021382001F0ADFA382001F0DE
:1016C800C6FA002200213A2001F0A5FA3A2001F0DA
:1016D800BEFA00BF0837BD4680BD00BF00380240D3
:1016E80080B588B000AF07F10C0300221A605A6079
:1016F8009A60DA601A610023BB601F4B1B6B1E4A9D
:1017080043F0800313631C4B1B6B03F08003BB6027
:10171800BB6800237B60184B1B6B174A43F001031F
:101728001363154B1B6B03F001037B607B6800237D
:101738003B60114B1B6B104A43F0020313630E4BC3
:101748001B6B03F002033B603B68012210210B482E
:1017580001F0A8FF1023FB6001233B6100237B619C
:101768000223BB6107F10C031946044801F018FE77
:1017780000BF2037BD4680BD00380240000002404F
:1017880080B487B000AF0346FB8000237B81FB88D1
:10179800B3F5006F01D30023FB80FB885B007B81DE
:1017A8007B8923F001037B8100237B617B893B617B
:1017B8000023FB6009E07A693B6953407B613B6920
:1017C8001B113B61FB680133FB60FB68022BF2DDF8
:1017D8007B6903F00F037B617B891B011AB27B696C
:1017E8001BB213431BB27B817B8918461C37BD464D
:1017F80080BC704780B584B000AF03460A46FB71D1
:101808001346BB800023FB6027E0BA88FB68C3F15E
:101818000F0342FA03F303F00103002B0DD0FB7909
:101828005A1E354913465B0013441B019B1AFA687C
:1018380013445A2241F823200CE0FB795A1E2E4902
:1018480013465B0013441B019B1AFA6813442D22AC
:1018580041F82320FB680133FB60FB680F2BD4DDC4
:10186800FB79013B032B42D801A252F823F000BFB9
:1018780089180008A1180008B9180008D11800082C
:101888002F231D4A00211D4804F0F6F90346002BBA
:1018980026D000F0DFFC23E02F23194A0021194845
:1018A80004F0EAF90346002B1CD000F0D3FC19E041
:1018B8002F23154A0821134804F0DEF90346002BAC
:1018C80012D000F0C7FC0FE02F23104A04210B4868
:1018D80004F0D2F90346002B08D000F0BBFC05E069
:1018E80000BF04E000BF02E000BF00E000BF00BF8F
:1018F8001037BD4680BD00BFD405002094030020EA
:1019080090060020540300204C07002008080020FF
:1019180080B584B000AF03460A46FB711346BB800E
:10192800BB883033FB81FB891846FFF729FF034644
:10193800BB81BA89FB7911461846FFF75BFF00BFE8
:101948001037BD4680BD80B582B000AF01237B60F3
:101958000BE07B68DBB200211846FFF74BFF012044
:1019680001F05EF87B6801337B607B68042BF0DD57
:101978004FF47A7001F054F801233B600CE03B68A7
:10198800DBB240F206611846FFF734FF012001F090
:1019980047F83B6801333B603B68042BEFDD4FF4AD
:1019A800FA6001F03DF800BF0837BD4680BD000071
:1019B80080B500AF00221021024801F073FE00BF7D
:1019C80080BD00BF0000024080B500AF0122102199
:1019D800024801F067FE00BF80BD00BF0000024062
:1019E80080B584B000AF78600B46FB7000BF144B25
:1019F8001B78002BFBD1124B01221A70FFF7D8FF7E
:101A0800FB789BB20F4A79680F4803F0B1FC034694
:101A1800002B01D000F01EFC0023FB6007E00B4AFE
:101A2800FB68134400221A70FB680133FB60FB68F3
:101A3800092BF4DD00BF00BF1037BD4680BD00BFD5
:101A480020020020300200203C0200202402002056
:101A580080B582B000AF0346FB713E4B6A221A7014
:101A68003C4B10225A7002213A48FFF7B9FF00BFD9
:101A7800394B1B78002BFBD1364BF5221A70354BAE
:101A880000225A7002213348FFF7AAFF00BF324BE9
:101A98001B78002BFBD1314B5B78682B01D0EE23F0
:101AA80053E02C4B6B221A702A4B80225A70022169
:101AB8002848FFF795FF00BF274B1B78002BFBD169
:101AC800642000F0ADFF234B68221A70214B0722D7
:101AD8005A7002211F48FFF783FF00BF1E4B1B7877
:101AE800002BFBD1642000F09BFF1A4B6A221A706E
:101AF800184B10225A7002211648FFF771FF00BFD9
:101B0800154B1B78002BFBD1124B6B221A70114B13
:101B180003225A7002210F48FFF762FF00BF0E4BE5
:101B28001B78002BFBD1FB79002B0ED0094B192217
:101B38001A70084AFB79537002210648FFF750FFD4
:101B480000BF054B1B78002BFBD118460837BD4654
:101B580080BD00BF240200202002002030020020A7
:101B680080B500AF0F4B01221A700F4BC3221A70B9
:101B78000D4B00225A700C4B00229A700A4BC5225A
:101B8800DA70094B00221A71074BC7225A71064BAB
:101B980000229A7106210448FFF722FF00BF184669
:101BA80080BD00BF2102002024020020B0B500AF94
:101BB8008A4B9B881A468A4B1A60894B1B68C72B2D
:101BC80003DC874BC8221A6008E0854B1B68B3F515
:101BD800E16F03DD824B4FF4E1621A60804B1B68B2
:101BE8001846FEF7D3FB02467E4B1B681946104683
:101BF800FEF720FC03461846FEF7E2FD03467A4A44
:101C080013607A4B5B781B021AB2784B9B781BB235
:101C180013431AB2764B1A80754BB3F900309BB256
:101C28005B429BB21AB2724B1A80704BDB781B0274
:101C38001AB26E4B1B791BB213431AB26D4B1A8042
:101C48006C4BB3F900309BB25B429BB21AB2694B42
:101C58001A80664B5B791B021AB2644B9B791BB2E4
:101C680013431AB2644B1A80644B1B68644A1360AE
:101C7800644B1B68614A13605D4BB3F900305B42EB
:101C88001846FEF783FB03465E4A13605E4B1B68EB
:101C98005C4A126811461846FEF7CCFB03461C4600
:101CA8005A4B1B68554A126811461846FEF7C2FB84
:101CB800034619462046FEF7B5FA03461C46544B20
:101CC8001B684F4A126811461846FEF7B3FB0346D5
:101CD80019462046FEF7A6FA03461A464D4B1A60E7
:101CE8004D4B1B684B4A126811461846FEF79AFA84
:101CF80003461A46484B1A60474B1B684FF047414A
:101D08001846FEF735FD0346002B04D0424B4FF032
:101D180047421A600BE0404B1B6840491846FEF7E3
:101D280045FD0346002B02D03B4B3C4A1A603C4B16
:101D38001B683C4A13603C4B1B68394A13602D4BA7
:101D4800B3F900305B421846FEF720FB0346364ADB
:101D58001360364B1B68344A126811461846FEF762
:101D680069FB03461C46324B1B682D4A1268114614
:101D78001846FEF75FFB034619462046FEF752FA5F
:101D880003461C462B4B1B68264A12681146184608
:101D9800FEF750FB034619462046FEF743FA034672
:101DA8001A46254B1A60254B1B68234A12681146B0
:101DB8001846FEF737FA03461A46204B1A601F4B9F
:101DC8001B684FF047411846FEF7D2FC0346002B2C
:101DD80036D01A4B4FF047421A603DE0B00500205C
:101DE8003C09002078000020400900203002002033
:101DF800C4080020C6080020C8080020D008002019
:101E0800D4080020CC080020100900201409002064
:101E180018090020DC080020D808002000FEFF4632
:101E2800E4080020E8080020E00800202409002039
:101E3800280900202C090020F0080020EC080020C8
:101E4800314B1B6831491846FEF7B0FC0346002B9E
:101E580002D02D4B2D4A1A602D4B1B682D4A13605A
:101E68002D4B1B682A4A13602C4BB3F900305B4298
:101E78001846FEF78BFA0346274A1360284B1B685F
:101E8800254A126811461846FEF7D4FA03461C463E
:101E9800244B1B681E4A126811461846FEF7CAFAF8
:101EA800034619462046FEF7BDF903461C461E4B5D
:101EB8001B68184A126811461846FEF7BBFA034613
:101EC80019462046FEF7AEF903461A46174B1A6024
:101ED800174B1B68154A126811461846FEF7A2F9F7
:101EE80003461A46124B1A60114B1B684FF04741C4
:101EF8001846FEF73DFC0346002B1BD00C4B4FF059
:101F080047421A6022E000BFEC08002000FEFF46AE
:101F1800F8080020FC080020F4080020C808002069
:101F28003009002034090020380900200409002065
:101F380000090020A44B1B68A4491846FEF736FC8C
:101F48000346002B02D0A04BA04A1A60A04B1B6886
:101F58001846FEF71BFA04469E4B1B684FF08E414D
:101F68001846FEF71BFB03461D469B4B1B6818468D
:101F7800FEF70CFA034619462846FEF75BFA0346B5
:101F880019462046FEF74CF903461C46934B1B683E
:101F98004FF08E411846FEF701FB03461D468E4B57
:101FA8001B681846FEF7F2F9034619462846FEF75D
:101FB80041FA034619462046FEF732F903461C4605
:101FC800814B1B684FF08E411846FEF7E7FA03462F
:101FD8001D46814B1B681846FEF7D8F9034619467B
:101FE8002846FEF727FA034619462046FEF71AF94F
:101FF80003461846FEF70AFC03469BB21946012021
:10200800FFF786FC724B1B681846FEF7BFF90446BB
:10201800704B1B684FF08E411846FEF7BFFA034617
:102028001D466D4B1B681846FEF7B0F90346194666
:102038002846FEF7FFF9034619462046FEF7F2F850
:1020480003461C46654B1B684FF08E411846FEF749
:10205800A5FA03461D46604B1B681846FEF796F91D
:10206800034619462846FEF7E5F903461946204671
:10207800FEF7D6F803461C46534B1B684FF08E41BB
:102088001846FEF78BFA03461D46534B1B68184645
:10209800FEF77CF9034619462846FEF7CBF90346B6
:1020A80019462046FEF7BCF803461846FEF7AEFB75
:1020B80003469BB219460220FFF72AFC444B1B68D3
:1020C8001846FEF763F90446424B1B684FF08E41F1
:1020D8001846FEF763FA03461D463F4B1B68184631
:1020E800FEF754F9034619462846FEF7A3F90346B6
:1020F80019462046FEF794F803461C46374B1B68E2
:102108004FF08E411846FEF749FA03461D46324BFA
:102118001B681846FEF73AF9034619462846FEF7A3
:1021280089F9034619462046FEF77CF803461C4603
:10213800254B1B684FF08E411846FEF72FFA0346D1
:102148001D46254B1B681846FEF720F9034619461D
:102158002846FEF76FF9034619462046FEF760F851
:1021680003461846FEF752FB03469BB21946032066
:10217800FFF7CEFB164B1B681846FEF707F9044617
:10218800144B1B684FF08E411846FEF707FA0346BA
:102198001D46114B1B681846FEF7F8F8034619460A
:1021A8002846FEF747F9034619462046FEF73AF84F
:1021B80003461C46094B1B684FF08E411846FEF734
:1021C800EDF903461D460BE00009002000FEFF461E
:1021D8003C090020D808002040090020EC08002015
:1021E8001A4B1B681846FEF7D1F8034619462846CD
:1021F800FEF720F9034619462046FEF713F8034672
:102208001C46134B1B684FF08E411846FEF7C6F963
:1022180003461D460D4B1B681846FEF7B7F80346E4
:1022280019462846FEF706F9034619462046FDF7E3
:10223800F9FF03461846FEF7E9FA03469BB219462A
:102248000420FFF765FB00BFB0BD00BF40090020B8
:102258000009002080B400AF00BFBD4680BC7047B5
:1022680080B483B000AF00237B600F4B5B6C0E4AD9
:1022780043F4804353640C4B5B6C03F480437B60F2
:102288007B6800233B60084B1B6C074A43F0805374
:102298001364054B1B6C03F080533B603B6800BF25
:1022A8000C37BD4680BC70470038024080B58AB004
:1022B80000AF786007F1140300221A605A609A6030
:1022C800DA601A617B681B684B4A934240F0908041
:1022D80000233B61494B5B6C484A43F48053536489
:1022E800464B5B6C03F480533B613B690023FB6006
:1022F800424B1B6B414A43F0010313633F4B1B6B7B
:1023080003F00103FB60FB68E0237B610223BB61F0
:102318000023FB6103233B6205237B6207F114035F
:102328001946374801F03CF8364B374A1A60354BA6
:102338004FF0C0625A60334B00229A60314B002242
:10234800DA60304B4FF480621A612E4B00225A61DA
:102358002C4B00229A612B4B0022DA61294B002278
:102368001A62284B00225A62264800F08BFC03466A
:10237800002B01D0FFF76EFF7B68224ADA64214AFE
:102388007B689363214B224A1A60204B4FF080628E
:102398005A601E4B40229A601C4B0022DA601B4B8D
:1023A8004FF480621A61194B00225A61174B0022C0
:1023B8009A61164B0022DA61144B00221A62134B01
:1023C80000225A62114800F05DFC0346002B01D040
:1023D800FFF740FF7B680D4A9A640C4A7B68936359
:1023E80000220021232000F016FC232000F02FFCFF
:1023F80000BF2837BD4680BD00300140003802408C
:10240800000002409402002010640240F402002000
:102418004064024080B584B000AF78607B681B6878
:10242800B3F1804F76D10023FB60774B1B6C764A63
:1024380043F001031364744B1B6C03F00103FB604E
:10244800FB68724B724A1A60704B4FF0C0625A6058
:102458006E4B40229A606D4B0022DA606B4B4FF452
:1024680080621A61694B4FF480525A61674B4FF48E
:1024780080429A61654B4FF48072DA61634B0022A7
:102488001A62624B00225A62604800F0FBFB034666
:10249800002B01D0FFF7DEFE7B685C4A5A625B4A7C
:1024A8007B6893635B4B5C4A1A605A4B4FF0C0627F
:1024B8005A60584B40229A60564B0022DA60554BBE
:1024C8004FF480621A61534B4FF480525A61514B5A
:1024D8004FF480429A614F4B4FF48072DA614D4B52
:1024E80000221A624B4B00225A624A4800F0CAFB8B
:1024F8000346002B01D0FFF7ADFE7B68454ADA6240
:10250800444A7B6893637B68424A1A62414A7B6803
:10251800936374E07B681B68404A93426FD1002341
:10252800BB60394B1B6C384A43F004031364364BC9
:102538001B6C03F00403BB60BB68394B394A1A6053
:10254800374B4FF080625A60354B40229A60344BCB
:102558000022DA60324B4FF480621A61304B4FF43C
:1025680080525A612E4B4FF480429A612C4B4FF4A3
:102578008072DA612A4B00221A62294B00225A62C1
:10258800274800F07FFB0346002B01D0FFF762FECF
:102598007B68234A5A62224A7B689363224B234A08
:1025A8001A60214B4FF080625A601F4B40229A609C
:1025B8001D4B0022DA601C4B4FF480621A611A4BE3
:1025C8004FF480525A61184B4FF480429A61164B6F
:1025D8004FF48072DA61144B00221A62124B002207
:1025E8005A62114800F04EFB0346002B01D0FFF75A
:1025F80031FE7B680C4A9A620B4A7B68936300BF82
:102608001037BD4680BD00BF00380240D40300200B
:10261800886002403404002028600240000800401E
:102628009404002010600240F40400205860024026
:1026380080B58AB000AF786007F1140300221A60F1
:102648005A609A60DA601A617B681B68B3F1804F40
:102658003DD100233B61314B1B6B304A43F00103F2
:1026680013632E4B1B6B03F001033B613B69002393
:10267800FB602A4B1B6B294A43F002031363274B69
:102688001B6B03F00203FB60FB6801237B610223E1
:10269800BB610023FB6100233B6201237B6207F1DE
:1026A800140319461E4800F07BFE4FF480637B61DB
:1026B8000223BB610023FB6100233B6201237B6291
:1026C80007F114031946174800F06AFE22E07B68F8
:1026D8001B68154A93421DD10023BB600F4B1B6B2F
:1026E8000E4A43F0020313630C4B1B6B03F0020307
:1026F800BB60BB68C0237B610223BB610023FB6115
:1027080000233B6202237B6207F114031946054844
:1027180000F046FE00BF2837BD4680BD00380240A5
:1027280000000240000402400008004080B58AB062
:1027380000AF786007F1140300221A605A609A60AB
:10274800DA601A617B681B681D4A934233D1002303
:102758003B611C4B1B6C1B4A43F400331364194B3D
:102768001B6C03F400333B613B690023FB60154B92
:102778001B6B144A43F001031363124B1B6B03F0EA
:102788000103FB60FB680C237B610223BB61002310
:10279800FB6103233B6207237B6207F1140319469D
:1027A800094800F0FDFD00220021262000F033FA40
:1027B800262000F04CFA00BF2837BD4680BD00BF78
:1027C80000440040003802400000024080B400AFDE
:1027D80000BFBD4680BC704780B400AFFEE780B440
:1027E80000AFFEE780B400AFFEE780B400AFFEE7BD
:1027F80080B400AF00BFBD4680BC704780B400AF56
:1028080000BFBD4680BC704780B400AF00BFBD4666
:1028180080BC704780B500AF00F0E6F800BF80BD0F
:1028280080B500AF024800F055FB00BF80BD00BF77
:102838009404002080B500AF024800F04BFB00BFB5
:1028480080BD00BF3404002080B500AF024800F00E
:1028580041FB00BF80BD00BFF404002080B500AF7D
:10286800024800F037FB00BF80BD00BFD403002042
:1028780080B500AF024802F07DFE00BF80BD00BFFA
:102888003C02002080B500AF024804F0F1F800BF18
:1028980080BD00BF5405002080B500AF024800F09D
:1028A80019FB00BF80BD00BF9402002080B500AFB7
:1028B800024800F00FFB00BF80BD00BFF4020020FB
:1028C80080B500AF024801F055F800BF80BD00BFD9
:1028D800201E002080B584B000AF7860114B1B68C3
:1028E800002B02D10F4B104A1A600E4B1B68FB607D
:1028F8000C4B1A687B6813446A46934207D9FEF763
:102908001FF903460C221A604FF0FF3306E0054B0F
:102918001A687B681344034A1360FB68184610372B
:10292800BD4680BD440900203022002080B400AF9D
:10293800034B4FF000629A6000BFBD4680BC7047F1
:1029480000ED00E080B500AF0E4B1B680D4A43F464
:10295800007313600B4B1B680A4A43F480631360CF
:10296800084B1B68074A43F480731360032000F088
:1029780047F9002000F008F8FFF772FC002318461A
:1029880080BD00BF003C024080B582B000AF7860D7
:10299800124B1A68124B1B7819464FF47A73B3FB23
:1029A800F1F3B2FBF3F3184600F05FF90346002B8E
:1029B80001D001230EE07B680F2B0AD8002279682A
:1029C8004FF0FF3000F027F9064A7B6813600023B8
:1029D80000E0012318460837BD4680BD7C00002072
:1029E800840000208000002080B400AF054B1B78D5
:1029F8001A46054B1B681344034A136000BFBD46C3
:102A080080BC7047840000204809002080B400AFD3
:102A1800024B1B681846BD4680BC70474809002019
:102A280080B584B000AF7860FFF7F0FFB8607B68CE
:102A3800FB60FB68B3F1FF3F05D00A4B1B781A46D1
:102A4800FB681344FB6000BFFFF7E0FF0246BB686A
:102A5800D31AFA689A42F7D800BF00BF1037BD46AC
:102A680080BD00BF8400002080B485B000AF7860CE
:102A78007B6803F00703FB600C4BDB68BB60BA683C
:102A88004FF6FF031340BB60FB681A02BB68134391
:102A980043F0BF6343F40033BB60044ABB68D360B0
:102AA80000BF1437BD4680BC704700BF00ED00E092
:102AB80080B400AF044BDB681B0A03F00703184619
:102AC800BD4680BC704700BF00ED00E080B483B015
:102AD80000AF0346FB7197F90730002B0BDBFB793E
:102AE80003F01F02064997F907305B09012000FA35
:102AF80002F241F8232000BF0C37BD4680BC704766
:102B080000E100E080B483B000AF03463960FB7198
:102B180097F90730002B0ADB3B68DAB20C4997F9C2
:102B280007301201D2B20B4483F800230AE03B6855
:102B3800DAB20849FB7903F00F03043B1201D2B261
:102B48000B441A7600BF0C37BD4680BC704700BFE7
:102B580000E100E000ED00E080B489B000AFF8606B
:102B6800B9607A60FB6803F00703FB61FB69C3F196
:102B78000703042B28BF0423BB61FB690433062B1E
:102B880002D9FB69033B00E000237B614FF0FF3271
:102B9800BB6902FA03F3DA43BB681A407B699A40BF
:102BA8004FF0FF317B6901FA03F3D9437B680B408F
:102BB800134318462437BD4680BC704780B582B0A1
:102BC80000AF78607B68013BB3F1807F01D30123BC
:102BD8000FE00A4A7B68013B53600F214FF0FF303A
:102BE800FFF790FF054B00229A60044B07221A60FA
:102BF800002318460837BD4680BD00BF10E000E03E
:102C080080B582B000AF78607868FFF72DFF00BF0D
:102C18000837BD4680BD80B586B000AF0346B960B1
:102C28007A60FB7300237B61FFF742FF78617A6863
:102C3800B9687869FFF790FF024697F90F30114697
:102C48001846FFF75FFF00BF1837BD4680BD80B547
:102C580082B000AF0346FB7197F907301846FFF7BB
:102C680035FF00BF0837BD4680BD80B582B000AFD4
:102C780078607868FFF7A2FF034618460837BD4614
:102C880080BD000080B586B000AF786000237B610E
:102C9800FFF7BCFE38617B68002B01D1012399E066
:102CA8007B68002283F834207B68022283F8352071
:102CB8007B681B681A687B681B6822F001021A602F
:102CC8000FE0FFF7A3FE02463B69D31A052B08D98C
:102CD8007B6820225A657B68032283F8352003230A
:102CE80078E07B681B681B6803F00103002BE8D1C0
:102CF8007B681B681B687B617A69384B13407B6172
:102D08007B685A687B689B681A437B68DB681A4350
:102D18007B681B691A437B685B691A437B689B69FC
:102D28001A437B68DB691A437B681B6A13437A6919
:102D380013437B617B685B6A042B07D17B68DA6A83
:102D48007B681B6B13437A6913437B617B681B6841
:102D58007A691A607B681B685B697B617B6923F011
:102D680007037B617B685B6A7A6913437B617B68D5
:102D78005B6A042B17D17B689B6A7A6913437B6172
:102D88007B68DB6A002B0ED0786800F08FFA034668
:102D9800002B08D07B6840225A657B68012283F8A3
:102DA8003520012316E07B681B687A695A617868C8
:102DB80000F048FA0346FB607B68DB6D3F229A40CF
:102DC800FB689A607B6800225A657B68012283F859
:102DD8003520002318461837BD4680BD3F8010F0C7
:102DE80080B586B000AFF860B9607A603B600023B8
:102DF800FB75FB689B6D3B61FB6893F83430012BD6
:102E080001D1022340E0FB68012283F83420FB68EB
:102E180093F83530DBB2012B2FD1FB68022283F8FF
:102E28003520FB6800225A653B687A68B968F868FB
:102E380000F0DAF9FB68DB6D3F229A403B699A6043
:102E4800FB681B681A68FB681B6842F016021A6068
:102E5800FB681B6C002B07D0FB681B681A68FB68B3
:102E68001B6842F008021A60FB681B681A68FB6856
:102E78001B6842F001021A6005E0FB68002283F833
:102E880034200223FB75FB7D18461837BD4680BDEC
:102E980080B483B000AF78607B6893F83530DBB2DC
:102EA800022B04D07B6880225A6501230CE07B68E2
:102EB800052283F835207B681B681A687B681B68C5
:102EC80022F001021A60002318460C37BD4680BC68
:102ED8007047000080B586B000AF78600023BB6003
:102EE800924B1B68924AA2FB03239B0A7B617B6877
:102EF8009B6D3B613B691B68FB607B68DB6D08224F
:102F08009A40FB681340002B1AD07B681B681B682B
:102F180003F00403002B13D07B681B681A687B68D6
:102F28001B6822F004021A607B68DB6D08229A4055
:102F38003B699A607B685B6D43F001027B685A6568
:102F48007B68DB6D01229A40FB681340002B12D08E
:102F58007B681B685B6903F08003002B0BD07B68E0
:102F6800DB6D01229A403B699A607B685B6D43F098
:102F780002027B685A657B68DB6D04229A40FB6815
:102F88001340002B12D07B681B681B6803F00203F8
:102F9800002B0BD07B68DB6D04229A403B699A605A
:102FA8007B685B6D43F004027B685A657B68DB6D68
:102FB80010229A40FB681340002B43D07B681B68A3
:102FC8001B6803F00803002B3CD07B68DB6D1022E4
:102FD8009A403B699A607B681B681B6803F48023EE
:102FE800002B18D07B681B681B6803F40023002B98
:102FF80008D17B681B6C002B24D07B681B6C78681D
:1030080098471FE07B689B6C002B1BD07B689B6CF0
:103018007868984716E07B681B681B6803F4807320
:10302800002B07D17B681B681A687B681B6822F035
:1030380008021A607B681B6C002B03D07B681B6C32
:10304800786898477B68DB6D20229A40FB681340BC
:10305800002B00F08E807B681B681B6803F0100350
:10306800002B00F086807B68DB6D20229A403B694C
:103078009A607B6893F83530DBB2052B36D17B68D4
:103088001B681A687B681B6822F016021A607B6846
:103098001B685A697B681B6822F080025A617B684A
:1030A8001B6C002B03D17B689B6C002B07D07B68C3
:1030B8001B681A687B681B6822F008021A607B6824
:1030C800DB6D3F229A403B699A607B68002283F857
:1030D80034207B68012283F835207B681B6D002B28
:1030E8007DD07B681B6D7868984778E07B681B68A3
:1030F8001B6803F48023002B1CD07B681B681B68AB
:1031080003F40023002B08D17B685B6C002B30D0C4
:103118007B685B6C786898472BE07B68DB6B002BDF
:1031280027D07B68DB6B7868984722E07C0000201A
:10313800B5814E1B7B681B681B6803F48073002BEA
:103148000FD17B681B681A687B681B6822F0100225
:103158001A607B68002283F834207B68012283F898
:1031680035207B68DB6B002B03D07B68DB6B7868D2
:1031780098477B685B6D002B32D07B685B6D03F0F2
:103188000103002B22D07B68052283F835207B6859
:103198001B681A687B681B6822F001021A60BB680A
:1031A8000133BB607A699A4207D37B681B681B6846
:1031B80003F00103002BF2D100E000BF7B6800227E
:1031C80083F834207B68012283F835207B68DB6C28
:1031D800002B05D07B68DB6C7868984700E000BF5F
:1031E8001837BD4680BD00BF80B485B000AFF86019
:1031F800B9607A603B60FB681B681A68FB681B68EB
:1032080022F480221A60FB681B683A685A60FB68DF
:103218009B68402B08D1FB681B687A689A60FB683A
:103228001B68BA68DA6007E0FB681B68BA689A60CE
:10323800FB681B687A68DA6000BF1437BD4680BC3B
:103248007047000080B485B000AF78607B681B6869
:10325800DBB2103B134AA2FB03231B09FB60124A93
:10326800FB6813441B781A467B68DA65FB68032BF6
:1032780009D97B681B6823F47F7323F003031A1DA5
:103288007B689A6507E07B681B6823F47F7323F0EB
:1032980003037A6893657B689B6D18461437BD46AF
:1032A80080BC7047ABAAAAAA50AE000880B485B00B
:1032B80000AF78600023FB737B689B6ABB607B6808
:1032C8009B69002B1FD1BB68032B56D801A252F86B
:1032D80023F000BFED320008FF320008ED3200088D
:1032E800833300087B68DB6A03F08073002B46D0C9
:1032F8000123FB7343E07B68DB6AB3F1C07F40D1F5
:103308000123FB733DE07B689B69B3F5005F21D126
:10331800BB68032B37D801A252F823F035330008D5
:103328003B330008353300084D3300080123FB7395
:1033380030E07B68DB6A03F08073002B25D0012323
:10334800FB7322E07B68DB6AB3F1C07F1FD10123E6
:10335800FB731CE0BB68022B03D9BB68032B03D0AB
:1033680018E00123FB7315E07B68DB6A03F08073C8
:10337800002B0ED00123FB730BE000BF0AE000BF57
:1033880008E000BF06E000BF04E000BF02E000BFA5
:1033980000E000BFFB7B18461437BD4680BC704771
:1033A80080B489B000AF7860396000237B61002366
:1033B8003B610023BB610023FB6159E10122FB69EA
:1033C80002FA03F37B613B681B687A6913403B612F
:1033D8003A697B699A4240F048813B685B68012BF7
:1033E8000BD03B685B68022B07D03B685B68112BEE
:1033F80003D03B685B68122B30D17B689B68BB614C
:10340800FB695B00032202FA03F3DB43BA6913404A
:10341800BB613B68DA68FB695B0002FA03F3BA69CF
:103428001343BB617B68BA699A607B685B68BB6160
:103438000122FB6902FA03F3DB43BA691340BB615B
:103448003B685B681B0903F00102FB6902FA03F39E
:10345800BA691343BB617B68BA695A607B68DB68E9
:10346800BB61FB695B00032202FA03F3DB43BA6921
:103478001340BB613B689A68FB695B0002FA03F37F
:10348800BA691343BB617B68BA69DA603B685B68F9
:10349800022B03D03B685B68122B23D1FB69DA0847
:1034A8007B68083253F82230BB61FB6903F00703DD
:1034B8009B000F2202FA03F3DB43BA691340BB6196
:1034C8003B681A69FB6903F007039B0002FA03F3E0
:1034D800BA691343BB61FB69DA087B680832B969CA
:1034E80043F822107B681B68BB61FB695B00032201
:1034F80002FA03F3DB43BA691340BB613B685B68BC
:1035080003F00302FB695B0002FA03F3BA69134391
:10351800BB617B68BA691A603B685B6803F08053DB
:10352800002B00F0A2800023FB60564B5B6C554AD1
:1035380043F480435364534B5B6C03F48043FB6058
:10354800FB68514AFB699B08023352F82330BB6180
:10355800FB6903F003039B000F2202FA03F3DB432A
:10356800BA691340BB617B68484A934219D07B68AB
:10357800474A934213D07B68464A93420DD07B68F2
:10358800454A934207D07B68444A934201D10423B9
:1035980008E0072306E0032304E0022302E00123F6
:1035A80000E00023FA6902F0030292009340BA692E
:1035B8001343BB613449FB699B080233BA6941F87C
:1035C8002320374B1B68BB613B69DB43BA69134057
:1035D800BB613B685B6803F48033002B03D0BA6996
:1035E8003B691343BB612E4ABB6913602C4B5B6874
:1035F800BB613B69DB43BA691340BB613B685B68ED
:1036080003F40033002B03D0BA693B691343BB6151
:10361800234ABB695360224B9B68BB613B69DB4310
:10362800BA691340BB613B685B6803F48013002BE5
:1036380003D0BA693B691343BB61194ABB699360FC
:10364800174BDB68BB613B69DB43BA691340BB615D
:103658003B685B6803F40013002B03D0BA693B692D
:103668001343BB610E4ABB69D360FB690133FB613D
:10367800FB690F2B7FF6A2AE00BF00BF2437BD4603
:1036880080BC70470038024000380140000002400A
:103698000004024000080240000C024000100240F2
:1036A800003C014080B483B000AF78600B467B805B
:1036B80013467B707B78002B03D07A887B689A61ED
:1036C80003E07B881A047B689A6100BF0C37BD460B
:1036D80080BC7047F0B58FB00AAF78607B68002B6C
:1036E80001D101230FE17B681B68BB607B6893F8FD
:1036F800BD33DBB2002B06D17B68002283F8BC23E4
:10370800786807F049F87B68032283F8BD23BB6813
:10371800DB6B03F48073002B02D17B6800221A61F3
:103728007B681B68184604F089F87B681B683B6057
:103738007E686D4606F110040FCC0FC50FCC0FC57F
:1037480094E8030085E80300331D0ECB386803F0C6
:1037580061FF0346002B05D07B68022283F8BD2356
:103768000123D0E07B681B680021184604F076F836
:103778000023FB734AE0FA7B79681346DB009B1A47
:103788009B000B443D3301221A70FA7B796813467B
:10379800DB009B1A9B000B443C33FA7B1A70FA7BC4
:1037A800FB7B98B279681346DB009B1A9B000B449D
:1037B800423302461A80FA7B79681346DB009B1A6B
:1037C8009B000B443F3300221A70FA7B796813463A
:1037D800DB009B1A9B000B44443300221A60FA7BDF
:1037E80079681346DB009B1A9B000B444833002280
:1037F8001A60FA7B79681346DB009B1A9B000B441E
:10380800503300221A60FB7B0133FB73FA7B7B6821
:103818005B689A42AFD30023FB7344E0FA7B796874
:103828001346DB009B1A9B000B4403F2FD13002296
:103838001A70FA7B79681346DB009B1A9B000B44CD
:1038480003F5FE73FA7B1A70FA7B79681346DB007E
:103858009B1A9B000B4403F2FF1300221A70FA7B99
:1038680079681346DB009B1A9B000B4403F5017330
:1038780000221A60FA7B79681346DB009B1A9B00CA
:103888000B4403F5027300221A60FA7B7968134629
:10389800DB009B1A9B000B4403F5047300221A609B
:1038A800FB7B0133FB73FA7B7B685B689A42B5D379
:1038B8007B681B683B607E686D4606F110040FCC80
:1038C8000FC50FCC0FC594E8030085E80300331D2E
:1038D8000ECB386803F0ECFF0346002B05D07B685D
:1038E800022283F8BD2301230DE07B68002283F8C0
:1038F80038207B68012283F8BD237B681B68184643
:1039080005F025F8002318461437BD46F0BD80B5EC
:1039180084B000AF78607B681B68FB607B6893F8B5
:10392800BC33012B01D1022320E07B68012283F8FC
:10393800BC237B689B6A012B09D17B689B69012B9F
:1039480005D0FB689B6B43F48032FB689A637B6805
:103958001B68184603F062FF7B681B68184604F072
:10396800D6FF7B68002283F8BC2300231846103753
:10397800BD4680BD90B58DB000AF78607B681B6890
:103988003B623B6AFB617B681B68184605F08DF853
:103998000346002B40F09D837B681B68184604F0A3
:1039A800F6FF0346002B00F093837B681B681846DC
:1039B80004F0EDFF034603F00203022B07D17B68F6
:1039C8001B685A697B681B6802F002025A617B68AF
:1039D8001B68184604F0DBFF034603F01003102BA6
:1039E80061D17B681B689A697B681B6822F01002AA
:1039F8009A613B6A1B6ABB61BB6903F00F021346FD
:103A0800DB009B1A9B0003F5FC737A6813440433AC
:103A18007B61BB695B0C03F00F03022B24D1BA69ED
:103A280047F6F0731340002B35D07B69D968BB6922
:103A38001B099BB2C3F30A039BB21A46386A04F007
:103A480047FE7B69DA68BB691B09C3F30A031A449A
:103A58007B69DA607B699A69BB691B09C3F30A034E
:103A68001A447B699A6116E0BB695B0C03F00F038B
:103A7800062B10D17B6803F5717308221946386A42
:103A880004F026FE7B699A69BB691B09C3F30A0324
:103A98001A447B699A617B681B689A697B681B6812
:103AA80042F010029A617B681B68184604F06FFFA9
:103AB800034603F40023B3F5002F6ED100237B6285
:103AC8007B681B68184604F074FFB86262E0BB6A42
:103AD80003F00103002B57D07B681B687A6AD2B2C7
:103AE8001146184604F097FF38613B6903F001035B
:103AF800002B0CD07B6A5A01FB69134403F5306331
:103B08001A4601239360796A786800F0AFFD3B6933
:103B180003F00803002B0CD07B6A5A01FB6913449D
:103B280003F530631A4608239360796A786800F0D1
:103B3800A9FE3B6903F01003002B08D07B6A5A01E9
:103B4800FB69134403F530631A46102393603B69FD
:103B580003F02003002B08D07B6A5A01FB69134449
:103B680003F530631A46202393603B6903F400533E
:103B7800002B09D07B6A5A01FB69134403F53063B3
:103B88001A464FF4005393607B6A01337B62BB6A29
:103B98005B08BB62BB6A002B99D17B681B6818461F
:103BA80004F0F5FE034603F48023B3F5802F40F0BC
:103BB800C0807B681B68184604F014FFB8620023B5
:103BC8007B62B2E0BB6A03F00103002B00F0A78020
:103BD8007B681B687A6AD2B21146184604F038FF2F
:103BE80038613B6903F00103002B57D07B6A03F06F
:103BF8000F03012202FA03F3FB60FB6903F500637C
:103C08005A6BFB68DB43F96901F5006113404B63AC
:103C18007B6A5A01FB69134403F510631A460123B2
:103C280093607B681B69012B32D179687A6A1346E5
:103C3800DB009B1A9B000B444833196878687A6A42
:103C48001346DB009B1A9B00034444331B6819444A
:103C580078687A6A1346DB009B1A9B000344483352
:103C680019607B6A002B13D179687A6A1346DB00E6
:103C78009B1A9B000B4450331B68002B08D17B68B0
:103C880018687B6803F571731A46012104F03CFF3C
:103C98007B6ADBB21946786806F0FFFD3B6903F0E2
:103CA8000803002B08D07B6A5A01FB69134403F50B
:103CB80010631A46082393603B6903F01003002B36
:103CC80008D07B6A5A01FB69134403F510631A464E
:103CD800102393603B6903F04003002B08D07B6AF4
:103CE8005A01FB69134403F510631A464023936095
:103CF8003B6903F00203002B08D07B6A5A01FB6979
:103D0800134403F510631A46022393603B6903F0DA
:103D18008003002B03D0796A786800F01AFC7B6A6C
:103D280001337B62BB6A5B08BB62BB6A002B7FF412
:103D380049AF7B681B68184604F029FE034603F068
:103D48000043B3F1004F22D1FB6903F500635B68C0
:103D5800FA6902F5006223F0010353607B6893F867
:103D6800F433012B08D17B68002283F8F423002167
:103D7800786800F023FE02E0786806F0FBFD7B68B7
:103D88001B685A697B681B6802F000425A617B68AD
:103D98001B68184604F0FBFD034603F40063B3F503
:103DA800006F12D1FB6903F500639B6803F0010300
:103DB800012B02D1786806F0B7FD7B681B685A6949
:103DC8007B681B6802F400625A617B681B681846AE
:103DD80004F0DDFD034603F48053B3F5805F40F043
:103DE800C780FB6903F500635B68FA6902F5006246
:103DF80023F0010353607B681B681021184603F009
:103E0800BBFE0023FB6256E0FB6A5A01FB691344C0
:103E180003F510631A464FF67F339360FB6A5A0125
:103E2800FB69134403F510631B68FA6A5101FA69C8
:103E38000A4402F5106223F400131360FB6A5A0166
:103E4800FB69134403F510631B68FA6A5101FA69A8
:103E58000A4402F5106243F000631360FB6A5A01DA
:103E6800FB69134403F530631A464FF67F339360BA
:103E7800FB6A5A01FB69134403F530631B68FA6A4D
:103E88005101FA690A4402F5306223F40013136001
:103E9800FB6A5A01FB69134403F530631B68FA6A2D
:103EA8005101FA690A4402F5306243F00063136075
:103EB800FB6A0133FB627B685B68FA6A9A42A3D3A8
:103EC800FB6903F50063DB69FA6902F5006243F0F8
:103ED8000113D3617B681B6B002B16D0FB6903F5BC
:103EE8000063D3F88430FA6902F5006243F00B03EB
:103EF800C2F88430FB6903F500635B6CFA6902F56C
:103F0800006243F00B03536415E0FB6903F500639B
:103F18005B69FA6902F5006243F4005343F02B032E
:103F28005361FB6903F500631B69FA6902F50062D6
:103F380043F00B031361FB6903F500631B68FA691F
:103F480002F5006223F4FE6313607B6818687B68DF
:103F58001B69D9B27B6803F571731A4604F0D4FD66
:103F68007B681B685A697B681B6802F480525A6137
:103F78007B681B68184604F00AFD034603F40053E7
:103F8800B3F5005F24D17B681B68184604F09AFDDE
:103F98007B681B68184603F04BFE03461A467B688D
:103FA800DA607B681C6801F04DF901467B68DB68C4
:103FB800DBB21A46204603F08FFB786806F095FCC2
:103FC8007B681B685A697B681B6802F400525A6157
:103FD8007B681B68184604F0DAFC034603F0080304
:103FE800082B0AD1786806F072FC7B681B685A694E
:103FF8007B681B6802F008025A617B681B681846D8
:1040080004F0C5FC034603F48013B3F5801F0FD1F9
:1040180000237B627B6ADBB21946786806F0CAFC2B
:104028007B681B685A697B681B6802F480125A61B6
:104038007B681B68184604F0AAFC034603F40013C7
:10404800B3F5001F0FD100237B627B6ADBB21946F0
:10405800786806F09DFC7B681B685A697B681B685A
:1040680002F400125A617B681B68184604F08FFC42
:10407800034603F08043B3F1804F0AD1786806F015
:10408800ABFC7B681B685A697B681B6802F080423E
:104098005A617B681B68184604F079FC034603F0F4
:1040A8000403042B15D17B681B685B68BB61BB6983
:1040B80003F00403002B02D0786806F09BFC7B68B1
:1040C8001B6859687B681B68BA690A435A6000E034
:1040D80000BF3437BD4690BD80B582B000AF786070
:1040E8000B46FB707B6893F8BC33012B01D102238C
:1040F80013E07B68012283F8BC237B68FA7883F895
:1041080038207B681B68FA781146184604F0DAFBF9
:104118007B68002283F8BC23002318460837BD4675
:1041280080BD80B584B000AF7860084611461A4655
:104138000346FB700B463B801346BB700023FB72A3
:1041480097F90330002B0FDAFB7803F00F021346C0
:10415800DB009B1A9B0038337A6813440433FB60F6
:10416800FB6801225A700FE0FB7803F00F02134638
:10417800DB009B1A9B0003F5FC737A681344043335
:10418800FB60FB6800225A70FB7803F00F03DAB279
:10419800FB681A703A88FB689A60FB68BA78DA702C
:1041A800FB685B78002B04D0FB681B789AB2FB682D
:1041B800DA80BB78022B02D1FB6800221A717B6877
:1041C80093F8BC33012B01D102230EE07B68012256
:1041D80083F8BC237B681B68F968184603F04CFD1C
:1041E8007B68002283F8BC23FB7A18461037BD464B
:1041F80080BD80B584B000AF78600B46FB7097F93E
:104208000330002B0FDAFB7803F00F021346DB00B4
:104218009B1A9B0038337A6813440433FB60FB68AD
:1042280001225A700FE0FB7803F00F021346DB00FF
:104238009B1A9B0003F5FC737A6813440433FB60F4
:10424800FB6800225A70FB7803F00F03DAB2FB68B0
:104258001A707B6893F8BC33012B01D102230EE05E
:104268007B68012283F8BC237B681B68F9681846C1
:1042780003F088FD7B68002283F8BC2300231846DE
:104288001037BD4680BD80B586B000AFF8607A6053
:104298003B600B46FB72FB7A03F00F021346DB0010
:1042A8009B1A9B0003F5FC73FA68134404337B6183
:1042B8007B697A68DA607B693A685A617B690022AF
:1042C8009A617B6900225A70FB7A03F00F03DAB215
:1042D8007B691A70FB681B69012B02D17A687B69BC
:1042E8001A61FB7A03F00F03002B09D1FB681868E9
:1042F800FB681B69DBB21A46796904F063F808E0C9
:10430800FB681868FB681B69DBB21A46796903F019
:1043180015FE002318461837BD4680BD80B483B00B
:1043280000AF78600B46FB70FB7803F00F027968EA
:104338001346DB009B1A9B000B4403F505731B68AF
:1043480018460C37BD4680BC704780B586B000AFB4
:10435800F8607A603B600B46FB72FB7A03F00F0251
:104368001346DB009B1A9B003833FA681344043366
:104378007B617B697A68DA607B693A685A617B6934
:1043880000229A617B6901225A70FB7A03F00F03BD
:10439800DAB27B691A70FB681B69012B02D17A6853
:1043A8007B691A61FB7A03F00F03002B09D1FB68C4
:1043B8001868FB681B69DBB21A46796904F002F8D1
:1043C80008E0FB681868FB681B69DBB21A46796964
:1043D80003F0B4FD002318461837BD4680BD80B5EC
:1043E80084B000AF78600B46FB70FB7803F00F02D7
:1043F8007B685B689A4201D9012350E097F9033042
:10440800002B0FDAFB7803F00F021346DB009B1A30
:104418009B0038337A6813440433FB60FB6801223D
:104428005A700DE0FA781346DB009B1A9B0003F5DF
:10443800FC737A6813440433FB60FB6800225A70EB
:10444800FB6801229A70FB7803F00F03DAB2FB686D
:104458001A707B6893F8BC33012B01D102231EE04C
:104468007B68012283F8BC237B681B68F9681846BF
:1044780004F056F9FB7803F00F03002B0AD17B6890
:1044880018687B681B69D9B27B6803F571731A4693
:1044980004F03AFB7B68002283F8BC23002318460B
:1044A8001037BD4680BD80B584B000AF78600B463C
:1044B800FB70FB7803F00F027B685B689A4201D9B6
:1044C800012342E097F90330002B0FDAFB7803F061
:1044D8000F021346DB009B1A9B0038337A6813449B
:1044E8000433FB60FB6801225A700FE0FB7803F08D
:1044F8000F021346DB009B1A9B0003F5FC737A68D6
:1045080013440433FB60FB6800225A70FB680022E6
:104518009A70FB7803F00F03DAB2FB681A707B68B5
:1045280093F8BC33012B01D102230EE07B680122F2
:1045380083F8BC237B681B68F968184604F05DF9AA
:104548007B68002283F8BC23002318461037BD4639
:1045580080BD80B58AB002AF786039607B681B681F
:104568007B617B693B613A681346DB009B1A9B00C1
:1045780038337A6813440433FB60FB689A69FB6834
:104588005B699A4201D901236CE0FB685A69FB68B0
:104598009B69D31AFB61FB689B68FA699A4202D946
:1045A800FB689B68FB61FB6903339B08BB612BE0DD
:1045B800FB685A69FB689B69D31AFB61FB689B68B7
:1045C800FA699A4202D9FB689B68FB61FB6903336D
:1045D8009B08BB61FB68D9683B68DAB2FB6998B293
:1045E8007B681B69DBB200930346786904F03CF8EA
:1045F800FB68DA68FB691A44FB68DA60FB689A6949
:10460800FB691A44FB689A613B685A013B69134489
:1046180003F510639B699BB2BA699A4209D8FB6893
:104628009A69FB685B699A4203D2FB685B69002B55
:10463800BED1FB685A69FB689B699A4211D83B68EE
:1046480003F00F03012202FA03F3BB603B6903F591
:1046580000635A6BBB68DB43396901F5006113409D
:104668004B63002318462037BD4680BD80B586B011
:1046780000AF786039607B681B687B617B693B6150
:104688007B693C3304331B68FB603B685A013B6918
:10469800134403F530639B68BB607B681B69012B7F
:1046A80040F0A080BB6803F00803002B15D0FB681E
:1046B800724A934240F2DD80BB6803F40043002B4A
:1046C80000F0D7803B685A013B69134403F5306317
:1046D8001A464FF400439360CBE0BB6803F0200315
:1046E800002B09D03B685A013B69134403F530633A
:1046F8001A4620239360BCE0BB6803F02803002B14
:1047080040F0B780FB685D4A93420FD9BB6803F459
:104718000043002B0AD03B685A013B69134403F558
:1047280030631A464FF400439360A2E079683A6810
:104738001346DB009B1A9B000B4403F501731A68B0
:104748003B6859013B690B4403F530631B69C3F3AC
:104758001203D11A78683A681346DB009B1A9B004B
:10476800034403F50573196079683A681346DB005A
:104778009B1A9B000B4403F50273196878683A6822
:104788001346DB009B1A9B00034403F501731B6867
:10479800194478683A681346DB009B1A9B00034467
:1047A80003F5027319603B68002B14D179683A68E5
:1047B8001346DB009B1A9B000B4403F504731B682C
:1047C800002B08D17B6818687B6803F571731A465B
:1047D800012104F099F93B68DBB21946786806F0C4
:1047E80041F846E0FB68264A934224D1BB6803F4AB
:1047F8000043002B0AD03B685A013B69134403F578
:1048080030631A464FF40043936032E0BB6803F00C
:104818002003002B08D03B685A013B69134403F579
:1048280030631A46202393603B68DBB219467868E8
:1048380006F018F81DE03B68002B14D179683A6837
:104848001346DB009B1A9B000B4403F504731B689B
:10485800002B08D17B6818687B6803F571731A46CA
:10486800002104F051F93B68DBB21946786805F07D
:10487800F9FF002318461837BD4680BD0A30544F4B
:104888000A31544F80B586B000AF786039607B68D4
:104898001B687B617B693B617B693C3304331B6824
:1048A800FB603B685A013B69134403F530639B681E
:1048B800BB60FB68154A93420ED9BB6803F40043FA
:1048C800002B09D03B685A013B69134403F5306358
:1048D8001A464FF400439360786805F0B1FFFB680F
:1048E8000A4A93420CD97B681B69012B08D17B6863
:1048F80018687B6803F571731A46012104F004F9FE
:10490800002318461837BD4680BD00BF0A30544FF3
:1049180080B485B000AF78600B46FB7013463B80CF
:104928007B681B685B6ABB60FB78002B07D13B8800
:1049380019047B681B68BA680A439A6228E07B6896
:104948001B689B6A1B0CBA681344BB600023FB738B
:104958000DE07B681A68FB7B40339B0013445B685F
:104968001B0CBA681344BB60FB7B0133FB73FA7BF7
:10497800FB78013B9A42ECD33B8818047B681968A2
:10498800FB78013BBA68024340339B000B445A60F2
:10499800002318461437BD4680BC704780B483B0E6
:1049A80000AF78600B467B807B681B687A885A6208
:1049B800002318460C37BD4680BC704780B483B0CE
:1049C80000AF78600B46FB7000BF0C37BD4680BC5B
:1049D8007047000080B586B000AF78607B68002B18
:1049E80001D101235BE27B681B6803F00103002B04
:1049F80075D0A34B9B6803F00C03042B0CD0A04B81
:104A08009B6803F00C03082B12D19D4B5B6803F4E1
:104A18008003B3F5800F0BD1994B1B6803F4003367
:104A2800002B5BD07B685B68002B57D1012336E2F3
:104A38007B685B68B3F5803F06D1914B1B68904A51
:104A480043F4803313601DE07B685B68B3F5A02FE7
:104A58000CD18B4B1B688A4A43F480231360884B24
:104A68001B68874A43F4803313600BE0844B1B6850
:104A7800834A23F480331360814B1B68804A23F4F4
:104A8800802313607B685B68002B13D0FDF7BEFFA3
:104A9800386108E0FDF7BAFF02463B69D31A642B78
:104AA80001D90323FBE1764B1B6803F40033002B89
:104AB800F0D014E0FDF7AAFF386108E0FDF7A6FF83
:104AC80002463B69D31A642B01D90323E7E16C4BF7
:104AD8001B6803F40033002BF0D100E000BF7B68B3
:104AE8001B6803F00203002B63D0654B9B6803F03F
:104AF8000C03002B0BD0624B9B6803F00C03082BB4
:104B08001CD15F4B5B6803F48003002B16D15C4B10
:104B18001B6803F00203002B05D07B68DB68012BC0
:104B280001D00123BBE1564B1B6823F0F8027B68D8
:104B38001B69DB00524913430B603AE07B68DB6872
:104B4800002B20D04F4B01221A60FDF75FFF386120
:104B580008E0FDF75BFF02463B69D31A022B01D937
:104B680003239CE1464B1B6803F00203002BF0D0A3
:104B7800434B1B6823F0F8027B681B69DB00404944
:104B880013430B6015E03F4B00221A60FDF73EFF10
:104B9800386108E0FDF73AFF02463B69D31A022B59
:104BA80001D903237BE1364B1B6803F00203002B7A
:104BB800F0D17B681B6803F00803002B30D07B68BA
:104BC8005B69002B16D0304B01221A60FDF71EFFDF
:104BD800386108E0FDF71AFF02463B69D31A022B39
:104BE80001D903235BE1264B5B6F03F00203002B23
:104BF800F0D015E0244B00221A60FDF707FF38615A
:104C080008E0FDF703FF02463B69D31A022B01D9DE
:104C1800032344E11A4B5B6F03F00203002BF0D12E
:104C28007B681B6803F00403002B00F0A0800023BE
:104C3800FB75134B1B6C03F08053002B0FD1002323
:104C4800BB600F4B1B6C0E4A43F0805313640C4B34
:104C58001B6C03F08053BB60BB680123FB750B4BD7
:104C68001B6803F48073002B21D1084B1B68074A8B
:104C780043F480731360FDF7C9FE386111E000BF8B
:104C88000038024000004742800E47420070004052
:104C9800FDF7BCFE02463B69D31A022B01D9032358
:104CA800FDE0814B1B6803F48073002BF0D07B6818
:104CB8009B68012B06D17D4B1B6F7C4A43F0010397
:104CC80013671CE07B689B68052B0CD1774B1B6F27
:104CD800764A43F004031367744B1B6F734A43F01F
:104CE800010313670BE0714B1B6F704A23F001033C
:104CF80013676E4B1B6F6D4A23F0040313677B68C1
:104D08009B68002B15D0FDF781FE38610AE0FDF79E
:104D18007DFE02463B69D31A41F28832934201D99B
:104D28000323BCE0614B1B6F03F00203002BEED0A2
:104D380014E0FDF76BFE38610AE0FDF767FE0246F6
:104D48003B69D31A41F28832934201D90323A6E082
:104D5800564B1B6F03F00203002BEED1FB7D012B9A
:104D680005D1524B1B6C514A23F0805313647B6866
:104D78009B69002B00F092804C4B9B6803F00C035E
:104D8800082B5CD07B689B69022B41D1484B0022E1
:104D98001A60FDF73BFE386108E0FDF737FE024672
:104DA8003B69D31A022B01D9032378E03F4B1B68D8
:104DB80003F00073002BF0D17B68DA697B681B6A0B
:104DC8001A437B685B6A9B011A437B689B6A5B0892
:104DD800013B1B041A437B68DB6A1B0633491343F8
:104DE8004B60334B01221A60FDF710FE386108E072
:104DF800FDF70CFE02463B69D31A022B01D90323A7
:104E08004DE02A4B1B6803F00073002BF0D045E0FF
:104E1800274B00221A60FDF7F9FD386108E0FDF71D
:104E2800F5FD02463B69D31A022B01D9032336E06C
:104E38001E4B1B6803F00073002BF0D12EE07B683B
:104E48009B69012B01D1012329E0184B5B68FB60AA
:104E5800FB6803F480027B68DB699A421CD1FB681B
:104E680003F03F027B681B6A9A4215D1FA6847F63D
:104E7800C07313407A68526A93420DD1FB6803F4F9
:104E880040327B689B6A9A4206D1FB6803F07062E5
:104E98007B68DB6A9A4201D0012300E000231846B0
:104EA8001837BD4680BD00BF007000400038024082
:104EB8006000474280B584B000AF786039607B6895
:104EC800002B01D10123CCE0684B1B6803F00F03D2
:104ED8003A689A420CD9654B3A68D2B21A70634B59
:104EE8001B6803F00F033A689A4201D00123B8E027
:104EF8007B681B6803F00203002B20D07B681B68CB
:104F080003F00403002B05D0594B9B68584A43F41F
:104F1800E05393607B681B6803F00803002B05D0FF
:104F2800534B9B68524A43F460439360504B9B68D1
:104F380023F0F0027B689B684D4913438B607B68C4
:104F48001B6803F00103002B44D07B685B68012BCE
:104F580007D1474B1B6803F40033002B19D10123F9
:104F68007FE07B685B68022B03D07B685B68032B60
:104F780007D13F4B1B6803F00073002B09D10123B5
:104F88006FE03B4B1B6803F00203002B01D10123A8
:104F980067E0374B9B6823F003027B685B68344902
:104FA80013438B60FDF732FDF8600AE0FDF72EFD34
:104FB8000246FB68D31A41F28832934201D903238F
:104FC8004FE02B4B9B6803F00C027B685B689B00EF
:104FD8009A42EBD1254B1B6803F00F033A689A42BB
:104FE8000CD2224B3A68D2B21A70204B1B6803F0DD
:104FF8000F033A689A4201D0012332E07B681B68AC
:1050080003F00403002B08D0194B9B6823F4E052EB
:105018007B68DB68164913438B607B681B6803F069
:105028000803002B09D0124B9B6823F460427B686D
:105038001B69DB000E4913438B6000F021F8024620
:105048000B4B9B681B0903F00F030A49CB5C22FA40
:1050580003F3094A1360094B1B681846FDF794FCD3
:10506800002318461037BD4680BD00BF003C0240F3
:105078000038024038AE00087C0000208000002084
:105088002DE9B04384B000AF00237B600023FB60B0
:1050980000233B600023BB60674B9B6803F00C0355
:1050A800082B0DD0082B00F2BD80002B02D0042B5A
:1050B80003D0B7E0614BBB60B7E0614BBB60B4E0C5
:1050C8005D4B5B6803F03F037B605B4B5B6803F4FD
:1050D8008003002B4DD0584B5B689B091A464FF054
:1050E800000340F2FF104FF0000102EA000803EA53
:1050F8000109404649464FF000024FF000034B01BA
:1051080043EAD063420110461946B0EB080061EB50
:1051180009014FF000024FF000038B0143EA90634E
:105128008201121A63EB01034FF000004FF00001F7
:10513800D90041EA5271D00002460B4612EB080230
:1051480043EB09034FF000004FF00001590241EA18
:10515800D251500202460B46104619467B681A4641
:105168004FF00003FBF772FB02460B461346FB6049
:105178004AE0314B5B689B091A464FF0000340F246
:10518800FF104FF0000102EA000403EA010520467F
:1051980029464FF000024FF000034B0143EAD06369
:1051A800420110461946001B61EB05014FF0000251
:1051B8004FF000038B0143EA90638201121A63EBFC
:1051C80001034FF000004FF00001D90041EA52718D
:1051D800D00002460B46121945EB03034FF00000BE
:1051E8004FF00001990241EA9251900202460B46A3
:1051F800104619467B681A464FF00003FBF726FB5A
:1052080002460B461346FB600B4B5B681B0C03F016
:10521800030301335B003B60FA683B68B2FBF3F3BE
:10522800BB6002E0054BBB6000BFBB681846103787
:10523800BD46BDE8B08300BF003802400024F4003A
:1052480000127A0080B400AF024B1B681846BD46B6
:1052580080BC70477C00002080B500AFFFF7F2FFEC
:105268000246054B9B689B0A03F007030349CB5C86
:1052780022FA03F3184680BD0038024048AE000801
:1052880080B500AFFFF7DEFF0246054B9B685B0B5E
:1052980003F007030349CB5C22FA03F3184680BDE9
:1052A8000038024048AE000880B582B000AF786090
:1052B8007B68002B01D1012356E07B6800229A62AB
:1052C8007B6893F85130DBB2002B06D17B68002253
:1052D80083F850207868FCF7E9FF7B68022283F89E
:1052E80051207B681B681A687B681B6822F04002A3
:1052F8001A607B685A687B689B681A437B68DB681E
:105308001A437B681B691A437B685B691A437B688D
:105318009B6903F400731A437B68DB691A437B6853
:105328001B6A42EA03017B689A6A7B681B680A4326
:105338001A607B689B691B0C03F004017B685A6A3E
:105348007B681B680A435A607B681B68DA697B685C
:105358001B6822F40062DA617B6800225A657B6868
:10536800012283F85120002318460837BD4680BD26
:1053780080B586B000AFF860B9607A607B800023A2
:10538800FB75FB6893F85030012B01D10223E3E051
:10539800FB68012283F85020FB6893F85130BB75F5
:1053A800FB685B683B61BB7D012B0DD03B69B3F5A6
:1053B800827F06D1FB689B68002B02D1BB7D042B42
:1053C80002D00223FB75C2E0BB68002B05D07B68C6
:1053D800002B02D07B88002B02D10123FB75B6E09D
:1053E800FB6893F85130DBB2042B03D0FB6805222D
:1053F80083F85120FB6800225A65FB68BA681A6373
:10540800FB687A889A86FB687A88DA86FB687A6805
:105418009A63FB687A889A87FB687A88DA87FB68D8
:1054280000221A64FB6800225A64FB6893F8513022
:10543800DBB2042B08D1FB68DB6C494A1A64FB68B1
:10544800DB6C484ADA6307E0FB68DB6C464A1A649F
:10545800FB68DB6C454ADA63FB68DB6C444ADA6458
:10546800FB68DB6C00221A65FB68D86CFB681B685C
:105478000C331946FB689B6B1A46FB68DB8F9BB2A3
:10548800FDF7AEFC0346002B0CD0FB685B6D43F0C8
:105498001002FB685A650123FB75FB68012283F83B
:1054A800512054E0FB681B685A68FB681B6842F08F
:1054B80001025A60FB689B6C00221A64FB689B6CB3
:1054C8000022DA63FB689B6C0022DA64FB689B6C41
:1054D80000221A65FB68986CFB681B6B1946FB6811
:1054E8001B680C331A46FB68DB8E9BB2FDF778FC11
:1054F8000346002B0CD0FB685B6D43F01002FB6881
:105508005A650123FB75FB68012283F851201EE0D0
:10551800FB681B681B6803F04003402B07D0FB683F
:105528001B681A68FB681B6842F040021A60FB6837
:105538001B685A68FB681B6842F020025A60FB68C7
:105548001B685A68FB681B6842F002025A60FB68D5
:10555800002283F85020FB7D18461837BD4680BDD1
:10556800FD580008C5570008195900086D5800086B
:105578003559000880B588B000AF78607B681B6833
:105588005B68FB617B681B689B68BB61BB699B09A7
:1055980003F00103002B0FD1BB6903F00103002BBB
:1055A8000AD0FB699B0903F00103002B04D07B6838
:1055B8001B6C78689847D7E0BB695B0803F0010368
:1055C800002B0AD0FB69DB0903F00103002B04D090
:1055D8007B685B6C78689847C6E0BB695B0903F039
:1055E8000103002B0CD1BB699B0903F00103002BBD
:1055F80006D1BB691B0A03F00103002B00F0B4803D
:10560800FB695B0903F00103002B00F0AD80BB6967
:105618009B0903F00103002B23D07B6893F85130DA
:10562800DBB2032B11D07B685B6D43F004027B680F
:105638005A6500237B617B681B68DB687B617B683C
:105648001B689B687B617B690BE000233B617B687F
:105658001B68DB683B617B681B689B683B613B6937
:1056680082E0BB695B0903F00103002B14D07B685F
:105678005B6D43F001027B685A650023FB607B6821
:105688001B689B68FB607B681B681A687B681B68E3
:1056980022F040021A60FB68BB691B0A03F0010391
:1056A800002B0CD07B685B6D43F008027B685A6561
:1056B8000023BB607B681B689B68BB60BB687B681A
:1056C8005B6D002B4FD07B681B685A687B681B6832
:1056D80022F0E0025A607B68012283F85120FB69BE
:1056E80003F00203002B04D1FB6903F00103002B34
:1056F80034D07B681B685A687B681B6822F00302F9
:105708005A607B68DB6C002B11D07B68DB6C184A15
:105718001A657B68DB6C1846FDF7BAFB0346002B5D
:1057280005D07B685B6D43F040027B685A657B68F7
:105738009B6C002B16D07B689B6C0D4A1A657B68A6
:105748009B6C1846FDF7A4FB0346002B0AD07B6828
:105758005B6D43F040027B685A6503E0786800F0AF
:1057680024F800E000BF00BF2037BD4680BD00BF61
:105778007559000880B483B000AF786000BF0C375B
:10578800BD4680BC704780B483B000AF786000BF6E
:105798000C37BD4680BC704780B483B000AF7860DA
:1057A80000BF0C37BD4680BC704780B483B000AFE3
:1057B800786000BF0C37BD4680BC704780B584B0A8
:1057C80000AF78607B689B6BFB60FDF71FF9B860E2
:1057D8007B681B681B6803F48073B3F5807F3BD03C
:1057E800FB681B685A68FB681B6822F020025A6035
:1057F800FB689B68002B0DD1FB685B68B3F5827F63
:1058080008D1FB681B685A68FB681B6822F0030212
:105818005A6007E0FB681B685A68FB681B6822F03F
:1058280001025A60BA686421F86800F01DF903465D
:10583800002B02D0FB6820225A65FB680022DA8719
:10584800FB68012283F85120FB685B6D002B03D0B5
:10585800F868FFF7AAFF02E0F868FFF78BFF103738
:10586800BD4680BD80B584B000AF78607B689B6B17
:10587800FB60FDF7CBF8B8607B681B681B6803F416
:105888008073B3F5807F2FD0FB681B685A68FB686C
:105898001B6822F020025A60BA686421F86800F098
:1058A80049F90346002B05D0FB685B6D43F02002E5
:1058B800FB685A65FB681B685A68FB681B6822F01E
:1058C80003025A60FB680022DA86FB680022DA8746
:1058D800FB68012283F85120FB685B6D002B03D025
:1058E800F868FFF762FF02E0F868FBF7CDFB1037B6
:1058F800BD4680BD80B584B000AF78607B689B6B87
:10590800FB60F868FFF73FFF00BF1037BD4680BD5A
:1059180080B584B000AF78607B689B6BFB60F868EB
:10592800FFF73AFF00BF1037BD4680BD80B584B091
:1059380000AF78607B689B6BFB60FB681B685A68EC
:10594800FB681B6822F003025A60FB685B6D43F03A
:105958001002FB685A65FB68012283F85120F86839
:10596800FFF723FF00BF1037BD4680BD80B584B068
:1059780000AF78607B689B6BFB60FB680022DA876E
:10598800FB680022DA86F868FFF70FFF00BF1037C0
:10599800BD4680BD80B584B000AFF860B9603B609B
:1059A8001346FB714CE03B68B3F1FF3F48D0FDF76D
:1059B8002DF80246BB69D31A3A689A4202D93B6865
:1059C800002B3DD1FB681B685A68FB681B6822F0F6
:1059D800E0025A60FB685B68B3F5827F11D1FB680F
:1059E8009B68B3F5004F04D0FB689B68B3F5806FE4
:1059F80007D1FB681B681A68FB681B6822F0400225
:105A08001A60FB689B6AB3F5005F0FD1FB681B68DF
:105A18001A68FB681B6822F400521A60FB681B684E
:105A28001A68FB681B6842F400521A60FB6801227E
:105A380083F85120FB68002283F8502003230FE0ED
:105A4800FB681B689A68BB681340BA689A420CBF27
:105A580001230023DBB21A46FB799A42A3D1002323
:105A680018461037BD4680BD80B586B002AFF860D5
:105A7800B9607A60FB685B68B3F5827F11D1FB6817
:105A88009B68B3F5004F04D0FB689B68B3F5806F43
:105A980007D1FB681B681A68FB681B6822F0400284
:105AA8001A60FB685B68B3F5827F2AD1FB689B6844
:105AB800B3F5806F12D07B680093BB680022802109
:105AC800F868FFF767FF0346002B2DD0FB685B6D76
