:020000040800F2
:1000000000000220C5880008857D0008917D000859
:10001000997D0008A17D0008A97D0008000000006E
:10002000000000000000000000000000B17D00089A
:10003000BD7D000800000000C97D0008D57D0008D6
:100040001589000815890008158900081589000818
:100050001589000815890008158900081589000808
:10006000158900081589000815890008E17D000838
:10007000F57D000815890008097E0008158900082B
:100080001D7E000815890008158900080000000081
:1000900000000000000000000000000015890008BA
:1000A00015890008158900081589000815890008B8
:1000B00015890008158900081589000815890008A8
:1000C0001589000815890008158900081589000898
:1000D0001589000815890008317E0008000000001D
:1000E000158900081589000815890008000000001E
:1000F000000000000000000000000000158900085A
:1001000000000000158900081589000815890008FD
:1001100000000000000000000000000000000000DF
:100120001589000815890008158900081589000837
:100130001589000800000000000000000000000019
:10014000000000000000000000000000457E0008E4
:100150001589000815890008158900081589000807
:100160001589000815890008000000000000000043
:10017000000000000000000000000000000000007F
:1001800000000000158900080000000000000000C9
:0801900015890008158900081B
:1001A00010B5054C237833B9044B13B10448AFF3B1
:1001B00000800123237010BDE40100200000000036
:1001C000E4910008084B10B51BB108490848AFF38B
:1001D00000800848036803B910BD074B002BFBD013
:1001E000BDE81040184700BF00000000E8010020F3
:1001F000E4910008E40100200000000053B94AB96E
:10020000002908BF00281CBF4FF0FF314FF0FF301E
:1002100000F07EB9ADF1080C6DE904CE00F006F8EF
:10022000DDF804E0DDE9022304B070472DE9F04772
:100230008C460E460446089D002B50D18A42174634
:100240006CD9B2FA82FEBEF1000F0BD0CEF12004C1
:1002500020FA04F401FA0EF644EA060C02FA0EF74C
:1002600000FA0EF44FEA1749220CBCFBF9F01FFA12
:1002700087F809FB10C642EA064600FB08F3B342C2
:1002800009D9F61900F1FF3280F02281B34240F221
:100290001F8102383E44F61AA2B2B6FBF9F309FBFD
:1002A000136642EA064403FB08F8A04509D9E4199D
:1002B00003F1FF3280F00A81A04540F20781023B42
:1002C0003C44C8EB040443EA00400021002D62D006
:1002D00024FA0EF400232C606B60BDE8F0878B429B
:1002E00007D9002D55D0002185E841000846BDE81A
:1002F000F087B3FA83F1002940F09080B34202D333
:10030000824200F2F880841A66EB03060120B446AC
:10031000002D40D085E81010BDE8F08712B9012704
:10032000B7FBF2F7B7FA87FEBEF1000F35D1F31B2A
:100330004FEA17481FFA87FC0121B3FBF8F0220CA3
:1003400008FB103642EA06460CFB00F3B34207D91D
:10035000F61900F1FF3202D2B34200F2CE8010460D
:10036000F61AA2B2B6FBF8F308FB136642EA06449B
:100370000CFB03FCA44507D9E41903F1FF3202D2B8
:10038000A44500F2B5801346CCEB040443EA0040D8
:100390009CE729462846BDE8F087CEF1200106FA01
:1003A0000EF307FA0EF720FA01F94FEA1748CE408C
:1003B00049EA0309B6FBF8FA4FEA194408FB1A6642
:1003C0001FFA87FC44EA06430AFB0CF29A4200FA41
:1003D0000EF40AD9DB190AF1FF3180F087809A42C6
:1003E00040F28480AAF1020A3B449B1A1FFA89F961
:1003F000B3FBF8F108FB113349EA034301FB0CF6A8
:100400009E4207D9DB1901F1FF326BD29E4269D9B6
:1004100002393B449B1B41EA0A418EE7C1F1200EA1
:1004200022FA0EF48B40234320FA0EF706FA01F469
:100430004FEA134C26FA0EF63C43B6FBFCF9270CA8
:100440000CFB19661FFA83F847EA064609FB08F712
:10045000B74202FA01F200FA01FA08D9F61809F1D6
:10046000FF3041D2B7423FD9A9F102091E44F61B21
:10047000A0B2B6FBFCF40CFB146640EA064704FB92
:1004800008F8B84507D9FF1804F1FF3028D2B8455D
:1004900026D9023C1F4444EA0940C8EB0707A0FBE9
:1004A00002894F4544464E4614D329D065B3BAEB72
:1004B000040367EB060707FA0EFECB40CF404EEA77
:1004C000030385E888000021BDE8F0871346F8E6BD
:1004D0001046E0E6B8EB020469EB03060138E5E7F5
:1004E0000446D8E7114695E78146C0E78A467CE78F
:1004F000023B3C4448E708460AE702383E442FE7FF
:10050000C245E7D33E46D1E72946BDE8F08700BFA4
:10051000704700BF00000000000000000000000065
:1005200001F0FF01102A2BDB10F0070F08D010F8A4
:10053000013B013A8B422DD010F0070F42B3F6D1A8
:10054000F0B441EA012141EA014122F007047FF0C1
:1005500000070023F0E80256083C85EA010586EA18
:10056000010685FA47F5A3FA87F586FA47F6A5FA54
:1005700087F68EB9EED1F0BC01F0FF0102F0070260
:1005800032B110F8013B013A83EA010313B1F8D10B
:100590000020704701387047002D06BF35460338EC
:1005A000073815F0010F07D1013015F4807F02BF25
:1005B000013015F4C03F0130F0BC0138704700BF76
:1005C00080B500AF0E4A0E4B1B6843F400731360F6
:1005D0000B4A0B4B1B6843F480631360084A084BBB
:1005E0001B6843F480731360032000F043F900207C
:1005F00000F008F807F0C4F90023184680BD00BFDA
:10060000003C024080B582B000AF7860124B1A689F
:10061000124B1B7819464FF47A73B3FBF1F3B2FB1C
:10062000F3F3184600F05CF90346002B01D00123D8
:100630000EE07B680F2B0AD8002279684FF0FF305C
:1006400000F024F9064A7B681360002300E00123D0
:1006500018460837BD4680BD180100200400002060
:100660000000002080B400AF054B1B781A46054BF4
:100670001B681344034A136000BFBD4680BC70472B
:10068000040000200002002080B400AF024B1B6871
:100690001846BD4680BC70470002002080B584B07B
:1006A00000AF7860FFF7F0FFB8607B68FB60FB6825
:1006B000B3F1FF3F05D0094B1B781A46FB68134482
:1006C000FB6000BFFFF7E0FF0246BB68D21AFB6881
:1006D0009A42F7D300BF1037BD4680BD040000200A
:1006E00080B485B000AF78607B6803F00703FB60DF
:1006F0000C4BDB68BB60BA684FF6FF031340BB606E
:10070000FB681A02BB68134343F0BF6343F4003332
:10071000BB60044ABB68D36000BF1437BD4680BCD1
:10072000704700BF00ED00E080B400AF044BDB6811
:1007300003F4E0631B0A1846BD4680BC704700BF47
:1007400000ED00E080B483B000AF0346FB7197F981
:100750000730002B0BDB084997F907305B09FA7962
:1007600002F01F02012000FA02F241F8232000BF2C
:100770000C37BD4680BC704700E100E080B483B018
:1007800000AF03463960FB7197F90730002B0ADB95
:100790000D4997F907303A68D2B21201D2B20B4430
:1007A00083F800230AE00949FB7903F00F03043BB7
:1007B0003A68D2B21201D2B20B441A7600BF0C379B
:1007C000BD4680BC704700BF00E100E000ED00E0E6
:1007D00080B489B000AFF860B9607A60FB6803F05C
:1007E0000703FB61FB69C3F10703042B28BF042344
:1007F000BB61FB690433062B02D9FB69033B00E0B4
:1008000000237B610122BB6902FA03F35A1EBB6815
:100810001A407B699A4001217B6901FA03F3591E52
:100820007B680B40134318462437BD4680BC704795
:1008300080B582B000AF78607B68013BB3F1807F08
:1008400001D301230FE00A4A7B68013B53600F216B
:100850004FF0FF30FFF792FF054B00229A60044BE8
:1008600007221A60002318460837BD4680BD00BF26
:1008700010E000E080B582B000AF78607868FFF7E4
:100880002FFF00BF0837BD4680BD00BF80B586B0D2
:1008900000AF0346B9607A60FB7300237B61FFF70A
:1008A00043FF78617A68B9687869FFF791FF02467B
:1008B00097F90F3011461846FFF760FF00BF183751
:1008C000BD4680BD80B582B000AF0346FB7197F98D
:1008D00007301846FFF736FF00BF0837BD4680BD1A
:1008E00080B582B000AF78607868FFF7A1FF03465B
:1008F00018460837BD4680BD80B586B000AF786029
:1009000000237B61FFF7C0FE38617B68002B01D1BB
:10091000012399E07B68002283F834207B6802225F
:1009200083F835207B681B687A681268126822F0A9
:1009300001021A600FE0FFF7A7FE02463B69D31AD7
:10094000052B08D97B6820225A657B68032283F82F
:100950003520032378E07B681B681B6803F00103E4
:10096000002BE8D17B681B681B687B617A69384B78
:1009700013407B617B685A687B689B681A437B687D
:10098000DB681A437B681B691A437B685B691A43FF
:100990007B689B691A437B68DB691A437B681B6A27
:1009A00013437A6913437B617B685B6A042B07D12D
:1009B0007B68DA6A7B681B6B13437A6913437B613C
:1009C0007B681B687A691A607B681B685B697B615E
:1009D0007B6923F007037B617B685B6A7A69134359
:1009E0007B617B685B6A042B17D17B689B6A7A69A1
:1009F00013437B617B68DB6A002B0ED0786800F0C4
:100A000009FA0346002B08D07B6840225A657B68B0
:100A1000012283F83520012316E07B681B687A6980
:100A20005A61786800F0C2F90346FB607B68DB6DB1
:100A30003F229A40FB689A607B6800225A657B6877
:100A4000012283F83520002318461837BD4680BDA3
:100A50003F8010F080B483B000AF78607B6893F87B
:100A60003530DBB2022B04D07B6880225A6501232B
:100A70000CE07B68052283F835207B681B687A6868
:100A80001268126822F001021A60002318460C371F
:100A9000BD4680BC704700BF80B586B000AF7860AF
:100AA0000023BB60924B1B68924AA2FB03239B0A64
:100AB0007B617B689B6D3B613B691B68FB607B686E
:100AC000DB6D08229A40FB681340002B1AD07B682C
:100AD0001B681B6803F00403002B13D07B681B68A2
:100AE0007A681268126822F004021A607B68DB6D73
:100AF00008229A403B699A607B685B6D43F0010273
:100B00007B685A657B68DB6D01229A40FB68134065
:100B1000002B12D07B681B685B6903F08003002BFD
:100B20000BD07B68DB6D01229A403B699A607B6841
:100B30005B6D43F002027B685A657B68DB6D0422C3
:100B40009A40FB681340002B12D07B681B681B681F
:100B500003F00203002B0BD07B68DB6D04229A406C
:100B60003B699A607B685B6D43F004027B685A6561
:100B70007B68DB6D10229A40FB681340002B43D04A
:100B80007B681B681B6803F00803002B3CD07B6864
:100B9000DB6D10229A403B699A607B681B681B687A
:100BA00003F48023002B18D07B681B681B6803F4B8
:100BB0000023002B08D17B681B6C002B24D07B68A2
:100BC0001B6C786898471FE07B689B6C002B1BD0E0
:100BD0007B689B6C7868984716E07B681B681B688D
:100BE00003F48073002B07D17B681B687A68126856
:100BF000126822F008021A607B681B6C002B03D07D
:100C00007B681B6C786898477B68DB6D20229A4074
:100C1000FB681340002B00F08E807B681B681B680C
:100C200003F01003002B00F086807B68DB6D202230
:100C30009A403B699A607B6893F83530DBB2052BAC
:100C400036D17B681B687A681268126822F0160237
:100C50001A607B681B687A681268526922F0800209
:100C60005A617B681B6C002B03D17B689B6C002B4B
:100C700007D07B681B687A681268126822F0080245
:100C80001A607B68DB6D3F229A403B699A607B6803
:100C9000002283F834207B68012283F835207B68AA
:100CA0001B6D002B7DD07B681B6D7868984778E0C2
:100CB0007B681B681B6803F48023002B1CD07B68B7
:100CC0001B681B6803F40023002B08D17B685B6C56
:100CD000002B30D07B685B6C786898472BE07B6892
:100CE000DB6B002B27D07B68DB6B7868984722E0B2
:100CF00018010020B5814E1B7B681B681B6803F43C
:100D00008073002B0FD17B681B687A6812681268A9
:100D100022F010021A607B68002283F834207B687E
:100D2000012283F835207B68DB6B002B03D07B68C6
:100D3000DB6B786898477B685B6D002B32D07B68F3
:100D40005B6D03F00103002B22D07B68052283F842
:100D500035207B681B687A681268126822F00102ED
:100D60001A60BB680133BB607A69934207D87B681D
:100D70001B681B6803F00103002BF2D100E000BFE9
:100D80007B68002283F834207B68012283F83520B9
:100D90007B68DB6C002B05D07B68DB6C7868984740
:100DA00000E000BF1837BD4680BD00BF80B485B0ED
:100DB00000AF78607B681B68DBB2103B134AA2FB74
:100DC00003231B09FB60124AFB6813441B781A4675
:100DD0007B68DA65FB68032B09D97B681B6823F401
:100DE0007F7323F003031A1D7B689A6507E07B6815
:100DF0001B6823F47F7323F003037A6893657B6891
:100E00009B6D18461437BD4680BC7047ABAAAAAA92
:100E10004C92000880B485B000AF78600023FB736B
:100E20007B689B6ABB607B689B69002B1FD1BB689A
:100E3000032B55D801A252F823F000BF4D0E000835
:100E40005F0E00084D0E0008E10E00087B68DB6AAB
:100E500003F08073002B45D00123FB7342E07B68D5
:100E6000DB6AB3F1C07F3FD10123FB733CE07B68B9
:100E70009B69B3F5005F21D1BB68032B36D801A273
:100E800052F823F0950E00089B0E0008950E0008FE
:100E9000AD0E00080123FB732FE07B68DB6A03F0D3
:100EA0008073002B24D00123FB7321E07B68DB6A75
:100EB000B3F1C07F1ED10123FB731BE0BB68022B83
:100EC00002D9032B03D018E00123FB7315E07B68E4
:100ED000DB6A03F08073002B0ED00123FB730BE061
:100EE00000BF0AE000BF08E000BF06E000BF04E06A
:100EF00000BF02E000BF00E000BFFB7B18461437D4
:100F0000BD4680BC704700BF80B489B000AF786038
:100F1000396000237B6100233B610023BB61002318
:100F2000FB6159E10122FB6902FA03F37B613B6833
:100F30001A687B6913403B613A697B699A4240F0C9
:100F400048813B685B68012B0BD03B685B68022BD8
:100F500007D03B685B68112B03D03B685B68122BA2
:100F600030D17B689B68BB61FB695B00032202FA9E
:100F700003F3DB43BA691340BB613B68DA68FB6982
:100F80005B0002FA03F3BA691343BB617B68BA6979
:100F90009A607B685B68BB610122FB6902FA03F31C
:100FA000DB43BA691340BB613B685B681B0903F014
:100FB0000102FB6902FA03F3BA691343BB617B6860
:100FC000BA695A607B68DB68BB61FB695B0003221E
:100FD00002FA03F3DB43BA691340BB613B689A68CA
:100FE000FB695B0002FA03F3BA691343BB617B68D8
:100FF000BA69DA603B685B68022B03D03B685B68C8
:10100000122B23D1FB69DA087B68083253F82230AF
:10101000BB61FB6903F007039B000F2202FA03F395
:10102000DB43BA691340BB613B681A69FB6903F093
:1010300007039B0002FA03F3BA691343BB61FB6920
:10104000DA087B680832B96943F822107B681B68AC
:10105000BB61FB695B00032202FA03F3DB43BA695D
:101060001340BB613B685B6803F00302FB695B00F4
:1010700002FA03F3BA691343BB617B68BA691A6069
:101080003B685B6803F08053002B00F0A2800023D4
:10109000FB60564A554B5B6C43F480435364534B9F
:1010A0005B6C03F48043FB60FB68514AFB699B085F
:1010B000023352F82330BB61FB6903F003039B004A
:1010C0000F2202FA03F3DB43BA691340BB617B686A
:1010D000484A934219D07B68474A934213D07B68B1
:1010E000464A93420DD07B68454A934207D07B68BD
:1010F000444A934201D1042308E0072306E0032376
:1011000004E0022302E0012300E00023FA6902F078
:10111000030292009340BA691343BB613449FB69EF
:101120009B080233BA6941F82320374B1B68BB6127
:101130003B69DB43BA691340BB613B685B6803F4FE
:101140008033002B03D0BA693B691343BB612E4A3D
:10115000BB6913602C4B5B68BB613B69DB43BA69BD
:101160001340BB613B685B6803F40033002B03D082
:10117000BA693B691343BB61234ABB695360224B85
:101180009B68BB613B69DB43BA691340BB613B6849
:101190005B6803F48013002B03D0BA693B691343E7
:1011A000BB61194ABB699360174BDB68BB613B6944
:1011B000DB43BA691340BB613B685B6803F400130F
:1011C000002B03D0BA693B691343BB610E4ABB696C
:1011D000D360FB690133FB61FB690F2B7FF6A2AE85
:1011E00000BF2437BD4680BC704700BF00380240B6
:1011F00000380140000002400004024000080240A4
:10120000000C024000100240003C0140F0B58FB0DD
:101210000AAF78607B68002B01D101230FE17B6866
:101220001B68BB607B6893F8BD33DBB2002B06D133
:101230007B68002283F8BC23786806F039FF7B685E
:10124000032283F8BD23BB68DB6B03F48073002BA0
:1012500002D17B6800221A617B681B68184603F084
:10126000CBF97B681B683B607E686D4606F1100415
:101270000FCC0FC50FCC0FC594E8030085E8030021
:10128000331D0ECB386803F0A3F80346002B05D0BE
:101290007B68022283F8BD230123D0E07B681B68B2
:1012A0000021184603F0B8F90023FB734AE0FA7BEB
:1012B00079681346DB009B1A9B000B443D330122E7
:1012C0001A70FA7B79681346DB009B1A9B000B446B
:1012D0003C33FA7B1A70FA7BFB7B98B27968134631
:1012E000DB009B1A9B000B44423302461A80FA7BB8
:1012F00079681346DB009B1A9B000B443F330022A6
:101300001A70FA7B79681346DB009B1A9B000B442A
:10131000443300221A60FA7B79681346DB009B1A7B
:101320009B000B44483300221A60FA7B796813460D
:10133000DB009B1A9B000B44503300221A60FB7B9E
:101340000133FB73FA7B7B685B689A42AFD300235F
:10135000FB7344E0FA7B79681346DB009B1A9B0021
:101360000B4403F2FD1300221A70FA7B79681346CE
:10137000DB009B1A9B000B4403F5FE73FA7B1A708B
:10138000FA7B79681346DB009B1A9B000B4403F23F
:10139000FF1300221A70FA7B79681346DB009B1A50
:1013A0009B000B4403F5017300221A60FA7B7968F5
:1013B0001346DB009B1A9B000B4403F502730022CB
:1013C0001A60FA7B79681346DB009B1A9B000B447A
:1013D00003F5047300221A60FB7B0133FB73FA7B75
:1013E0007B685B689A42B5D37B681B683B607E680C
:1013F0006D4606F110040FCC0FC50FCC0FC594E855
:10140000030085E80300331D0ECB386803F02EF986
:101410000346002B05D07B68022283F8BD230123FD
:101420000DE07B68002283F838207B68012283F876
:10143000BD237B681B68184604F09AF90023184600
:101440001437BD46F0BD00BF80B584B000AF7860F2
:101450007B681B68FB607B6893F8BC33012B01D170
:10146000022320E07B68012283F8BC237B689B6A0F
:10147000012B09D17B689B69012B05D0FB689B6B15
:1014800043F48032FB689A637B681B68184604F05B
:1014900055F97B681B68184603F09EF87B680022AC
:1014A00083F8BC23002318461037BD4680BD00BF1B
:1014B00090B58DB000AF78607B681B683B623B6A7B
:1014C000FB617B681B68184604F0FEF90346002B9D
:1014D00040F09F837B681B68184604F063F903465D
:1014E000002B00F095837B681B68184604F05AF9BE
:1014F000034603F00203002B07D07B681B687A6861
:101500001268526902F002025A617B681B68184631
:1015100004F048F9034603F01003002B61D07B6808
:101520001B687A681268926922F010029A613B6A1D
:101530001B6ABB61BB6903F00F021346DB009B1AF9
:101540009B0003F5FC737A68134404337B61BB6929
:101550005B0C03F00F03022B24D1BA6947F6F0733A
:101560001340002B35D07B69D968BB691B099BB23E
:10157000C3F30A039BB21A46386A03F0B3FF7B69D0
:10158000DA68BB691B09C3F30A031A447B69DA6092
:101590007B699A69BB691B09C3F30A031A447B6917
:1015A0009A6116E0BB695B0C03F00F03062B10D1A8
:1015B0007B6803F5717308221946386A03F092FFBD
:1015C0007B699A69BB691B09C3F30A031A447B69E7
:1015D0009A617B681B687A681268926942F010020F
:1015E0009A617B681B68184604F0DCF8034603F434
:1015F0000023002B6ED000237B627B681B6818469B
:1016000004F0E2F8B86262E0BB6A03F00103002B69
:1016100057D07B681B687A6AD2B21146184604F02C
:1016200007F938613B6903F00103002B0CD07B6A9A
:101630005A01FB69134403F530631A460123936092
:10164000796A786800F0B6FD3B6903F00803002B67
:101650000CD07B6A5A01FB69134403F530631A46C8
:1016600008239360796A786800F0B0FE3B6903F064
:101670001003002B08D07B6A5A01FB69134403F561
:1016800030631A46102393603B6903F02003002B5C
:1016900008D07B6A5A01FB69134403F530631A468C
:1016A000202393603B6903F40053002B09D07B6A2D
:1016B0005A01FB69134403F530631A464FF4005393
:1016C00093607B6A01337B62BB6A5B08BB62BB6A67
:1016D000002B99D17B681B68184604F063F8034619
:1016E00003F48023002B00F0C1807B681B68184640
:1016F00004F084F8B86200237B62B3E0BB6A03F0B5
:101700000103002B00F0A8807B681B687A6AD2B2C4
:101710001146184604F0AAF838613B6903F001034A
:10172000002B58D07B6A03F00F03012202FA03F367
:10173000FB60FB6903F500631946FB6903F5006371
:101740005A6BFB68DB4313404B637B6A5A01FB69AE
:10175000134403F510631A46012393607B681B69E9
:10176000012B32D179687A6A1346DB009B1A9B0001
:101770000B444833196878687A6A1346DB009B1A71
:101780009B00034444331B68194478687A6A134603
:10179000DB009B1A9B000344483319607B6A002BD3
:1017A00013D179687A6A1346DB009B1A9B000B44BD
:1017B00050331B68002B08D17B6818687B6803F5E1
:1017C00071731A46012104F0B1F87B6ADBB2194645
:1017D000786806F0EFFC3B6903F00803002B08D0A3
:1017E0007B6A5A01FB69134403F510631A46082308
:1017F00093603B6903F01003002B08D07B6A5A0109
:10180000FB69134403F510631A46102393603B6988
:1018100003F04003002B08D07B6A5A01FB69134494
:1018200003F510631A46402393603B6903F00203FB
:10183000002B08D07B6A5A01FB69134403F510633F
:101840001A46022393603B6903F08003002B03D008
:10185000796A786800F020FC7B6A01337B62BB6A9E
:101860005B08BB62BB6A002B7FF448AF7B681B68D8
:10187000184603F097FF0346002B23DAFB6903F5B4
:1018800000631A46FB6903F500635B6823F00103FC
:1018900053607B6893F8F433012B08D17B680022F6
:1018A00083F8F4230021786800F02CFE02E07868C9
:1018B00006F0EEFC7B681B687A681268526902F0D9
:1018C00000425A617B681B68184603F06BFF0346B1
:1018D00003F40063002B12D0FB6903F500639B68DF
:1018E00003F00103002B02D0786806F0A9FC7B68A6
:1018F0001B687A681268526902F400625A617B6858
:101900001B68184603F04EFF034603F48053002B78
:1019100000F0D280FB6903F500631A46FB6903F50A
:1019200000635B6823F0010353607B681B68102130
:10193000184602F0FBFF0023FB625AE0FB6A5A01E3
:10194000FB69134403F510631A464FF67F33936027
:10195000FB6A5A01FB69134403F510631946FB6ADD
:101960005A01FB69134403F510631B6823F4001349
:101970000B60FB6A5A01FB69134403F510631946B7
:10198000FB6A5A01FB69134403F510631B6843F0BB
:1019900000630B60FB6A5A01FB69134403F5306373
:1019A0001A464FF67F339360FB6A5A01FB69134472
:1019B00003F530631946FB6A5A01FB69134403F5CA
:1019C00030631B6823F400130B60FB6A5A01FB6948
:1019D000134403F530631946FB6A5A01FB6913444B
:1019E00003F530631B6843F000630B60FB6A01334F
:1019F000FB627B685A68FB6A9A429FD8FB6903F5D1
:101A000000631A46FB6903F50063DB6943F00113C9
:101A1000D3617B681B6B002B18D0FB6903F5006357
:101A20001A46FB6903F50063D3F8843043F00B03D7
:101A3000C2F88430FB6903F500631A46FB6903F5BD
:101A400000635B6C43F00B03536417E0FB6903F521
:101A500000631A46FB6903F500635B6943F40053B6
:101A600043F02B035361FB6903F500631A46FB69DE
:101A700003F500631B6943F00B031361FB6903F576
:101A800000631A46FB6903F500631B6823F4FE63D9
:101A900013607B6818687B681B69D9B27B6803F5A3
:101AA00071731A4603F042FF7B681B687A681268FC
:101AB000526902F480525A617B681B68184603F031
:101AC00071FE034603F40053002B24D07B681B688F
:101AD000184603F007FF7B681B68184602F084FF76
:101AE00003461A467B68DA607B681C6801F040F99F
:101AF00001467B68DB68DBB21A46204602F0CAFC6E
:101B0000786806F07FFB7B681B687A681268526908
:101B100002F400525A617B681B68184603F042FECB
:101B2000034603F00803002B0AD0786806F05CFB3C
:101B30007B681B687A681268526902F008025A6171
:101B40007B681B68184603F02DFE034603F48013E0
:101B5000002B0FD000237B627B6ADBB219467868CA
:101B600006F0B6FB7B681B687A681268526902F45B
:101B700080125A617B681B68184603F013FE034607
:101B800003F40013002B0FD000237B627B6ADBB2CF
:101B90001946786806F08AFB7B681B687A681268C9
:101BA000526902F400125A617B681B68184603F000
:101BB000F9FD034603F08043002B0AD0786806F055
:101BC00099FB7B681B687A681268526902F0804250
:101BD0005A617B681B68184603F0E4FD034603F076
:101BE0000403002B15D07B681B685B68BB61BB6975
:101BF00003F00403002B02D0786806F089FB7B68B1
:101C00001B687A6812685168BA690A435A6000E032
:101C100000BF3437BD4690BD80B582B000AF78605C
:101C20000B46FB707B6893F8BC33012B01D1022378
:101C300013E07B68012283F8BC237B68FA7883F881
:101C400038207B681B68FA781146184603F04EFD71
:101C50007B68002283F8BC23002318460837BD4662
:101C600080BD00BF80B584B000AF786008461146E3
:101C70001A460346FB700B463B801346BB7000239D
:101C8000FB7297F90330002B0FDAFB7803F00F0299
:101C90001346DB009B1A9B0038337A6813440433E5
:101CA000FB60FB6801225A700FE0FB7803F00F0223
:101CB0001346DB009B1A9B0003F5FC737A68134400
:101CC0000433FB60FB6800225A70FB7803F00F03BB
:101CD000DAB2FB681A703A88FB689A60FB68BA78D7
:101CE000DA70FB685B78002B04D0FB681B789AB233
:101CF000FB68DA80BB78022B02D1FB6800221A71E4
:101D00007B6893F8BC33012B01D102230EE07B6882
:101D1000012283F8BC237B681B68F968184602F02F
:101D200087FE7B68002283F8BC23FB7A18461037B5
:101D3000BD4680BD80B584B000AF78600B46FB70B7
:101D400097F90330002B0FDAFB7803F00F021346EC
:101D5000DB009B1A9B0038337A6813440433FB6022
:101D6000FB6801225A700FE0FB7803F00F02134664
:101D7000DB009B1A9B0003F5FC737A681344043361
:101D8000FB60FB6800225A70FB7803F00F03DAB2A5
:101D9000FB681A707B6893F8BC33012B01D10223D6
:101DA0000EE07B68012283F8BC237B681B68F9681E
:101DB000184602F0C7FE7B68002283F8BC2300238C
:101DC00018461037BD4680BD80B586B000AFF860BC
:101DD0007A603B600B46FB72FB7A03F00F021346FE
:101DE000DB009B1A9B0003F5FC73FA681344043371
:101DF0007B617B697A68DA607B693A685A617B69E2
:101E000000229A617B6900225A70FB7A03F00F036B
:101E1000DAB27B691A70FB681B69012B02D17A6800
:101E20007B691A61FB7A03F00F03002B09D1FB6871
:101E30001868FB681B69DBB21A46796903F0BCF9C4
:101E400008E0FB681868FB681B69DBB21A46796911
:101E500002F056FF002318461837BD4680BD00BF6C
:101E600080B483B000AF78600B46FB70FB7803F062
:101E70000F0279681346DB009B1A9B000B4403F5A5
:101E800005731B6818460C37BD4680BC704700BF01
:101E900080B586B000AFF8607A603B600B46FB729D
:101EA000FB7A03F00F021346DB009B1A9B003833CA
:101EB000FA68134404337B617B697A68DA607B6972
:101EC0003A685A617B6900229A617B6901225A70E3
:101ED000FB7A03F00F03DAB27B691A70FB681B69A7
:101EE000012B02D17A687B691A61FB7A03F00F0338
:101EF000002B09D1FB681868FB681B69DBB21A4626
:101F0000796903F059F908E0FB681868FB681B69F8
:101F1000DBB21A46796902F0F3FE0023184618373F
:101F2000BD4680BD80B584B000AF78600B46FB70C5
:101F3000FB7803F00F027B685B689A4201D90123AA
:101F400050E097F90330002B0FDAFB7803F00F0213
:101F50001346DB009B1A9B0038337A681344043322
:101F6000FB60FB6801225A700DE0FA781346DB0033
:101F70009B1A9B0003F5FC737A6813440433FB60DF
:101F8000FB6800225A70FB6801229A70FB7803F00C
:101F90000F03DAB2FB681A707B6893F8BC33012B2D
:101FA00001D102231EE07B68012283F8BC237B68F9
:101FB0001B68F968184603F0BDFAFB7803F00F03BD
:101FC000002B0AD17B6818687B681B69D9B27B68D3
:101FD00003F571731A4603F0A9FC7B68002283F8AD
:101FE000BC23002318461037BD4680BD80B584B0A1
:101FF00000AF78600B46FB70FB7803F00F027B6844
:102000005B689A4201D9012342E097F90330002B23
:102010000FDAFB7803F00F021346DB009B1A9B00DC
:1020200038337A6813440433FB60FB6801225A702A
:102030000FE0FB7803F00F021346DB009B1A9B00B6
:1020400003F5FC737A6813440433FB60FB680022D9
:102050005A70FB6800229A70FB7803F00F03DAB223
:10206000FB681A707B6893F8BC33012B01D1022303
:102070000EE07B68012283F8BC237B681B68F9684B
:10208000184603F0C9FA7B68002283F8BC230023BA
:1020900018461037BD4680BD80B58AB002AF786063
:1020A00039607B681B687B617B693B613A681346DA
:1020B000DB009B1A9B0038337A6813440433FB60BF
:1020C000FB689A69FB685B699A4201D901236DE05C
:1020D000FB685A69FB689B69D31AFB61FB689A68C5
:1020E000FB699A4202D2FB689B68FB61FB69033380
:1020F0009B08BB612BE0FB685A69FB689B69D31A9C
:10210000FB61FB689A68FB699A4202D2FB689B6894
:10211000FB61FB6903339B08BB61FB68D9683B68C3
:10212000DAB2FB6998B27B681B69DBB200930346A5
:10213000786903F0A3F9FB68DA68FB691A44FB6865
:10214000DA60FB689A69FB691A44FB689A613B682C
:102150005A013B69134403F510639B699AB2BB694A
:102160009A4209D3FB689A69FB685B699A4203D279
:10217000FB685B69002BBED1FB685A69FB689B69F1
:102180009A4212D83B6803F00F03012202FA03F3CC
:10219000BB603B6903F5006319463B6903F50063C7
:1021A0005A6BBB68DB4313404B6300231846203750
:1021B000BD4680BD80B586B000AF786039607B6871
:1021C0001B687B617B693B617B693C3304331B6823
:1021D000FB603B685A013B69134403F530639B681D
:1021E000BB607B681B69012B40F0A080BB6803F0DB
:1021F0000803002B15D0FB68724A934240F2DD8041
:10220000BB6803F40043002B00F0D7803B685A0101
:102210003B69134403F530631A464FF4004393605F
:10222000CBE0BB6803F02003002B09D03B685A01C8
:102230003B69134403F530631A4620239360BCE0E6
:10224000BB6803F02803002B40F0B780FB685D4AB1
:1022500093420FD9BB6803F40043002B0AD03B68BC
:102260005A013B69134403F530631A464FF40043A7
:102270009360A2E079683A681346DB009B1A9B00E2
:102280000B4403F501731A683B6859013B690B4421
:1022900003F530631B69C3F31203D11A78683A68F7
:1022A0001346DB009B1A9B00034403F5057319607A
:1022B00079683A681346DB009B1A9B000B4403F5D0
:1022C0000273196878683A681346DB009B1A9B0012
:1022D000034403F501731B68194478683A68134690
:1022E000DB009B1A9B00034403F5027319603B68F3
:1022F000002B14D179683A681346DB009B1A9B00C7
:102300000B4403F504731B68002B08D17B68186825
:102310007B6803F571731A46012103F007FB3B68E4
:10232000DBB21946786805F029FF46E0FB68264ACB
:10233000934224D1BB6803F40043002B0AD03B68CE
:102340005A013B69134403F530631A464FF40043C6
:10235000936032E0BB6803F02003002B08D03B6899
:102360005A013B69134403F530631A4620239360F6
:102370003B68DBB21946786805F000FF1DE03B685A
:10238000002B14D179683A681346DB009B1A9B0036
:102390000B4403F504731B68002B08D17B68186895
:1023A0007B6803F571731A46002103F0BFFA3B689E
:1023B000DBB21946786805F0E1FE002318461837AD
:1023C000BD4680BD0A30544F0A31544F80B586B0A7
:1023D00000AF786039607B681B687B617B693B611B
:1023E0007B693C3304331B68FB603B685A013B69E3
:1023F000134403F530639B68BB60FB68154A934246
:102400000ED9BB6803F40043002B09D03B685A0186
:102410003B69134403F530631A464FF4004393605D
:10242000786805F099FEFB680A4A93420CD97B68EC
:102430001B69012B08D17B6818687B6803F57173F1
:102440001A46012103F072FA002318461837BD46D8
:1024500080BD00BF0A30544F80B485B000AF7860B3
:102460000B46FB7013463B807B681B685B6ABB6056
:10247000FB78002B07D17B681B683A881104BA6887
:102480000A439A6228E07B681B689B6A1B0CBA6847
:102490001344BB600023FB730DE07B681A68FB7B71
:1024A00040339B0013445B681B0CBA681344BB6049
:1024B000FB7B0133FB73FA7BFB78013B9A42ECD345
:1024C0007B681968FB78013B3A881004BA680243BC
:1024D00040339B000B445A60002318461437BD4616
:1024E00080BC704780B483B000AF78600B467B80BF
:1024F0007B681B687A885A62002318460C37BD46F1
:1025000080BC704780B483B000AF78600B46FB702E
:1025100000BF0C37BD4680BC704700BF80B586B099
:1025200000AF78607B68002B01D101235AE27B6801
:102530001B6803F00103002B74D0A74B9B6803F0CA
:102540000C03042B0BD0A44B9B6803F00C03082B4B
:1025500011D1A14B5B6803F48003002B0BD09E4B81
:102560001B6803F40033002B5BD07B685B68002B97
:1025700057D1012336E27B685B68B3F5803F06D113
:10258000954A954B1B6843F4803313601DE07B68CC
:102590005B68B3F5A02F0CD18F4A8F4B1B6843F4B7
:1025A000802313608C4A8C4B1B6843F48033136088
:1025B0000BE0894A884B1B6823F480331360864AFA
:1025C000854B1B6823F4802313607B685B68002BBA
:1025D00013D0FEF759F8386108E0FEF755F80246C7
:1025E0003B69D31A642B01D90323FBE17A4B1B68A7
:1025F00003F40033002BF0D014E0FEF745F8386107
:1026000008E0FEF741F802463B69D31A642B01D972
:102610000323E7E1704B1B6803F40033002BF0D178
:1026200000E000BF7B681B6803F00203002B63D04F
:10263000694B9B6803F00C03002B0BD0664B9B6827
:1026400003F00C03082B1CD1634B5B6803F480037D
:10265000002B16D1604B1B6803F00203002B05D042
:102660007B68DB68012B01D00123BBE15A495A4B3F
:102670001B6823F0F8027B681B69DB0013430B60C7
:102680003AE07B68DB68002B20D0544B01221A60B3
:10269000FDF7FAFF386108E0FDF7F6FF02463B69F7
:1026A000D31A022B01D903239CE14B4B1B6803F087
:1026B0000203002BF0D04849474B1B6823F0F80277
:1026C0007B681B69DB0013430B6015E0434B002262
:1026D0001A60FDF7D9FF386108E0FDF7D5FF024623
:1026E0003B69D31A022B01D903237BE13A4B1B68C8
:1026F00003F00203002BF0D17B681B6803F0080392
:10270000002B30D07B685B69002B16D0344B012244
:102710001A60FDF7B9FF386108E0FDF7B5FF024622
:102720003B69D31A022B01D903235BE12A4B5B6F70
:1027300003F00203002BF0D015E0294B00221A60B1
:10274000FDF7A2FF386108E0FDF79EFF02463B69F6
:10275000D31A022B01D9032344E11F4B5B6F03F013
:102760000203002BF0D17B681B6803F00403002BED
:1027700000F0A0800023FB75174B1B6C03F0805307
:10278000002B0FD10023BB60134A134B1B6C43F08B
:1027900080531364104B1B6C03F08053BB60BB6809
:1027A0000123FB750F4B1B6803F48073002B21D1B1
:1027B0000C4A0C4B1B6843F480731360FDF764FFF5
:1027C000386111E0FDF760FF02463B69D31A022B26
:1027D0000AD9032306E100BF003802400000474247
:1027E000800E474200700040804B1B6803F48073EA
:1027F000002BE7D07B689B68012B06D17C4A7C4B81
:102800001B6F43F0010313671CE07B689B68052B7B
:102810000CD1774A764B1B6F43F004031367744A5D
:10282000734B1B6F43F0010313670BE0704A704B4F
:102830001B6F23F0010313676D4A6D4B1B6F23F071
:10284000040313677B689B68002B15D0FDF71CFF02
:1028500038610AE0FDF718FF02463B69D31A41F2DE
:102860008832934201D90323BCE0614B1B6F03F014
:102870000203002BEED014E0FDF706FF38610AE0FA
:10288000FDF702FF02463B69D31A41F288329342B8
:1028900001D90323A6E0564B1B6F03F00203002B64
:1028A000EED1FB7D012B05D1514A514B1B6C23F01E
:1028B000805313647B689B69002B00F092804C4B23
:1028C0009B6803F00C03082B5CD07B689B69022B90
:1028D00041D1484B00221A60FDF7D6FE386108E06E
:1028E000FDF7D2FE02463B69D31A022B01D903231E
:1028F00078E03F4B1B6803F00073002BF0D13C499C
:102900007B68DA697B681B6A1A437B685B6A9B0198
:102910001A437B689B6A5B08013B1B041A437B6874
:10292000DB6A1B0613434B60324B01221A60FDF732
:10293000ABFE386108E0FDF7A7FE02463B69D31AFB
:10294000022B01D903234DE0294B1B6803F00073D0
:10295000002BF0D045E0274B00221A60FDF794FED3
:10296000386108E0FDF790FE02463B69D31A022B5E
:1029700001D9032336E01E4B1B6803F00073002BC4
:10298000F0D12EE07B689B69012B01D1012329E066
:10299000174B5B68FB60FB6803F480027B68DB69B4
:1029A0009A421CD1FB6803F03F027B681B6A9A4283
:1029B00015D1FA6847F6C07313407A68526A934299
:1029C0000DD1FB6803F440327B689B6A9A4206D1C2
:1029D000FB6803F070627B68DB6A9A4201D00123D6
:1029E00000E0002318461837BD4680BD0070004047
:1029F000003802406000474280B584B000AF786084
:102A000039607B68002B01D10123CCE0684B1B6847
:102A100003F00F023B689A420CD2654B3A68D2B27F
:102A20001A70634B1B6803F00F023B689A4201D097
:102A30000123B8E07B681B6803F00203002B20D061
:102A40007B681B6803F00403002B05D0594A594BDF
:102A50009B6843F4E05393607B681B6803F00803B2
:102A6000002B05D0534A534B9B6843F4604393605B
:102A70005049504B9B6823F0F0027B689B681343DE
:102A80008B607B681B6803F00103002B44D07B68DC
:102A90005B68012B07D1474B1B6803F40033002B05
:102AA00019D101237FE07B685B68022B03D07B6830
:102AB0005B68032B07D13F4B1B6803F00073002BAF
:102AC00009D101236FE03B4B1B6803F00203002B8D
:102AD00001D1012367E03749364B9B6823F003029D
:102AE0007B685B6813438B60FDF7CEFDF8600AE0FE
:102AF000FDF7CAFD0246FB68D31A41F288329342C1
:102B000001D903234FE02B4B9B6803F00C027B6839
:102B10005B689B009A42EBD1254B1B6803F00F02C8
:102B20003B689A420CD9224B3A68D2B21A70204BB9
:102B30001B6803F00F023B689A4201D0012332E088
:102B40007B681B6803F00403002B08D01949194B5C
:102B50009B6823F4E0527B68DB6813438B607B68DF
:102B60001B6803F00803002B09D01249114B9B6826
:102B700023F460427B681B69DB0013438B6000F029
:102B800021F801460B4B9B6803F0F0031B090A4A2E
:102B9000D35C21FA03F3094A1360094B1B681846FA
:102BA000FDF730FD002318461037BD4680BD00BF3D
:102BB000003C0240003802405492000818010020F6
:102BC000000000202DE9F04F8FB000AF0023FB6222
:102BD00000237B630023BB6200233B63614B9B6844
:102BE00003F00C03042B07D0082B08D0002B40F077
:102BF000AF805D4B3B63AEE05C4B3B63ABE0594B5E
:102C00005B6803F03F03FB62564B5B6803F4800391
:102C1000002B4DD0534B5A6847F6C07313409B09A5
:102C200019464FF000020B461446E0007862786ABD
:102C300040EA53707862DB003B62D7E908346001F8
:102C4000F861F86940EAD360F8615801B861D7E9E2
:102C50000656ED1A66EB040633464FEA83192B46F7
:102C600049EA93692B464FEA8318B8EB050569EBEF
:102C70000606A846B14618EB010849EB02094FEADF
:102C800049237B617B6943EAD8537B614FEA482340
:102C90003B61D7E9048940464946FB6A4FF000048E
:102CA0001A462346FDF7AAFA03460C467B6341E029
:102CB0002C4B5A6847F6C07313409B0919464FF0D6
:102CC00000020B461446E000F860F86840EA5370D2
:102CD000F860DB00BB60D7E902344FEA441B4BEAE3
:102CE000D36B4FEA431ABAEB030A6BEB040B4FEAC0
:102CF0008B1646EA9A664FEA8A15B5EB0A0566EB2B
:102D00000B066D1846EB0206B3027B607B6843EA54
:102D100095537B60AB023B60D7E9005628463146AD
:102D2000FB6A4FF000041A462346FDF767FA034694
:102D30000C467B630B4B5B6803F440331B0C013385
:102D40005B00BB627A6BBB6AB2FBF3F33B6302E0EE
:102D5000054B3B6300BF3B6B18463C37BD46BDE8A7
:102D6000F08F00BF003802400024F40000127A0007
:102D700080B400AF024B1B681846BD4680BC70474C
:102D80001801002080B500AFFFF7F2FF0146054BA8
:102D90009B6803F4E0539B0A034AD35C21FA03F3D4
:102DA000184680BD003802406492000880B500AF2C
:102DB000FFF7DEFF0146054B9B6803F460435B0BA6
:102DC000034AD35C21FA03F3184680BD0038024061
:102DD0006492000880B582B000AF78607B68002BF9
:102DE00001D101231DE07B6893F83D30DBB2002B5D
:102DF00006D17B68002283F83C20786804F0E6FD69
:102E00007B68022283F83D207B681A687B68043364
:102E10001946104600F0BEF97B68012283F83D2078
:102E2000002318460837BD4680BD00BF80B582B07C
:102E300000AF78607B68002B01D101231DE07B6827
:102E400093F83D30DBB2002B06D17B68002283F87B
:102E50003C20786800F016F87B68022283F83D2059
:102E60007B681A687B6804331946104600F092F9B3
:102E70007B68012283F83D20002318460837BD46B1
:102E800080BD00BF80B483B000AF786000BF0C3756
:102E9000BD4680BC704700BF80B584B000AFF8600D
:102EA000B9607A60FB6893F83C30012B01D10223B2
:102EB000B4E0FB68012283F83C20FB68022283F81F
:102EC0003D207B680C2B00F29F8001A252F823F07A
:102ED000052F0008093000080930000809300008F3
:102EE000452F0008093000080930000809300008A3
:102EF000872F000809300008093000080930000851
:102F0000C72F0008FB681B68B968184600F0C0F9B5
:102F1000FB681B68FA681268926942F008029A61BD
:102F2000FB681B68FA681268926922F004029A61D1
:102F3000FB681B68FA6812689169BA6812690A43EB
:102F40009A6162E0FB681B68B968184600F006FAEF
:102F5000FB681B68FA681268926942F400629A6121
:102F6000FB681B68FA681268926922F480629A61B1
:102F7000FB681B68FA6812689169BA6812691202E4
:102F80000A439A6141E0FB681B68B968184600F083
:102F90004FFAFB681B68FA681268D26942F00802AF
:102FA000DA61FB681B68FA681268D26922F00402D1
:102FB000DA61FB681B68FA681268D169BA6812693D
:102FC0000A43DA6121E0FB681B68B968184600F023
:102FD00099FAFB681B68FA681268D26942F40062C9
:102FE000DA61FB681B68FA681268D26922F48062B1
:102FF000DA61FB681B68FA681268D169BA681269FD
:1030000012020A43DA6100E000BFFB68012283F884
:103010003D20FB68002283F83C200023184610372F
:10302000BD4680BD80B584B000AF786039607B68F4
:1030300093F83C30012B01D10223A6E07B680122EA
:1030400083F83C207B68022283F83D207B681B6864
:103050009B68FB60FB6823F07703FB60FB6823F44D
:103060007F43FB607B681B68FA689A603B681B685B
:10307000402B67D0402B0BD8102B73D0102B02D8CD
:10308000002B6FD078E0202B6CD0302B6AD073E00F
:10309000702B0DD0702B04D8502B33D0602B41D027
:1030A0006AE0B3F5805F66D0B3F5005F17D063E0E8
:1030B0007B6818683B6899683B685A683B68DB68BE
:1030C00000F0E6FA7B681B689B68FB60FB6843F0D6
:1030D0007703FB607B681B68FA689A604CE07B684A
:1030E00018683B6899683B685A683B68DB6800F081
:1030F000CFFA7B681B687A681268926842F4804253
:103100009A6039E07B6818683B6859683B68DB68FF
:103110001A4600F045FA7B681B685021184600F0FB
:103120009DFA29E07B6818683B6859683B68DB6852
:103130001A4600F063FA7B681B686021184600F0AD
:103140008DFA19E07B6818683B6859683B68DB6852
:103150001A4600F025FA7B681B684021184600F0EB
:103160007DFA09E07B681A683B681B6819461046BF
:1031700000F074FA00E000BF7B68012283F83D2074
:103180007B68002283F83C20002318461037BD4698
:1031900080BD00BF80B485B000AF786039607B68C7
:1031A0001B68FB607B68334A93420FD07B68B3F1A6
:1031B000804F0BD07B68304A934207D07B682F4A00
:1031C000934203D07B682E4A934208D1FB6823F0D8
:1031D0007003FB603B685B68FA681343FB607B68C5
:1031E000244A93421BD07B68B3F1804F17D07B6891
:1031F000214A934213D07B68204A93420FD07B68C8
:103200001F4A93420BD07B681E4A934207D07B68CB
:103210001D4A934203D07B681C4A934208D1FB6845
:1032200023F44073FB603B68DB68FA681343FB6080
:10323000FB6823F080023B685B691343FB607B689B
:10324000FA681A603B689A687B68DA623B681A68B9
:103250007B689A627B68074A934203D13B681A698C
:103260007B681A637B6801225A6100BF1437BD4630
:1032700080BC70470000014000040040000800408E
:10328000000C004000400140004401400048014063
:1032900080B487B000AF786039607B681B6A23F028
:1032A00001027B681A627B681B6A7B617B685B68D2
:1032B0003B617B689B69FB60FB6823F07003FB60EC
:1032C000FB6823F00303FB603B681B68FA68134349
:1032D000FB607B6923F002037B613B689B687A6932
:1032E00013437B617B681C4A93420CD17B6923F0BA
:1032F00008037B613B68DB687A6913437B617B6908
:1033000023F004037B617B68134A934211D13B692C
:1033100023F480733B613B6923F400733B613B689A
:103320005B693A6913433B613B689B693A691343A4
:103330003B617B683A695A607B68FA689A613B68CE
:103340005A687B685A637B687A691A6200BF1C37C7
:10335000BD4680BC704700BF0000014080B487B00C
:1033600000AF786039607B681B6A23F010027B68CD
:103370001A627B681B6A7B617B685B683B617B6868
:103380009B69FB60FB6823F4E043FB60FB6823F46C
:103390004073FB603B681B681B02FA681343FB60C9
:1033A0007B6923F020037B613B689B681B017A6982
:1033B00013437B617B681D4A93420DD17B6923F0E7
:1033C00080037B613B68DB681B017A6913437B6187
:1033D0007B6923F040037B617B68144A934213D1DD
:1033E0003B6923F480633B613B6923F400633B61E9
:1033F0003B685B699B003A6913433B613B689B698F
:103400009B003A6913433B617B683A695A607B6869
:10341000FA689A613B685A687B689A637B687A6944
:103420001A6200BF1C37BD4680BC704700000140D7
:1034300080B487B000AF786039607B681B6A23F482
:1034400080727B681A627B681B6A7B617B685B6841
:103450003B617B68DB69FB60FB6823F07003FB600A
:10346000FB6823F00303FB603B681B68FA681343A7
:10347000FB607B6923F400737B613B689B681B02E4
:103480007A6913437B617B681D4A93420DD17B6946
:1034900023F400637B613B68DB681B027A6913439A
:1034A0007B617B6923F480637B617B68144A934270
:1034B00013D13B6923F480533B613B6923F40053F0
:1034C0003B613B685B691B013A6913433B613B68A5
:1034D0009B691B013A6913433B617B683A695A60F7
:1034E0007B68FA68DA613B685A687B68DA637B68F4
:1034F0007A691A6200BF1C37BD4680BC704700BFA6
:103500000000014080B487B000AF786039607B680C
:103510001B6A23F480527B681A627B681B6A3B61DA
:103520007B685B687B617B68DB69FB60FB6823F41D
:10353000E043FB60FB6823F44073FB603B681B685F
:103540001B02FA681343FB603B6923F400533B61A1
:103550003B689B681B033A6913433B617B680F4AD6
:10356000934209D17B6923F480437B613B685B69AB
:103570009B017A6913437B617B687A695A607B6837
:10358000FA68DA613B685A687B681A647B683A6952
:103590001A6200BF1C37BD4680BC70470000014066
:1035A00080B487B000AFF860B9607A60FB681B6ACE
:1035B0007B61FB681B6A23F00102FB681A62FB68EF
:1035C0009B693B613B6923F0F0033B617B681B0116
:1035D0003A6913433B617B6923F00A037B617A6993
:1035E000BB6813437B61FB683A699A61FB687A693F
:1035F0001A6200BF1C37BD4680BC704780B487B0DC
:1036000000AFF860B9607A60FB681B6A23F01002B3
:10361000FB681A62FB689B697B61FB681B6A3B6104
:103620007B6923F470437B617B681B037A691343D6
:103630007B613B6923F0A0033B61BB681B013A69D6
:1036400013433B61FB687A699A61FB683A691A62C5
:1036500000BF1C37BD4680BC704700BF80B485B03A
:1036600000AF786039607B689B68FB60FB6823F083
:103670007003FB603A68FB68134343F00703FB6089
:103680007B68FA689A6000BF1437BD4680BC7047FB
:1036900080B487B000AFF860B9607A603B60FB68C7
:1036A0009B687B617B6923F47F437B613B681A02E3
:1036B0007B681A43BB6813437A6913437B61FB68D9
:1036C0007A699A6000BF1C37BD4680BC704700BF56
:1036D00080B485B000AF786039607B6893F83C3087
:1036E000012B01D1022350E07B68012283F83C20AA
:1036F0007B68022283F83D207B681B685B68FB6067
:103700007B681B689B68BB60FB6823F07003FB60F1
:103710003B681B68FA681343FB607B681B68FA68A8
:103720005A607B681B681B4A934218D07B681B68F1
:10373000B3F1804F13D07B681B68174A93420ED0B9
:103740007B681B68154A934209D07B681B68144A42
:10375000934204D07B681B68124A93420CD1BB6829
:1037600023F08003BB603B685B68BA681343BB60AF
:103770007B681B68BA689A607B68012283F83D20E9
:103780007B68002283F83C20002318461437BD468E
:1037900080BC704700000140000400400008004069
:1037A000000C00400040014080B582B000AF78605E
:1037B0007B68002B01D101233FE07B6893F839300F
:1037C000DBB2002B06D17B68002283F838207868B2
:1037D00004F088FA7B68242283F839207B681B6810
:1037E0007A681268D26822F40052DA60786800F0D1
:1037F000B1FA7B681B687A681268126922F49042F9
:103800001A617B681B687A681268526922F02A0282
:103810005A617B681B687A681268D26842F4005269
:10382000DA607B680022DA637B68202283F8392023
:103830007B68202283F83A20002318460837BD46CB
:1038400080BD00BF80B485B000AFF860B96013469A
:10385000FB80FB6893F83A30DBB2202B40D1BB6889
:10386000002B02D0FB88002B01D1012339E0FB683B
:1038700093F83830012B01D1022332E0FB6801229A
:1038800083F83820FB68BA689A62FB68FA889A85E0
:10389000FB68FA88DA85FB680022DA63FB6822227B
:1038A00083F83A20FB68002283F83820FB681B6805
:1038B000FA681268D26842F48072DA60FB681B68AA
:1038C000FA681268526942F001025A61FB681B688B
:1038D000FA681268D26842F02002DA60002300E041
:1038E000022318461437BD4680BC704780B588B0A7
:1038F00000AF78607B681B681B68FB617B681B6896
:10390000DB68BB617B681B685B697B6100233B6193
:103910000023FB60FB6903F00F033B613B69002B55
:103920000DD1FB6903F02003002B08D0BB6903F025
:103930002003002B03D0786800F08AF9D1E03B69BE
:10394000002B00F0B0807B6903F00103002B05D150
:10395000BB6903F49073002B00F0A580FB6903F0B2
:103960000103002B0AD0BB6903F48073002B05D040
:103970007B68DB6B43F001027B68DA63FB6903F071
:103980000403002B0AD07B6903F00103002B05D050
:103990007B68DB6B43F002027B68DA63FB6903F050
:1039A0000203002B0AD07B6903F00103002B05D032
:1039B0007B68DB6B43F004027B68DA63FB6903F02E
:1039C0000803002B0FD0BB6903F02003002B04D1A8
:1039D0007B6903F00103002B05D07B68DB6B43F0B0
:1039E00008027B68DA637B68DB6B002B78D0FB69AD
:1039F00003F02003002B07D0BB6903F02003002B4A
:103A000002D0786800F024F97B681B685B6903F0DA
:103A10004003002B14BF01230023DBB2FB607B6853
:103A2000DB6B03F00803002B02D1FB68002B31D0C5
:103A3000786800F06FF87B681B685B6903F04003EF
:103A4000002B23D07B681B687A681268526922F0C9
:103A500040025A617B685B6B002B13D07B685B6B09
:103A6000214A1A657B685B6B1846FCF7F3FF034637
:103A7000002B16D07B685B6B1B6D7A68526B10460F
:103A800098470EE0786800F03BF80AE0786800F0AC
:103A900037F806E0786800F033F87B680022DA63D4
:103AA0001EE000BF1CE0FB6903F08003002B08D080
:103AB000BB6903F08003002B03D0786800F05CF84A
:103AC0000FE0FB6903F04003002B0AD0BB6903F051
:103AD0004003002B05D0786800F0A2F800BF00E09A
:103AE00000BF2037BD4680BD513B000880B483B085
:103AF00000AF786000BF0C37BD4680BC704700BF88
:103B000080B483B000AF786000BF0C37BD4680BC86
:103B1000704700BF80B483B000AF78607B681B68DB
:103B20007A681268D26822F49072DA607B681B6847
:103B30007A681268526922F001025A617B68202279
:103B400083F83A2000BF0C37BD4680BC704700BFE9
:103B500080B584B000AF78607B689B6BFB60FB68CE
:103B60000022DA85FB680022DA84F868FFF7C8FFD4
:103B700000BF1037BD4680BD80B485B000AF78600F
:103B80007B6893F83930DBB2212B43D17B689B688B
:103B9000B3F5805F19D17B681B6AFB607B681B688B
:103BA000FA681288C2F308025A607B681B69002B0E
:103BB00005D17B681B6A9A1C7B681A620EE07B68E1
:103BC0001B6A5A1C7B681A6208E07B681A687B686B
:103BD0001B6A581C796808621B7853607B68DB8C11
:103BE0009BB2013B9BB27A681946D184002B0FD15E
:103BF0007B681B687A681268D26822F08002DA60FB
:103C00007B681B687A681268D26842F04002DA600A
:103C1000002300E0022318461437BD4680BC7047DD
:103C200080B582B000AF78607B681B687A681268E4
:103C3000D26822F04002DA607B68202283F83920C3
:103C40007868FFF753FF002318460837BD4680BD4C
:103C500080B584B000AF78607B6893F83A30DBB20F
:103C6000222B71D17B689B68B3F5805F23D17B6881
:103C70009B6AFB607B681B69002B0ED17B681B680D
:103C80005B689BB2C3F308039AB2FB681A807B6837
:103C90009B6A9A1C7B689A6229E07B681B685B6858
:103CA0009BB2DBB29AB2FB681A807B689B6A5A1C93
:103CB0007B689A621BE07B681B69002B0AD17B68DA
:103CC0009B6A591C7A6891627A6812685268D2B20B
:103CD0001A700CE07B689B6A591C7A6891627A685A
:103CE00012685268D2B202F07F02D2B21A707B68B8
:103CF000DB8D9BB2013B9BB27A681946D185002BC4
:103D000020D17B681B687A681268D26822F0200292
:103D1000DA607B681B687A681268D26822F4807265
:103D2000DA607B681B687A681268526922F00102C7
:103D30005A617B68202283F83A20786803F098FA69
:103D4000002302E0002300E0022318461037BD469E
:103D500080BD00BF2DE9F04FA3B000AFF867FB6F47
:103D60001968FB6F1B681B6923F44052FB6FDB680B
:103D700013430B61FB6F9A68FB6F1B691A43FB6F60
:103D80005B691A43FB6FDB691343C7F88430FB6F31
:103D90001968FB6F1B68DB6823F4164222F00C02E3
:103DA000D7F884301343CB60FB6F1968FB6F1B6837
:103DB0005B6923F44072FB6F9B6913434B61FB6F9C
:103DC000DB69B3F5004F40F07181FB6F1B68B44AAB
:103DD000934205D0FB6F1B68B24A934240F0B1801A
:103DE000FEF7E4FFC7F88000FB6F1D68D7F880304E
:103DF00019464FF000020B461446DB1844EB04044E
:103E00005B1844EB0204E0007864786C40EA53707D
:103E10007864DB003B64D7E9103413EB010844EB12
:103E2000020940464946FB6F5B684FF00004DB180F
:103E300044EB04041A462346FCF7E0F903460C461B
:103E40001A46994BA3FB02235B091E01D7F8803069
:103E500019464FF000020B461446DB1844EB0404ED
:103E60005B1844EB0204E000F863F86B40EA53701F
:103E7000F863DB00BB63D7E90E3413EB010844EBB6
:103E8000020940464946FB6F5B684FF00004DB18AF
:103E900044EB04041A462346FCF7B0F903460C46EB
:103EA0001A46814BA3FB02135B09642101FB03F358
:103EB000D31ADB0032337C4AA2FB03235B095B008D
:103EC00003F4F8731E44D7F8803019464FF000020F
:103ED0000B461446DB1844EB04045B1844EB020465
:103EE000E0007863786B40EA53707863DB003B63F3
:103EF000D7E90C3413EB010844EB0209404649466C
:103F0000FB6F5B684FF00004DB1844EB04041A46B7
:103F10002346FCF773F903460C461A46624BA3FB93
:103F200002135B09642101FB03F3D31ADB00323374
:103F30005D4AA2FB03235B0903F007033344AB6034
:103F400040E2FEF71FFFC7F88000FB6F1A683A6770
:103F5000D7F8803019464FF000020B461446DB18A4
:103F600044EB04045B1844EB0204E000F862F86AD6
:103F700040EA5370F862DB00BB62D7E90A345D188F
:103F800044EB020628463146FB6F5B684FF00004A5
:103F9000DB1844EB04041A462346FCF72FF90346CA
:103FA0000C461A46404BA3FB02235B091E01D7F8BF
:103FB000803019464FF000020B461446DB1844EBE4
:103FC00004045B1844EB02044FEAC40B4BEA537B36
:103FD0004FEAC30A53465C4613EB010A44EB020B5B
:103FE00050465946FB6F5B684FF00004DB1844EB0A
:103FF00004041A462346FCF701F903460C461A4608
:10400000294BA3FB02135B09642101FB03F3D31AC1
:10401000DB003233244AA2FB03235B095B0003F479
:10402000F8731E44D7F8803019464FF000020B4653
:104030001446DB1844EB04045B1844EB02044FEA1B
:10404000C40949EA53794FEAC30843464C4613EB87
:10405000010844EB020940464946FB6F5B684FF09C
:104060000004DB1844EB04041A462346FCF7C6F8A8
:1040700003460C461A460C4BA3FB02135B09642152
:1040800001FB03F3D31ADB003233074AA2FB0323FD
:104090005B0903F0070333443A6F936092E100BF7A
:1040A00000100140001401401F85EB51FB6F1A689E
:1040B000C14B9A4205D0FB6F1A68C04B9A4240F040
:1040C000BF80FEF773FEC7F88000FB6F1E68D7F84D
:1040D000803019464FF000020B461446DB1844EBC3
:1040E00004045B1844EB0204E0007862786A40EA5A
:1040F00053707862DB003B62D7E9083413EB0108A8
:1041000044EB020940464946FB6F5B684FF00004F0
:10411000A200FA65FA6D42EA9372FA659B00BB65EC
:10412000D7E91623FCF76AF803460C461A46A44B57
:10413000A3FB02235B091D01D7F8803019464FF01D
:1041400000020B461446DB1844EB04045B1844EBF6
:104150000204E000F861F86940EA5370F861DB009E
:10416000BB61D7E9063413EB010844EB0209404672
:104170004946FB6F5B684FF00004A2007A657A6DD8
:1041800042EA93727A659B003B65D7E91423FCF7FA
:1041900035F803460C461A46894BA3FB02135B090C
:1041A000642101FB03F3D31A1B013233844AA2FBBF
:1041B00003235B0903F0F0031D44D7F88030194650
:1041C0004FF000020B461446DB1844EB04045B1866
:1041D00044EB0204E0007861786940EA537078614A
:1041E000DB003B61D7E9043413EB010844EB02091F
:1041F00040464946FB6F5B684FF00004A200FA643A
:10420000FA6C42EA9372FA649B00BB64D7E912230A
:10421000FBF7F4FF03460C461A46694BA3FB021357
:104220005B09642101FB03F3D31A1B013233644A97
:10423000A2FB03235B0903F00F032B44B360C1E02F
:10424000FEF7A0FDC7F88000FB6F1B68BB65D7F8C1
:10425000803019464FF000020B461446DB1844EB41
:1042600004045B1844EB0204E60046EA5376DD00E2
:104270002B4634465D1844EB020628463146FB6F58
:104280005B684FF00004A5007D677D6F45EA93757C
:104290007D679C003C67D7E91C23FBF7AFFF034613
:1042A0000C461A46464BA3FB02135B091D01D7F8C7
:1042B000803019464FF000020B461446DB1844EBE1
:1042C00004045B1844EB0204E000F860F86840EA7C
:1042D0005370F860D800B860D7E9023413EB0108D6
:1042E00044EB020940464946FB6F5B684FF000040F
:1042F000A600FE66FE6E46EA9376FE669C00BC66ED
:10430000D7E91A23FBF77AFF03460C461A462C4BD3
:10431000A3FB02135B09642101FB03F3D31A1B0106
:104320003233274AA2FB03135B0903F0F0031D4459
:10433000D7F8803019464FF000020B461446DB18C0
:1043400044EB04045B1844EB0204E00078607868F6
:1043500040EA53707860D8003860D7E9003413EB36
:10436000010844EB020940464946FB6F5B684FF089
:104370000004A6007E667E6E46EA93767E669C000A
:104380003C66D7E91823FBF739FF03460C461A466B
:104390000B4BA3FB02135B09642101FB03F3D31A4C
:1043A0001B013233064AA2FB03135B0903F00F0320
:1043B0002B44BA6D936005E00010014000140140E9
:1043C0001F85EB5100BF8C37BD46BDE8F08F00BFA5
:1043D00084B080B584B000AF786007F11C0080E83D
:1043E0000E003B6B012B22D17B689B6B23F4803248
:1043F0007B689A637B68DB6823F4840323F04003C3
:104400007A68D3607B68DB6823F440127B68DA60EB
:10441000FB6C012B05D17B68DB6843F480127B6861
:10442000DA60786801F0E0FA0346FB731AE07B6813
:10443000DB6843F040027B68DA60786801F0D4FA08
:104440000346FB733B6C002B06D17B689B6B43F4EC
:1044500080327B689A6305E07B689B6B23F4803233
:104460007B689A63BB6A012B0BD17B689B6843F026
:1044700006027B689A607B689B6843F020027B6839
:104480009A60FB7B18461037BD46BDE8804004B0FB
:10449000704700BF80B487B000AFF860B9601346C2
:1044A000FB71FB79022B65D1BB68414A934206D967
:1044B000BB68404A934202D80F237B6162E0BB682D
:1044C0003C4A934206D9BB683B4A934202D80E232A
:1044D0007B6157E0BB68384A934206D9BB68374ACC
:1044E000934202D80D237B614CE0BB68334A934270
:1044F00006D9BB68324A934202D80C237B6141E063
:10450000BB682F4A934206D9BB682E4A934202D811
:104510000B237B6136E0BB682A4A934206D9BB680D
:10452000294A934202D80A237B612BE0BB68264AC2
:10453000934206D9BB68254A934202D809237B617E
:1045400020E0BB68214A934206D9BB68204A9342C7
:1045500002D808237B6115E0BB681D4A934206D947
:10456000BB681C4A934202D807237B610AE00623FA
:104570007B6107E0FB79002B02D109237B6101E01D
:1045800009237B61FB68DB6823F47052FB68DA6007
:10459000FB68DA687B699B0203F470531A43FB687B
:1045A000DA60002318461C37BD4680BC704700BF48
:1045B000BFACD800BFE1E400FF23F4007F73060125
:1045C0009F491A01FF2C31013FA44C01FF356E01B8
:1045D0001FABA601FF47E80180B483B000AF78604D
:1045E0007B689B6843F001027B689A600023184651
:1045F0000C37BD4680BC704780B483B000AF786094
:104600007B689B6823F001027B689A600023184650
:104610000C37BD4680BC704780B582B000AF786073
:104620000B46FB707B68DB6823F0C0427B68DA6076
:10463000FB78012B06D17B68DB6843F000527B6876
:10464000DA600BE0FB78002B06D17B68DB6843F077
:1046500080427B68DA6001E0012303E03220FCF74E
:104660001DF8002318460837BD4680BD84B080B5CC
:1046700086B000AF786007F1240080E80E000023C8
:10468000FB757B68FB6000233B6109E07A683B694E
:1046900040339B00134400225A603B6901333B6165
:1046A0003B690E2BF2D9FB6C002B1DD1FB6803F587
:1046B00000631A46FB6803F500635B6843F002037E
:1046C00053607B689B6B43F400127B689A637B6842
:1046D0009B6B23F400227B689A637B689B6B23F4BB
:1046E00080227B689A630BE07B689B6B23F400124B
:1046F0007B689A637B689B6B43F400227B689A63B8
:10470000FB6803F560631A4600231360FB6803F53A
:1047100000631A46FB6803F500631B681360BB6BFC
:10472000012B0CD1FB6A002B04D10021786800F02A
:1047300041F908E00121786800F03CF903E0032129
:10474000786800F037F91021786800F0EFF8034638
:10475000002B01D00123FB75786800F00BF90346AC
:10476000002B01D00123FB75FB6803F500631A469B
:1047700000231361FB6803F500631A4600235361AD
:10478000FB6803F500631A460023D36100233B61F5
:1047900040E03B695A01FB68134403F510631B6852
:1047A000002B18DA3B69002B0AD13B695A01FB68E0
:1047B000134403F510631A464FF00063136013E0CF
:1047C0003B695A01FB68134403F510631A464FF026
:1047D0009043136008E03B695A01FB68134403F5FA
:1047E00010631A46002313603B695A01FB681344A7
:1047F00003F510631A46002313613B695A01FB68F5
:10480000134403F510631A464FF67F3393603B69F8
:1048100001333B617A6A3B699A42BAD800233B6113
:1048200040E03B695A01FB68134403F530631B68A1
:10483000002B18DA3B69002B0AD13B695A01FB684F
:10484000134403F530631A464FF00063136013E01E
:104850003B695A01FB68134403F530631A464FF075
:104860009043136008E03B695A01FB68134403F569
:1048700030631A46002313603B695A01FB681344F6
:1048800003F530631A46002313613B695A01FB6844
:10489000134403F530631A464FF67F3393603B6948
:1048A00001333B617A6A3B699A42BAD8FB6803F5E7
:1048B00000631A46FB6803F500631B6923F48073E9
:1048C00013617B6800229A617B686FF080425A61B5
:1048D0003B6B002B05D17B689B6943F010027B6822
:1048E0009A617B689A69104B13437A689361FB6BFA
:1048F000002B05D07B689B6943F008027B689A61B6
:10490000FB6C012B07D17B689B6943F0804343F02C
:1049100004037A689361FB7D18461837BD46BDE8ED
:10492000804004B0704700BF00383C8080B485B040
:1049300000AF786039600023FB603B689B0143F067
:1049400020027B681A61FB680133FB60FB68084A40
:10495000934201D9032306E07B681B6903F020031F
:10496000002BF0D1002318461437BD4680BC704799
:10497000400D030080B485B000AF78600023FB6079
:104980007B6810221A61FB680133FB60FB68084AF0
:10499000934201D9032306E07B681B6903F01003EF
:1049A000002BF0D1002318461437BD4680BC704759
:1049B000400D030080B485B000AF78600B46FB70FB
:1049C0007B68FB60FB6803F500631946FB6803F531
:1049D00000631A68FB7813430B60002318461437F2
:1049E000BD4680BC704700BF80B487B000AF786020
:1049F0007B683B613B6903F500639B6803F006033A
:104A0000FB60FB68002B02D10023FB750AE0FB680A
:104A1000022B02D0FB68062B02D10223FB7501E0BA
:104A20000F23FB75FB7D18461C37BD4680BC7047C5
:104A300080B485B000AF786039607B68FB603B680C
:104A40001B78BB603B685B78012B3CD1FB6803F5AE
:104A500000631846FB6803F50063DA693B681B785E
:104A600003F00F03012101FA03F39BB21343C36167
:104A7000BB685A01FB68134403F510631B6803F419
:104A80000043002B58D1BB685A01FB68134403F55F
:104A900010631846BB685A01FB68134403F51063A2
:104AA0001A683B689B68C3F30A013B68DB789B0488
:104AB0001943BB689B050B43134343F0805343F4F6
:104AC0000043036038E0FB6803F500631846FB68A9
:104AD00003F50063DA693B681B7803F00F030121DB
:104AE00001FA03F31B041343C361BB685A01FB685B
:104AF000134403F530631B6803F40043002B1BD100
:104B0000BB685A01FB68134403F530631846BB6861
:104B10005A01FB68134403F530631A683B689B68CD
:104B2000C3F30A013B68DB789B040B43134343F058
:104B3000805343F400430360002318461437BD46F6
:104B400080BC704780B485B000AF786039607B6806
:104B5000FB603B681B78BB603B685B78012B62D1D4
:104B6000BB685A01FB68134403F510631B68002BF4
:104B700021DABB685A01FB68134403F51063194638
:104B8000BB685A01FB68134403F510631B6843F0CC
:104B900000630B60BB685A01FB68134403F51063A4
:104BA0001946BB685A01FB68134403F510631B6880
:104BB00043F080430B60FB6803F500631846FB6815
:104BC00003F50063DA6B3B681B7803F00F030121E8
:104BD00001FA03F39BB2DB431340C363FB6803F5A5
:104BE00000631846FB6803F50063DA693B681B78CD
:104BF00003F00F03012101FA03F39BB2DB431340DF
:104C0000C361BB685A01FB68134403F5106319467E
:104C1000BB685A01FB68134403F510631A68364BEE
:104C200013400B6061E0BB685A01FB68134403F555
:104C300030631B68002B21DABB685A01FB68134400
:104C400003F530631946BB685A01FB68134403F54A
:104C500030631B6843F000630B60BB685A01FB685C
:104C6000134403F530631946BB685A01FB681344CB
:104C700003F530631B6843F080430B60FB6803F56A
:104C800000631846FB6803F50063DA6B3B681B782A
:104C900003F00F03012101FA03F31B04DB4313406C
:104CA000C363FB6803F500631846FB6803F5006304
:104CB000DA693B681B7803F00F03012101FA03F363
:104CC0001B04DB431340C361BB685A01FB681344F8
:104CD00003F530631946BB685A01FB68134403F5BA
:104CE00030631A68054B13400B60002318461437D5
:104CF000BD4680BC704700BF007833EC0078F3EF0E
:104D000080B58AB002AFF860B9601346FB71FB68EA
:104D1000FB61BB681B78BB61BB685B78012B40F013
:104D20006C81BB685B69002B35D1BB695A01FB699B
:104D3000134403F510631946BB695A01FB69134418
:104D400003F510631B6923F0FF5323F4C0130B61B9
:104D5000BB695A01FB69134403F510631946BB692B
:104D60005A01FB69134403F510631B6943F40023E4
:104D70000B61BB695A01FB69134403F510631946C3
:104D8000BB695A01FB69134403F510631B69DB0C13
:104D9000DB040B617AE0BB695A01FB69134403F53C
:104DA00010631946BB695A01FB69134403F510638C
:104DB0001B69DB0CDB040B61BB695A01FB69134403
:104DC00003F510631946BB695A01FB69134403F5E7
:104DD00010631B6923F0FF5323F4C0130B61BB69FD
:104DE0005A01FB69134403F510631846BB695A0165
:104DF000FB69134403F510631A69BB685969BB6802
:104E00009B680B44591EBB689B68B1FBF3F3D90444
:104E1000A14B0B4013430361BB695A01FB69134467
:104E200003F510631946BB695A01FB69134403F586
:104E300010631A69BB685B69C3F3120313430B6108
:104E4000BB68DB78012B21D1BB695A01FB69134494
:104E500003F510631946BB695A01FB69134403F556
:104E600010631B6923F0C0430B61BB695A01FB69E6
:104E7000134403F510631946BB695A01FB691344D7
:104E800003F510631B6943F000530B61FB79012BA1
:104E90004ED1BB681B69002B09D0BB695A01FB6965
:104EA000134403F510631A46BB681B695361BB6862
:104EB000DB78012B2AD1FB6903F500639B6803F4BF
:104EC0008073002B11D1BB695A01FB69134403F5B0
:104ED00010631946BB695A01FB69134403F510635B
:104EE0001B6843F000530B6010E0BB695A01FB697B
:104EF000134403F510631946BB695A01FB69134457
:104F000003F510631B6843F080530B60BB695A01C3
:104F1000FB69134403F510631946BB695A01FB6929
:104F2000134403F510631B6843F004430B603CE13A
:104F3000BB695A01FB69134403F510631946BB6949
:104F40005A01FB69134403F510631B6843F00443E3
:104F50000B60BB68DB78012B16D0BB685B69002B4C
:104F600000F02381FB6903F500631846FB6903F534
:104F700000635A6BBB681B7803F00F03012101FA31
:104F800003F31343436310E1FB6903F500639B687C
:104F900003F48073002B11D1BB695A01FB691344E0
:104FA00003F510631946BB695A01FB69134403F505
:104FB00010631B6843F000530B6010E0BB695A019B
:104FC000FB69134403F510631946BB695A01FB6979
:104FD000134403F510631B6843F080530B60BB68F8
:104FE000D968BB681A78BB685B6998B2FB79009393
:104FF0000346F86800F042FAD7E0BB695A01FB6942
:10500000134403F530631946BB695A01FB69134425
:1050100003F530631B69DB0CDB040B61BB695A01D0
:10502000FB69134403F530631946BB695A01FB69F8
:10503000134403F530631B6923F0FF5323F4C013BB
:105040000B61BB685B69002B28D1BB695A01FB6906
:10505000134403F530631946BB695A01FB691344D5
:1050600003F530631A69BB689B68C3F312031343EB
:105070000B61BB695A01FB69134403F530631946A0
:10508000BB695A01FB69134403F530631B6943F4A0
:1050900000230B6138E000BF0000F81FBB685A69AD
:1050A000BB689B6813445A1EBB689B68B2FBF3F352
:1050B000FB82BB695A01FB69134403F53063184650
:1050C000BB695A01FB69134403F530631A69FB8A13
:1050D000D904384B0B4013430361BB695A01FB6988
:1050E000134403F530631846BB695A01FB69134446
:1050F00003F530631A69BB689B68F98A01FB03F307
:10510000C3F3120313430361FB79012B0DD1BB6879
:10511000DB68002B09D0BB695A01FB69134403F516
:1051200030631A46BB68DB685361BB68DB78012BD0
:105130002AD1FB6903F500639B6803F48073002B9D
:1051400011D1BB695A01FB69134403F53063194659
:10515000BB695A01FB69134403F530631B6843F0D4
:1051600000530B6010E0BB695A01FB69134403F55F
:1051700030631946BB695A01FB69134403F5306378
:105180001B6843F080530B60BB695A01FB691344F1
:1051900003F530631946BB695A01FB69134403F5F3
:1051A00030631B6843F004430B600023184620372C
:1051B000BD4680BD0000F81F80B487B000AFF86026
:1051C000B9601346FB71FB687B61BB681B783B6170
:1051D000BB685B78012B40F0D880BB685B69002B13
:1051E00035D13B695A017B69134403F510631946B5
:1051F0003B695A017B69134403F510631B6923F073
:10520000FF5323F4C0130B613B695A017B691344BC
:1052100003F5106319463B695A017B69134403F592
:1052200010631B6943F400230B613B695A017B69DE
:10523000134403F5106319463B695A017B69134413
:1052400003F510631B69DB0CDB040B6152E03B6967
:105250005A017B69134403F5106319463B695A01EF
:105260007B69134403F510631B69DB0CDB040B61E2
:105270003B695A017B69134403F5106319463B6986
:105280005A017B69134403F510631B6923F0FF5334
:1052900023F4C0130B61BB685A69BB689B689A42D0
:1052A00003D9BB689A68BB685A613B695A017B693C
:1052B000134403F5106319463B695A017B69134493
:1052C00003F510631B6943F400230B613B695A012A
:1052D0007B69134403F5106319463B695A017B69E6
:1052E000134403F510631A69BB685B69C3F31203C7
:1052F00013430B61FB79012B1FD1BB681B69002B8A
:1053000009D03B695A017B69134403F510631A46BF
:10531000BB681B6953613B695A017B69134403F500
:10532000106319463B695A017B69134403F5106306
:105330001B6843F004430B609AE03B695A017B69A8
:10534000134403F5106319463B695A017B69134402
:1053500003F510631B6843F004430B60BB685B6993
:10536000002B00F085807B6903F5006318467B699C
:1053700003F500635A6BBB681B7803F00F03012130
:1053800001FA03F31343436372E03B695A017B69FB
:10539000134403F5306319463B695A017B69134492
:1053A00003F530631B69DB0CDB040B613B695A01BD
:1053B0007B69134403F5306319463B695A017B69E5
:1053C000134403F530631B6923F0FF5323F4C01328
:1053D0000B61BB685B69002B03D0BB689A68BB6834
:1053E0005A613B695A017B69134403F530631946DE
:1053F0003B695A017B69134403F530631B6943F42D
:1054000000230B613B695A017B69134403F5306348
:1054100019463B695A017B69134403F530631A69E5
:10542000BB689B68C3F3120313430B61FB79012B29
:105430000DD1BB68DB68002B09D03B695A017B6941
:10544000134403F530631A46BB68DB6853613B695C
:105450005A017B69134403F5306319463B695A01CD
:105460007B69134403F530631B6843F004430B600E
:10547000002318461C37BD4680BC704780B489B0F5
:1054800000AFF860B96011461A460B46FB7113462F
:10549000BB80FB687B61BB68FB6197F82830002B01
:1054A0001AD1BB8803339B083B610023BB610FE02B
:1054B000FB791A037B69134403F580531A46FB6991
:1054C0001B681360FB690433FB61BB690133BB617B
:1054D000BA693B699A42EBD3002318462437BD468C
:1054E00080BC704780B489B000AFF860B9601346E3
:1054F000FB80FB687B61BB68FB61FB8803339B0817
:105500003B610023BB610BE07B6903F580531A68A4
:10551000FB691A60FB690433FB61BB690133BB6142
:10552000BA693B699A42EFD3FB6918462437BD46F6
:1055300080BC704780B485B000AF786039607B680C
:10554000FB603B681B78BB603B685B78012B2ED10E
:10555000BB685A01FB68134403F510631B68002BFA
:1055600013DBBB68002B10D0BB685A01FB681344E7
:1055700003F510631946BB685A01FB68134403F531
:1055800010631B6823F080430B60BB685A01FB6803
:10559000134403F510631946BB685A01FB681344B2
:1055A00003F510631B6843F400130B602DE0BB6828
:1055B0005A01FB68134403F530631B68002B13DBAF
:1055C000BB68002B10D0BB685A01FB68134403F57D
:1055D00030631946BB685A01FB68134403F5306316
:1055E0001B6823F080430B60BB685A01FB681344BF
:1055F00003F530631946BB685A01FB68134403F591
:1056000030631B6843F400130B6000231846143703
:10561000BD4680BC704700BF80B485B000AF7860E5
:1056200039607B68FB603B681B78BB603B685B78DC
:10563000012B2AD1BB685A01FB68134403F51063A0
:105640001946BB685A01FB68134403F510631B68D5
:1056500023F400130B603B68DB78032B03D03B681B
:10566000DB78022B3BD1BB685A01FB68134403F57E
:1056700010631946BB685A01FB68134403F51063B5
:105680001B6843F080530B6029E0BB685A01FB683C
:10569000134403F530631946BB685A01FB68134491
:1056A00003F530631B6823F400130B603B68DB7861
:1056B000032B03D03B68DB78022B10D1BB685A0167
:1056C000FB68134403F530631946BB685A01FB6855
:1056D000134403F530631B6843F080530B600023D1
:1056E00018461437BD4680BC704700BF80B485B0F3
:1056F00000AF78600B46FB707B68FB60FB6803F5CE
:1057000000631A46FB6803F500631B6823F4FE631D
:105710001360FB6803F500631946FB6803F500633B
:105720001A68FB781B0103F4FE6313430B6000232C
:1057300018461437BD4680BC704700BF80B584B0A2
:1057400000AF78607B68FB60FB6803F500631A4676
:10575000FB6803F500635B6823F0020353600320DA
:10576000FAF79CFF002318461037BD4680BD00BFE6
:1057700080B584B000AF78607B68FB60FB6803F5A0
:1057800000631A46FB6803F500635B6843F002039D
:1057900053600320FAF782FF002318461037BD46F6
:1057A00080BD00BF80B485B000AF78607B685B6966
:1057B000FB607B689B69FA681340FB60FB681846D6
:1057C0001437BD4680BC704780B485B000AF7860A8
:1057D0007B68FB60FB6803F500639B69BB60FB684B
:1057E00003F50063DB69BA681340BB60BB681B0C40
:1057F00018461437BD4680BC704700BF80B485B0E2
:1058000000AF78607B68FB60FB6803F500639B6911
:10581000BB60FB6803F50063DB69BA681340BB60DB
:10582000BB689BB218461437BD4680BC704700BFAA
:1058300080B485B000AF78600B46FB707B68FB607E
:10584000FB785A01FB68134403F530639B68BB6027
:10585000FB6803F500635B69BA681340BB60BB6813
:1058600018461437BD4680BC704700BF80B487B06F
:1058700000AF78600B46FB707B687B617B6903F54A
:1058800000631B693B617B6903F500635B6BFB6035
:10589000FB7803F00F03FA6822FA03F3DB01DBB2B3
:1058A0003A6913433B61FB785A017B69134403F562
:1058B00010639A683B691340BB60BB6818461C378D
:1058C000BD4680BC704700BF80B483B000AF786035
:1058D0007B685B6903F0010318460C37BD4680BC4A
:1058E000704700BF80B485B000AF78607B68FB6014
:1058F000FB6803F510631A46FB6803F510631B6829
:1059000023F4FF6323F007031360FB6803F50063D0
:105910001A46FB6803F500635B6843F480735360C9
:10592000002318461437BD4680BC704780B487B04A
:1059300000AFF8600B467A60FB72FB687B61FB6826
:105940003C3304331B683B613B69264A934207D9C9
:105950007B6903F530631B68002B01DA00233BE011
:105960007B6903F530631A46002313617B6903F5F5
:1059700030631A467B6903F530631B6943F40023E7
:1059800013617B6903F530631A467B6903F5306365
:105990001B6943F0180313617B6903F530631A46F2
:1059A0007B6903F530631B6943F0C0431361FB7AE5
:1059B000012B10D17B6903F530631A467B68536174
:1059C0007B6903F530631A467B6903F530631B6816
:1059D00043F080231360002318461C37BD4680BC6B
:1059E000704700BF0A30544F80B485B000AF786074
:1059F0000023FB60FB680133FB60FB68124A9342A3
:105A000001D903231BE07B681B69002BF2DA00231A
:105A1000FB607B681B6943F001027B681A61FB68CD
:105A20000133FB60FB68084A934201D9032306E077
:105A30007B681B6903F00103002BF0D1002318469B
:105A40001437BD4680BC7047400D030080B584B05C
:105A500000AF78600B46FB704FF4077002F088FFD0
:105A60000346FB60FB68002B05D17B680022C3F86E
:105A7000BC22022366E07B68FA68C3F8BC227B681C
:105A80001B7C002B19D14FF400730222812178680E
:105A900002F0B4FC7B6801221A874FF400730222E3
:105AA0000121786802F0AAFC7B680122A3F8782122
:105AB0007B681022A3F84E2016E0402302228121A9
:105AC000786802F09BFC7B6801221A87402302223F
:105AD0000121786802F092FC7B680122A3F878210A
